:020000040800F2
:100000000000022051750008890600088B060008D0
:100010008D0600088F060008910600080000000009
:100020000000000000000000000000006155000812
:100030009306000800000000015600080B5100085C
:10004000A1750008A1750008A1750008A175000838
:10005000A1750008A1750008A1750008A175000828
:10006000A1750008A1750008A1750008A175000818
:10007000A1750008A1750008A1750008A175000808
:10008000A1750008A1750008A1750008A1750008F8
:10009000A1750008A1750008A1750008A1750008E8
:1000A000A1750008A1750008A1750008A1750008D8
:1000B000A1750008A1750008A1750008A1750008C8
:1000C000A1750008A1750008A1750008A1750008B8
:1000D000A1750008A1750008A1750008A1750008A8
:1000E000A1750008A175000800000000A1750008B6
:1000F000A1750008A1750008A1750008A175000888
:10010000A1750008A1750008A1750008A175000877
:10011000A1750008A175000895060008A1750008E2
:10012000A1750008A1750008A1750008A175000857
:10013000A1750008A1750008A1750008A175000847
:1001400000000000000000000000000000000000AF
:10015000A1750008A1750008A1750008A175000827
:10016000A1750008A1750008A1750008A175000817
:10017000A1750008A1750008A1750008A175000807
:10018000A1750008A1750008A1750008A1750008F7
:10019000A1750008A1750008A1750008A1750008E7
:1001A000A1750008A1750008A1750008A1750008D7
:1001B000A1750008A1750008A1750008A1750008C7
:1001C000A1750008A1750008A1750008A1750008B7
:1001D000A1750008A5060008A1750008A175000812
:1001E000A1750008A1750008A1750008A175000897
:1001F000A1750008A1750008A1750008A175000887
:10020000A1750008A1750008A1750008A175000876
:10021000A1750008A1750008A1750008A175000866
:10022000A1750008A1750008A17500080000000074
:10023000A1750008A175000800000000A175000864
:10024000A1750008A1750008A1750008A175000836
:10025000A1750008A1750008A1750008A175000826
:10026000A1750008A1750008A1750008A175000816
:10027000A1750008A1750008A17500080000000024
:10028000A1750008A1750008A17500080000000014
:0802900000000000A175000848
:1002A000034613F8012B002AFBD1181A01387047B6
:1002B00001F0FF01102A2BDB10F0070F08D010F817
:1002C000013B013A8B422DD010F0070F42B3F6D11B
:1002D000F0B441EA012141EA014122F007047FF034
:1002E00000070023F0E80256083C85EA010586EA8B
:1002F000010685FA47F5A3FA87F586FA47F6A5FAC7
:1003000087F68EB9EED1F0BC01F0FF0102F00702D2
:1003100032B110F8013B013A83EA010313B1F8D17D
:100320000020704701387047002D06BF354603385E
:10033000073815F0010F07D1013015F4807F02BF97
:10034000013015F4C03F0130F0BC0138704700BFE8
:1003500010B5054C237833B9044B13B10448AFF3FF
:1003600000800123237010BD540100200000000014
:10037000187F000808B5034B1BB103490348AFF3CE
:10038000008008BD0000000058010020187F000810
:1003900030B589B00024039404940594069407941E
:1003A000154BD3F8E02042F01002C3F8E020D3F858
:1003B000E02002F010020192019AD3F8E02042F00E
:1003C0000102C3F8E020D3F8E03003F00103029308
:1003D000029B0A4D22460421284600F09FFB04237D
:1003E0000393012304930594069403A9284600F07F
:1003F00085FA09B030BD00BF004402580010025811
:1004000000B58FB006F032FE00238DF837309DF82E
:1004100037300D4A322101A807F0C4F801A8FFF7D0
:100420003FFF81B201A806F075FE4FF0FF330022B6
:100430000DF137010548006804F09AFF4FF47A7017
:1004400004F0FCFEE3E700BF307F000870010020ED
:1004500000B583B000238DF8073006E000238DF847
:1004600007304FF47A7004F0E9FE4FF0FF330022BA
:100470000DF107010648006804F03AFF9DF80730C7
:100480000133DBB28DF80730092BE7D8E9E700BF6D
:100490007001002008B50268034B9A4200D008BDE5
:1004A00000F09AF9FBE700BF0010004072B6FEE7CB
:1004B00000B59DB04C22002109A807F0A7F8202222
:1004C000002101A807F0A2F8022001F09DF9002305
:1004D00000931E4BDA6A22F00102DA62DB6A03F053
:1004E000010300931A4A936923F4404343F4804381
:1004F0009361936903F440430093009B144B9B6901
:1005000013F4005FFAD02223099301230C934022B5
:100510000D920F930023129309A801F0A7F988B94F
:100520003F230193002302930393049305930693BF
:1005300007930893012101A801F0ECFD20B91DB03B
:100540005DF804FBFFF7B2FFFFF7B0FF00040058AF
:100550000048025808B500F011F9FFF7A9FFFFF7AE
:1005600017FF04F0DFFD0C4A0121042004F074FEA3
:100570000A4B18600A4A00210A4804F001FE0A4B9F
:1005800018600A4A00210A4804F0FAFD094B186075
:1005900004F0DAFDFEE700BFC07F00087001002014
:1005A000FC7F00080104000878010020D87F0008C3
:1005B000510400087401002000B583B00A4BD3F841
:1005C000F42042F00202C3F8F420D3F8F43003F030
:1005D00002030193019B00220F216FF0010000F044
:1005E00079F903B05DF804FB004402580F2801D9E3
:1005F0000120704710B58AB004460022014636201B
:1006000000F068F9362000F075F91A4B1C601A4B9F
:10061000D3F8E82042F01002C3F8E820D3F8E8301D
:1006200003F010030093009B01A902A801F0F0FE63
:10063000079BBBB901F0DAFE0346104AA2FB032375
:100640009B0C013B0E480F4A026040F2E732C26049
:10065000436000230361836002F0F8FE30B10120A3
:100660000AB010BD01F0C2FE4300E6E7044802F004
:1006700059FDF5E70C0000200044025883DE1B43BF
:100680007C01002000100040FEE7FEE7FEE7FEE7E9
:10069000FEE7704708B5024802F090FD08BD00BFB4
:1006A0007C01002008B5024800F06DFD08BD00BFC8
:1006B0001C620020274AD2F8883043F47003C2F845
:1006C0008830254B1B6803F00F03062B06D8224AFF
:1006D000136823F00F0343F0070313601F4B1A68DE
:1006E00042F001021A6000221A6119681C4A0A408D
:1006F0001A60194B1B6813F0080F06D0164A1368CE
:1007000023F00F0343F007031360144B00229A6198
:10071000DA611A62134999621349D962134919635C
:100720005A639963DA6319645A64196821F4802161
:1007300019601A660E4B1B686FF30F03B3F1005F6D
:1007400003D20C4B0122C3F808210B4B43F2D20217
:100750001A60704700ED00E000200052004402588B
:100760007FEDF6EA000202020000FF0180020101B3
:100770000010005C008000510040005210B50320C2
:1007800000F096F801F0CAFB0F498B69C3F303230D
:100790000E4AD35C03F01F03D8408B6903F00F03AC
:1007A000D35C03F01F0320FA03F3094A1360094BDB
:1007B00018600F20FFF71AFF10B10124204610BD6A
:1007C0000446FFF7F9FEF9E70044025820800008CC
:1007D0000000002004000020034B1B78034A11682E
:1007E0000B441360704700BF08000020C8010020C0
:1007F000014B1868704700BFC801002038B5044697
:10080000FFF7F6FF0546B4F1FF3F02D0044B1B781B
:100810001C44FFF7EDFF401BA042FAD338BD00BFD8
:1008200008000020014B1868000C70470010005CA5
:10083000002807DB00F01F02400901239340024A11
:1008400042F82030704700BF00E100E0002804DBE0
:100850000901C9B2044B1954704700F00F00090197
:10086000C9B2024B1954704700E400E014ED00E0F7
:1008700000B500F00700C0F1070CBCF1040F28BF61
:100880004FF0040C031D062B0FD9C31E4FF0FF3E83
:100890000EFA0CF021EA000199400EFA03FE22EA5A
:1008A0000E0241EA02005DF804FB0023EEE70000BF
:1008B0000649CB6823F4E0631B041B0C000200F420
:1008C000E0600343024A1A43CA60704700ED00E04B
:1008D0000000FA0510B50446054BD868C0F30220A5
:1008E000FFF7C6FF01462046FFF7B0FF10BD00BF6F
:1008F00000ED00E008B5FFF79BFF08BDF0B583B041
:1009000000236BE085685E000324B44025EA0405FB
:10091000CC68B4402C438460456825EA0C054C68DB
:10092000C4F300149C402C43446069E0DD080835A2
:1009300050F8254003F0070C4FEA8C0C4FF00F0ED7
:100940000EFA0CFE24EA0E0E0C6904FA0CF444EACA
:100950000E0440F825406BE0092400E0002404FA6E
:100960000EF42C430CF1020C694D45F82C404FF06D
:10097000B0442568D44325EA02064F6817F4801F67
:1009800001D042EA05064FF0B0452E606D6804EADA
:1009900005064F6817F4001F01D042EA05064FF024
:1009A000B0456E60D5F8845004EA05064F6817F428
:1009B000003F01D042EA05064FF0B045C5F884601B
:1009C000D5F880502C404E6816F4803F01D042EAA2
:1009D00005044FF0B042C2F8804001330A6832FA91
:1009E00003F400F092804FF0010C0CFA03FC1CEAB7
:1009F0000202F2D04C6804F00304013C012C81D9BE
:100A00004C6804F00304032C0CD0C4685D004FF064
:100A1000030C0CFA05FC24EA0C0C8C68AC4044EA8C
:100A20000C04C4604C6804F00304022C3FF47EAF55
:100A300004684FEA430E4FF0030C0CFA0EFC24EA54
:100A40000C0C4C6804F0030404FA0EF444EA0C04A1
:100A500004604C6814F4403FBFD02E4CD4F8F450DE
:100A600045F00205C4F8F450D4F8F44004F0020450
:100A70000194019C4FEA930C0CF10205244C54F8AC
:100A8000255003F0030E4FEA8E0E0F2404FA0EF4E5
:100A900025EA0405204CA0423FF460AF04F58064D1
:100AA000A04222D004F58064A04220D004F58064E6
:100AB000A0421ED004F58064A0421CD004F58064DE
:100AC000A0421AD004F58064A04218D004F58064D6
:100AD000A04216D004F58064A04214D004F58064CE
:100AE000A0423FF439AF0A2439E7012437E7022452
:100AF00035E7032433E7042431E705242FE70624F0
:100B00002DE707242BE7082429E703B0F0BD00BF39
:100B10000004005800440258000002580AB18161E4
:100B200070470904816170472DE9F04383B0D0F824
:100B3000008001EBC10300EB83039A6A5B6A9A426F
:100B400054D807460C469B1A01EBC10200EB820207
:100B5000D2699A4200D31A4602F103094FEA990971
:100B600015E006F103094FEA9909BB7904EBC405C6
:100B700007EB8505296A0093B3B2E2B2404602F062
:100B8000D0FF2B6A33442B62AB6A3344AB6208EB71
:100B9000441303F510639B699BB24B4512D304EBDE
:100BA000C40307EB83039A6A5B6A9A420AD24BB189
:100BB0009B1A04EBC40207EB8202D6699E42D0D393
:100BC0001E46CEE704EBC40307EB83077A6ABB6AD1
:100BD0009A420FD804F00F040122A240D8F834380A
:100BE00023EA0203C8F83438002000E0012003B0F3
:100BF000BDE8F0830020FAE730B583B000287AD052
:100C0000044690F89534ABB1032384F895342068FA
:100C100002F03EFD237C8DF80030231D0ECB2068B2
:100C200002F06CFC58B1022384F895340125284663
:100C300003B030BD80F8943406F01CFBE4E70021DB
:100C4000206803F07EF9024608B9034617E0022344
:100C500084F895340125EAE703EBC30104EB810135
:100C6000012048750B75CB8500200876C8610862A5
:100C700003EBC30104EB810148620133DBB220794D
:100C80009842E9D816E002EBC20304EB830300218B
:100C900083F8551283F8542283F85812C3F85C1273
:100CA000C3F8601202EBC20304EB8303C3F86412BF
:100CB0000132D2B29042E6D8237C8DF80030231D59
:100CC0000ECB206802F03AFD054658B90023637444
:100CD000012384F89534237B012B08D0206803F08E
:100CE000EFF8A4E7022384F8953401259FE7204616
:100CF00000F074FDF2E7012599E7036890F8942469
:100D0000012A1AD010B50446012280F89424DA682A
:100D100012F0400F02D0427B012A09D0206802F075
:100D2000B1FC206803F0BEF8002084F8940410BDE4
:100D30009A6B42F480329A63F0E702207047000019
:100D400070B504460D460068066C00EB411303F5D0
:100D500030639A68A179012911D038498E4256D062
:100D60003DB905EBC50304EB8303D3F86432002BD4
:100D70005ED0E9B2204606F0DFFA002070BD12F026
:100D8000080F09D02E498E42F7D912F4004FF4D043
:100D90004FF400429A60F0E712F0200F02D02022B8
:100DA0009A60EAE712F0280FE7D125498E4206D96A
:100DB00012F4004F03D04FF400429A60DDE705EBD8
:100DC000C50204EB8202D2F874121B69C3F312034A
:100DD000CB1AC2F868327DB905EBC50204EB82027A
:100DE000D2F864226AB105EBC50204EB8202D2F8A4
:100DF00060121944C2F86012E9B2204606F09CFA6B
:100E0000BBE704F29C42012103F0DAF8F4E712F4A4
:100E1000004F03D04FF400429A60AEE712F0200F6B
:100E200001D020229A60E9B2204606F085FAA4E7B4
:100E300004F29C42002103F0C3F89AE70A31544FB0
:100E40000A30544F38B5044603681D6C03EB411358
:100E5000D3F8081B0E4A954207D903F5306311F405
:100E6000004F02D04FF400429A60204606F05CFA30
:100E7000074B9D4202D9A379012B01D0002038BD38
:100E800004F29C420121206803F09AF8F6E700BFC3
:100E90000A30544F90F89434012B0CD010B504460E
:100EA000012380F894344174006802F0EBFF0020C5
:100EB00084F8940410BD0220704738B505468C466E
:100EC00011F0800F29D101F00F0E0EEBCE04A4001B
:100ED00004F514740444211D0EEBCE0E00EB8E0EAF
:100EE00000208EF855020CF00F0C81F800C08A60CB
:100EF0000B714A780AB1A1F81AC0022B1CD095F8E0
:100F00009434012B1BD0012385F89434286802F017
:100F1000EDFC002085F8940438BD01F00F0000EBD3
:100F2000C001890010312944043100EBC00005EBF9
:100F3000800001244475D6E700234B71DFE70220CF
:100F4000EAE710B504460A4611F0800F20D101F0FF
:100F50000F0000EBC0039B0003F514732344191D1D
:100F600000EBC00004EB8000002380F8553202F053
:100F70000F020A7094F89434012B18D0012384F8DE
:100F80009434206802F0FEFC002084F8940410BD24
:100F900001F00F0000EBC0039B0010332344191D28
:100FA00000EBC00004EB800001234375DFE7022063
:100FB000EDE710B5144601F00F0C0CEBCC018900E5
:100FC00001F51471014404310CEBCC0E00EB8E0ED4
:100FD000CEF86022CEF864320023CEF868328EF864
:100FE00055328EF854C28279012A04D0006802F08A
:100FF000AFFD002010BDCEF87042F7E701F00F0101
:1010000001EBC10100EB8100D0F86802704710B518
:10101000144601F00F0C0CEBCC0189001031014497
:1010200004310CEBCC0E00EB8E0ECEF82020CEF867
:1010300024300023CEF8283001238EF815308EF8A6
:1010400014C082799A4204D0006802F081FD002029
:1010500010BDCEF83040F7E738B501F00F05027942
:10106000AA4238D304460B4611F0800F1FD101EB82
:10107000C101890001F514710144043103EBC3037C
:1010800000EB8303002283F8552201238B700D703F
:1010900094F89434012B20D0012384F894342068F0
:1010A00002F095FE85B1002084F8940438BD05EB6C
:1010B000C501890010310144043105EBC50300EB83
:1010C000830301225A75E0E704F29C42A17920686B
:1010D00002F076FFE7E70120E8E70220E6E701F00B
:1010E0000F0302799A4230D310B5044611F0800FF5
:1010F0001ED103EBC301890001F5147101440431D1
:1011000003EBC30200EB8202002082F855020022AA
:101110008A700B7094F89434012B18D0012384F852
:101120009434206802F080FE002084F8940410BDFE
:1011300003EBC301890010310144043103EBC30206
:1011400000EB820201205075E1E701207047022088
:10115000EDE708B511F0800F0CD101F00F0101EBA4
:10116000C101890001F5147101440431006802F0E5
:1011700079FC08BD01F00F0101EBC10189001031BC
:1011800001440431F2E72DE9F04F83B004460568CD
:10119000284602F0D2FE10B103B0BDE8F08F06463B
:1011A000206802F09BFE0028F6D005F50067BB68BA
:1011B000C3F30D23C4F8D434206802F08FFE10F07E
:1011C000020F04D02268536903F0020353612068C0
:1011D00002F084FE10F0100F16D02268936923F0FD
:1011E00010039361D5F8208008F00F0908F4F0137C
:1011F000B3F5802F6AD0B3F5402F00F08D802268C0
:10120000936943F010039361206802F067FE10F4C5
:10121000002F40F09380206802F060FE10F4802FD1
:1012200040F0FC80206802F059FE0028C0F27D8169
:10123000206802F053FE10F4006F09D0BB6813F071
:10124000010F40F08A812268536903F400635361FF
:10125000206802F043FE10F0006F15D02268536939
:1012600003F00063536194F8CC34002B40F0798193
:10127000012184F8CC1423685B6DC3F38303C4F8A5
:10128000D034204600F0BEFA206802F027FE10F4A9
:10129000805F40F06A81206802F020FE10F4005F59
:1012A00040F0B681206802F019FE10F0080F40F0FF
:1012B000C781206802F012FE10F0800F00F0DA8182
:1012C000AB6923F08003AB610126C3E147F6F073FD
:1012D00018EA030F93D04FEA181A4FEAC903019393
:1012E00009EBC90B04EB8B0BC8F30A12DBF8601295
:1012F000284602F049FDDBF86032CAF30A0A53447B
:10130000CBF86032DBF86832019A4A4404EB82027F
:101310005344C2F8683272E7082204F29C4128461E
:1013200002F032FD09EBC90304EB8303D3F8682212
:10133000C8F30A184244C3F8682260E7206802F044
:10134000D1FD8046B14635E005EB49130122C3F8D3
:10135000082B49462046FFF7F3FC3CE005EB491318
:101360000822C3F8082B49462046FFF76BFD35E0FD
:1013700009EBC90304EB830393F85732012B41D0E7
:1013800005EB49130222C3F8082B1AF0200F04D0F2
:1013900005EB49132022C3F8082B1AF4005F05D08F
:1013A00005EB49134FF40052C3F8082B09F101096A
:1013B0004FEA5808B8F1000F3FF42DAF18F0010FB5
:1013C000F4D05FFA89FB5946206802F09BFD824603
:1013D00010F0010FB8D11AF0080FBFD11AF0100F9A
:1013E00004D005EB49131022C3F8082B1AF0020FA2
:1013F000CBD06B6913F0800FBAD07B6843F4806365
:101400007B60B5E709EBC90304EB8303002283F893
:1014100057225946204605F0DFFFB1E7206802F069
:1014200069FD8046B14625E05946204605F090FF0B
:101430001AF0080F04D005EB49130822C3F8082955
:101440001AF0100F04D005EB49131022C3F8082935
:101450001AF0400F04D005EB49134022C3F80829C5
:101460001AF0020F40D11AF0800F59D109F1010989
:101470004FEA5808B8F1000F3FF4D4AE18F0010F4E
:10148000F4D05FFA89FB5946206802F044FD824699
:1014900010F0010FCCD009F00F02012101FA02F285
:1014A0007B6B23EA02037B6305EB4913C3F808193E
:1014B000A3798B42B8D109EBC90304EB83031A6A01
:1014C000D9690A441A62B9F1000FADD109EBC90319
:1014D00004EB83035B6A002BA6D104F29C4201213A
:1014E000206802F06DFD9FE74946284602F0D6F8D5
:1014F00009EBC90304EB8303DB7D012B05D005EB6E
:1015000049130222C3F80829ADE709EBC90304EB2C
:1015100083030022DA755946204605F063FFEEE7A3
:1015200049462046FFF700FBA0E77B6823F0010354
:101530007B6094F8CC34012B08D0204605F046FFA0
:101540002268536903F00043536171E6002184F877
:10155000CC14204600F056F9F2E7204605F01EFFB5
:1015600071E6204605F01AFF8EE67B6823F0010342
:101570007B601021206802F091F81AE005EB461319
:101580004FF67F31C3F80819D3F8002922F400126E
:10159000C3F80029C3F8081BD3F8002B22F400126B
:1015A000C3F8002BD3F8002B42F00062C3F8002BE5
:1015B00001362379B342E1D8FB6943F00113FB61A3
:1015C000E37BDBB1D7F8843043F00B03C7F88430FA
:1015D0007B6C43F00B037B64D5F8003823F4FE6387
:1015E000C5F8003804F29C42A179206802F0E8FCBA
:1015F0002268536903F4805353614CE67A6942F2DE
:101600002B0313437B613B6943F00B033B61E3E72F
:10161000206802F0C7FC206802F056F9E0712668E5
:1016200000F0C2FE0146E279304601F0B9FF2046E3
:1016300005F09FFE2268536903F40053536131E6BD
:10164000204605F090FE2268536903F008035361B9
:101650002FE601362379B3420CD906EBC60304EB1F
:10166000830393F85732012BF3D1F1B22046FFF7F1
:1016700070FDEEE7206802F031FC10F4801F25D1E8
:10168000206802F02BFC10F4001F59D0012326E043
:1016900001362379B3421BD905EB4613D3F8002951
:1016A00006EBC60304EB83031B7E012BF0D1002A5B
:1016B000EEDA06EBC60304EB83030122DA7566F06B
:1016C0007F01C9B22046FFF744FDE1E70126E0E7CC
:1016D0002268536903F480135361D1E701332279FF
:1016E0009A4228D905EB4312D2F8001B03EBC30240
:1016F00004EB820292F85822012AEFD10029EDDA98
:1017000001F48031D4F8D42402F001029142E5D1F1
:1017100003EBC30204EB8202012182F85712AA698B
:1017200042F08002AA616A6912F0800FD6D17B680C
:1017300043F400737B602268536903F40013536120
:10174000206802F0CBFB10F0804F10D1206802F02F
:10175000C5FB10F0040F3FF41FAD23685D6815F062
:10176000040F0DD1226853682B43536014E52046C3
:1017700005F03EFE2268536903F080435361E5E7BC
:10178000204605F03BFEEDE710B40468606A31B90D
:1017900040EA0240A06200205DF8044B70478C468E
:1017A000A36A00EB1340002308E003F1400104EBBF
:1017B0008101496800EB11400133DBB20CF1FF31CC
:1017C0008B42F2D340EA02400CF13F0104EB81046A
:1017D0006060E0E7036859620020704703460268D2
:1017E0000121C0F8D814002083F8CC04936943F099
:1017F00000639361516D024B0B435365704700BF0B
:101800000300001070470000134BDB6813F0040F57
:1018100007D1114BDB6803F0070383421AD0012084
:10182000704710B50C4AD36823F007030343D36015
:10183000FEF7DEFF0446084B5B6813F4005F07D138
:10184000FEF7D6FF001BB0F57A7FF4D9012000E047
:10185000002010BD0020704700480258024AD3689B
:1018600043F08073D360704700480258002800F0AE
:10187000398338B50446036813F0010F25D0944A24
:10188000136903F03803926A102B15D0182B0FD070
:101890006368B3F5803F3FD0002B53D18C4B1A685F
:1018A00022F480321A601A6822F480221A6038E02A
:1018B00002F00302022AEBD1854B1B6813F4003FB0
:1018C00003D06368002B00F00F83236813F0020F2E
:1018D00000F0A1807E4A1369926A13F038035AD04F
:1018E000182B55D0E368002B00F0DE8078490A6899
:1018F00022F0190213430B60FEF77AFF0546744B82
:101900001B6813F0040F40F0AD80FEF771FF401B21
:101910000228F4D90320EEE26D4A136843F48033C1
:10192000136063682BB3FEF763FF0546684B1B68C3
:1019300013F4003FC9D1FEF75BFF401B6428F5D9C3
:101940000320D8E2B3F5A02F09D0614B1A6822F426
:1019500080321A601A6822F480221A60E1E75C4B38
:101960001A6842F480221A601A6842F480321A60BF
:10197000D7E7FEF73DFF0546554B1B6813F4003FC4
:10198000A3D0FEF735FF401B6428F5D90320B2E24F
:1019900012F0030FA6D14E4B1B6813F0040F03D0B7
:1019A000E368002B00F0A282494A136823F0190370
:1019B000E1680B431360FEF71BFF0546444B1B68B1
:1019C00013F0040F06D1FEF713FF401B0228F5D9D0
:1019D000032090E2FEF726FF41F20303984212D85B
:1019E0002269402A07D03A494B6823F47C3343EA02
:1019F00002334B600FE0364A536823F47C3343F4E0
:101A00000033536007E0324A536823F0FE432169F4
:101A100043EA01635360236813F0100F00F08880DD
:101A20002B4A136903F03803926A082B56D0182BFF
:101A300050D0E369002B00F0B880254A136843F0CA
:101A400080031360FEF7D4FE0546214B1B6813F498
:101A5000807F40F08880FEF7CBFE401B0228F4D93F
:101A6000032048E2FEF7DEFE41F20303984212D85B
:101A70002269402A07D016494B6823F47C3343EA95
:101A800002334B60C7E7124A536823F47C3343F4B4
:101A900000335360BFE70E4A536823F0FE432169C9
:101AA00043EA01635360B6E7094A136823F0010370
:101AB0001360FEF79DFE0546054B1B6813F0040FEF
:101AC000A9D0FEF795FE401B0228F5D9032012E2AB
:101AD0000044025802F00302012AAAD1A14B1B685C
:101AE00013F4807F03D0E369802B40F00182FEF77E
:101AF00099FE41F20303984212D8226A202A07D0A5
:101B000098494B6823F0F84343EA82634B600FE047
:101B1000944A536823F0F84343F08043536007E04E
:101B2000904AD36823F07C53216A43EA0163D3606F
:101B3000236813F0080F60D06369002B49D0894AED
:101B4000536F43F001035367FEF752FE0546854B82
:101B50005B6F13F0020F50D1FEF74AFE401B0228C4
:101B6000F5D90320C7E1FEF75DFE41F20303984279
:101B700012D8226A202A07D07A494B6823F0F8430A
:101B800043EA82634B60D3E7764A536823F0F84315
:101B900043F080435360CBE7724AD36823F07C5311
:101BA000216A43EA0163D360C2E76E4A136823F0F7
:101BB00080031360FEF71CFE05466A4B1B6813F496
:101BC000807FB5D0FEF714FE401B0228F5D9032014
:101BD00091E1644A536F23F001035367FEF708FE57
:101BE0000546604B5B6F13F0020F06D0FEF700FE58
:101BF000401B0228F5D903207DE1236813F0200F54
:101C000029D0A3699BB1574A136843F480531360EA
:101C1000FEF7EEFD0546534B1B6813F4005F1AD127
:101C2000FEF7E6FD401B0228F5D9032063E14D4A8B
:101C3000136823F480531360FEF7DAFD0546494B21
:101C40001B6813F4005F06D0FEF7D2FD401B02288C
:101C5000F5D903204FE1236813F0040F21D1636A03
:101C6000002B00F047813F4A126902F03802182A1F
:101C700000F0EE80022B79D03A4A136823F080738B
:101C80001360FEF7B5FD0446364B1B6813F0007F6A
:101C900000F0DC80FEF7ACFD001B0228F4D9032025
:101CA00029E1314A136843F480731360FEF7A0FD05
:101CB00005462D4B1B6813F4807F06D1FEF798FD77
:101CC000401B6428F5D9032015E1A368012B0AD035
:101CD0000BBB244B1A6F22F001021A671A6F22F015
:101CE00004021A6704E01F4A136F43F001031367ED
:101CF000A36833B3FEF77CFD05461A4B1B6F13F048
:101D0000020FACD1FEF774FD401B41F288339842BC
:101D1000F3D90320EFE0052B09D0124B1A6F22F004
:101D200001021A671A6F22F004021A67E0E70D4BEE
:101D30001A6F42F004021A671A6F42F001021A6722
:101D4000D6E7FEF755FD0546064B1B6F13F0020F55
:101D500085D0FEF74DFD401B41F288339842F3D900
:101D60000320C8E00044025800480258694A13683A
:101D700023F080731360FEF73BFD0546654B1B683F
:101D800013F0007F06D0FEF733FD401B0228F5D983
:101D90000320B0E05F4B996A5F4A0A40A16AE06A9B
:101DA00041EA00110A439A62226B013AC2F3080227
:101DB000616B0139490289B20A43A16B01390904F7
:101DC00001F4FE010A43E16B0139090601F0FE410D
:101DD0000A431A63DA6A22F00102DA625A6B6FF37D
:101DE000CF02A16C42EAC1025A63DA6A22F00C0205
:101DF000216C0A43DA62DA6A22F00202616C0A4359
:101E0000DA62DA6A42F48032DA62DA6A42F4003282
:101E1000DA62DA6A42F48022DA62DA6A42F00102B5
:101E2000DA621A6842F080721A60FEF7E1FC04463A
:101E3000384B1B6813F0007F06D1FEF7D9FC001B5E
:101E40000228F5D9032056E0002054E0002052E09B
:101E5000304A916A106B012B4ED001F00303A26A45
:101E600093424BD1C1F30511E36A994248D1C0F3C3
:101E70000802236B013B9A4244D1C0F34622636BB4
:101E8000013B9A4240D1C0F30642A36B013B9A4208
:101E90003CD1C0F30660E36B013B984238D11D4B47
:101EA0005B6BC3F3CC03A26C9A4201D1002022E009
:101EB000184AD36A23F00103D362FEF799FC054662
:101EC000FEF796FCA842FBD0124A536B6FF3CF0388
:101ED000A16C43EAC1035363D36A43F00103D362A5
:101EE000002008E001207047012004E0012002E00A
:101EF000012000E0002038BD0120FCE70120FAE7C6
:101F00000120F8E70120F6E70120F4E70120F2E7DD
:101F10000120F0E7004402580CFCFFFF754B1B69E1
:101F200003F03803102B00F0DE80182B0FD0002BAD
:101F300040F0DB806F4B1B6813F0200F00F0D78060
:101F40006C4B1B68C3F3C1036B48D840704710B497
:101F5000684B9A6A02F003029C6AC4F30510D96ABE
:101F600001F001015B6BC3F3CC0301FB03F307EE4C
:101F7000903AF8EE677A14F47C7F77D0012A4AD041
:101F8000022A76D0002A40F091805A4B1B6813F049
:101F9000200F23D057490A68C2F3C102564BD340E1
:101FA00007EE103AF8EE476A07EE100AB8EE476AF5
:101FB00086EE867A0B6BC3F3080306EE903AF8EED2
:101FC000666A9FED4E6A67EE867A76EEA77AF7EE3E
:101FD000006A77EEA67A27EE277A38E007EE100A35
:101FE000F8EE476A9FED466A86EE267A414B1B6BF8
:101FF000C3F3080306EE903AF8EE666A9FED3F6A77
:1020000067EE867A76EEA77AF7EE006A77EEA67A22
:1020100027EE277A1BE007EE100AF8EE476A9FEDDD
:10202000396A86EE267A334B1B6BC3F3080306EE40
:10203000903AF8EE666A9FED316A67EE867A76EE40
:10204000A77AF7EE006A77EEA67A27EE277A294B71
:102050001B6BC3F34623013307EE903AF8EE677A21
:10206000C7EE276AFCEEE67A17EE900A5DF8044B9D
:10207000704707EE100AF8EE476A9FED236A86EE76
:10208000267A1C4B1B6BC3F3080306EE903AF8EE5E
:10209000666A9FED1A6A67EE867A76EEA77AF7EEA1
:1020A000006A77EEA67A27EE277AD0E707EE100AC5
:1020B000F8EE476A9FED136A86EE267A0D4B1B6B8E
:1020C000C3F3080306EE903AF8EE666A9FED0B6ADA
:1020D00067EE867A76EEA77AF7EE006A77EEA67A52
:1020E00027EE277AB3E70948704709487047024846
:1020F000704700BF004402580090D0030000003930
:102100000024744C0024744A20BCBE4B40787D01EE
:1021100000093D00002800F0328170B50D460446EC
:102120009B4B1B6803F00F038B420BD2984A13683A
:1021300023F00F030B431360136803F00F038B426C
:1021400040F01F81236813F0040F0CD02269914BDB
:102150009B6903F070039A4205D98E498B6923F07D
:1021600070031A438A61236813F0080F0CD0626968
:10217000884BDB6903F070039A4205D98549CB6926
:1021800023F070031A43CA61236813F0100F0CD0B8
:10219000A269804BDB6903F4E0639A4205D97D496B
:1021A000CB6923F4E0631A43CA61236813F0200F5C
:1021B0000CD0E269774B1B6A03F070039A4205D991
:1021C00074490B6A23F070031A430A62236813F000
:1021D000020F0CD0E2686F4B9B6903F00F039A4229
:1021E00005D96C498B6923F00F031A438A61236870
:1021F00013F0010F41D0674A936923F47063A1681B
:102200000B4393616368022B0AD0032B27D0012B69
:102210002CD0604A126812F0040F06D10120ADE004
:10222000126812F4003F00F0AE805A490A6922F0A9
:10223000070213430B61FEF7DBFA0646554B1B6999
:1022400003F038036268B3EBC20F16D0FEF7D0FA82
:10225000801B41F288339842F0D903208EE04D4A2A
:10226000126812F0007FE0D1012087E0494A12682D
:1022700012F4807FD9D1012080E0236813F0020F8F
:102280000CD0E268434B9B6903F00F039A4205D2DE
:1022900040498B6923F00F031A438A613C4B1B684A
:1022A00003F00F03AB420AD9394A136823F00F0336
:1022B0002B431360136803F00F03AB4265D123680F
:1022C00013F0040F0CD02269324B9B6903F07003AA
:1022D0009A4205D22F498B6923F070031A438A6111
:1022E000236813F0080F0CD062692A4BDB6903F0F6
:1022F00070039A4205D22749CB6923F070031A4331
:10230000CA61236813F0100F0CD0A269214BDB695E
:1023100003F4E0639A4205D21E49CB6923F4E063DB
:102320001A43CA61236813F0200F0CD0E269194BDD
:102330001B6A03F070039A4205D216490B6A23F018
:1023400070031A430A62FFF7E9FD12498B69C3F370
:102350000323114AD35C03F01F03D8408B6903F0B9
:102360000F03D35C03F01F0320FA03F30B4A13603F
:102370000B4B18600B4B1868FEF738F970BD012045
:1023800070470120FAE70120F8E70120F6E700BFD7
:102390000020005200440258208000080000002065
:1023A000040000200C00002008B5FFF7B7FD0B4A21
:1023B0009369C3F303230A49CB5C03F01F0320FA9C
:1023C00003F3926902F00F02885C00F01F0023FA09
:1023D00000F0044A1060044A136008BD004402582B
:1023E00020800008000000200400002008B5FFF74E
:1023F000DBFF054BDB69C3F30213044AD35C03F034
:102400001F03D84008BD00BF0044025820800008C8
:102410003F230360114B1A6902F0070242609A6978
:1024200002F4706282609A6902F00F02C2609A69D7
:1024300002F070020261DA6902F070024261DA6948
:1024400002F4E06282611B6A03F07003C361044B13
:102450001B6803F00F030B60704700BF0044025875
:1024600000200052404B9B6A03F00303032B79D0FA
:1024700070B505460E463C4A136823F0806313602E
:10248000FEF7B6F90446384B1B6813F0006F06D010
:10249000FEF7AEF9031B022BF5D9032070BD324BBA
:1024A0009A6A22F47C32296842EA01329A626A68A6
:1024B000013AC2F30802A9680139490289B20A4304
:1024C000E9680139090401F4FE010A432969013967
:1024D000090601F0FE410A439A63DA6A22F0C0025B
:1024E00069690A43DA62DA6A22F02002A9690A43BA
:1024F000DA62DA6A22F01002DA62DA6B6FF3CF0284
:10250000E96942EAC102DA63DA6A42F01002DA6289
:10251000C6B91A46DB6A43F40023D362124A136831
:1025200043F080631360FEF763F904460E4B1B68AB
:1025300013F0006F14D1FEF75BF9001B0228F5D9E8
:102540000320ABE7012E05D0074AD36A43F40013FA
:10255000D362E3E7044AD36A43F48013D362DDE72E
:1025600000209BE70120704700440258404B9B6AC3
:1025700003F00303032B79D070B505460E463C4AA1
:10258000136823F080531360FEF732F90446384B8A
:102590001B6813F0005F06D0FEF72AF9031B022B1D
:1025A000F5D9032070BD324B9A6A22F07C722968FB
:1025B00042EA01529A626A68013AC2F30802A968C3
:1025C0000139490289B20A43E9680139090401F471
:1025D000FE010A4329690139090601F0FE410A4357
:1025E0001A64DA6A22F4406269690A43DA62DA6AD2
:1025F00022F40072A9690A43DA62DA6A22F480726C
:10260000DA625A6C6FF3CF02E96942EAC1025A6496
:10261000DA6A42F48072DA62C6B91A46DB6A43F4B7
:102620008003D362124A136843F080531360FEF7AD
:10263000DFF804460E4B1B6813F0005F14D1FEF761
:10264000D7F8001B0228F5D90320ABE7012E05D0EF
:10265000074AD36A43F08073D362E3E7044AD36A3C
:1026600043F40003D362DDE700209BE701207047BD
:1026700000440258F8B50446036813F0006F30D0E8
:10268000836EB3F5001F26D00ED8ABB1B3F5801F13
:1026900007D102210830FFF7E5FE054695B12E4629
:1026A00021E0012635461EE0B3F5401F01D100258B
:1026B00008E00126354616E0984AD36A43F4003311
:1026C000D3620025954A136D23F44013A16E0B438A
:1026D0001365002607E002212830FFF747FF054673
:1026E000DCE700263546236813F4807F14D0A36D01
:1026F000042B31D8DFE803F0032229080800874AB9
:10270000D36A43F40033D3624DBB844A136D23F084
:102710000703A16D0B431365236813F4007F38D0C2
:10272000E36D802B4AD01FD833B3402B19D1002141
:1027300004F10800FFF796FE054622E0002104F1AF
:102740000800FFF78FFE0546DEE7002104F12800B0
:10275000FFF70CFF0546D7E701263546DCE72E4696
:10276000DAE70126354614E0C02B0AD0B3F5807FA6
:1027700007D0012635460CE0684AD36A43F400339B
:10278000D36215BB654A136D23F4E073E16D0B430F
:102790001365236813F4806F3CD0D4F8A830B3F5E8
:1027A000800F2FD016D8F3B1B3F5001F0FD1002141
:1027B00004F10800FFF756FE054619E0002104F178
:1027C0002800FFF7D3FE0546DBE72E46E1E70126AA
:1027D00035461FE0B3F5C00F0AD0B3F5000F07D0A0
:1027E0000126354616E04D4AD36A43F40033D362DE
:1027F0007DB94A4A936D23F46003D4F8A8100B43C3
:10280000936507E0002104F12800FFF7AFFE0546BD
:10281000EEE72E46236813F4006F2BD0D4F8AC30CB
:10282000B3F1007F53D00DD8ABB1B3F1807F06D1A7
:10283000002104F10800FFF715FE054610E001260F
:10284000354617E0B3F1407F0AD0B3F1806F07D06F
:10285000012635460EE0314AD36A43F40033D36291
:10286000002D3BD12D4A936D23F0E063D4F8AC10DA
:102870000B439365236813F0007F13D0E36C202B88
:1028800036D030D833B1102B2AD1244AD36A43F43E
:102890000033D3629DBB214AD36C23F03003E16C3B
:1028A0000B43D364236813F4805F47D0236EB3F5E2
:1028B000005F00F08D8027D893B3B3F5805F20D1FF
:1028C000002104F10800FFF7CDFD05462DE00021B1
:1028D00004F12800FFF74AFE0546C1E72E46C9E786
:1028E00001263546DEE7302BD4D001263546D9E720
:1028F000022104F10800FFF7B5FD0546CAE72E46A0
:10290000D0E70126354619E0B3F5405F0DD0B3F5A9
:10291000804F0AD00126354610E000BF004402581F
:10292000774AD36A43F40033D362002D57D1744AF7
:10293000136D23F4E043216E0B431365236813F4F6
:10294000005F17D0636EB3F5003F59D04CD843B148
:10295000B3F5803F45D1012104F10800FFF782FD66
:102960000546002D53D1664A136D23F4E023616EB2
:102970000B431365236813F4804F19D0D4F8B0309B
:10298000B3F1005F54D047D843B1B3F1805F40D179
:10299000012104F10800FFF765FD0546002D4ED129
:1029A000574A936D23F0E043D4F8B0100B4393657E
:1029B000236813F4004F51D0236FB3F1805F40D0F0
:1029C000B3F1005F55D0002B40D00126354645E0DD
:1029D000002104F12800FFF7C9FD0546A5E72E46B2
:1029E000ACE701263546C5E7B3F5802FB9D0B3F57E
:1029F000A02FB6D0B3F5403FB3D001263546B9E796
:102A0000012104F12800FFF7B1FD0546A9E72E4694
:102A1000B0E701263546CBE7B3F1804FBED0B3F126
:102A2000A04FBBD0B3F1405FB8D001263546BFE719
:102A3000012104F12800FFF799FD0546AEE72E4677
:102A4000B6E72F4AD36A43F40033D362C5B92C4AA0
:102A5000136D23F04053216F0B431365236813F06C
:102A6000807F1CD0A36C032B44D8DFE803F0100B4D
:102A70003C10012104F10800FFF7F4FC0546E5E7EE
:102A80002E46EBE71E4AD36A43F40033D362A5BB5C
:102A90001B4AD36C23F00303A16C0B43D36423685C
:102AA00013F4800F2ED1236813F0010F00F0A680DD
:102AB000E36F282B00F2A080DFE803F08E9E9E9E3D
:102AC0009E9E9E9E889E9E9E9E9E9E9E979E9E9E43
:102AD0009E9E9E9E8E9E9E9E9E9E9E9E8E9E9E9E36
:102AE0009E9E9E9E8E00022104F10800FFF7BAFC14
:102AF0000546CCE701263546D1E72E46CFE700BF95
:102B000000440258584A136843F480731360FDF779
:102B10006FFE0746544B1B6813F4807F05D1FDF709
:102B200067FEC01B6428F5D90325002D4AD14F4B01
:102B30001B6FD4F8B420534013F4407F0CD04B4BA0
:102B40001A6F22F44072196F41F480311967196FBE
:102B500021F4803119671A67D4F8B430B3F5807F57
:102B600015D08DBBD4F8B43003F44072B2F5407F79
:102B70001ED03E4A136923F47C5313613B490B6F0B
:102B8000D4F8B420C2F30B0213430B678BE7FDF7B5
:102B90002FFE0746354B1B6F13F0020FE1D1FDF7F7
:102BA00027FEC01B41F288339842F3D90325D8E7AA
:102BB0002E48026922F47C522D4901EA1313134373
:102BC0000361DBE72E466EE72E466CE7012104F138
:102BD0000800FFF747FC0546E5B9244A536D23F08A
:102BE0003803E16F0B43536508E0012104F128002D
:102BF000FFF7BCFC0546EFE701263546236813F0D6
:102C0000020F17D0A36F052B29D8DFE803F00B05BF
:102C1000210B0B0B2E46F1E7012104F10800FFF711
:102C200021FC0546F5B9114A536D23F00703A16F46
:102C30000B435365236813F0040F2CD0D4F8943061
:102C4000052B00F2DC80DFE803F01B15D31B1B1BF8
:102C5000012104F12800FFF789FC0546E2E701267F
:102C60003546E7E72E46E5E700480258004402589B
:102C7000CFFFFF00012104F10800FFF7F3FB054639
:102C8000002D40F0BF80B34A936D23F00703D4F8C2
:102C900094100B439365236813F0200F1DD0D4F8D4
:102CA0009030B3F1005F00F0C18000F2B0804BB112
:102CB000B3F1805F40F0A880002104F10800FFF725
:102CC000D1FB0546002D40F0B880A24A536D23F099
:102CD000E043D4F890100B435365236813F0400F82
:102CE0001DD0D4F89C30B3F5006F00F0BA8000F22C
:102CF000A9804BB1B3F5806F40F0A180002104F1B1
:102D00000800FFF7AFFB0546002D40F0B180914A67
:102D1000936D23F4E053D4F89C100B439365236820
:102D200013F0800F1DD0D4F8A030B3F5804F00F021
:102D3000B38000F2A2804BB1B3F5005F40F09A80FF
:102D4000002104F10800FFF78DFB0546002D40F03F
:102D5000AA80804A936D23F46043D4F8A0100B43FB
:102D60009365236813F0080F0DD0D4F88430B3F5C1
:102D7000805F00F09A80774A536D23F44053D4F873
:102D800084100B435365236813F0100F0DD0D4F853
:102D90009830B3F5807F00F092806E4A936D23F4F3
:102DA0004073D4F898100B439365236813F4002FF5
:102DB00000F09A80D4F8A430B3F5803F00F0898009
:102DC000B3F5003F08D0002B40F08A80002104F1C9
:102DD0000800FFF747FB0546002D40F084805D4A60
:102DE000936D23F44033D4F8A4100B4393657BE038
:102DF000012104F12800FFF7B9FB054640E7012651
:102E0000354648E72E4646E70126354665E7B3F1E5
:102E1000804F3FF457AFB3F1A04F3FF453AFB3F13E
:102E2000405F3FF44FAF0126354656E7022104F1DB
:102E30002800FFF79BFB054644E72E464DE7012699
:102E400035466CE7B3F5805F3FF45EAFB3F5A05F46
:102E50003FF45AAFB3F5406F3FF456AF0126354605
:102E60005DE7022104F12800FFF780FB05464BE7F0
:102E70002E4654E70126354673E7B3F5004F3FF47D
:102E800065AFB3F5204F3FF461AFB3F5C04F3FF4EA
:102E90005DAF0126354664E7022104F12800FFF703
:102EA00065FB054652E72E465BE7022104F1280048
:102EB000FFF75CFB00283FF45EAF01265BE70221D1
:102EC00004F12800FFF752FB00283FF466AF01260B
:102ED00063E7022104F12800FFF748FB05467BE782
:102EE0000126354600E02E46236813F4802F18D0C3
:102EF000D4F88830B3F5001F1FD0B3F5401F07D0BA
:102F0000B3F5801F20D1134AD36A43F40033D36250
:102F1000EDB9104A536D23F44013D4F888100B43D5
:102F20005365236813F4803F2CD0236DA3B1B3F510
:102F3000803F1FD00126354624E0012104F12800FE
:102F4000FFF714FB0546E3E701263546E9E72E4681
:102F5000E7E700BF00440258704AD36A43F40033E5
:102F6000D36275B96D4AD36C23F48033216D0B4362
:102F7000D36407E0022104F10800FFF773FA054665
:102F8000EFE72E46236813F0005F11D1236813F496
:102F9000003F28D0D4F88030B3F5807F14D010D90A
:102FA000B3F5007F15D0B3F5407F12D001261AE0AB
:102FB000022104F12800FFF7D9FA0028E6D0012603
:102FC000E4E733B101260EE0544AD36A43F40033F8
:102FD000D362002D69D1514A536D23F44073D4F864
:102FE00080100B435365236813F4801F06D04B4AAF
:102FF000136D23F00043616F0B431365236813F0D7
:10300000805F07D0454A136923F48043D4F8B81091
:103010000B431361236813F4001F06D03F4A136D5E
:1030200023F08073E16E0B431365236813F0804F28
:1030300009D03A4B1A6922F400421A611A69D4F88D
:10304000BC100A431A612368002B06DA334AD36C9A
:1030500023F04053616D0B43D364236813F4000FD6
:1030600007D02E4A536D23F44003D4F88C100B4341
:103070005365636813F0010F19D1636813F0020FF1
:103080001ED1636813F0040F23D1636813F0080F97
:1030900028D1636813F0100F2DD1636813F0200F4F
:1030A00032D106B101263046F8BD2E469BE70021FD
:1030B00004F10800FFF7D6F90028DED00646DCE769
:1030C000012104F10800FFF7CDF90028D9D0064608
:1030D000D7E7022104F10800FFF7C4F90028D4D093
:1030E0000646D2E7002104F12800FFF73FFA002846
:1030F000CFD00646CDE7012104F12800FFF736FACC
:103100000028CAD00646C8E7022104F12800FFF7CC
:103110002DFA0028C5D00126C5E700BF004402589B
:103120007047000090F83D30DBB2012B3AD102230A
:1031300080F83D300268D36843F00103D360036830
:103140001A4AB3F1804F18BF93421DD0A2F57C42BA
:10315000934219D002F58062934215D002F5806245
:10316000934211D002F5784293420DD0A2F56C4201
:10317000934209D002F59432934205D01A6842F086
:1031800001021A60002070479968094A0A40062A1D
:1031900018BFB2F5803F07D01A6842F001021A60EA
:1031A0000020704701207047002070470000014058
:1031B00007000100704770477047704770B50446BC
:1031C0000368DE681D6915F0020F10D016F0020FBB
:1031D0000DD06FF002021A610123037703689B6927
:1031E00013F0030F64D0FFF7E6FF0023237715F0F9
:1031F000040F12D016F0040F0FD023686FF00402F2
:103200001A610223237723689B6913F4407F55D00A
:103210002046FFF7D0FF0023237715F0080F12D0C8
:1032200016F0080F0FD023686FF008021A6104230C
:1032300023772368DB6913F0030F46D02046FFF79E
:10324000BAFF0023237715F0100F12D016F0100FDD
:103250000FD023686FF010021A61082323772368C8
:10326000DB6913F4407F37D02046FFF7A4FF00232B
:10327000237715F0010F02D016F0010F33D115F4AA
:10328000025F02D016F0800F35D115F4807F02D096
:1032900016F0800F37D115F0400F02D016F0400F16
:1032A00039D115F0200F02D016F0200F3BD170BDA0
:1032B000FFF780FF2046FFF77FFF96E72046FFF7E6
:1032C00079FF2046FFF778FFA5E72046FFF772FF5A
:1032D0002046FFF771FFB4E72046FFF76BFF20465B
:1032E000FFF76AFFC3E723686FF001021A61204607
:1032F000FDF7D0F8C3E723686FF402521A61204645
:1033000000F0D5F8C1E723686FF480721A61204697
:1033100000F0CEF8BFE723686FF040021A61204644
:10332000FFF74BFFBDE723686FF020021A612046CC
:1033300000F0BCF8BBE7000030B503683D4A90429E
:1033400014BF4FF0000E4FF0010EB0F1804F14BFCC
:1033500072464EF00102AAB9374CA04214BF0024B5
:103360000124364DA8420DD064B904F1804404F51F
:103370008234A04214BF0024012405F50065A84250
:1033800000D01CB123F070034C68234312BB2A4ABF
:10339000904214BF00220122284CA0421AD0CAB980
:1033A00002F1804202F58232904214BF00220122D3
:1033B00004F50064A0420DD062B9214A904214BFC6
:1033C0000022012204F59A34A04203D012B91D4A0A
:1033D000904204D123F4407CCB6843EA0C0323F0F1
:1033E00080034A69134303608A68C2620A68826282
:1033F000154A904214BF73464EF0010363B9104B57
:10340000984214BF0023012302F57052904203D06A
:1034100013B90C4B984201D10B690363012343613B
:10342000036913F0010F03D0036923F00103036163
:1034300030BD00BF00000140000800400004004013
:1034400000440140004801400004014060B310B551
:10345000044690F83D3013B3022384F83D302146F2
:1034600051F8040BFFF768FF012384F8483084F813
:103470003E3084F83F3084F8403084F8413084F89E
:10348000423084F8433084F8443084F8453084F87E
:10349000463084F8473084F83D30002010BD80F875
:1034A0003C30FFF73DFED7E701207047704770477B
:1034B000704782B000230193019B01330193019B6C
:1034C000B3F1706F15D80369002BF5DA002301936F
:1034D000036943F001030361019B01330193019BE5
:1034E000B3F1706F08D8036913F0010FF4D1002015
:1034F00000E0032002B070470320FBE784B010B562
:10350000044603A880E80E009DF81130012B1FD15E
:10351000A36B23F48033A363E2681F4B1340E36083
:10352000E36823F44013E3609DF81830012B0AD0C0
:103530002046FFF7BEFF9DF80E30012B1CD0BDE8E2
:10354000104004B07047E36843F48013E360EFE792
:10355000E36843F04003E3602046FFF7AAFF9DF8CD
:10356000153023B9A36B43F48033A363E3E7A36B64
:1035700023F48033A363DEE7E36D9BB2E365E26D82
:10358000064B1343E365A36843F00603A360A368F7
:1035900043F02003A360D2E7BFFFBDFF0000EE03AE
:1035A000022A0AD00922C36823F47053C360C36897
:1035B00043EA8223C36000207047204B0B44204A1B
:1035C000934229D91F4B0B441F4A934226D91F4BC4
:1035D0000B441F4A934223D91E4B0B441E4A93426D
:1035E00020D31E4B0B441E4A93421DD91D4B0B4446
:1035F0001D4A93421AD31D4B0B441D4A934217D3C5
:103600001C4B0B441C4A934214D31C4B0B441C4AC6
:10361000934211D20722C6E70F22C4E70E22C2E767
:103620000D22C0E70C22BEE70B22BCE70A22BAE754
:103630000922B8E70822B6E70622B4E7405327FF7D
:10364000FF340C00401E1BFF3F420F0000DC0BFF4D
:103650007F4F1200808CF9FE20D6130060B6E5FE85
:103660005FE3160000D3CEFE40771B00C05BB3FEC5
:10367000C091210000CA91FE20753800E05459FE27
:10368000E09C4100836843F00103836000207047A1
:10369000836823F0010383600020704782B0002319
:1036A0000193019B01330193019BB3F1706F15D816
:1036B0000369002BF5DA00230193890141F0200111
:1036C0000161019B01330193019BB3F1706F08D835
:1036D000036913F0200FF4D1002000E0032002B0B2
:1036E00070470320FBE782B000230193019B013365
:1036F0000193019BB3F1706F13D80369002BF5DAC6
:103700000023019310230361019B01330193019B6B
:10371000B3F1706F08D8036913F0100FF4D10020D3
:1037200000E0032002B070470320FBE7D0F8003828
:103730001943C0F8001800207047000084B0F8B5A5
:10374000044607A880E80E00002306E003F14002CB
:1037500004EB82020021516001330E2BF6D99DF853
:10376000266006BBD4F8043843F00203C4F80438DA
:10377000A36B23F40013A363236843F04003236087
:10378000236843F0800323600023C4F8003E9DF8C3
:103790002130012B11D19DF81F304BB9002120465B
:1037A000FFF7C4FF0DE0A36B43F40013A363EBE743
:1037B00001212046FFF7BAFF03E003212046FFF76F
:1037C000B5FF10212046FFF769FF054600B101252E
:1037D0002046FFF788FF00B1012504F5006C0023A7
:1037E000CCF81030CCF81430CCF81C300AE0CBB94F
:1037F0004FF00060C2F8000900220A614FF67F32E4
:103800008A6001339DF81C10994210D904EB4312D1
:1038100002F51061D2F800090028E8DB0020C2F8A8
:103820000009E9E74FF09040C2F80009E4E70023FF
:103830000AE0BBB14FF09047C2F8007B0022026162
:103840004FF67F3282600133994210D904EB431264
:1038500002F53060D2F8007B002FEADB0027C2F8C7
:10386000007BEBE74FF00067C2F8007BE6E7DCF88F
:10387000103023F48073CCF810300023A3616FF074
:10388000804363619DF81E301BB9A36943F01003A8
:10389000A361A2690A4B1343A3619DF822301BB1B7
:1038A000A36943F00803A361012E04D02846BDE8B4
:1038B000F84004B07047A269024B1343A361F5E7D7
:1038C00000383C8004000040D0F8083803F00603BC
:1038D000022B04D0062B04D02BB900207047022005
:1038E0007047022070470F207047000010B591F814
:1038F00000C04B78012B21D000F5006ED0F81C38A9
:103900000CF00F040122A24043EA0243C0F81C3825
:1039100000EB4C10D0F8003B13F4004F0CD1D0F862
:10392000002B8B68C3F30A03097943EA81431A43E6
:10393000134B1343C0F8003B002010BDD0F81C28E7
:103940000CF00F0E03FA0EF39BB21343C0F81C38B1
:1039500000EB4C10D0F8003913F4004FECD1D0F844
:1039600000298B68C3F30A03097943EA814343EAD8
:103970008C531A43024B1343C0F80039DCE700BFF5
:103980000080001030B40B784A78012A26D000EB72
:103990004313D3F8002B002A52DBD0F83C480A78B6
:1039A00002F00F024FF0010C0CFA02F224EA02427C
:1039B000C0F83C28D0F81C28097801F00F010CFA57
:1039C00001FC22EA0C42C0F81C28D3F8001B234A51
:1039D0000A40C3F8002B002030BC704700EB4313B3
:1039E000D3F80029002A1EDBD0F83C580A7802F0F0
:1039F0000F02012404FA02F292B225EA0202C0F890
:103A00003C28D0F81C28097801F00F018C40A4B2A2
:103A100022EA0402C0F81C28D3F80019104A0A4010
:103A2000C3F80029D7E7D3F8002942F00062C3F8B1
:103A30000029D3F8002942F08042C3F80029D3E7D7
:103A4000D3F8002B42F00062C3F8002BD3F8002B10
:103A500042F08042C3F8002B9FE700BF0078F3EFED
:103A6000007833EC10B483B0024600230193487809
:103A700001280BD00B7802EB4313D3F8000B00287E
:103A80002DDB002003B05DF8044B70470B7802EB90
:103A90004313D3F80049002C01DB0020F2E7D3F8F0
:103AA000004944F00064C3F800490B7802EB43136B
:103AB000D3F8004944F08044C3F80049019B013326
:103AC0000193019C42F210739C42DBD80B7802EB0D
:103AD0004313D3F80039002BF0DB0020D2E7D3F8F2
:103AE000000B40F00060C3F8000B0B7802EB4313AF
:103AF000D3F8000B40F08040C3F8000B019B01336A
:103B00000193019842F21073984208D80B7802EBA7
:103B10004313D3F8003B002BF0DB0020B2E7012079
:103B2000B0E710B59DF8084084B903334FEA930E0F
:103B30004FF0000C08E000EB023303F5805351F81E
:103B4000044B1C600CF1010CF445F4D3002010BDB3
:103B5000F0B583B00C784B78012B2DD000EB441CD2
:103B60000CF530631D696FF312051D611D696FF35C
:103B7000DC451D61002C40F0C8800C690CB18C68DC
:103B80000C618C680C621D69C4F312042C431C6127
:103B90001C6944F400241C61012A00F0D9800B79CF
:103BA000012B00F0DB80DCF8003B43F00443CCF851
:103BB000003B002003B0F0BD0B6973BB00EB441366
:103BC000D3F810596FF3DC45C3F81059D3F81059E6
:103BD00045F40025C3F81059D3F810596FF31205B6
:103BE000C3F81059012A4ED000EB4414D4F8003920
:103BF00043F00443C4F800390B79012B6CD00B69F6
:103C0000002BD6D0D0F83438097801F00F0101220A
:103C10008A401343C0F83438CBE700EB441303F574
:103C200010631D696FF312051D611D696FF3DC459B
:103C30001D61DCB90E698D68AE4200D90D611D6948
:103C400045F400251D611D690E69C6F3120C45EA95
:103C50000C051D610D79012DC4D11D6925F0C045EC
:103C60001D611D6945F000551D61BBE71E690D69A9
:103C70008F683D44013DB5FBF7F5424F07EAC54566
:103C800035431D61DFE7CB691BB100EB4412C2F87D
:103C900014390B79012B08D000EB4414D4F8003907
:103CA00043F00443C4F8003983E7D0F8083813F42C
:103CB000807F08D100EB4412D2F8003943F0005362
:103CC000C2F80039E8E700EB4412D2F8003943F0BB
:103CD0008053C2F80039DFE7D0F8083813F4807F4A
:103CE0000CD1D4F8003943F00053C4F800390092E5
:103CF0000B8A0A78C968FFF714FF5AE7D4F800392D
:103D000043F08053C4F80039F1E70C6954B91C69D9
:103D10008D68C5F312052C431C611C6944F4002412
:103D20001C6139E78D682C44013CB4FBF5F4A4B266
:103D300004FB05F50D621D69124E06EAC4442C43CE
:103D40001C611C690D6AC5F312052C431C6123E735
:103D5000CA68002A3FF423AF5A6120E7D0F8083838
:103D600013F4807F06D1DCF8003B43F00053CCF81D
:103D7000003B18E7DCF8003B43F08053CCF8003BF5
:103D800011E700BF0000F81F10B5844608464FEA4F
:103D9000920E02F00302002305E00CF58051096841
:103DA00040F8041B01337345F7D37AB10CF5805CFE
:103DB000DCF800400021CBB2DB0024FA03F300F86A
:103DC000013B0131013A92B2002AF4D110BD0B78C7
:103DD0004A78012A14D000EB4310D0F8002B002AB7
:103DE00006DB2BB1D0F8003B23F08043C0F8003B4A
:103DF000D0F8003B43F40013C0F8003B00207047AC
:103E000000EB4310D0F80029002A06DB2BB1D0F8D4
:103E1000003923F08043C0F80039D0F8003943F46A
:103E20000013C0F80039E9E70B784A78012A0ED070
:103E300000EB4310D0F8003B23F40013C0F8003B24
:103E40000B79023BDBB2012B15D90020704700EB48
:103E50004310D0F8003923F40013C0F800390B796F
:103E6000023BDBB2012BF0D8D0F8003943F080538D
:103E7000C0F80039E9E7D0F8003B43F08053C0F8C0
:103E8000003BE2E7D0F8003823F4FE63C0F80038C6
:103E9000D0F80038090101F4FE610B43C0F8003886
:103EA00000207047D0F8003E23F00303C0F8003E26
:103EB000D0F8043823F00203C0F80438002070471B
:103EC000D0F8003E23F00303C0F8003ED0F80438D9
:103ED00043F00203C0F8043800207047426980694B
:103EE00010407047D0F8183800F50060C0691840DD
:103EF000000C7047D0F8183800F50060C069184011
:103F000080B2704700EB4111D1F8082B00F500603A
:103F1000406910407047D0F81028D0F8343801F0CC
:103F20000F0C23FA0CF3DB01DBB2134300EB41105F
:103F300000F51060806818407047406900F001008B
:103F4000704738B50546C36823F0C043C3600129F4
:103F500013D019BBC36843F08043C36000240A2018
:103F6000FCF74CFC0A342846FFF7E7FF08B1C72CE2
:103F7000F5D9C82C14D0002038BDC36843F00053D5
:103F8000C36000240A20FCF739FC0A342846FFF7F6
:103F9000D4FF0128EDD0C72CF4D9EAE70120EBE7E4
:103FA0000120E9E7D0F800396FF30A03C0F80039BF
:103FB000D0F8043843F48073C0F804380020704708
:103FC00010B4046C154B9C4203D9D0F8003B002B75
:103FD00016DB0024C0F8104BD0F8104B44F400243A
:103FE000C0F8104BD0F8104B44F01804C0F8104B38
:103FF000D0F8104B44F0C044C0F8104B012903D056
:1040000000205DF8044B7047C0F8142BD0F8003B3B
:1040100043F08023C0F8003BF2E700BF0A30544F62
:1040200010B5D0F8D43203F1B00250F822408CB170
:1040300000EB820043687BB194F80002FF280DD0AA
:104040009B6894F8012221469847FF2384F80032A8
:10405000002010BD0320FCE70020FAE70020F8E76D
:104060000A230380004870478C000020F8B50646FC
:104070000F4F8221384600F03EFC054601213846AC
:1040800000F039FC04468121384600F034FC0DB1C3
:104090001022AA711CB1402222710022627118B153
:1040A0004022027100224271432333800048F8BD50
:1040B00010000020F8B506460F4F8221384600F068
:1040C0001AFC05460121384600F015FC0446812102
:1040D000384600F010FC0DB11022AA711CB140222C
:1040E00022710022627118B14022027100224271D5
:1040F000432333800048F8BD10000020F8B5064681
:104100000F4F8221384600F0F6FB05460121384664
:1041100000F0F1FB04468121384600F0ECFB0DB1C4
:104120001022AA711CB1002222710222627118B100
:104130000022027102224271432333800048F8BDFD
:104140001000002038B5D0F8D432B03350F82350E6
:1041500095B1044603F0A4F9C5F80C02D4F8D432A2
:10416000B03304EB83046368DB6805F50371D5F8AD
:1041700004029847002038BD0320FCE738B5D0F88A
:10418000C852D0F8D432B03350F8234084B301F091
:104190000F0303EB830200EB820292694AB103EB47
:1041A000C30C05EB8C05ED69B2FBF5FC05FB1C228D
:1041B00092B10023C4F81432D0F8D432B03300EBFB
:1041C000830043681B69ABB10A4604F50471D4F857
:1041D00008029847002038BD03EB830300EB8303FC
:1041E00000249C612346224603F0A2F92046F2E710
:1041F0000320F0E70020EEE7F0B583B0D0F8D4322A
:1042000003F1B00250F8227000228DF80720ADF8BB
:104210000420002F7BD004460D46097811F060067B
:1042200034D0202E6CD1EA882AB311F0800F07D148
:104230006B7887F80032EA883F2A13D8D2B212E0AE
:10424000B03300EB83035B689B6839466878984716
:10425000EA88072A28BF07223946204600F013FFC4
:10426000002651E0402287F801223946204600F01E
:104270001FFF002648E0B03300EB83035B689B68B8
:10428000002229466878984700263DE06F780B2F7A
:1042900031D8DFE807F00639303030303030303098
:1042A000162690F89C32DBB2032B04D0294600F08E
:1042B0005FFB032628E0022201A900F0E4FE3E464F
:1042C00022E090F89C32DBB2032B04D0294600F0A8
:1042D0004FFB032618E001220DF1070100F0D3FE89
:1042E00012E090F89C32DBB2032B0DD0294600F08F
:1042F0003FFB032608E0294600F03AFB032603E0D3
:10430000294600F035FB0326304603B0F0BD0326F6
:10431000FAE738B50446812103F0EAF8002525873D
:104320000121204603F0E4F8A4F8785182212046C8
:1043300003F0DEF8A4F84C50A4F84E50D4F8D43270
:1043400003F1B00254F822209AB1B03304EB830396
:104350005B685B689847D4F8D432B03354F82300D4
:1043600003F0A8F8D4F8D432B03344F82350C4F89A
:10437000BC52002038BD70B504464FF4077003F0FE
:1043800095F8002849D005464FF40772002103F044
:104390003DF9D4F8D432B03344F82350C4F8BC52B9
:1043A000237C002B41D14FF400730222812120464F
:1043B00003F093F8012626874FF40073022231465A
:1043C000204603F08AF8A4F878611023A4F84E3050
:1043D000082303228221204603F07FF80123A4F85A
:1043E0004C300026C5F80462D4F8D432B03304EB64
:1043F00083035B681B689847C5F81462C5F81862A8
:10440000D5F8042262B3257C1DBB4FF40073012153
:10441000204603F095F8284670BDD4F8D432B03366
:10442000002244F823200225F5E7402302228121BF
:10443000204603F052F80126268740230222314607
:10444000204603F04AF8A4F878611023A4F84E300F
:10445000BEE740230121204603F072F80025DAE789
:104460000225D8E739B1D0F8D432B03300EB83005D
:1044700041600020704703207047D0F8D432B03339
:1044800050F823302BB1C3F80812C3F810220020D3
:10449000704703207047D0F8D432B03350F823303F
:1044A0001BB1C3F80412002070470320704708B501
:1044B000D0F8D432B03350F823208AB1D2F8143275
:1044C0000BB1012008BD0123C2F81432D2F810321A
:1044D000C362D2F80822812103F02AF80020F1E714
:1044E0000320EFE710B5D0F8D432B03350F82320D2
:1044F00092B1047C44B94FF40073D2F80422012134
:1045000003F01EF8204610BD4023D2F804220121FA
:1045100003F016F80024F5E70324F3E798B108B593
:1045200003460020C3F8B802C3F8C402C3F8D0029F
:1045300009B1C3F8B412012183F89C121A7018460D
:1045400002F062FF08BD0320704710B582B000235F
:10455000ADF8063089B10446C0F8B812CB6A23B171
:104560000DF106009847C4F8D002D4F8D8320133D0
:10457000C4F8D832002002B010BD0320FBE708B514
:1045800002F0A3FF08BD08B5D0F8B83213B11B681C
:10459000984708BD0020FCE708B5D0F8B8325B6842
:1045A000984700B908BD0320FCE738B5044600F27F
:1045B000AA25284600F0C8F90123C4F89432B4F8BB
:1045C000B032C4F8983294F8AA1201F01F03012BFC
:1045D00007D0022B0AD073B92946204600F09AFB77
:1045E00038BD2946204600F0D0FBF9E72946204691
:1045F00000F00DFCF4E701F08001204602F080FF9E
:10460000EEE7F8B50446012380F89C320023C0F899
:1046100094324360C0F8A43280F8A032D0F8B832A7
:10462000DBB15B68DBB1002198470746C8B940237E
:1046300000221146204602F050FF0126A4F86461D2
:104640004025C4F860512B4600228021204602F00C
:1046500044FFA68425623846F8BD0027E7E7002717
:10466000E5E70327E3E701740020704790F89C32E8
:10467000DBB2042B04D090F89C32DBB280F89D3280
:10468000042380F89C320020704790F89C32DBB203
:10469000042B01D00020704790F89D32DBB280F8E7
:1046A0009C32F7E708B590F89C32DBB2032B01D0BF
:1046B000002008BDD0F8B832002BF9D0DB69002B00
:1046C000F6D09847F4E708B5D0F8D432AE3350F8B6
:1046D00023205AB190F89C32DBB2032B01D000208A
:1046E00008BD136A23B198470020F9E70320F7E7D4
:1046F0000020F5E708B5D0F8D432AE3350F82320C7
:104700005AB190F89C32DBB2032B01D0002008BDD7
:10471000536A23B198470020F9E70320F7E7002008
:10472000F5E70020704708B5012380F89C32D0F8E7
:10473000B83223B15B680179984710B908BD0020F1
:10474000FCE70320FAE7002070470020704738B5E7
:1047500004460D46002942D11346D0F89422032A7C
:1047600001D0084638BDD0F85C11D0F860219142E4
:1047700009D890F8AA3203F01F03012B0ED0022BA8
:104780001BD028460FE0891AC0F85C118A4228BF66
:104790000A46194600F09BFC2846E3E790F8AE1263
:1047A000FFF7D1FF20B994F89C32DBB2032B09D07C
:1047B000204600F094FC2846D4E790F8AE12FFF7AC
:1047C000C4FFEFE700F1AE0354F823301A69002A62
:1047D000EED0C4F8D4021B6920469847E8E701F000
:1047E0007F01FFF7B2FF90B994F89C32DBB2032B44
:1047F000B8D100F1AE0354F823309A69002AB1D041
:10480000C4F8D4029B69294620469847AAE70020AD
:10481000A8E738B504460D4600294BD11346D0F819
:104820009422022A07D094F8A00218B1002384F839
:10483000A032284638BDC269016A8A420ED88A422F
:1048400018D094F89C32DBB2032B27D0802120466D
:1048500002F056FE204600F04DFCE4E7521AC26119
:10486000194600F01DFC00231A461946204602F0A6
:1048700067FED8E783699942E3D8D0F8982293423B
:10488000DFD20022114600F00BFC0021C4F8981280
:104890000B460A46204602F053FEC4E7D4F8B8326D
:1048A000DA68002AD2D00022C4F8D422DB6820467D
:1048B0009847CBE741F08001FFF747FF90B994F8A4
:1048C0009C32DBB2032BB5D100F1AE0354F8233098
:1048D0005A69002AAED0C4F8D4025B692946204642
:1048E0009847A7E70020A5E70B88027813440B80C0
:1048F000037818447047428803789A4218D930B533
:1049000083B004460D46ADF806306388BDF8062036
:104910009A420AD20DF10601FFF7E6FF4378052B14
:10492000F3D18378AB42F0D100E0002003B030BD7A
:10493000002070470346002002E00130C0B201337E
:104940001A78002AF9D170470B7803704B784370BE
:104950008B78CA7843EA022343800B794A7943EA89
:10496000022383808B79CA7943EA0223C38070478C
:1049700010B50446802102F0C3FD0021204602F05C
:10498000BFFD10BD30B583B004460D460023ADF821
:1049900006304A88130A013B0E2B00F2BC80DFE888
:1049A00003F0153044BABA9EABBABABABABABABAB8
:1049B0000800D0F8B432DB6923B10DF10601007CA8
:1049C00098470AE02946FFF7D3FF18E0D0F8B43241
:1049D0001B680DF10601007C9847EA88002A00F068
:1049E000A380BDF80630002B00F099809A4228BFC2
:1049F0001A46ADF806200146204600F044FB03B0FD
:104A000030BD037C43B9D0F8B8329B6A0DF1060083
:104A1000984702234370E0E7D0F8B832DB6A0DF123
:104A20000600984702234370D7E7D2B2052A52D82E
:104A3000DFE802F003101D2A3744D0F8B4325B6877
:104A400023B10DF10601007C9847C6E72946FFF720
:104A50008FFFD4E7D0F8B4329B6823B10DF1060183
:104A6000007C9847B9E72946FFF782FFC7E7D0F8EF
:104A7000B432DB6823B10DF10601007C9847ACE746
:104A80002946FFF775FFBAE7D0F8B4321B6923B1A6
:104A90000DF10601007C98479FE72946FFF768FF64
:104AA000ADE7D0F8B4325B6923B10DF10601007CAB
:104AB000984792E72946FFF75BFFA0E7D0F8B432AA
:104AC0009B6923B10DF10601007C984785E72946D3
:104AD000FFF74EFF93E72946FFF74AFF8FE7037C76
:104AE00033B9D0F8B8325B6B0DF10600984774E724
:104AF0002946FFF73DFF82E7037C43B9D0F8B8327F
:104B00001B6B0DF1060098470723437065E72946A4
:104B1000FFF72EFF73E72946FFF72AFF6FE72946C5
:104B20002046FFF725FF6AE7204600F0D8FA66E73F
:104B300038B504468B88FBB9CB88EBB94B887F2B03
:104B40001AD803F07F0590F89C32DBB2032B0CD00F
:104B500080F89E52294602F0E3FC204600F0BFFA9E
:104B600035B1022384F89C3209E0FFF701FF06E02B
:104B7000012384F89C3202E02046FFF7F9FE38BD9D
:104B800070B504460E468D782F4B1D70012D10D840
:104B900090F89C32DBB2022B0FD0032B26D0FFF70C
:104BA000E7FE294B19782046FFF7F6FC0325284637
:104BB00070BDFFF7DDFE0325F9E7A5B14560294685
:104BC000FFF7E1FC054638B131462046FFF7D0FE3D
:104BD000022384F89C32EAE7204600F080FA03239F
:104BE00084F89C32E3E700F07AFAE0E7CDB141685F
:104BF0008D4225D0C9B2FFF7CFFC134B1978616005
:104C00002046FFF7C0FC0546B0B131462046FFF70D
:104C1000AFFE21792046FFF7BFFC022384F89C32C7
:104C2000C5E7022380F89C3245602946FFF7B4FCB3
:104C3000204600F054FABAE7204600F050FAB6E7F2
:104C400000F04DFA0025B2E7CC01002008B5CB8872
:104C5000012B0BD190F89C32DBB2022B09D9032B2C
:104C600011D10122011D00F00EFA01E0FFF780FED4
:104C700008BD5BB23BB10146002341F8083F012269
:104C800000F001FAF4E7FFF773FEF1E708B590F8DA
:104C90009C32013B022B12D8CB88022B0CD1012372
:104CA000C360D0F8A4320BB10323C360022200F129
:104CB0000C0100F0E8F908BDFFF75AFEFBE7FFF72B
:104CC00057FEF8E708B54B88012B04D0022B07D01C
:104CD000FFF74EFE08BDC0F8A43200F000FAF9E775
:104CE0008B881B0A80F8A03200F0F9F9F2E708B5CA
:104CF00090F89C32013B022B09D84B88012B00D045
:104D000008BD0023C0F8A43200F0E9F9F8E7FFF786
:104D10002FFEF5E738B50C7804F06004202C06D09F
:104D2000402C04D06CB1FFF723FE002407E0D0F83C
:104D3000D432AE3350F823309B689847044620465F
:104D400038BD4D78092D1DD8DFE805F012191C1665
:104D50001C08051C0F0BFFF715FEF0E7FFF7E8FE38
:104D6000EDE7FFF70DFF0446E9E7FFF76FFFE6E722
:104D7000FFF78CFF2C46E2E7FFF7A4FFDFE7FFF722
:104D8000B6FFDCE7FFF7F4FDD9E770B505460C4642
:104D90000B7803F06003202B07D0402B05D023B104
:104DA000FFF7E6FD0026304670BD95F89C32013BCA
:104DB000022B26D82179012905D921462846FFF75B
:104DC000D7FD0026EFE72846FFF7BDFC68B900F1E4
:104DD000AE0255F82220916889B1C5F8D4029368D3
:104DE000214628469847064600E00326E388002B24
:104DF000D9D1002ED7D1284600F071F9D3E7032688
:104E0000F4E721462846FFF7B3FD0026CBE72DE95E
:104E1000F04106460D468B88DFB20C7804F0600442
:104E2000202C08D0402C06D0DCB1FFF7A1FD0024D7
:104E30002046BDE8F08139463046FFF786FC04463F
:104E4000002840F0F980C6F8D40200F1AE0356F80D
:104E500023309B68002BEBD0294630469847044608
:104E6000E6E791F80180B8F1010F31D0B8F1030FF6
:104E700005D0B8F1000F66D0FFF77AFDD8E790F8BB
:104E80009C32DBB2022B04D0032B11D0FFF770FD54
:104E9000CEE7002F18BF802F07D0394602F030FB35
:104EA0008021304602F02CFBC2E7FFF761FDBFE72F
:104EB0004B882BB9002F18BF802F01D0CB881BB196
:104EC000304600F00CF9B3E7394602F019FBF7E77A
:104ED00090F89C32DBB2022B04D0032B11D0FFF7E9
:104EE00047FDA5E7002F18BF802F07D0394602F0F5
:104EF00007FB8021304602F003FB99E7FFF738FDFE
:104F000096E74B88002B93D117F07F0F17D13046CF
:104F100000F0E5F839463046FFF717FC002887D146
:104F2000C6F8D40200F1AE0256F822209268002A98
:104F300000F08480294630469047044678E7394699
:104F400002F0E6FAE3E790F89C22D2B2022A05D0FA
:104F5000032A28D0FFF70CFD444669E7002F18BF4D
:104F6000802F13D113F0800F14D107F07F0707EBC8
:104F70008707B90001F5A8710144043100230B60D3
:104F80000222304600F07FF8444651E7FFF7F0FC7C
:104F900044464DE707F07F0707EB8707B90010315C
:104FA00001440431EAE75BB2002B20DB07F00F027B
:104FB00002EB820200EB8202B2F8642122B3002BE2
:104FC00026DB07F07F0303EB83039C0004F5A87442
:104FD00034440434802F18BF002F22D100232360D3
:104FE00002222146304600F04EF8444620E707F002
:104FF0000F0202EB820200EB8202928C002ADED1C9
:10500000FFF7B6FC444613E7FFF7B2FC44460FE750
:1050100007F07F0303EB83039C0010343444043413
:10502000D8E73946304602F025FA10B10123236053
:10503000D6E700232360D3E70024F9E60446F7E629
:1050400000B370B50D4616460446FFF773FC0130F9
:105050004300B3F5007F06D89BB233802B70032347
:105060006B7002230AE04FF40073F6E7EA54013450
:105070005A1CD2B20021A9540233DBB22278002A92
:10508000F4D170BD704708B513460222C0F89422CF
:105090008361C3610A46002102F04AFA002008BD7C
:1050A00008B513460A46002102F042FA002008BD66
:1050B00008B513460322C0F89422C0F85831C0F84E
:1050C0005C310A46002102F03BFA002008BD08B519
:1050D00013460A46002102F033FA002008BD08B545
:1050E0000422C0F8942200231A46194602F020FA3E
:1050F000002008BD08B50522C0F8942200231A46F6
:10510000194602F01DFA002008BD08B54FF0E02353
:105110001B6901F023FD012800D108BD00F0A2FAAF
:10512000FBE70000EFF305832BB9064B186828B99D
:1051300001221A6070476FF0050070474FF0FF3092
:10514000704700BF88080020EFF3058373B90A4B4E
:105150001B68012B0DD110B50024084BDC77064BE2
:1051600002221A6001F058FA204610BD6FF00500C7
:1051700070474FF0FF3070478808002000ED00E0D6
:10518000F0B587B000240594EFF3058474BB68B3D1
:1051900022B31568936903B918235C1E372C49D8CC
:1051A000546814F0010F47D156696EB14FEA960C5E
:1051B00094682CB1D7685B2F02D9176907B1C6B9BB
:1051C0002CB14FF0FF340EE04FF0800CF0E7D468C4
:1051D0008CB9146994B14FF0FF3404E015460024F3
:1051E00018234FF0800C012C0AD0ACB1059807B001
:1051F000F0BD0124F7E74FF0FF34F4E70024F2E7B5
:10520000146992680292019400930B466246294603
:1052100001F094F90590E9E705AA019200930B4685
:105220001FFA8CF2294601F0C4F90128DED00023D0
:105230000593DBE70020DAE70020D8E708B5EFF3B5
:10524000058333B908B9002008BD01F047FB0020F1
:10525000FAE76FF00500F7E770B582B0EFF305836A
:10526000002B3DD114460B1E18BF012300283BD054
:10527000002B39D06AB393684BB1D2684F2A06D954
:10528000226922B101FB00F56669AE421BD273B1FF
:105290004FF0FF3353BB002200F032FD054605B34B
:1052A00004B124682146284600F080FF19E0E36835
:1052B0008BB9236913B14FF0FF33EBE763696BB12F
:1052C0004FF0FF33E6E70025009500F0C6FC0546E9
:1052D000E5E70023DEE74FF0FF33DBE70023D9E704
:1052E0000025284602B070BD0025FAE70025F8E742
:1052F00010B582B01C46EFF30583D3B1002918BF67
:10530000002824D034BB0023019301AA00F0E0FD63
:10531000012822D1019850B14FF0E0234FF0805284
:10532000C3F8042DBFF34F8FBFF36F8F002002B07F
:1053300010BD002918BF002812D00023224600F01B
:1053400003FD01280FD084B16FF00100EFE76FF08B
:105350000300ECE76FF00300E9E76FF00200E6E717
:105360006FF00300E3E70020E1E76FF00200DEE703
:1053700010B582B01C46EFF30583D3B1002918BFE6
:10538000002823D02CBB0023019301AA00F0B6FE15
:10539000012821D1019850B14FF0E0234FF0805205
:1053A000C3F8042DBFF34F8FBFF36F8F002002B0FF
:1053B00010BD002918BF002811D0224600F0EFFDD3
:1053C00001280FD084B16FF00100F0E76FF0030007
:1053D000EDE76FF00300EAE76FF00200E7E76FF038
:1053E0000300E4E70020E2E76FF00200DFE70000DF
:1053F000034B0360034B0B6080231360704700BFB7
:105400002C0800202C060020034B0360034B0B608C
:105410004FF4807313607047D0050020D001002046
:1054200000F1080343604FF0FF328260C360036104
:1054300000230360704700230361704743684B609B
:105440009A688A605160996008610368013303605B
:10545000704730B40D68B5F1FF3F11D000F108037B
:105460001C465B681A68AA42FAD963684B60996067
:105470008C606160086103680133036030BC704771
:105480000469F2E70369416882688A604168516093
:105490005A68824206D0002202611A68013A1A60F4
:1054A0001868704782685A60F5E7000082B00023F0
:1054B00001930D4B1B68B3F1FF3F08D04FF0500331
:1054C00083F31188BFF36F8FBFF34F8FFEE74FF069
:1054D000500383F31188BFF36F8FBFF34F8F019B8E
:1054E000002BFCD002B070479800002008480068EC
:1054F000006880F308884FF0000080F3148862B6DB
:1055000061B6BFF34F8FBFF36F8F00DF00BF0000A6
:1055100008ED00E0DFF80C00016841F47001016063
:105520007047000088ED00E04FF0807340F8043CC5
:1055300021F0010140F8081C054B40F80C3C40F8F4
:10554000202C6FF0020340F8243C4438704700BF21
:10555000AD54000800000000000000000000000042
:10556000074B19680868B0E8F04F80F30988BFF36B
:105570006F8F4FF0000080F311887047AFF3008009
:10558000F04900204FF0500383F31188BFF36F8F71
:10559000BFF34F8F0B4A136801331360012B00D008
:1055A00070474FF0E023D3F8043D13F0FF0FF7D01E
:1055B0004FF0500383F31188BFF36F8FBFF34F8F0A
:1055C000FEE700BF98000020094B1B6843B94FF06D
:1055D000500383F31188BFF36F8FBFF34F8FFEE744
:1055E000013B034A13600BB983F31188704700BF76
:1055F00098000020000000000000000000000000F3
:10560000EFF30980BFF36F8F154B1A681EF0100F70
:1056100008BF20ED108A20E9F04F10602DE9090045
:105620004FF0500080F31188BFF34F8FBFF36F8F9F
:1056300001F07AF94FF0000080F3118809BC196875
:105640000868B0E8F04F1EF0100F08BFB0EC108AE9
:1056500080F30988BFF36F8F704700BFAFF30080FE
:10566000F049002008B54FF0500383F31188BFF3D1
:105670006F8FBFF34F8F01F029F828B14FF0E0236F
:105680004FF08052C3F8042D002383F3118808BD26
:105690004FF0E022002313619361054B1B6805491D
:1056A000A1FB03139B09013B53610723136170475F
:1056B00004000020D34D62104FF0E023D3F8002DFA
:1056C0003D4B9A421CD04FF0E023D3F8002D3B4BCA
:1056D0009A421ED030B583B0394B1A78D2B20192BB
:1056E000FF221A701B78DBB28DF803309DF803306F
:1056F00003F05003334A1370334B07221A601BE048
:105700004FF0500383F31188BFF36F8FBFF34F8FB8
:10571000FEE74FF0500383F31188BFF36F8FBFF3A1
:105720004F8FFEE7284A1368013B13609DF8033052
:105730005B00DBB28DF803309DF8033013F0800F6F
:10574000F0D1214B1B68032B08D04FF0500383F39B
:105750001188BFF36F8FBFF34F8FFEE71B021A4A0A
:10576000136003F4E0631360019BDBB2144A13700F
:105770004FF0E024D4F8203D43F47003C4F8203DFA
:10578000D4F8203D43F07043C4F8203DFFF780FF7C
:1057900000250E4B1D60FFF7BDFED4F8343F43F0EB
:1057A0004043C4F8343FFFF7A1FE01F0BDF8FFF716
:1057B0007DFE284603B030BD71C20F4170C20F415B
:1057C00000E400E0900800208C08002098000020F1
:1057D000EFF305830F2B0FD9114A9B5CDBB2114A03
:1057E00012789A4208D94FF0500383F31188BFF31F
:1057F0006F8FBFF34F8FFEE74FF0E023D3F80C3DE0
:1058000003F4E063084A1268934208D94FF050034A
:1058100083F31188BFF36F8FBFF34F8FFEE770479D
:10582000F0E300E0900800208C080020124A12F0FB
:10583000070F1ED0D11D21F00701C1F5705313448D
:105840000A460E480260002141601344083B23F0E1
:1058500007030B48036059601960991A516013607F
:10586000084B1960084B1960084B4FF000421A6052
:1058700070474FF47053E4E7B4080020AC080020F0
:10588000A8080020A0080020A408002094080020F8
:10589000164B1A461B688342FBD3516802EB010C7E
:1058A000844509D0416800EB010C634509D00360D1
:1058B000904219D010607047406801445160104612
:1058C000F0E710B40A4C2468A3420BD05B6819447B
:1058D000416013681B680360904200D010605DF85F
:1058E000044B70470460F7E7704700BFAC08002026
:1058F000A808002038B5044600F0DAFE384B1B68D3
:10590000B3B1384B1B681C4250D1002C50D004F16D
:10591000080214F0070F02D022F007020832002A12
:1059200055D0314B1B68934253D330490C6804E087
:10593000FFF77CFFE5E721461C466368934202D2ED
:105940002368002BF7D1264B1B68A34243D00D6878
:10595000083523680B6063689B1A102B10D9A018B8
:1059600010F0070F08D04FF0500383F31188BFF3F6
:105970006F8FBFF34F8FFEE743606260FFF788FFD2
:10598000626819490B689B1A0B60194909688B42B8
:1059900001D217490B60134B1B681343636000234C
:1059A0002360144A13680133136002E0002500E00D
:1059B000002500F017FF15F0070F0ED04FF0500331
:1059C00083F31188BFF36F8FBFF34F8FFEE700257E
:1059D000EFE70025EDE70025EBE7284638BD00BFDF
:1059E000A808002094080020A4080020AC0800208B
:1059F000A00800209C080020002834D038B50446B8
:105A0000A0F1080550F8043C174A1268134208D167
:105A10004FF0500383F31188BFF36F8FBFF34F8FA5
:105A2000FEE750F8081C41B14FF0500383F3118892
:105A3000BFF36F8FBFF34F8FFEE723EA020340F8F7
:105A4000043C00F035FE54F8041C084A13680B446B
:105A500013602846FFF71CFF054A136801331360E3
:105A600000F0C0FE38BD704794080020A408002054
:105A70009808002010B50446FFF784FDA26BE36B85
:105A80009A4204D00024FFF79FFD204610BD012458
:105A9000F9E710B50446FFF775FDA36B23B90124A0
:105AA000FFF792FD204610BD0024F9E770B50446CB
:105AB0001546866B026C5AB903681BB1002001368B
:105AC000A66370BD806801F059F80023A360F6E773
:105AD0006DB9406801F0C8FD6368226C13446360CF
