:020000040800F2
:1000000000000220FD590008810A0008830A000848
:10001000850A0008870A0008890A00080000000015
:100020000000000000000000000000008B0A000833
:100030008D0A0008000000008F0A0008910A0008DD
:100040004D5A00084D5A00084D5A00084D5A0008F4
:100050004D5A00084D5A00084D5A00084D5A0008E4
:100060004D5A00084D5A00084D5A00084D5A0008D4
:100070004D5A00084D5A0008990A0008A90A0008BC
:100080004D5A00084D5A00084D5A00084D5A0008B4
:100090004D5A00084D5A00084D5A00084D5A0008A4
:1000A0004D5A0008B90A00084D5A00084D5A000878
:1000B0004D5A00084D5A00084D5A00084D5A000884
:1000C0004D5A00084D5A00084D5A00084D5A000874
:1000D0004D5A00084D5A00084D5A00084D5A000864
:1000E0004D5A00084D5A00084D5A00084D5A000854
:1000F0004D5A00084D5A00084D5A00084D5A000844
:100100004D5A00084D5A00084D5A00084D5A000833
:100110004D5A00084D5A00084D5A00084D5A000823
:100120004D5A00084D5A00084D5A00084D5A000813
:100130004D5A00084D5A00084D5A00084D5A000803
:100140004D5A00084D5A00084D5A0008C90A0008C7
:100150004D5A00084D5A00084D5A00084D5A0008E3
:100160004D5A00084D5A00084D5A00084D5A0008D3
:100170004D5A00084D5A00084D5A00080000000072
:080180004D5A00084D5A000819
:1001880053B94AB9002908BF00281CBF4FF0FF31F6
:100198004FF0FF3000F00CB8ADF1080C6DE904CE5B
:1001A80005F07EFCDDF804E0DDE9022304B07047C9
:1001B800704700BF10B5054C237833B9044B13B111
:1001C8000448AFF300800123237010BDF80000201D
:1001D80000000000645D000808B5034B1BB103492B
:1001E8000348AFF3008008BD00000000FC000020B9
:1001F800645D000810B584B00446490041F041012F
:100208008DF80C1000228DF80D208DF80E208DF839
:100218000F200189406800F0F7FF4FF0FF3300938B
:10022800042302AA03A9206803F005F80122218902
:10023800606800F0E9FF9DF80930A3729DF80A3064
:10024800E3729DF80B30237304B010BD10B582B073
:100258000446490041F040018DF8041013788DF8E8
:10026800053053788DF8063093788DF807300022E2
:100278000189406800F0C8FF4FF0FF3304220DEBFE
:100288000201206802F0FBFE01222189606800F06B
:10029800BBFF02B010BD000010B582B0044601607B
:1002A8004260038100238372C37203730A4A12688F
:1002B800ADF80420120C8DF80620ADF800308DF84A
:1002C800023001AA0E21FFF7C1FF6A460E2120461F
:1002D800FFF7BCFF02B010BD7C5D00082DE9F04FB0
:1002E8008DB000240794089409940A940B940194FF
:1002F800564B1A6B42F010021A631A6B02F0100286
:100308000192019A02941A6B42F004021A631A6B62
:1003180002F004020292029A03941A6B42F08002DD
:100328001A631A6B02F080020392039A04941A6B00
:1003380042F001021A631A6B02F001020492049A55
:1003480005941A6B42F002021A631A6B02F0020259
:100358000592059A06941A6B42F008021A631B6B01
:1003680003F008030693069B394E224608213046BF
:1003780000F04AFFDFF8E09001221146484600F0FD
:1003880043FFDFF8D88022464FF21011404600F0B4
:100398003BFF082707970125089509940A9407A9A0
:1003A800304600F03BFE0795089509940A9407A982
:1003B800484600F033FE07970227089709940A94E5
:1003C8004FF0050ACDF82CA007A9484600F026FEF4
:1003D80007954FF49019CDF82090099407A91D4866
:1003E80000F01CFE0423079308940994DFF870B00A
:1003F80007A9584600F012FE4FF480630793089748
:1004080009940A94CDF82CA007A9584600F006FED6
:100418004FF210130793089509940A9407A94046C8
:1004280000F0FCFD202307930894099407A940468F
:1004380000F0F4FD0797CDF82090099407A93046FD
:1004480000F0ECFD0DB0BDE8F08F00BF00380240B1
:10045800001002400000024000080240000C024068
:100468000004024010B582B0002401940D4B1A6BB1
:1004780042F400121A631B6B03F400130193019BEF
:10048800224621460E2000F0E7FB0E2000F0F4FB88
:10049800224621460F2000F0DFFB0F2000F0ECFB86
:1004A80002B010BD0038024008B54FF48051024830
:1004B80000F0B0FE72B6FEE7000C024008B50A482C
:1004C8000A4B03600A4B436000238360C3604FF408
:1004D8008042026143618361C361036200F0A4FE4C
:1004E80000B908BDFFF7E0FF4C03002000540040AE
:1004F800A086010008B50A480A4B03604FF4007251
:10050800426000238360C3600261074A42618361DD
:10051800C361036200F066FF00B908BDFFF7C4FFBE
:1005280004030020003C00400077010008B50D4896
:100538000D4B03604FF48273436000238360C360F4
:10054800036143614FF400728261C36103624362D5
:1005580083620A23C36202F033FD00B908BDFFF7C6
:10056800A3FF00BFAC0200200030014008B50D48D1
:100578000D4B03604FF48273436000238360C360B4
:10058800036143614FF480228261C3610362436265
:1005980083620A23C36202F013FD00B908BDFFF7A6
:1005A80083FF00BF540200200038004000B587B028
:1005B8000023029303930493059300930193144833
:1005C800144A0260A722426083604FF6FF72C2603D
:1005D80003614361836103F09FF890B94FF480533E
:1005E800029302A90A4803F0D0F860B900230093E7
:1005F80001936946064803F047F930B907B05DF83A
:1006080004FBFFF751FFFFF74FFFFFF74DFF00BF58
:100618004C0100200000014000B595B030220021B7
:1006280008A805F010FA0023039304930593069392
:1006380007930193214A116C41F080511164126CA7
:1006480002F080520192019A02931D4B1A6842F4FB
:1006580080421A601B6803F480430293029B0123C3
:1006680008934FF48033099302230E934FF48002CA
:100678000F92082210924FF4A87211921293072336
:10068800139308A801F0E6FF98B90F2303930223F8
:100698000493002305934FF4A05306934FF480531B
:1006A8000793052103A802F03FFA20B915B05DF8B9
:1006B80004FBFFF7F9FEFFF7F7FE00BF0038024022
:1006C8000070004000B585B000F032FAFFF7A4FFD3
:1006D800FFF704FEFFF7C6FEFFF7F0FEFFF70AFF7D
:1006E800FFF724FFFFF742FF04F026FFFFF75EFF46
:1006F8001F4C0C2600964FF480731E4A1E49204654
:10070800FFF7CAFD38238DF80C3000258DF80D5001
:1007180050238DF80E300DEB06020D212046FFF711
:1007280095FD29238DF808308DF809508DF80A5069
:1007380002AA31462046FFF789FD10E00F4B002240
:100748001A7010E00E4B00221A70094C0121204645
:10075800FFF750FD032104F10A0004F03FFF074BA7
:100768001B78012BEAD0064B1B78012BEAD0ECE76B
:1007780018010020000C024054020020140100203F
:100788001501002000B583B0002100910C4B5A6C74
:1007980042F480425A645A6C02F480420092009AF1
:1007A80001911A6C42F080521A641B6C03F080535A
:1007B8000193019B072000F03DFA03B05DF804FBAC
:1007C8000038024030B589B00023039304930593A1
:1007D800069307930268144B9A4201D009B030BDC2
:1007E80000250195114C236B43F002032363236B0F
:1007F80003F002030193019B4FF410730393122338
:100808000493012305930423079303A9084800F0E0
:1008180005FC0295236C43F400132364236C03F452
:1008280000130293029BD9E70054004000380240AD
:100838000004024070B58CB0002307930893099315
:100848000A930B9303930493059306930268254B2D
:100858009A4201D00CB070BD01230393C0230493C6
:100868000223059303A802F025FA002837D10024B3
:1008780000941D4B1A6C42F400421A641A6C02F47C
:1008880000420092009A01941A6B42F001021A6326
:100898001A6B02F001020192019A02941A6B42F05B
:1008A80004021A631B6B03F004030293029B1023D8
:1008B80007930226089609940A9406250B9507A91A
:1008C8000A4800F0ABFB4FF4A45307930896099429
:1008D8000A940B9507A9064800F0A0FBBAE7FFF7B2
:1008E800E3FDC4E7003C004000380240000002403D
:1008F8000008024030B58BB0002305930693079398
:10090800089309930368434A934205D00446424A30
:10091800934222D00BB030BD002101913F4B5A6C5D
:1009280042F480525A645A6C02F480520192019A3D
:1009380002911A6B42F001021A631B6B03F0010368
:100948000293029BE0230593022306930523099350
:1009580005A9334800F062FBDCE7002503952F4B1F
:100968001A6C42F480421A641A6C02F480420392B0
:10097800039A04951A6B42F002021A631B6B03F088
:1009880002030493049B4FF47043059302230693D8
:10099800032308930523099305A9224800F03EFB89
:1009A8002148224B036045608560C5604FF4806331
:1009B8000361456185614FF48073C3614FF440332F
:1009C8000362456200F0D6F9E8B9174BE3649C630B
:1009D8001748184B03600023436040228260C360BD
:1009E8004FF480620261436183614FF48072C26197
:1009F8004FF440320262436200F0BCF930B90C4B4C
:100A0800A3649C6386E7FFF74FFDDEE7FFF74CFD25
:100A1800F5E700BF003001400038004000380240D0
:100A28000000024000040240F40100205860024027
:100A3800940100207060024002680E4B9A4200D078
:100A4800704700B583B00021019103F59C335A6CBF
:100A580042F001025A645B6C03F001030193019BAD
:100A68000A46192000F0F8F8192000F005F903B03B
:100A78005DF804FB00000140FEE7FEE7FEE7FEE745
:100A8800FEE770477047704708B500F06BF808BD7F
:100A980008B5024800F0D4F908BD00BFF4010020F1
:100AA80008B5024800F0CCF908BD00BF9401002049
:100AB80008B5024802F015FD08BD00BF4C01002032
:100AC80008B5024801F0BBFA08BD00BFA41A00200F
:100AD800034AD2F8883043F47003C2F8883070476C
:100AE80000ED00E010B504460E4B1A784FF47A7307
:100AF800B3FBF2F30C4A1068B0FBF3F000F0C0F857
:100B080068B90F2C01D901200AE0002221464FF0D4
:100B1800FF3000F0A1F8054B1C60002000E0012028
:100B280010BD00BF040000200000002008000020C5
:100B380008B50B4B1A6842F400721A601A6842F43E
:100B480080621A601A6842F480721A60032000F00A
:100B580071F80020FFF7C6FFFFF714FE002008BD5C
:100B6800003C0240034A1168034B1B780B44136096
:100B7800704700BFA003002004000020014B186844
:100B8800704700BFA003002038B50446FFF7F6FF02
:100B98000546B4F1FF3F02D0044B1B781C44FFF715
:100BA800EDFF401BA042FAD338BD00BF040000206F
:100BB800002807DB00F01F02400901239340024A86
:100BC80042F82030704700BF00E100E0002808DB51
:100BD8000901C9B200F1604000F5614080F80013D6
:100BE800704700F00F000901C9B2014B1954704752
:100BF80014ED00E000B500F00700C0F1070CBCF1EF
:100C0800040F28BF4FF0040C031D062B0FD9C31E79
:100C18004FF0FF3E0EFA0CF021EA000199400EFA5F
:100C280003FE22EA0E0241EA02005DF804FB0023FB
:100C3800EEE70000074AD36823F4E0631B041B0CAB
:100C4800000200F4E060034343F0BF6343F4003361
:100C5800D360704700ED00E010B50446054BD86836
:100C6800C0F30220FFF7C6FF01462046FFF7AEFF9C
:100C780010BD00BF00ED00E008B5FFF799FF08BD03
:100C88000138B0F1807F0BD24FF0E0235861054A5C
:100C9800F02182F823100020986107221A6170471A
:100CA8000120704700ED00E010B40368D9B2103994
:100CB8000A4AA2FB01421209094CA25CC2655F29DB
:100CC80007D96FF3090304338365806D5DF8044B1E
:100CD80070476FF309038365F7E700BFABAAAAAAB9
:100CE800E05D0008836A826992B9012B0AD0022B61
:100CF80002D00BB100207047C36A13F0807F28D15F
:100D080000207047C36AB3F1C07F24D00020704729
:100D1800B2F5005F09D0022B25D9032B25D1C36A70
:100D280013F0807F23D100207047032B03D8DFE81E
:100D380003F01404140A00207047C36A13F0807F7C
:100D48000DD100207047C36AB3F1C07F09D00020DD
:100D5800704701207047012070470120704701202B
:100D6800704701207047012070470020704701201C
:100D78007047000070B50446FFF700FF002C5BD0F9
:100D88000546022384F83530002384F8343022687D
:100D9800136823F00103136023681A6812F0010F27
:100DA8000AD0FFF7EBFE431B052BF5D9202363651B
:100DB800032084F8350070BD1A6820491140626824
:100DC800A0680243E0680243206902436069024365
:100DD800A0690243E0690243206A02430A43616A48
:100DE80004291ED01A602668756925F00705636A0C
:100DF8001D43042B07D1A36A1D43E36A1BB1204698
:100E0800FFF770FF90B975612046FFF74DFFE26D5F
:100E18003F239340836000206065012384F83530C8
:100E2800C9E7E16A206B01430A43DBE740236365B6
:100E3800012084F83500BEE70120BCE73F8010F0B0
:100E4800F0B583B0044600230193724B1D68724BC2
:100E5800A3FB0535AD0A876D3E68C26D0823934034
:100E6800334210D003681A6812F0040F0BD01A68C6
:100E780022F004021A60C26D08239340BB60436DE0
:100E880043F001034365E26D01239340334209D0E7
:100E98002268526912F0800F04D0BB60636D43F082
:100EA80002036365E26D04239340334209D022684C
:100EB800126812F0020F04D0BB60636D43F00403A4
:100EC8006365E26D10239340334224D02268126890
:100ED80012F0080F1FD0BB6023681A6812F4802F25
:100EE8000DD01B6813F4002F04D1236C9BB120464E
:100EF800984710E0A36C73B1204698470BE01A6836
:100F080012F4807F03D11A6822F008021A60236C59
:100F18000BB120469847E26D20239340334255D0C9
:100F28002268126812F0100F50D0BB6094F8353068
:100F3800DBB2052B0ED023681A6812F4802F33D049
:100F48001B6813F4002F2AD1636C002B3ED0204677
:100F580098473BE02268136823F016031360226861
:100F6800536923F080035361236CA3B1226813688B
:100F780023F008031360E26D3F239340BB60012315
:100F880084F83530002384F83430236D002B3FD0AB
:100F9800204698473CE0A36C002BE7D1EBE7E36BD6
:100FA800A3B12046984711E01A6812F4807F09D14E
:100FB8001A6822F010021A60012384F835300023E1
:100FC80084F83430E36B0BB120469847636DFBB16E
:100FD800636D13F0010F17D0052384F835302268AC
:100FE800136823F001031360019B01330193AB42A3
:100FF80004D823681B6813F0010FF5D1012384F886
:101008003530002384F83430E36C0BB12046984720
:1010180003B0F0BD00000020B5814E1B00230F2B4C
:1010280000F2E98070B582B065E085684FEA430E4A
:10103800032404FA0EF425EA0405CC6804FA0EF435
:101048002C438460446824EA02044A68C2F300120C
:101058009A40224342605CE0DC08083450F82420BF
:1010680003F00705AD004FF00F0E0EFA05FE22EA59
:101078000E0E0A69AA4042EA0E0240F824205CE0FB
:10108800072200E0002202FA0EF22A4302345A4DE7
:1010980045F82420594A94686FEA0C0224EA0C05A2
:1010A8004E6816F4801F01D04CEA0405534CA56025
:1010B800E46802EA04054E6816F4001F01D04CEA01
:1010C80004054E4CE560646802EA04054E6816F4AF
:1010D800003F01D04CEA0405484C65602468224072
:1010E8004D6815F4803F01D04CEA0402434C22605D
:1010F80001330F2B7DD801229A400C6804EA020CB8
:1011080032EA0404F4D14C6804F00304013C012CD5
:101118008BD94A6802F00302032A09D0C4685D002B
:101128000322AA4024EA02048A68AA402243C26031
:101138004A6802F00302022A8ED004684FEA430E7E
:10114800032202FA0EF224EA02044A6802F00302B9
:1011580002FA0EF2224302604A6812F4403FC7D0F6
:1011680000220192264A546C44F480445464526C20
:1011780002F480420192019A9C08A51C1E4A52F86A
:10118800255003F0030E4FEA8E0E0F2202FA0EF2DC
:1011980025EA02051B4A90423FF474AF02F58062CB
:1011A80090421AD002F58062904218D002F580620F
:1011B800904216D002F58062904214D002F5806207
:1011C800904212D002F58062904210D002F58062FF
:1011D80090423FF455AF082255E7012253E7022217
:1011E80051E703224FE704224DE705224BE7062289
:1011F80049E702B070BD704700380140003C01402B
:1012080000380240000002400AB1816170470904B9
:1012180081617047436901EA030221EA030141EA57
:101228000241816170470000002800F0CC8070B551
:10123800044690F83D30002B77D0242384F83D30C5
:101248002268136823F0010313602268136843F4CB
:10125800004313602268136823F40043136001F00D
:1012680019FD62685A4B9A4264D85A4B98428CBF0F
:1012780000230123002B40F0A8805749A1FB00312F
:101288008B0C25686A6822F03F0242EA91426A6044
:1012980021680A6A22F03F0266684D4DAE424FD877
:1012A800013313430B622168CA6922F44F4222F0CA
:1012B800FF026568464B9D424CD8431E6D00B3FB48
:1012C800F5F3013340F6FC70034278D0C3F30B0307
:1012D8001A43CA6121680B6823F0C003E269206AD7
:1012E800024313430B6021688B6823F4034323F004
:1012F800FF032269E068024313438B602168CB68CF
:1013080023F0FF036269A06902431343CB6022689C
:10131800136843F00103136000202064202384F83D
:101328003D30206384F83E0070BD80F83C30FFF704
:1013380049FA82E7294B98428CBF0023012399E799
:101348004FF4967505FB03F3254DA5FB03539B0945
:101358000133A6E7A668BEB9431E05EB450CB3FBEF
:10136800FCF30133C3F30B03B3FA83F35B0943BB09
:10137800C6B9431E05EB4505B3FBF5F30133C3F3CB
:101388000B0343F40043A3E7431E05EB850C0CEB6A
:101398008C0CB3FBFCF30133C3F30B03B3FA83F3F5
:1013A8005B09E4E7431E05EB850505EB8505B3FB03
:1013B800F5F30133C3F30B0343F4404388E70423F5
:1013C80086E7012384E7012070470120ACE700BFCE
:1013D800A08601007F841E0083DE1B43FF083D00BA
:1013E800D34D6210002800F0BF8038B5044690F84D
:1013F8004130002B51D0022284F841202168CB696A
:1014080023F47B6323F00F03CB6123681A626369BB
:10141800934263D0E368002B46D11025A368202BA4
:1014280000D86D00012001F0EFFC2369B3F5007FBF
:101438003CD0B0FBF5F000EB800043006269B3FBE1
:10144800F2F30533494AA2FB0323C3F3C002C2EBFC
:10145800D3035B0811029A1EFD2A41D822690A4368
:1014680021681A430A622168CB6923F47B6323F05D
:101478000F036268A0680243E0680243A069024360
:10148800134343F40063CB61236A012B2ED0002061
:101498006064012384F8413038BD80F84030344B13
:1014A8004363FFF7C7F9A6E72025B7E7E36853B119
:1014B800AD00B0FBF5F000EB800043006269B3FBC0
:1014C800F2F30533BEE7ED00B0FBF5F000EB80006A
:1014D80043006269B3FBF2F30533B3E70021BAE7CF
:1014E800636C43F0100363640120D5E7214B636309
:1014F8002268214B9A421FD04FF04022D36923F42F
:101508007B6323F00F03D36122681B4B9A4215D0EB
:101518004FF0402302221A622268174B9A4210D0D9
:101528004FF04025EB699BB26268B2F5007F0AD0A4
:10153800C2B94FF4807008E0104ADFE7A3F5806372
:10154800E8E70E4DEEE74FF48070B4F808C0A189C3
:10155800228B40EA0C0001430A43134343F400631F
:10156800EB6194E70020F0E701207047CDCCCCCCAC
:10157800FF1500081118000800380040003400402A
:10158800704708B5426A03681288DA60436A023312
:101598004362438D9BB2013B9BB24385438D9BB213
:1015A80003B108BD0268536823F0A0035360012308
:1015B80080F84130FFF7E4FFF3E7704708B50368A8
:1015C800DA68C36A1A80C36A0233C362438E9BB265
:1015D800013B9BB24386438E9BB203B108BD0268B0
:1015E800536823F060035360012380F84130FFF70C
:1015F800E4FFF3E7704710B584B0044602689368C7
:10160800039390F84130DBB2042B06D094F84130B4
:10161800DBB2032B2CD004B010BD039B13F0010FD9
:1016280003D0536813F0400F1FD1039B13F0400FF2
:10163800ECD023685A6812F0200FE7D05A6822F0DD
:1016480060025A60002301932368DA6801929B685C
:101658000193019B012384F84130636C43F002033A
:1016680063642046FFF7C6FFD0E7FFF7A7FFDCE774
:10167800039B13F0020F04D023685B6813F0800FFC
:101688001DD1039B13F0080FC5D023685A6812F0C8
:10169800200FC0D05A6822F0A0025A60002302939B
:1016A80023689B680293029B012384F84130636C92
:1016B80043F0040363642046FFF79CFFABE7204632
:1016C800FFF75FFFDDE7704708B5436A9A1C42627F
:1016D80002681B88D360438D9BB2013B9BB2438554
:1016E800438D9BB23BB90268536823F0A003536053
:1016F800438E9BB203B108BD012380F84130FFF748
:10170800E2FFF8E708B50268154B9A421CD04FF083
:101718004023DA68C36A991CC1621A80438E9BB25F
:10172800013B9BB24386438E9BB263B902680C4B64
:101738009A420CD04FF04022536823F06003536064
:10174800438D9BB22BB108BDA3F58063E1E7054A41
:10175800F2E7012380F84130FFF7B5FFF3E700BF58
:10176800003800400034004008B5436A9A1C4262C1
:101778001A880168134B994218D04FF04023DA6059
:10178800438D9BB2013B9BB24385438D9BB263B9AA
:1017980002680C4B9A420CD04FF04022536823F059
:1017A800A0035360438E9BB22BB108BDA3F58063A1
:1017B800E5E7054AF2E7012380F84130FFF783FFA8
:1017C800F3E700BF003800400034004008B5036864
:1017D800DA68C36A991CC1621A80438E9BB2013BC6
:1017E8009BB24386438E9BB23BB90268536823F091
:1017F80060035360438D9BB203B108BD012380F899
:101808004130FFF760FFF8E710B586B0044603687B
:101818009A680592704A93426FD04FF040229168BF
:1018280004915B680393536802936368B3F5007F80
:1018380001D0002B70D1059B13F0020F03D0039B3E
:1018480013F0800F5CD1049B13F0010F03D0029BAF
:1018580013F0400F58D1049B13F0400F24D0029B83
:1018680013F0200F20D022685B4B9A4250D04FF0E3
:101878004022536823F0600353602268536823F0C2
:10188800A0035360002300932368DA6800929B68E2
:101898000093009B012384F84130636C43F00203FA
:1018A80063642046FFF7A6FE059B13F0080F22D0BD
:1018B800039B13F0200F1ED02268536823F0A00367
:1018C80053602268444B9A4224D04FF04022536818
:1018D80023F0600353600023019323689B680193FE
:1018E800019B012384F84130636C43F00403636473
:1018F8002046FFF77FFE06B010BDA2F580628EE796
:101908002046FFF7E1FE9EE72046FFF7FBFEA2E731
:10191800324AAEE7314ADAE7049B13F0020F03D0EC
:10192800029B13F0800F4AD1059B13F0010F03D0DF
:10193800039B13F0400F46D1059B13F0400F1CD0BA
:10194800039B13F0200F18D02268536823F060031C
:1019580053602268204B9A4239D04FF04022536896
:1019680023F0A0035360012384F84130636C43F0F3
:10197800020363642046FFF73DFE049B13F0080F43
:10198800B9D0029B13F0200FB5D02268124B9A42AF
:101998001FD04FF04022536823F0A0035360226801
:1019A800536823F060035360012384F84130636C6B
:1019B80043F0040363642046FFF71CFE9BE72046C0
:1019C800FFF7D2FEB0E72046FFF700FFB4E7034A6F
:1019D800C5E7024ADFE700BF003800400034004096
:1019E8002DE9F04383B0D0F8008001EBC10300EB90
:1019F80083039A6A5B6A9A4254D807460C469B1A34
:101A080001EBC10200EB8202D2699A4200D31A4666
:101A180002F103094FEA990915E006F103094FEAB3
:101A28009909BB7904EBC40507EB8505296A00937E
:101A3800B3B2E2B2404602F0A2FA2B6A33442B62F8
:101A4800AB6A3344AB6208EB441303F510639B693C
:101A58009BB24B4512D304EBC40307EB83039A6A8A
:101A68005B6A9A420AD24BB19B1A04EBC40207EB99
:101A78008202D6699E42D0D31E46CEE704EBC40349
:101A880007EB83077A6ABB6A9A420FD804F00F04FF
:101A98000122A240D8F8343823EA0203C8F83438BF
:101AA800002000E0012003B0BDE8F0830020FAE741
:101AB80030B583B000287AD00446056890F895348C
:101AC800C3B1032384F89534B5F1A04F17D020682B
:101AD80002F008F8237C8DF80030231D0ECB206817
:101AE80001F03FFF70B1022384F8953401252846A0
:101AF80003B030BD80F8943403F020FEE1E7002302
:101B0800A371E4E70021206802F049FC024608B905
:101B1800034617E0022384F895340125E7E703EB31
:101B2800C30104EB8101012048750B75CB850020AA
:101B38000876C861086203EBC30104EB81014862BF
:101B48000133DBB220799842E9D816E002EBC203F0
:101B580004EB8303002183F8551283F8542283F899
:101B68005812C3F85C12C3F8601202EBC20304EB0C
:101B78008303C3F864120132D2B29042E6D8237CC0
:101B88008DF80030231D0ECB206802F001F80546C1
:101B980020B1022384F895340125A8E70023637453
:101BA800012384F89534206802F0B8FB9FE70125EB
:101BB8009DE7036890F89424012A1AD010B50446CA
:101BC800012280F89424DA6812F0400F02D0427B98
:101BD800012A09D0206801F07FFF206802F090FBFD
:101BE800002084F8940410BD9A6B42F480329A6302
:101BF800F0E702207047000070B504460D46006803
:101C0800066C00EB411303F530639A68A17901294A
:101C180011D038498E4256D03DB905EBC50304EBC7
:101C28008303D3F86432002B5ED0E9B2204603F078
:101C3800D7FD002070BD12F0080F09D02E498E4242
:101C4800F7D912F4004FF4D04FF400429A60F0E74D
:101C580012F0200F02D020229A60EAE712F0280F33
:101C6800E7D125498E4206D912F4004F03D04FF42C
:101C780000429A60DDE705EBC50204EB8202D2F868
:101C880074121B69C3F31203CB1AC2F868327DB908
:101C980005EBC50204EB8202D2F864226AB105EBB7
:101CA800C50204EB8202D2F860121944C2F860122D
:101CB800E9B2204603F094FDBBE704F29C420121FF
:101CC80002F0ACFBF4E712F4004F03D04FF40042EB
:101CD8009A60AEE712F0200F01D020229A60E9B294
:101CE800204603F07DFDA4E704F29C42002102F0A7
:101CF80095FB9AE70A31544F0A30544F38B50446D9
:101D080003681D6C03EB4113D3F8081B0E4A954278
:101D180007D903F5306311F4004F02D04FF40042A5
:101D28009A60204603F054FD074B9D4202D9A379DF
:101D3800012B01D0002038BD04F29C42012120680B
:101D480002F06CFBF6E700BF0A30544F90F8943469
:101D5800012B0CD010B50446012380F8943441744B
:101D6800006802F0BDFA002084F8940410BD022037
:101D7800704738B505468C4611F0800F29D101F01F
:101D88000F0E0EEBCE04A40004F514740444211DB8
:101D98000EEBCE0E00EB8E0E00208EF855020CF0E6
:101DA8000F0C81F800C08A600B714A780AB1A1F85B
:101DB8001AC0022B1CD095F89434012B1BD0012398
:101DC80085F89434286801F0BEFF002085F8940453
:101DD80038BD01F00F0000EBC00189001031294423
:101DE800043100EBC00005EB800001244475D6E700
:101DF80000234B71DFE70220EAE710B504460A46E4
:101E080011F0800F20D101F00F0000EBC0039B0000
:101E180003F514732344191D00EBC00004EB800084
:101E2800002380F8553202F00F020A7094F89434B7
:101E3800012B18D0012384F89434206801F0D0FFD6
:101E4800002084F8940410BD01F00F0000EBC003DB
:101E58009B0010332344191D00EBC00004EB8000E5
:101E680001234375DFE70220EDE710B5144601F0C2
:101E78000F0C0CEBCC01890001F5147101440431FD
:101E88000CEBCC0E00EB8E0ECEF86022CEF864324E
:101E98000023CEF868328EF855328EF854C2827913
:101EA800012A04D0006802F081F8002010BDCEF8A5
:101EB8007042F7E701F00F0101EBC10100EB81006F
:101EC800D0F86802704710B5144601F00F0C0CEBFF
:101ED800CC0189001031014404310CEBCC0E00EB2D
:101EE8008E0ECEF82020CEF824300023CEF82830ED
:101EF80001238EF815308EF814C082799A4204D0E6
:101F0800006802F053F8002010BDCEF83040F7E723
:101F180038B501F00F050279AA4238D304460B46BA
:101F280011F0800F1FD101EBC101890001F5147177
:101F38000144043103EBC30300EB8303002283F85D
:101F4800552201238B700D7094F89434012B20D006
:101F5800012384F89434206802F067F985B10020E1
:101F680084F8940438BD05EBC5018900103101449B
:101F7800043105EBC50300EB830301225A75E0E742
:101F880004F29C42A179206802F048FAE7E70120B0
:101F9800E8E70220E6E701F00F0302799A4230D31E
:101FA80010B5044611F0800F1ED103EBC301890060
:101FB80001F514710144043103EBC30200EB820202
:101FC800002082F8550200228A700B7094F894342D
:101FD800012B18D0012384F89434206802F052F9B8
:101FE800002084F8940410BD03EBC301890010316C
:101FF8000144043103EBC30200EB82020120507557
:10200800E1E7012070470220EDE708B511F0800FE5
:102018000CD101F00F0101EBC101890001F5147128
:1020280001440431006801F04BFF08BD01F00F01C5
:1020380001EBC1018900103101440431F2E72DE9B7
:10204800F04F83B004460568284602F0A4F910B1A1
:1020580003B0BDE8F08F0646206802F06DF900284D
:10206800F6D005F50067BB68C3F30D23C4F8D43474
:10207800206802F061F910F0020F04D02268536959
:1020880003F002035361206802F056F910F0100FB4
:1020980015D02268936923F010039361D5F8208046
:1020A80008F00F0908F4F013B3F5802F4CD0B3F5FE
:1020B800402F6FD02268936943F010039361206822
:1020C80002F03AF910F4002F76D1206802F034F9C2
:1020D80010F4802F40F0E080206802F02DF90028ED
:1020E800C0F26181206802F027F910F4006F09D06E
:1020F800BB6813F0010F40F06E812268536903F446
:1021080000635361206802F017F910F4805F40F013
:102118006681206802F010F910F4005F40F0B38186
:10212800206802F009F910F0080F40F0C481206817
:1021380002F002F910F0800F00F0D781AB6923F0AC
:102148008003AB610126C0E147F6F07318EA030F7C
:10215800B0D04FEA181A4FEAC903019309EBC90B2B
:1021680004EB8B0BC8F30A12DBF86012284602F066
:1021780039F8DBF86032CAF30A0A5344CBF8603204
:10218800DBF86832019A4A4404EB82025344C2F8ED
:1021980068328FE7082204F29C41284602F022F8B0
:1021A80009EBC90304EB8303D3F86822C8F30A18C0
:1021B8004244C3F868227DE7206802F0C1F88046EF
:1021C800B14635E005EB49130122C3F8082B49460F
:1021D8002046FFF711FD3CE005EB49130822C3F840
:1021E800082B49462046FFF789FD35E009EBC9036E
:1021F80004EB830393F85732012B41D005EB4913C5
:102208000222C3F8082B1AF0200F04D005EB49135B
:102218002022C3F8082B1AF4005F05D005EB4913F8
:102228004FF40052C3F8082B09F101094FEA580886
:10223800B8F1000F3FF449AF18F0010FF4D05FFA7E
:1022480089FB5946206802F08BF8824610F0010F8E
:10225800B8D11AF0080FBFD11AF0100F04D005EB4F
:1022680049131022C3F8082B1AF0020FCBD06B6960
:1022780013F0800FBAD07B6843F480637B60B5E7C6
:1022880009EBC90304EB8303002283F8572259465C
:10229800204603F0F5FAB1E7206802F059F88046C5
:1022A800B14625E05946204603F0A6FA1AF0080F71
:1022B80004D005EB49130822C3F808291AF0100FB7
:1022C80004D005EB49131022C3F808291AF0400F6F
:1022D80004D005EB49134022C3F808291AF0020F6D
:1022E80040D11AF0800F59D109F101094FEA580875
:1022F800B8F1000F3FF4F0AE18F0010FF4D05FFA18
:1023080089FB5946206802F034F8824610F0010F24
:10231800CCD009F00F02012101FA02F27B6B23EA0B
:1023280002037B6305EB4913C3F80819A3798B42B1
:10233800B8D109EBC90304EB83031A6AD9690A44C3
:102348001A62B9F1000FADD109EBC90304EB83039D
:102358005B6A002BA6D104F29C420121206802F09E
:102368005DF89FE74946284601F0C2FB09EBC9031F
:1023780004EB8303DB7D012B05D005EB4913022217
:10238800C3F80829ADE709EBC90304EB830300226E
:10239800DA755946204603F079FAEEE749462046B1
:1023A800FFF71EFBA0E77B6823F001037B6094F82E
:1023B800CC34012B08D0204603F05CFA226853691C
:1023C80003F0004353618DE6002184F8CC142046C5
:1023D80000F03FF9F2E7204603F034FA8DE67B6817
:1023E80023F001037B601021206801F081FB1AE0D3
:1023F80005EB46134FF67F31C3F80819D3F80029C7
:1024080022F40012C3F80029C3F8081BD3F8002BE4
:1024180022F40012C3F8002BD3F8002B42F000621C
:10242800C3F8002B01362379B342E1D8FB6943F0A6
:102438000113FB61E37BDBB1D7F8843043F00B0376
:10244800C7F884307B6C43F00B037B64D5F8003805
:1024580023F4FE63C5F8003804F29C42A179206891
:1024680001F0DCFF2268536903F48053536150E69E
:102478007B6943F4005343F02B037B613B6943F0D2
:102488000B033B61E2E7206801F0BAFF206801F026
:1024980049FCE071266800F0F7FB0146E279304616
:1024A80001F0A8FA204603F0B8F92268536903F44A
:1024B8000053536134E6204603F0A9F922685369B2
:1024C80003F00803536132E601362379B3420CD98D
:1024D80006EBC60304EB830393F85732012BF3D1C1
:1024E800F1B22046FFF791FDEEE7206801F024FFE6
:1024F80010F4801F25D1206801F01EFF10F4001F82
:1025080059D0012326E001362379B3421BD905EBC4
:102518004613D3F8002906EBC60304EB83031B7E9E
:10252800012BF0D1002AEEDA06EBC60304EB830395
:102538000122DA7566F07F01C9B22046FFF765FD12
:10254800E1E70126E0E72268536903F48013536149
:10255800D1E7013322799A4228D905EB4312D2F800
:10256800001B03EBC30204EB820292F85822012AF3
:10257800EFD10029EDDA01F48031D4F8D42402F047
:1025880001029142E5D103EBC30204EB820201216F
:1025980082F85712AA6942F08002AA616A6912F0A9
:1025A800800FD6D17B6843F400737B60226853693F
:1025B80003F400135361206801F0BEFE10F0804F51
:1025C80010D1206801F0B8FE10F0040F3FF440ADC0
:1025D80023685D6815F0040F0DD1226853682B43FA
:1025E800536035E5204603F057F92268536903F034
:1025F80080435361E5E7204603F054F9EDE710B452
:102608000468606A31B940EA0240A06200205DF8BF
:10261800044B70478C46A36A00EB1340002308E084
:1026280003F1400104EB8101496800EB11400133DB
:10263800DBB20CF1FF318B42F2D340EA02400CF1DD
:102648003F0104EB81046060E0E703685962002001
:1026580070477047002800F0E08170B582B00446EA
:10266800036813F0010F3BD09F4B9B6803F00C03EA
:10267800042B2CD09C4B9B6803F00C03082B21D017
:102688006368B3F5803F4FD0B3F5A02F52D0964B77
:102698001A6822F480321A601A6822F480221A60BA
:1026A8006368002B50D0FEF769FA05468E4B1B680D
:1026B80013F4003F14D1FEF761FA401B6428F5D9E2
:1026C8000320B1E1884B5B6813F4800FD8D0864BA8
:1026D8001B6813F4003F03D06368002B00F09F8150
:1026E800236813F0020F54D07F4B9B6813F00C0F34
:1026F8003ED07D4B9B6803F00C03082B33D0E36876
:10270800002B68D0794B01221A60FEF737FA05468C
:10271800754B1B6813F0020F54D1FEF72FFA401BBC
:102728000228F5D903207FE16F4A136843F4803308
:102738001360B5E76C4B1A6842F480221A601A6875
:1027480042F480321A60ABE7FEF718FA0546664B8A
:102758001B6813F4003FC3D0FEF710FA401B64282F
:10276800F5D9032060E1604B5B6813F4800FC6D194
:102778005D4B1B6813F0020F03D0E368012B40F098
:102788005081594A136823F0F803216943EAC103C9
:102798001360236813F0080F42D063696BB3534B7F
:1027A8000122C3F8802EFEF7E9F905464E4B5B6F10
:1027B80013F0020F34D1FEF7E1F9401B0228F5D9D6
:1027C800032031E1484A136823F0F803216943EAFA
:1027D800C1031360DDE7454B00221A60FEF7CEF90E
:1027E8000546414B1B6813F0020FD2D0FEF7C6F91D
:1027F800401B0228F5D9032016E13C4B0022C3F800
:10280800802EFEF7BBF90546374B5B6F13F0020FBE
:1028180006D0FEF7B3F9401B0228F5D9032003E1DF
:10282800236813F0040F77D02F4B1B6C13F0805FD5
:1028380033D1002301932C4B1A6C42F080521A6456
:102848001B6C03F080530193019B0125284B1B68E7
:1028580013F4807F23D0A368012B34D0052B38D004
:10286800214B1A6F22F001021A671A6F22F0040234
:102878001A67A368002B3DD0FEF780F906461A4B6D
:102888001B6F13F0020F46D1FEF778F9801B41F257
:1028980088339842F3D90320C6E00025D6E7144AC6
:1028A800136843F480731360FEF768F90646104B0B
:1028B8001B6813F4807FCED1FEF760F9801B0228D5
:1028C800F5D90320B0E0084A136F43F001031367FA
:1028D800CFE7054B1A6F42F004021A671A6F42F0ED
:1028E80001021A67C5E700BF0038024000004742EE
:1028F80000700040FEF742F90646524B1B6F13F07A
:10290800020F08D0FEF73AF9801B41F2883398424B
:10291800F3D9032088E0EDB9A369002B00F0838088
:10292800484A926802F00C02082A51D0022B17D0AC
:10293800454B00221A66FEF721F90446414B1B68F5
:1029480013F0007F42D0FEF719F9001B0228F5D9D1
:10295800032069E03B4A136C23F080531364DBE7E0
:10296800394B00221A66FEF709F90546354B1B68F4
:1029780013F0007F06D0FEF701F9401B0228F5D9B5
:10298800032051E0E369226A1343626A43EA82132F
:10299800A26A5208013A43EA0243E26A43EA02633E
:1029A800284A5360284B01221A66FEF7E7F80446C6
:1029B800244B1B6813F0007F06D1FEF7DFF8001BDD
:1029C8000228F5D903202FE000202DE000202BE07D
:1029D800012B2BD01B4B5B6803F48001E269914209
:1029E80026D103F03F02216A8A4223D1616A47F661
:1029F800C0721A40B2EB811F1ED103F44031A26AA3
:102A08005208013AB1EB024F18D103F07063E26A41
:102A1800B3EB026F14D1002006E0012070470120BB
:102A280002E0012000E0002002B070BD0120FBE7B9
:102A38000120F9E70120F7E70120F5E70120F3E796
:102A48000120F1E7003802400000474208B5334B47
:102A58009B6803F00C03042B5BD0082B5BD12F4B36
:102A68005A6802F03F025B6813F4800F2CD02B4B9E
:102A78005868C0F388104FEA401CBCEB000C6EEBA2
:102A88000E0E4FEA8E1343EA9C634FEA8C11B1EBAA
:102A98000C0163EB0E03DB0043EA5173C90011EB31
:102AA800000C43F10003590200234FEA4C2041EA8D
:102AB800DC51FDF765FB194B5B68C3F30143013338
:102AC8005B00B0FBF3F008BD144B5868C0F38810E6
:102AD8004FEA401CBCEB000C6EEB0E0E4FEA8E1357
:102AE80043EA9C634FEA8C11B1EB0C0163EB0E03D4
:102AF800DB0043EA5173C90011EB000C43F10003FA
:102B0800990200234FEA8C2041EA9C51FDF738FBDB
:102B1800D1E70348D7E70348D5E700BF00380240AC
:102B280000127A000024F400002800F09B8070B5A1
:102B38000D4604464F4B1B6803F007038B4208D22F
:102B4800CBB24C4A1370136803F007038B4240F072
:102B58008B80236813F0020F17D013F0040F04D0F2
:102B6800454A936843F4E0539360236813F0080FD1
:102B780004D0414A936843F4604393603E4A9368A3
:102B880023F0F003A1680B439360236813F0010F4F
:102B980032D06368012B21D09A1E012A25D9364AE2
:102BA800126812F0020F61D033498A6822F00302DA
:102BB80013438B60FDF7E2FF06462F4B9B6803F03B
:102BC8000C036268B3EB820F16D0FDF7D7FF801BAA
:102BD80041F288339842F0D9032042E0264A12682D
:102BE80012F4003FE0D101203BE0234A126812F0C2
:102BF800007FD9D1012034E01E4B1B6803F0070386
:102C0800AB4207D9EAB21B4B1A701B6803F00703E3
:102C1800AB422DD1236813F0040F06D0164A9368EF
:102C280023F4E053E1680B439360236813F0080F23
:102C380007D0114A936823F46043216943EAC1032A
:102C48009360FFF703FF0C4B9B68C3F303130B4A16
:102C5800D35CD8400A4B18600A4B1868FDF742FF4E
:102C6800002070BD012070470120FAE70120F8E735
:102C78000120F6E7003C024000380240D05D000821
:102C88000000002008000020014B1868704700BFB2
:102C98000000002008B5FFF7F7FF044B9B68C3F35B
:102CA8008223034AD35CD84008BD00BF00380240E5
:102CB800C85D000830B583B00446036813F0050FFB
:102CC80006D1236813F0020F2ED1002003B030BDC7
:102CD8004A4B00229A66FDF751FF0546484B1B6890
:102CE80013F0006F06D0FDF749FF431B022BF5D9FF
:102CF8000320EBE76268A3681B0743EA8213404A94
:102D0800C2F884303D4B01229A66FDF737FF05462D
:102D18003B4B1B6813F0006FD3D1FDF72FFF431B0C
:102D2800022BF5D90320D1E700230193344B1A6C09
:102D380042F080521A641B6C03F080530193019B8C
:102D4800304A136843F480731360FDF717FF054694
:102D58002C4B1B6813F4807F06D1FDF70FFF431B34
:102D6800022BF5D90320B1E7254B1B6F13F44073F1
:102D780014D0E26802F440729A420FD0204B1A6FC6
:102D880022F440721D490120C1F8400E0020C1F80C
:102D9800400E1A671B6F13F0010F13D1E36803F499
:102DA8004072B2F5407F1ED0154A936823F4F81399
:102DB800936013490B6FE268C2F30B0213430B676E
:102DC800002083E7FDF7DAFE05460D4B1B6F13F075
:102DD800020FE3D1FDF7D2FE401B41F2883398423F
:102DE800F3D9032072E706498A6822F4F81223F01F
:102DF800704323F4407313438B60DAE700004742C3
:102E08000038024000700040012801D000207047BF
:102E1800154B9B6813F4000302D01BB3134870478B
:102E2800114B5B6813F4800F14D00F4B5A6802F0F3
:102E38003F020F4BB3FBF2F30B4AD2F88400C0F306
:102E4800881003FB00F0D2F88430C3F30273B0FBA0
:102E5800F3F07047044B5A6802F03F02054BB3FB8E
:102E6800F2F3E9E700207047003802400080BB0019
:102E780000127A000024F4002DE9F04782B00546DC
:102E8800884617461E46FDF779FE0A9B1B1A03EB78
:102E98000609FDF773FE8246284B1B68C3F3CB3344
:102EA80009FB03F301932B689C6838EA04040CBF00
:102EB80001230023BB423DD0B6F1FF3FF3D0FDF71D
:102EC8005DFEA0EB0A00484507D2019A02B14A46C6
:102ED800019B013B01939146E5E72A68536823F07B
:102EE800E00353606B68B3F5827F0BD0AB6AB3F530
:102EF800005F14D0012385F85130002385F8503045
:102F0800032018E0AB68B3F5004F02D0B3F5806F2B
:102F1800ECD12A68136823F040031360E6E72A68B7
:102F2800136823F4005313602A68136843F40053AA
:102F38001360DFE7002002B0BDE8F0870000002042
:102F480070B584B004460D46164600920B46012221
:102F58000221FFF791FFD0B9174B1B68174AA2FB54
:102F680003235B0D4FF47A7202FB03F30393636848
:102F7800B3F5827F11D0039B3BB1039B013B0393C5
:102F880023689B6813F0800FF5D104B070BD636DA2
:102F980043F0200363650320F7E700962B460022E1
:102FA80080212046FFF768FF0028EED0636D43F0CC
:102FB800200363650320E8E700000020819F5E1678
:102FC80000285AD010B50446436A33B94368B3F5AC
:102FD800827F05D00023C36102E0002303614361BF
:102FE8000023A36294F85130002B40D0022384F8C8
:102FF80051302268136823F040031360636803F4B8
:103008008273A26802F404421343E26802F4006285
:103018001343226902F002021343626902F00102BB
:103028001343A26902F400721343E26902F0380202
:103038001343226A02F080021343A26A02F4005288
:10304800216813430B60638B03F00403626A02F088
:103058001002216813434B602268D36923F400638C
:10306800D36100206065012384F8513010BD84F8D5
:1030780050302046FDF73EFCB8E7012070472DE9A7
:10308800F04383B01D4690F85030012B00F0D180FA
:10309800044688469146012380F85030FDF76EFDBE
:1030A800074694F85160F6B2012E40F0BA80B8F1A4
:1030B800000F00F0B780B9F1000F00F0B3800323D0
:1030C80084F8513000236365C4F83080A4F8349044
:1030D800A4F83690A363A387E38763642364A36893
:1030E800B3F5004F1ED023681A6812F0400F03D1C1
:1030F8001A6842F040021A60E368B3F5006F1CD00A
:10310800636813B1B9F1010F55D1226B23681278A6
:103118001A73236B01332363E38E9BB2013B9BB28B
:10312800E38648E02268136823F0400313602268AE
:10313800136843F480431360D5E7636813B1B9F1AA
:10314800010F15D1226B23681288DA60236B0233D2
:103158002363E38E9BB2013B9BB2E38608E0FDF755
:103168000DFDC01BA84202D3B5F1FF3F15D1A5B193
:10317800E38E9BB2002B3CD023689A6812F0020FB2
:10318800EDD0226B1288DA60236B02332363E38E5F
:103198009BB2013B9BB2E386EAE7012384F85130F6
:1031A80003263FE0FDF7EAFCC01BA84202D3B5F1B5
:1031B800FF3F19D1C5B1E38E9BB2D3B123689A689A
:1031C80012F0020FEED0226B12781A73236B0133C0
:1031D8002363B4F836C01FFA8CFC0CF1FF3C1FFACD
:1031E8008CFCA4F836C0E6E7012384F851300326A6
:1031F80018E03A4629462046FFF7A2FE08B12023E8
:103208006365A36833B901932368DA6801929B6800
:103218000193019B636D2BB9012384F8513000267B
:1032280000E00226002384F85030304603B0BDE8A1
:10323800F0830226F9E72DE9F04383B01F460A9D83
:1032480090F85030012B00F01681044688469146CC
:10325800012380F85030FDF791FC064694F8513070
:10326800DBB26268012B0AD0B2F5827F40F0F080B1
:10327800A268002A40F0F380042B40F0F280B8F1F5
:10328800000F00F0F080B9F1000F00F0EE80002F81
:1032980000F0ED8094F85130DBB2042B02D0052306
:1032A80084F8513000236365C4F83890E787A7870E
:1032B800C4F83080E786A7862364636423681A68A5
:1032C80012F0400F03D11A6842F040021A60E36816
:1032D800B3F5006F11D063680BB1012F0BD1226BCE
:1032E800236812781A73236B01332363E38E9BB22E
:1032F800013B9BB2E38601276EE063680BB1012FA7
:103308000BD1226B23681288DA60236B02332363A4
:10331800E38E9BB2013B9BB2E38601271BE0236847
:103328009A6812F0010F0ED0E28F92B25AB1DA68A1
:10333800A36B1A80A36B0233A363E38F9BB2013B99
:103348009BB2E3870127FDF719FC801BA84202D333
:10335800B5F1FF3F1ED1E38E9BB21BB9E38F9BB241
:10336800002B5CD023689A6812F0020FD7D0E28E47
:1033780092B2002AD3D0002FD1D0226B1288DA6003
:10338800236B02332363E38E9BB2013B9BB2E3863C
:103398000027C4E7012384F85130032059E023684B
:1033A8009A6812F0010F0ED0E28F92B25AB1DA6821
:1033B800A36B1A70A36B0133A363E38F9BB2013B2A
:1033C8009BB2E3870127FDF7D9FB831BAB4202D3EE
:1033D800B5F1FF3F1ED1EDB1E38E9BB213B9E38F78
:1033E8009BB2E3B123689A6812F0020FD7D0E28E3D
:1033F80092B2002AD3D0002FD1D0226B12781A7340
:10340800236B01332363E38E9BB2013B9BB2E386BC
:103418000027C4E7012384F85130032019E032461D
:1034280029462046FFF78CFD70B9A36833B901938C
:103438002368DA6801929B680193019B636DC3B9A5
:10344800012384F8513004E020236365012000E063
:103458000220002384F8503003B0BDE8F083022036
:10346800F7E70220F5E70120F3E70120F1E7012063
:10347800EFE70120EDE70220EEE710B4036A046AE3
:1034880024F001040462846924F0F00C4CEA02126E
:1034980023F00A030B43826103625DF8044B704713
:1034A80010B4036A046A24F010040462846924F4E2
:1034B800704C4CEA023223F0A00343EA0113826104
:1034C80003625DF8044B7047836823F070030B4375
:1034D80043F0070383607047704770477047704731
:1034E800704770B504460368DE681D6915F0020F61
:1034F80010D016F0020F0DD06FF002021A610123EE
:10350800037703689B6913F0030F5ED0FFF7E6FFAC
:103518000023237715F0040F12D016F0040F0FD0F4
:1035280023686FF004021A610223237723689B69DA
:1035380013F4407F4FD02046FFF7D0FF00232377B6
:1035480015F0080F12D016F0080F0FD023686FF08F
:1035580008021A61042323772368DB6913F0030F39
:1035680040D02046FFF7BAFF0023237715F0100F4D
:1035780012D016F0100F0FD023686FF010021A61E6
:10358800082323772368DB6913F4407F31D0204672
:10359800FFF7A4FF0023237715F0010F02D016F0E0
:1035A800010F2DD115F0800F02D016F0800F2FD10A
:1035B80015F0400F02D016F0400F31D115F0200F52
:1035C80002D016F0200F33D170BDFFF786FF2046DA
:1035D800FFF785FF9CE72046FFF77FFF2046FFF7B0
:1035E8007EFFABE72046FFF778FF2046FFF777FF1F
:1035F800BAE72046FFF771FF2046FFF770FFC9E7DB
:1036080023686FF001021A612046FFF765FFC9E7DA
:1036180023686FF080021A61204600F07CF9C7E742
:1036280023686FF040021A612046FFF759FFC5E78B
:1036380023686FF020021A61204600F06BF9C3E797
:103648000368344A904212D0B0F1804F0FD0A2F5EF
:103658007C4290420BD002F58062904207D002F57E
:103668008062904203D002F57842904203D123F061
:1036780070034A681343274A90422AD0B0F1804F1A
:1036880027D0A2F57C42904223D002F58062904276
:103698001FD002F5806290421BD002F5784290421A
:1036A80017D002F57052904213D002F58062904212
:1036B8000FD002F5806290420BD0A2F5983290426A
:1036C80007D002F58062904203D002F580629042F2
:1036D80003D123F44073CA68134323F080034A6973
:1036E800134303608B68C3620B688362094B98427B
:1036F80003D003F58063984201D10B69036301236A
:103708004361036913F0010F03D0036923F0010338
:10371800036170470000014040B310B5044690F8BB
:103728003D30F3B1022384F83D30214651F8040BB3
:10373800FFF786FF012384F8463084F83E3084F88A
:103748003F3084F8403084F8413084F8423084F8BF
:10375800433084F8443084F8453084F83D30002004
:1037680010BD80F83C30FDF767F9DBE701207047B2
:1037780010B4846824F47F4C42EA03220A4342EAE4
:103788000C0282605DF8044B704790F83C30012BC6
:1037980078D010B50446012380F83C30022380F825
:1037A8003D300268936823F47F4323F077039360E6
:1037B8000B68602B4CD023D8402B54D011D8202B29
:1037C80003D00AD80BB1102B05D119462068FFF792
:1037D8007BFE002028E0012026E0302BF5D00120D8
:1037E80022E0502B0AD1CA6849680068FFF745FEF5
:1037F80050212068FFF768FE002015E0012013E043
:10380800B3F5805F3AD0B3F5005F14D0702B37D191
:10381800CB684A6889680068FFF7AAFF226893683E
:1038280043F0770393600020012384F83D300023A0
:1038380084F83C3010BDCB684A6889680068FFF797
:1038480097FF2268936843F4804393600020EBE776
:10385800CA6849680068FFF723FE60212068FFF7FF
:1038680033FE0020E0E7CA6849680068FFF705FEF4
:1038780040212068FFF728FE0020D5E70020D3E785
:103888000120D1E70220704790F83C20012A3DD062
:1038980010B40346012280F83C20022280F83D2023
:1038A80002685068946820F0700C086840EA0C00C0
:1038B80050601A68164882421AD0B2F1804F17D069
:1038C800A0F57C40824213D000F5806082420FD080
:1038D80000F5806082420BD000F57840824207D024
:1038E80000F57050824203D0A0F59430824204D192
:1038F80024F08004496821439160012283F83D2027
:10390800002083F83C005DF8044B704702207047A4
:10391800000001407047704782B000230193019B6B
:1039280001330193019BB3F1706F15D80369002B24
:10393800F5DA00230193036943F001030361019B56
:1039480001330193019BB3F1706F08D8036913F039
:10395800010FF4D1002000E0032002B070470320DB
:10396800FBE784B010B5044603A880E80E009DF874
:103978001130012B21D1A36B23F48033A363E368B7
:1039880023F4840323F04003E360E36823F4401343
:10399800E3609DF81830012B0AD02046FFF7BCFFE2
:1039A8009DF80E30012B1CD0BDE8104004B07047C4
:1039B800E36843F48013E360EFE7E36843F0400310
:1039C800E3602046FFF7A8FF9DF8153023B9A36BE5
:1039D80043F48033A363E3E7A36B23F48033A36347
:1039E800DEE7A36843F00603A360A36843F020035F
:1039F800A360D9E7022A0AD00922C36823F47053C6
:103A0800C360C36843EA8223C36000207047234B26
:103A18000B44234A93422FD9224B0B44224A934208
:103A28002CD9A1F57403A3F51053204A934227D942
:103A3800A1F18373A3F5E7431D4A934222D31D4B9B
:103A48000B441D4A93421FD91C4B0B441C4A9342FA
:103A58001CD31C4B0B441C4A934219D3A1F1B773D6
:103A6800A3F55853194A934214D3194B0B44194AD6
:103A7800934211D20722C0E70F22BEE70E22BCE70D
:103A88000D22BAE70C22B8E70B22B6E70A22B4E700
:103A98000922B2E70822B0E70622AEE7405327FF23
:103AA800FF340C00401E1BFF3F420F007F4F1200E7
:103AB80020D6130060B6E5FE5FE3160000D3CEFE05
:103AC80040771B00C05BB3FEC09121002075380011
:103AD800E05459FEE09C4100836843F00103836091
:103AE80000207047836823F001038360002070473B
:103AF80082B000230193019B01330193019BB3F131
:103B0800706F15D80369002BF5DA0023019389013A
:103B180041F020010161019B01330193019BB3F145
:103B2800706F08D8036913F0200FF4D1002000E06B
:103B3800032002B070470320FBE782B00023019303
:103B4800019B01330193019BB3F1706F13D8036993
:103B5800002BF5DA0023019310230361019B013345
:103B68000193019BB3F1706F08D8036913F0100F2C
:103B7800F4D1002000E0032002B070470320FBE7E7
:103B8800D0F800381943C0F800180020704700002A
:103B980084B0F8B5044607A880E80E00002306E0C4
:103BA80003F1400204EB82020021516001330E2B25
:103BB800F6D99DF8266006BBD4F8043843F0020312
:103BC800C4F80438A36B43F40013A363A36B23F472
:103BD8000023A363A36B23F48023A3630023C4F807
:103BE800003E9DF82130012B15D19DF81F306BB98F
:103BF80000212046FFF7C4FF11E0A36B23F4001354
:103C0800A363A36B43F40023A363E7E701212046E2
:103C1800FFF7B6FF03E003212046FFF7B1FF1021AD
:103C28002046FFF765FF054600B101252046FFF74E
:103C380084FF00B1012504F5006C0023CCF8103096
:103C4800CCF81430CCF81C300AE0CBB94FF0006047
:103C5800C2F8000900220A614FF67F328A600133F8
:103C68009DF81C10994210D904EB431202F510611B
:103C7800D2F800090028E8DB0020C2F80009E9E7CB
:103C88004FF09040C2F80009E4E700230AE0BBB116
:103C98004FF09047C2F8007B002202614FF67F3256
:103CA80082600133994210D904EB431202F5306067
:103CB800D2F8007B002FEADB0027C2F8007BEBE795
:103CC8004FF00067C2F8007BE6E7DCF8103023F419
:103CD8008073CCF810300023A3616FF080436361D8
:103CE8009DF81E301BB9A36943F01003A361A269B4
:103CF8000B4B1343A3619DF822301BB1A36943F01A
:103D08000803A361012E04D02846BDE8F84004B09A
:103D18007047A36943F0804343F00403A361F3E7CA
:103D280000383C80D0F8083803F00603022B04D092
:103D3800062B04D02BB900207047022070470220C0
:103D480070470F20704710B591F800C04B78012BD1
:103D580023D000F5006ED0F81C380CF00F040122B7
:103D6800A24043EA0243C0F81C3800EB4C10D0F8DC
:103D7800003B13F4004F0ED1D0F8003B8A68C2F321
:103D88000A02097942EA8142134343F0805343F41B
:103D98000043C0F8003B002010BDD0F81C280CF0F0
:103DA8000F0E03FA0EF39BB21343C0F81C3800EB56
:103DB8004C10D0F8003913F4004FECD1D0F800398A
:103DC8008A68C2F30A02097942EA814242EA8C52BD
:103DD800134343F0805343F40043C0F80039DAE753
:103DE80030B40B784A78012A26D000EB4313D3F875
:103DF800002B002A52DBD0F83C480A7802F00F0268
:103E08004FF0010C0CFA02F224EA0242C0F83C28F6
:103E1800D0F81C28097801F00F010CFA01FC22EAFD
:103E28000C42C0F81C28D3F8001B234A0A40C3F8E8
:103E3800002B002030BC704700EB4313D3F8002957
:103E4800002A1EDBD0F83C580A7802F00F02012441
:103E580004FA02F292B225EA0202C0F83C28D0F82D
:103E68001C28097801F00F018C40A4B222EA040250
:103E7800C0F81C28D3F80019104A0A40C3F80029D2
:103E8800D7E7D3F8002942F00062C3F80029D3F835
:103E9800002942F08042C3F80029D3E7D3F8002B69
:103EA80042F00062C3F8002BD3F8002B42F08042A6
:103EB800C3F8002B9FE700BF0078F3EF007833ECDE
:103EC80010B483B0024600230193487801280BD030
:103ED8000B7802EB4313D3F8000B00282DDB0020EE
:103EE80003B05DF8044B70470B7802EB4313D3F82B
:103EF8000049002C01DB0020F2E7D3F8004944F028
:103F08000064C3F800490B7802EB4313D3F8004967
:103F180044F08044C3F80049019B01330193019C9C
:103F280042F210739C42DBD80B7802EB4313D3F8B0
:103F38000039002BF0DB0020D2E7D3F8000B40F06B
:103F48000060C3F8000B0B7802EB4313D3F8000BA7
:103F580040F08040C3F8000B019B013301930198A6
:103F680042F21073984208D80B7802EB4313D3F847
:103F7800003B002BF0DB0020B2E70120B0E710B5D2
:103F88009DF8084084B903334FEA930E4FF0000CB4
:103F980008E000EB023303F5805351F8044B1C6032
:103FA8000CF1010CF445F4D3002010BDF0B583B03A
:103FB8000C784B78012B2DD000EB441C0CF53063AA
:103FC8001D696FF312051D611D696FF3DC451D61E5
:103FD800002C40F0C8800C690CB18C680C618C68AE
:103FE8000C621D69C4F312042C431C611C6944F45F
:103FF80000241C61012A00F0D9800B79012B00F004
:10400800DB80DCF8003B43F00443CCF8003B0020A5
:1040180003B0F0BD0B6973BB00EB4413D3F8105920
:104028006FF3DC45C3F81059D3F8105945F400254F
:10403800C3F81059D3F810596FF31205C3F8105983
:10404800012A4ED000EB4414D4F8003943F004435D
:10405800C4F800390B79012B6CD00B69002BD6D032
:10406800D0F83438097801F00F0101228A4013434F
:10407800C0F83438CBE700EB441303F510631D692F
:104088006FF312051D611D696FF3DC451D61DCB915
:104098000E698D68AE4200D90D611D6945F4002591
:1040A8001D611D690E69C6F3120C45EA0C051D61F8
:1040B8000D79012DC4D11D6925F0C0451D611D690B
:1040C80045F000551D61BBE71E690D698F683D44C9
:1040D800013DB5FBF7F5424F07EAC54535431D617C
:1040E800DFE7CB691BB100EB4412C2F814390B7936
:1040F800012B08D000EB4414D4F8003943F00443F2
:10410800C4F8003983E7D0F8083813F4807F08D161
:1041180000EB4412D2F8003943F00053C2F80039DA
:10412800E8E700EB4412D2F8003943F08053C2F8B4
:104138000039DFE7D0F8083813F4807F0CD1D4F8C1
:10414800003943F00053C4F8003900920B8A0A780A
:10415800C968FFF714FF5AE7D4F8003943F08053D1
:10416800C4F80039F1E70C6954B91C698D68C5F3C6
:1041780012052C431C611C6944F400241C6139E7B6
:104188008D682C44013CB4FBF5F4A4B204FB05F59E
:104198000D621D69124E06EAC4442C431C611C6959
:1041A8000D6AC5F312052C431C6123E7CA68002A6F
:1041B8003FF423AF5A6120E7D0F8083813F4807F22
:1041C80006D1DCF8003B43F00053CCF8003B18E77D
:1041D800DCF8003B43F08053CCF8003B11E700BF0C
:1041E8000000F81F10B5844608464FEA920E02F008
:1041F8000302002305E00CF58051096840F8041B10
:1042080001337345F7D37AB10CF5805CDCF80040D4
:104218000021CBB2DB0024FA03F300F8013B0131A3
:10422800013A92B2002AF4D110BD0B784A78012ADB
:1042380014D000EB4310D0F8002B002A06DB2BB17A
:10424800D0F8003B23F08043C0F8003BD0F8003B97
:1042580043F40013C0F8003B0020704700EB431004
:10426800D0F80029002A06DB2BB1D0F8003923F05A
:104278008043C0F80039D0F8003943F40013C0F87F
:104288000039E9E70B784A78012A0ED000EB431091
:10429800D0F8003B23F40013C0F8003B0B79023B35
:1042A800DBB2012B15D90020704700EB4310D0F882
:1042B800003923F40013C0F800390B79023BDBB254
:1042C800012BF0D8D0F8003943F08053C0F80039FA
:1042D800E9E7D0F8003B43F08053C0F8003BE2E741
:1042E800D0F8003823F4FE63C0F80038D0F800385E
:1042F800090101F4FE610B43C0F800380020704743
:10430800D0F8003E23F00303C0F8003ED0F804388C
:1043180023F00203C0F8043800207047D0F8003EAC
:1043280023F00303C0F8003ED0F8043843F002033A
:10433800C0F804380020704742698069104070470F
:10434800D0F8183800F50060C0691840000C7047B4
:10435800D0F8183800F50060C069184080B270477E
:1043680000EB4111D1F8082B00F5006040691040BE
:104378007047D0F81028D0F8343801F00F0C23FA21
:104388000CF3DB01DBB2134300EB411000F51060C6
:10439800806818407047406900F00100704738B5E0
:1043A8000546C36823F0C043C360012913D019BB75
:1043B800C36843F08043C36000240A20FCF7E4FB91
:1043C8000A342846FFF7E7FF08B1C72CF5D9C82CEF
:1043D80014D0002038BDC36843F00053C3600024E4
:1043E8000A20FCF7D1FB0A342846FFF7D4FF01283E
:1043F800EDD0C72CF4D9EAE70120EBE70120E9E783
:10440800D0F800396FF30A03C0F80039D0F804383F
:1044180043F48073C0F804380020704710B4046C6B
:10442800154B9C4203D9D0F8003B002B16DB002427
:10443800C0F8104BD0F8104B44F40024C0F8104BCF
:10444800D0F8104B44F01804C0F8104BD0F8104BBB
:1044580044F0C044C0F8104B012903D000205DF897
:10446800044B7047C0F8142BD0F8003B43F080236E
:10447800C0F8003BF2E700BF0A30544F10B5D0F83F
:10448800D43203F1B00250F822408CB100EB820024
:1044980043687BB194F80002FF280DD09B6894F81C
:1044A800012221469847FF2384F80032002010BDDE
:1044B8000320FCE70020FAE70020F8E70A2303803E
:1044C8000048704788000020F8B506460F4F822143
:1044D800384600F03EFC05460121384600F039FC1C
:1044E80004468121384600F034FC0DB11022AA712F
:1044F8001CB1402222710022627118B1402202715F
:1045080000224271432333800048F8BD0C0000208C
:10451800F8B506460F4F8221384600F01AFC0546CA
:104528000121384600F015FC04468121384600F088
:1045380010FC0DB11022AA711CB140222271002278
:10454800627118B140220271002242714323338004
:104558000048F8BD0C000020F8B506460F4F822130
:10456800384600F0F6FB05460121384600F0F1FB1D
:1045780004468121384600F0ECFB0DB11022AA71E7
:104588001CB1002222710222627118B1002202714C
:1045980002224271432333800048F8BD0C000020FA
:1045A80038B5D0F8D432B03350F8235095B104461A
:1045B80001F0C8F9C5F80C02D4F8D432B03304EBD2
:1045C80083046368DB6805F50371D5F8040298472E
:1045D800002038BD0320FCE738B5D0F8C852D0F821
:1045E800D432B03350F8234084B301F00F0303EB07
:1045F800830200EB820292694AB103EBC30C05EB1C
:104608008C05ED69B2FBF5FC05FB1C2292B1002379
:10461800C4F81432D0F8D432B03300EB83004368C6
:104628001B69ABB10A4604F50471D4F8080298472F
:10463800002038BD03EB830300EB830300249C6157
:104648002346224601F0C6F92046F2E70320F0E7A8
:104658000020EEE7F0B583B0D0F8D43203F1B00211
:1046680050F8227000228DF80720ADF80420002FA2
:104678007BD004460D46097811F0600634D0202E10
:104688006CD1EA882AB311F0800F07D16B7887F8CC
:104698000032EA883F2A13D8D2B212E0B03300EBD6
:1046A80083035B689B68394668789847EA88072AD5
:1046B80028BF07223946204600F0FCFE002651E0BC
:1046C800402287F801223946204600F008FF0026DC
:1046D80048E0B03300EB83035B689B6800222946FF
:1046E8006878984700263DE06F780B2F31D8DFE8CF
:1046F80007F006393030303030303030162690F838
:104708009C32DBB2032B04D0294600F05FFB032662
:1047180028E0022201A900F0CDFE3E4622E090F8F2
:104728009C32DBB2032B04D0294600F04FFB032652
:1047380018E001220DF1070100F0BCFE12E090F82C
:104748009C32DBB2032B0DD0294600F03FFB032639
:1047580008E0294600F03AFB032603E0294600F06A
:1047680035FB0326304603B0F0BD0326FAE738B51B
:104778000446812101F00EF90025258701212046F4
:1047880001F008F9A4F878518221204601F002F9D5
:10479800A4F84C50A4F84E50D4F8D43203F1B00227
:1047A80054F822209AB1B03304EB83035B685B684A
:1047B8009847D4F8D432B03354F8230001F0CCF839
:1047C800D4F8D432B03344F82350C4F8BC52002093
:1047D80038BD70B504464FF4077001F0B9F80028E9
:1047E80049D005464FF40772002101F02CF9D4F89E
:1047F800D432B03344F82350C4F8BC52237C002B85
:1048080041D14FF4007302228121204601F0B7F80C
:10481800012626874FF4007302223146204601F014
:10482800AEF8A4F878611023A4F84E3008230322C8
:104838008221204601F0A3F80123A4F84C30002679
:10484800C5F80462D4F8D432B03304EB83035B6850
:104858001B689847C5F81462C5F81862D5F8042291
:1048680062B3257C1DBB4FF400730121204601F083
:10487800B9F8284670BDD4F8D432B033002244F8D1
:1048880023200225F5E7402302228121204601F05A
:1048980076F801262687402302223146204601F079
:1048A8006EF8A4F878611023A4F84E30BEE74023D0
:1048B8000121204601F096F80025DAE70225D8E71D
:1048C80039B1D0F8D432B03300EB83004160002016
:1048D800704703207047D0F8D432B03350F82330F3
:1048E8002BB1C3F80812C3F8102200207047032028
:1048F8007047D0F8D432B03350F823301BB1C3F826
:104908000412002070470320704708B5D0F8D4324D
:10491800B03350F823208AB1D2F814320BB10120F9
:1049280008BD0123C2F81432D2F81032C362D2F89B
:104938000822812101F04EF80020F1E70320EFE77B
:1049480010B5D0F8D432B03350F8232092B1047C9B
:1049580044B94FF40073D2F80422012101F042F85F
:10496800204610BD4023D2F80422012101F03AF874
:104978000024F5E70324F3E798B108B503460020BF
:10498800C3F8B802C3F8C402C3F8D00209B1C3F827
:10499800B412012183F89C121A70184600F088FF9F
:1049A80008BD0320704710B582B00023ADF806306B
:1049B80089B10446C0F8B812CB6A23B10DF10600DC
:1049C8009847C4F8D002D4F8D8320133C4F8D832A2
:1049D800002002B010BD0320FBE708B500F0C7FFB8
:1049E80008BD08B5D0F8B83213B11B68984708BDA0
:1049F8000020FCE708B5D0F8B8325B68984700B9E2
:104A080008BD0320FCE738B5044600F2AA2528466D
:104A180000F0C8F90123C4F89432B4F8B032C4F8ED
:104A2800983294F8AA1201F01F03012B07D0022B29
:104A38000AD073B92946204600F08AFB38BD2946BA
:104A4800204600F0C0FBF9E72946204600F0FDFBB0
:104A5800F4E701F08001204600F0A4FFEEE7F8B586
:104A68000446012380F89C320023C0F89432436046
:104A7800C0F8A43280F8A032D0F8B832DBB15B6855
:104A8800DBB1002198470746C8B9402300221146E8
:104A9800204600F074FF0126A4F864614025C4F89C
:104AA80060512B4600228021204600F068FFA68432
:104AB80025623846F8BD0027E7E70027E5E7032722
:104AC800E3E701740020704790F89C32DBB2042BB6
:104AD80004D090F89C32DBB280F89D32042380F831
:104AE8009C320020704790F89C32DBB2042B01D036
:104AF8000020704790F89D32DBB280F89C32F7E7CF
:104B080008B590F89C32DBB2032B01D0002008BD19
:104B1800D0F8B832002BF9D0DB69002BF6D09847D3
:104B2800F4E708B5D0F8D432AE3350F823205AB1A0
:104B380090F89C32DBB2032B01D0002008BD136A29
:104B480023B198470020F9E70320F7E70020F5E7AD
:104B580008B5D0F8D432AE3350F823205AB190F8C3
:104B68009C32DBB2032B01D0002008BD536A23B16D
:104B780098470020F9E70320F7E70020F5E7002031
:104B8800704708B5012380F89C32D0F8B83223B1B9
:104B98005B680179984710B908BD0020FCE703203D
:104BA800FAE7002070470020704738B504460D46E4
:104BB800002942D11346D0F89422032A01D008468E
:104BC80038BDD0F85C11D0F86021914209D890F82E
:104BD800AA3203F01F03012B0ED0022B1BD028464C
:104BE8000FE0891AC0F85C118A4228BF0A461946A4
:104BF80000F084FC2846E3E790F8AE12FFF7D1FFF7
:104C080020B994F89C32DBB2032B09D0204600F07F
:104C18007DFC2846D4E790F8AE12FFF7C4FFEFE713
:104C280000F1AE0354F823301A69002AEED0C4F814
:104C3800D4021B6920469847E8E701F07F01FFF797
:104C4800B2FF90B994F89C32DBB2032BB8D100F1D3
:104C5800AE0354F823309A69002AB1D0C4F8D402BC
:104C68009B69294620469847AAE70020A8E738B557
:104C780004460D4600294BD11346D0F89422022A47
:104C880007D094F8A00218B1002384F8A03228466F
:104C980038BDC269016A8A420ED88A4218D094F88F
:104CA8009C32DBB2032B27D08021204600F07AFE0D
:104CB800204600F036FCE4E7521AC261194600F0BB
:104CC80006FC00231A461946204600F08BFED8E75A
:104CD80083699942E3D8D0F898229342DFD2002220
:104CE800114600F0F4FB0021C4F898120B460A465E
:104CF800204600F077FEC4E7D4F8B832DA68002A14
:104D0800D2D00022C4F8D422DB6820469847CBE7EB
:104D180041F08001FFF747FF90B994F89C32DBB26D
:104D2800032BB5D100F1AE0354F823305A69002A99
:104D3800AED0C4F8D4025B69294620469847A7E755
:104D48000020A5E70B88027813440B8003781844E9
:104D58007047428803789A4218D930B583B0044620
:104D68000D46ADF806306388BDF806209A420AD28F
:104D78000DF10601FFF7E6FF4378052BF3D18378A1
:104D8800AB42F0D100E0002003B030BD00207047F6
:104D98000346002002E00130C0B201331A78002A2D
:104DA800F9D170470B7803704B7843708B78CA78C9
:104DB80043EA022343800B794A7943EA022383803A
:104DC8008B79CA7943EA0223C380704710B5044639
:104DD800802100F0E7FD0021204600F0E3FD10BD32
:104DE80030B583B004460D460023ADF806304A8836
:104DF800130A013B062B00F2AB80DFE803F0041F27
:104E080033A9A98D9A00D0F8B4321B680DF10601B8
:104E1800007C9847EA88002A00F0A380BDF8063095
:104E2800002B00F099809A4228BF1A46ADF8062058
:104E38000146204600F03EFB03B030BD037C43B979
:104E4800D0F8B8329B6A0DF10600984702234370E8
:104E5800E0E7D0F8B832DB6A0DF106009847022384
:104E68004370D7E7D2B2052A52D8DFE802F0031020
:104E78001D2A3744D0F8B4325B6823B10DF106011E
:104E8800007C9847C6E72946FFF7A0FFD4E7D0F88B
:104E9800B4329B6823B10DF10601007C9847B9E74D
:104EA8002946FFF793FFC7E7D0F8B432DB6823B190
:104EB8000DF10601007C9847ACE72946FFF786FF0D
:104EC800BAE7D0F8B4321B6923B10DF10601007CB2
:104ED80098479FE72946FFF779FFADE7D0F8B43246
:104EE8005B6923B10DF10601007C984792E72946DA
:104EF800FFF76CFFA0E7D0F8B4329B6923B10DF13E
:104F08000601007C984785E72946FFF75FFF93E78E
:104F18002946FFF75BFF8FE7037C33B9D0F8B83237
:104F28005B6B0DF10600984774E72946FFF74EFFC3
:104F380082E7037C43B9D0F8B8321B6B0DF1060049
:104F480098470723437065E72946FFF73FFF73E754
:104F58002946FFF73BFF6FE729462046FFF736FF54
:104F68006AE7204600F0D2FA66E738B504468B882F
:104F7800FBB9CB88EBB94B887F2B1AD803F07F0598
:104F880090F89C32DBB2032B0CD080F89E52294655
:104F980000F018FD204600F0B9FA35B1022384F874
:104FA8009C3209E0FFF712FF06E0012384F89C32E7
:104FB80002E02046FFF70AFF38BD000070B504463E
:104FC8000E468D782F4B1D70012D10D890F89C320D
:104FD800DBB2022B0FD0032B26D0FFF7F7FE294BAD
:104FE80019782046FFF706FD0325284670BDFFF710
:104FF800EDFE0325F9E7A5B145602946FFF7F1FC69
:10500800054638B131462046FFF7E0FE022384F812
:105018009C32EAE7204600F079FA032384F89C32B0
:10502800E3E700F073FAE0E7CDB141688D4225D09F
:10503800C9B2FFF7DFFC134B197861602046FFF710
:10504800D0FC0546B0B131462046FFF7BFFE2179B6
:105058002046FFF7CFFC022384F89C32C5E70223E1
:1050680080F89C3245602946FFF7C4FC204600F0D2
:105078004DFABAE7204600F049FAB6E700F046FADA
:105088000025B2E7A403002008B5CB88012B0BD17B
:1050980090F89C32DBB2022B09D9032B11D10122E3
:1050A800011D00F007FA01E0FFF790FE08BD5BB2B2
:1050B8003BB10146002341F8083F012200F0FAF90C
:1050C800F4E7FFF783FEF1E708B590F89C32013B5F
:1050D800022B12D8CB88022B0CD10123C360D0F845
:1050E800A4320BB10323C360022200F10C0100F0CB
:1050F800E1F908BDFFF76AFEFBE7FFF767FEF8E78F
:1051080008B54B88012B04D0022B07D0FFF75EFEB1
:1051180008BDC0F8A43200F0F9F9F9E78B881B0A3A
:1051280080F8A03200F0F2F9F2E708B590F89C3266
:10513800013B022B09D84B88012B00D008BD002366
:10514800C0F8A43200F0E2F9F8E7FFF73FFEF5E710
:1051580038B50C7804F06004202C06D0402C04D01C
:105168006CB1FFF733FE002407E0D0F8D432AE3339
:1051780050F823309B6898470446204638BD4D7840
:10518800092D1DD8DFE805F012191C161C08051C8E
:105198000F0BFFF725FEF0E7FFF7E7FEEDE7FFF758
:1051A8000DFF0446E9E7FFF76FFFE6E7FFF78CFF1F
:1051B8002C46E2E7FFF7A4FFDFE7FFF7B6FFDCE7DF
:1051C800FFF704FED9E770B505460C460B7803F0E7
:1051D8006003202B07D0402B05D023B1FFF7F6FD45
:1051E8000026304670BD95F89C32013B022B26D82C
:1051F8002179012905D921462846FFF7E7FD002630
:10520800EFE72846FFF7CDFC68B900F1AE0255F884
:105218002220916889B1C5F8D402936821462846AE
:105228009847064600E00326E388002BD9D1002ED4
:10523800D7D1284600F06AF9D3E70326F4E72146D8
:105248002846FFF7C3FD0026CBE72DE9F0410646C7
:105258000D468B88DFB20C7804F06004202C08D04F
:10526800402C06D0DCB1FFF7B1FD00242046BDE894
:10527800F08139463046FFF796FC0446002840F096
:10528800F880C6F8D40200F1AE0356F823309B68C4
:10529800002BEBD02946304698470446E6E791F8BC
:1052A8000180B8F1010F31D0B8F1030F05D0B8F182
:1052B800000F67D0FFF78AFDD8E790F89C32DBB281
:1052C800022B04D0032B12D0FFF780FDCEE70FB1DD
:1052D800802F04D129463046FFF778FDC6E73946C6
:1052E80000F060FB8021304600F05CFBBEE74B8895
:1052F80023B91FB1802F01D0CB881BB1304600F0F5
:1053080005F9B3E7394600F04DFBF7E790F89C3212
:10531800DBB2022B04D0032B12D0FFF757FDA5E711
:105328000FB1802F04D129463046FFF74FFD9DE786
:10533800394600F037FB8021304600F033FB95E713
:105348004B88002B92D117F07F0F17D1304600F011
:10535800DDF839463046FFF726FC002886D1C6F826
:10536800D40200F1AE0256F822209268002A00F01A
:105378008280294630469047044677E7394600F050
:1053880019FBE3E790F89C22D2B2022A05D0032A3F
:1053980027D0FFF71BFD444668E70FB1802F13D1D4
:1053A80013F0800F14D107F07F0707EB8707B900C8
:1053B80001F5A8713144043100230B600222304604
:1053C80000F078F8444651E7FFF700FD44464DE702
:1053D80007F07F0707EB8707B90010313144043124
:1053E800EAE75BB2002B1FDB07F00F0202EB820239
:1053F80000EB8202B2F864211AB3002B25DB07F018
:105408007F0303EB83039C0004F5A874344404343D
:105418000FB1802F22D1002323600222214630467B
:1054280000F048F8444621E707F00F0202EB820239
:1054380000EB8202928C002ADFD1FFF7C7FC4446BA
:1054480014E7FFF7C3FC444610E707F07F0303EBBC
:1054580083039C00103434440434D9E73946304679
:1054680000F05AFA10B101232360D6E70023236025
:10547800D3E70024FAE60446F8E6D0B170B50D4645
:1054880016460446FFF784FC431C5B009BB233803E
:105498002B7003236B70022307E0EA5401345A1C73
:1054A800D2B20021A9540233DBB22278002AF4D107
:1054B80070BD704708B513460222C0F89422836174
:1054C800C3610A46002100F085FA002008BD08B52E
:1054D80013460A46002100F07DFA002008BD08B5F1
:1054E80013460322C0F89422C0F85831C0F85C3142
:1054F8000A46002100F076FA002008BD08B51346D8
:105508000A46002100F06EFA002008BD08B5042202
:10551800C0F8942200231A46194600F05BFA0020CE
:1055280008BD08B50522C0F8942200231A4619467A
:1055380000F058FA002008BD08B500220F491048AD
:10554800FFF71AFA70B90F490D48FFF72CFA60B93E
:105558000D490B48FFF7B4F950B90948FFF73DFA70
:1055680048B908BDFAF7A0FFEDE7FAF79DFFEFE7A6
:10557800FAF79AFFF1E7FAF797FFF2E7DC00002065
:10558800A80300205000002094000020002070474D
:10559800002070470020704710B50146044C204693
:1055A800FFF7A7F92046FFF7CBF9002010BD00BF91
:1055B800A803002010B5064C002206492046FFF734
:1055C8008AF905492046FFF794F9002010BD00BF6D
:1055D800A803002084060020840E0020094BD3F87D
:1055E800BC32D3F814320BB10120704710B5054C0A
:1055F8000A4601462046FFF76EF92046FFF785F96F
:1056080010BD00BFA803002012230B80004870477C
:10561800C800002004230B8000487047C400002005
:10562800002393421ED200B510E00CF1370C01F8AC
:1056380013C000014FEA430C0CF1010C4FF0000EAF
:1056480001F80CE00133DBB2934209D24FEA107C37
:10565800B0F1204FE9D20CF1300C01F813C0E8E7A3
:105668005DF804FB7047000038B50B4BD3F8100AFF
:10567800D3F8144AD3F8183AC01800D138BD074DEA
:1056880008222946FFF7CCFF042205F11001204625
:10569800FFF7C6FFF2E700BF0070FF1FAA00002057
:1056A80008B51A230B80FFF7DFFF014808BD00BFCC
:1056B800A800002008B50A4628B905490548FFF79B
:1056C800DCFE034808BD02490248FFF7D6FEF8E7AA
:1056D80084160020805D000810B50A46034C214658
:1056E8000348FFF7CAFE204610BD00BF84160020FD
:1056F800985D000808B50A4628B905490548FFF726
:10570800BCFE034808BD02490248FFF7B6FEF8E7A9
:1057180084160020AC5D000808B50A4628B905497A
:105728000548FFF7AAFE034808BD02490248FFF7EB
:10573800A4FEF8E784160020B85D000870B588B0AC
:105748000023039304930593069307930368B3F127
:10575800A04F01D008B070BD002501951A4C236BED
:1057680043F001032363236B03F001030193019BBF
:105778004FF400730393154E03A93046FBF74EFC14
:105788004FF4E053039302230493059506950A23E7
:10579800079303A93046FBF741FC636B43F0800392
:1057A80063630295636C43F480436364636C03F43E
:1057B80080430293029B2A4629464320FBF74CFA72
:1057C8004320FBF759FAC5E70038024000000240C1
:1057D80008B500F29C41D0F8E004FFF714F908BDC1
:1057E80008B501EBC10300EB8303D3F86022D0F8BE
:1057F800E004FFF7DAF908BD08B501EBC10300EBD7
:1058080083031A6AD0F8E004FFF731FA08BD08B537
:10581800D0F8E004FFF774F908BD10B50446C17963
:1058280011B1022909D10121D4F8E004FFF749F99F
:10583800D4F8E004FFF713F910BDFAF735FE01219B
:10584800F2E7000010B50446D0F8E004FFF73CF991
:105858002268D2F8003E43F00103C2F8003EE37A22
:1058680023B1034A136943F00603136110BD00BF57
:1058780000ED00E008B5D0F8E004FFF734F908BD02
:1058880008B5D0F8E004FFF763F908BD08B5D0F80B
:10589800E004FFF746F908BD08B5D0F8E004FFF7C3
:1058A8006EF908BD08B5D0F8E004FFF76AF908BD3D
:1058B80002780AB10020704710B503461548C0F8B1
:1058C800E034C3F8C8024FF0A04303600423037117
:1058D8000222C2710023837142728372C3720373FE
:1058E80001228273C373FCF7E3F880B9094C802165
:1058F8002046FCF7AAFE402200212046FCF77FFE46
:10590800802201212046FCF77AFE002010BDFAF71C
:10591800CBFDEBE7A41A0020D0F8C83211F0800FB5
:1059280008D101F07F0101EBC10103EB810393F87A
:105938005602704701F07F0101EBC10103EB8103BF
:10594800987D704708B5D0F8C802FCF7B3FA08BDCF
:1059580000487047841800207047032805D8DFE8FE
:1059680000F005040205012070470320704708B5C0
:10597800D0F8C802FCF71DF9FFF7EFFF08BD08B51E
:1059880094461A466346D0F8C802FCF7F2F9FFF7C6
:10599800E4FF08BD08B5D0F8C802FCF72EFAFFF7F7
:1059A800DCFF08BD08B5D0F8C802FCF7B1FAFFF76C
:1059B800D4FF08BD08B5D0F8C802FCF7ECFAFFF729
:1059C800CCFF08BD08B5D0F8C802FCF7BFF9FFF74F
:1059D800C4FF08BD08B5D0F8C802FCF774FAFFF791
:1059E800BCFF08BD08B5D0F8C802FCF73EFAFFF7BF
:1059F800B4FF08BDDFF834D0FBF76AF80C480D494E
:105A08000D4A002302E0D458C4500433C4188C4211
:105A1800F9D30A4A0A4C002301E013600432A24277
:105A2800FBD300F019F8FAF74DFE7047000002208A
:105A380000000020F8000020F85D0008F8000020B1
:105A4800881F0020FEE702440346934200D17047B6
:105A580003F8011BF9E7000070B50D4D0D4C641BF0
:105A6800A4100026A64209D10B4D0C4C00F076F983
:105A7800641BA4100026A64205D170BD55F8043B4E
:105A880098470136EEE755F8043B98470136F2E7A8
:105A9800F05D0008F05D0008F05D0008F45D0008A6
:105AA8002DE9F047089D0E4604460F46002B4AD1C3
:105AB80094468C45B2FA82F260D942B1C2F1200311
:105AC800974020FA03F30CFA02FC1F4394404FEA74
