:020000040800F2
:1000000000200020790C0008610300086303000849
:1000100000000000000000000000000000000000E0
:100020000000000000000000000000006503000860
:1000300000000000000000006703000869030008DA
:10004000C90C0008C90C0008C90C0008C90C00083C
:10005000C90C0008C90C0008C90C0008C90C00082C
:10006000C90C0008C90C0008C90C0008C90C00081C
:10007000C90C0008C90C0008C90C0008C90C00080C
:10008000C90C0008C90C000800000000C90C0008D9
:10009000C90C0008C90C0008C90C0008C90C0008EC
:1000A000C90C0008C90C0008C90C0008C90C0008DC
:1000B000C90C000800000000C90C00080000000086
:1000C000002243088B4274D303098B425FD3030A97
:1000D0008B4244D3030B8B4228D3030C8B420DD3AA
:1000E000FF22090212BA030C8B4202D31212090238
:1000F00065D0030B8B4219D300E0090AC30B8B4276
:1001000001D3CB03C01A5241830B8B4201D38B0323
:10011000C01A5241430B8B4201D34B03C01A5241C8
:10012000030B8B4201D30B03C01A5241C30A8B420B
:1001300001D3CB02C01A5241830A8B4201D38B02F6
:10014000C01A5241430A8B4201D34B02C01A52419A
:10015000030A8B4201D30B02C01A5241CDD2C3090C
:100160008B4201D3CB01C01A524183098B4201D388
:100170008B01C01A524143098B4201D34B01C01A73
:10018000524103098B4201D30B01C01A5241C308EB
:100190008B4201D3CB00C01A524183088B4201D35A
:1001A0008B00C01A524143088B4201D34B00C01A46
:1001B0005241411A00D20146524110467047FFE7B2
:1001C00001B5002000F006F802BDC0460029F7D0B6
:1001D00076E770477047C04610B5064C2378002B71
:1001E00007D1054B002B02D0044800E000BF0123DB
:1001F000237010BD0C00002000000000240D00083A
:10020000044B10B5002B03D00349044800E000BFA5
:1002100010BDC0460000000010000020240D0008A2
:10022000F0B589B01422002103A800F04EFD184B50
:100230005A69802189020A435A615A690A40019227
:10024000019A5A69802109030A435A615B690B408C
:100250000293029BC027BF000E4D002239002800E8
:1002600000F0EAF90126039690235B03049300242F
:100270000594902003A9C00500F01AF9039704968D
:100280000594069403A9280000F012F909B0F0BD06
:10029000001002400008004872B6FEE700B591B0B9
:1002A0003022002104A800F010FD10220021684631
:1002B00000F00BFD02230493012207920F320892F3
:1002C0000C93A0239B030E9304A800F0C3F900280D
:1002D0000ED107230093053B019300230293039360
:1002E0000121684600F02EFC002803D111B000BDAA
:1002F000FFF7D2FFFFF7D0FF10B500F063F800F072
:100300007DF80400FFF7CAFFFFF78AFF00F076F8D8
:10031000001BFA2252009042F8D900F06FF8040056
:1003200080218900014800F08DF9EFE700080048BE
:1003300082B00A4B996901221143996199690A4077
:100340000092009ADA69802149050A43DA61DB6983
:100350000B400193019B02B07047C0460010024061
:10036000FEE7FEE77047704710B500F03BF810BDA0
:100370007047000010B504000F4B1978FA20800078
:10038000FFF79EFE01000D4B1868FFF799FE00F085
:100390008BF800280DD1032C01D901200AE001308F
:1003A00000222100404200F07BF8054B1C60002039
:1003B00000E0012010BDC046040000200000002025
:1003C0000800002010B5064A136810210B43136083
:1003D0000020FFF7CFFFFFF7ABFF002010BDC046A6
:1003E00000200240034A1168034B1B785B1813601E
:1003F0007047C0462800002004000020014B186808
:100400007047C0462800002070B5002811DB830823
:10041000134DC0339B005C5903221040C000FC32D6
:1004200016008640B44389010A40824022435A5153
:1004300070BD0F230340083B9B0806339B00094A0D
:10044000944663445C6803221040C000FC321500EF
:100450008540AC4389010A40824022435A60E7E765
:1004600000E100E000ED00E0013880235B049842E9
:100470000FD2094A50600948036A1B021B0AC021B7
:1004800009060B43036200239360073313600020C7
:1004900070470120FCE7C04610E000E000ED00E0FE
:1004A00010B5FFF7B1FF10BD10B5FFF7DDFF10BDB0
:1004B000F0B583B0002356E086685F000324BC409B
:1004C000A643CC68BC4034438460446894434E687F
:1004D0003609012232409A402243426053E0DE084E
:1004E0000836B600375805321A4092000F2494405F
:1004F000A7430C69944022003A43325056E0032649
:1005000000E00026A64034003C4302329200444EF4
:100510009451444A9768EA433E00AE434C68E40273
:1005200001D53E002E433F4CA660E7683E001640D2
:100530004C68A40201D53E002E433A4CE660676841
:100540003E0016404C68A40301D53E002E43354CB6
:100550006660266832404C68E40301D52A003243C5
:10056000304C226001330C682200DA4056D0012260
:100570009A40250015401442F4D04E6803243440BC
:10058000013C012C98D94C6803222240032A08D050
:10059000C4685E000322B24094438A68B24022439A
:1005A000C2604C6803222240022A98D004685E0090
:1005B00003221700B740BC434F683A40B240224381
:1005C00002604C68C02292021442CBD0164CA6693D
:1005D00001221643A661A46922400192019A9A0859
:1005E000941CA4000E4EA75903241C40A4000F26FF
:1005F000A640B7439026F605B04282D00B4EB042DB
:1006000008D00B4EB04207D00A4EB04200D176E778
:10061000052677E7012675E7022673E703B0F0BDEC
:1006200000000140000401400010024000040048A6
:1006300000080048000C0048002A01D08161704782
:100640008162FCE7426913000B401B0491430B439A
:100650008361704770B582B0041E00D12EE203683A
:10066000DB0726D5AE4B5A680C231340042B18D059
:10067000AB4B5A680C231340082B0ED06368012B38
:100680003CD0002B51D1A64B1A68A6490A401A60EB
:100690001A68A5490A401A6036E0A14B5B68DB0383
:1006A000ECD59F4B1B689B0303D56368002B00D1DF
:1006B00007E223689B0772D5994B5B680C221A42AC
:1006C0005DD0974B5A680C231340082B53D0E36836
:1006D000002B00D185E0924A136801210B4313607F
:1006E000FFF78CFE05008E4B1B689B0770D4FFF74D
:1006F00085FE401B0228F6D90320E0E1884A1168F4
:1007000080235B020B4313606368002B25D0FFF747
:1007100075FE0500824B1B689B03CAD4FFF76EFE73
:10072000401B6428F6D90320C9E1052B09D07C4B76
:100730001A687C490A401A601A687B490A401A60A4
:10074000E2E7774B19688022D2020A431A601968DF
:10075000802252020A431A60D6E7FFF74FFE0500D7
:100760006F4B1B689B03A4D5FFF748FE401B642812
:10077000F6D90320A3E16A4B5B68DB03A7D4684B7F
:100780001B689B0703D5E368012B00D09BE16449FC
:100790000B68F82293432269D20013430B6023684D
:1007A0001B0744D5E369002B2ED05D4A536A012113
:1007B0000B435362FFF722FE0500594B5B6A9B0710
:1007C00035D4FFF71BFE401B0228F6D9032076E143
:1007D00053490B68F82293432269D20013430B60FC
:1007E000DDE74F4A136801218B431360FFF706FED4
:1007F00005004B4B1B689B07D1D5FFF7FFFD401B46
:100800000228F6D903205AE1454A536A01218B4355
:100810005362FFF7F3FD0500414B5B6A9B0706D56A
:10082000FFF7ECFD401B0228F6D9032047E12368BF
:100830005B0700D480E03A4BDB69DB001DD4384B0A
:10084000DA69802149050A43DA61DB690B400193CB
:10085000019B0125354B1B68DB0510D5A368012BD7
:1008600021D0002B36D12E4B1A6A01218A431A62FD
:100870001A6A03318A431A621AE00025EAE72B4A12
:10088000116880235B000B431360FFF7B7FD060080
:10089000264B1B68DB05E1D4FFF7B0FD801B642805
:1008A000F6D903200BE11E4A136A01210B431362A0
:1008B000A368002B24D0FFF7A1FD0600184B1B6A8C
:1008C0009B0737D4FFF79AFD801B194B9842F5D947
:1008D0000320F4E0052B09D0114B1A6A01218A4349
:1008E0001A621A6A03318A431A62E1E70C4B1A6AE8
:1008F00004210A431A621A6A03390A431A62D7E7C3
:10090000FFF77CFD0600064B1B6A9B0712D5FFF71D
:1009100075FD801B064B9842F5D90320CFE0C046F9
:1009200000100240FFFFFEFFFFFFFBFF00700040D2
:1009300088130000012D33D02368DB0610D56369CE
:10094000012B33D0053351D1654A536B04218B43BE
:100950005363536BF4318B43A169C9000B43536359
:10096000236A002B00D1B0E05D4A51680C220A4096
:10097000082A00D18AE0022B4FD0594A13685949FE
:100980000B401360FFF73AFD0400554B1B689B01B9
:100990007AD5FFF733FD001B0228F6D903208EE03D
:1009A0004F4AD36950490B40D361C5E74C4B5A6B52
:1009B00004210A435A635A6B03390A435A63FFF707
:1009C0001DFD0500464B5B6B9B0706D4FFF716FD2C
:1009D000401B0228F6D9032071E041494B6BF822F5
:1009E0009343A269D20013434B63B9E73C4B5A6B64
:1009F00004210A435A635A6B03398A435A63FFF747
:100A0000FDFC0500364B5B6B9B07A9D5FFF7F6FC99
:100A1000401B0228F6D9032051E0314A13683149BE
:100A20000B401360FFF7EAFC05002D4B1B689B0190
:100A300006D5FFF7E3FC401B0228F6D903203EE071
:100A4000274BDA6A0F218A43E16A0A43DA625A685D
:100A500026490A40A16A606A01430A435A6019683C
:100A6000802252040A431A60FFF7C8FC04001C4BA2
:100A70001B689B0106D4FFF7C1FC001B0228F6D9B6
:100A800003201CE000201AE0002018E0012B1ED0FB
:100A9000134B5A68D86A80235B021340616A8B4209
:100AA00017D10F230340E16A8B4214D1F0239B033B
:100AB0001A40A36A9A4210D1002000E0012002B03F
:100AC00070BD0120FBE70120F9E70020F7E70120D6
:100AD000F5E70120F3E70120F1E70120EFE7C04649
:100AE00000100240FFFFFFFEFFFFFFEFFFFFC2FF0E
:100AF00010B5104B5A680C231340082B01D00E4838
:100B000010BD910C073319400C48445C0949C96A6F
:100B10000B400B49C95CD20304D50748FFF7D0FA54
:100B20006043EDE76201121B93019B1ADB001B1966
:100B30001802E5E70010024000127A005C0D000880
:100B40004C0D000870B504000D00002800D17EE0B7
:100B5000434B1A68012313408B420AD240490B6869
:100B6000012293432B430B600B681A40AA4200D02A
:100B70006FE023689A070ED55B0705D5394A51689F
:100B8000E023DB000B435360364A5368F0218B436C
:100B9000A1680B4353602368DB072DD56368012BE5
:100BA0001ED0022B22D02F4A1268920753D52D490E
:100BB0004A680320824313434B60FFF71FFC060083
:100BC000284B5B680C221A4063689B009A4213D042
:100BD000FFF714FC801B244B9842F1D9032035E029
:100BE000204A12689203E2D401202FE01D4A1268C5
:100BF0009201DCD4012029E0194B1A68012313402B
:100C0000AB4209D916490B68012293432B430B6071
:100C10000B681A40AA4220D123685B0706D5114A07
:100C2000536812490B40E1680B435360FFF760FFC4
:100C30000C4B5A6812090F2313400D4AD35CD8405D
:100C40000C4B18600020FFF795FB002070BD0120C1
:100C5000FCE70120FAE70120F8E70120F6E7C046AB
:100C6000002002400010024088130000FFF8FFFF40
:100C70003C0D0008000000200D488546FFF778FB7A
:100C80000C480D490D4A002302E0D458C4500433E7
:100C9000C4188C42F9D30A4A0A4C002301E01360BD
:100CA0000432A242FBD300F019F8FFF725FBFEE760
:100CB00000200020000000200C000020740D00081F
:100CC0000C0000202C000020FEE703008218934255
:100CD00000D1704719700133F9E7000070B50026A4
:100CE0000C4C0D4D641BA410A64209D1002600F047
:100CF00019F80A4C0A4D641BA410A64205D170BD18
:100D0000B300EB5898470136EEE7B300EB5898472D
:100D10000136F2E76C0D00086C0D0008700D00083C
:100D20006C0D0008F8B5C046F8BC08BC9E4670477C
:0C0D3000F8B5C046F8BC08BC9E467047F1
:100D3C00000000000000000001020304060708097F
:100D4C000102030405060708090A0B0C0D0E0F100F
:100D5C0002030405060708090A0B0C0D0E0F1010F0
:040D6C000102000878
:040D7000D90100089D
:0C0D740000127A000100000004000000E2
:0400000508000C796A
:00000001FF
