:020000040800F2
:1000000000000220B9870008F1070008F307000884
:10001000F5070008F7070008F907000800000000CE
:10002000000000000000000000000000FB070008C6
:10003000FD07000800000000FF0700080108000895
:10004000098800080988000809880008098800084C
:10005000098800080988000809880008098800083C
:1000600009880008098800080988000809080008AC
:10007000098800080988000809880008098800081C
:10008000098800080988000819080008098800087C
:1000900009880008098800080988000809880008FC
:1000A00009880008098800080988000809880008EC
:1000B00009880008098800080988000809880008DC
:1000C00009880008098800080988000809880008CC
:1000D00009880008098800080988000809880008BC
:1000E0000988000809880008000000000988000845
:1000F000098800080988000809880008098800089C
:10010000098800080988000809880008098800088B
:10011000098800080988000809880008098800087B
:10012000098800080988000809880008098800086B
:10013000098800080988000809880008098800085B
:1001400000000000000000000000000000000000AF
:10015000098800080988000809880008098800083B
:10016000098800080988000809880008098800082B
:10017000098800080988000809880008098800081B
:10018000098800080988000809880008098800080B
:1001900009880008098800080988000809880008FB
:1001A00009880008098800080988000809880008EB
:1001B00009880008098800080988000809880008DB
:1001C00009880008098800080988000809880008CB
:1001D000098800082908000809880008098800081B
:1001E00009880008098800080988000809880008AB
:1001F000098800080988000809880008098800089B
:10020000098800080988000809880008098800088A
:10021000098800080988000809880008098800087A
:100220000988000809880008098800080000000003
:1002300009880008098800080000000009880008F3
:10024000098800080988000809880008098800084A
:10025000098800080988000809880008098800083A
:10026000098800080988000809880008098800082A
:1002700009880008098800080988000800000000B3
:1002800009880008098800080988000800000000A3
:080290000000000009880008CD
:1002980010B5054C237833B9044B13B10448AFF3B8
:1002A80000800123237010BD000100200000000021
:1002B8006488000808B5034B1BB103490348AFF332
:1002C800008008BD000000000401002064880008C8
:1002D80030B589B0002403940494059406940794D7
:1002E800154BD3F8E02042F01002C3F8E020D3F811
:1002F800E02002F010020192019AD3F8E02042F0C7
:100308000102C3F8E020D3F8E03003F001030293C0
:10031800029B0A4D22460421284602F01FFE0423B0
:100328000393012304930594069403A9284602F035
:1003380005FD09B030BD00BF004402580010025846
:1003480000B583B00B4BD3F8D82042F00102C3F8B4
:10035800D820D3F8D83003F001030193019B002281
:1003680011460B2001F0F8FB0B2001F005FC03B04F
:100378005DF804FB0044025808B50749074B1960AB
:10038800074B01221A704FF40062A1F5006105487D
:1003980000F0D8FF08BD00BF240900201C01002080
:1003A80020010020E8110020034B044A1A60044B86
:1003B80001221A70704700BF1C0100202401002090
:1003C8002001002072B6FEE700B58BB0002307932A
:1003D800089309930093019302930393049305935D
:1003E80006932448244A0260C3600422026103750C
:1003F80043750122826103774FF49C6141624FF497
:10040800806181620321C1620363436380F83830ED
:10041800C26301F021F928BB16484FF480234360DA
:100428000023836001F018F9F0B90023079307A9A6
:10043800104801F097FAC8B9104B009306230193AE
:100448000023029340F2FF72039204220492059360
:100458008DF819306946074800F0C4FC40B90BB064
:100468005DF804FBFFF7AEFFFFF7ACFFFFF7AAFF4D
:10047800FFF7A8FFE8110020002002400800900CB8
:1004880000B589B00023049305930693079301935D
:10049800029303931548164A026046F65F5242607B
:1004A800836040F2E732C26003614361836105F013
:1004B800B5FFA0B94FF48053049304A90B4805F085
:1004C800EBFF70B92023019300230293039301A942
:1004D800064806F07DF830B909B05DF804FBFFF76F
:1004E80071FFFFF76FFFFFF76DFF00BF24110020BA
:1004F8000004014000B59FB04C2200210BA808F071
:1005080080F92022002103A808F07BF9022003F0DB
:10051800A3FB002300933A4BDA6A22F00102DA6265
:10052800DB6A03F001030093364B9A6942F44042B8
:100538009A619B6903F440430093009B314B9B698C
:1005480013F4005FFAD0304BD3F8F42042F00202E3
:10055800C3F8F420D3F8F43003F002030193019BAD
:1005680000230293274B9A6942F440429A619B699F
:1005780003F440430293224BDA6A42F00102DA6242
:10058800DB6A03F001030293029B1E4B9B6913F481
:10059800005FFAD022230B9301230E9340220F927F
:1005A80011930223149300221592042116913C21E1
:1005B8001791189319931A930C231B931C921D924D
:1005C8000BA803F07BFBB0B93F23039303230493E9
:1005D80000230593082306934023079308934FF4B9
:1005E800806209920A93042103A803F0BBFF20B993
:1005F8001FB05DF804FBFFF7E5FEFFF7E3FE00BF61
:1006080000040058004802580044025808B500F099
:100618009BF9FFF76FFFFFF75BFEFFF791FEFFF710
:10062800D3FE07F053FEFFF72BFF114C40F2FF7289
:100638000021204601F03CF94FF400620D492046A4
:1006480000F080FE0C4805F01BFE0C4B1B78012BBC
:10065800FBD104210A4802F087FC4FF40061094BE2
:10066800186807F087FE054B00221A70EDE700BFF7
:10067800E81100202401002024110020200100207E
:10068800001002581C01002082B0074BD3F8F42058
:1006980042F00202C3F8F420D3F8F43003F0020366
:1006A8000193019B02B070470044025830B5B9B0BD
:1006B8000446002133913491359136913791C02207
:1006C80002A808F09EF82268354B9A4201D039B04A
:1006D80030BD4FF400220023CDE902230423049304
:1006E800092305930223069307930893C0230993CC
:1006F80020230A934FF440630B9302A804F0B8F93F
:10070800002846D1274BD3F8D82042F02002C3F85E
:10071800D820D3F8D82002F020020092009AD3F80B
:10072800E02042F00102C3F8E020D3F8E03003F003
:1007380001030193019B4023339303233493002542
:10074800359533A9184802F0F9FA1848184B036090
:10075800092343608560C5604FF4806303614FF4EB
:10076800006343614FF4005383614FF48073C361A6
:100778000562456201F028FC70B90C4BE3649C6388
:1007880000221146122001F0E7F9122001F0F4F9D5
:100798009DE7FFF717FEB5E7FFF714FEEDE700BF8B
:1007A8000020024000440258000002587011002046
:1007B8001000024002680A4B9A4200D0704782B08B
:1007C800084BD3F8F02042F00202C3F8F020D3F827
:1007D800F03003F002030193019B02B0704700BFA1
:1007E8000004014000440258FEE7FEE7FEE7FEE78A
:1007F800FEE770477047704708B500F0D3F808BDAA
:1008080008B5024801F0FEFE08BD00BF70110020C7
:1008180008B5024800F028F908BD00BFE81100201B
:1008280008B5024802F0D7FE08BD00BF50290020D5
:10083800274AD2F8883043F47003C2F88830254B31
:100848001B6803F00F03062B06D8224A136823F00F
:100858000F0343F0070313601F4B1A6842F00102AD
:100868001A6000221A6119681C4A0A401A60194B5A
:100878001B6813F0080F06D0164A136823F00F03FD
:1008880043F007031360144B00229A61DA611A627D
:10089800134999621349D962134919635A639963D1
:1008A800DA6319645A64196821F4802119601A6698
:1008B8000E4B1B686FF30F03B3F1005F03D20C4BB1
:1008C8000122C3F808210B4B43F2D2021A60704789
:1008D80000ED00E000200052004402587FEDF6EAE7
:1008E800000202020000FF01800201010010005C0A
:1008F8000080005100400052104B1B780BB90120BA
:10090800704710B504464FF47A70B0FBF3F30C4A05
:100918001068B0FBF3F001F033F968B90F2C01D976
:1009280001200AE0002221464FF0FF3001F014F9BF
:10093800044B1C60002000E0012010BD08000020CE
:10094800040000200C00002010B5032001F0F2F88C
:1009580003F00CFD0F498B69C3F303230E4AD35CE4
:1009680003F01F03D8408B6903F00F03D35C03F037
:100978001F0320FA03F3094A1360094B18600F207C
:10098800FFF7BAFF10B10124204610BD0446FFF757
:100998007BFEF9E7004402587C880008000000202C
:1009A80004000020034B1B78034A11680B441360B2
:1009B800704700BF080000204C120020014B186847
:1009C800704700BF4C12002038B50446FFF7F6FF09
:1009D8000546B4F1FF3F02D0044B1B781C44FFF7D7
:1009E800EDFF401BA042FAD338BD00BF080000202D
:1009F800014B1868000C70470010005C10B43030D0
:100A08000B0A9B0003F00C03C45801F01F014FF0C0
:100A18001F0C0CFA01FC24EA0C0CC2F384628A4015
:100A28004CEA0202C2505DF8044B704710B414300F
:100A38004B0E9B0003F00403C458C1F304514FF05C
:100A4800070C0CFA01FC24EA0C0C8A404CEA02025E
:100A5800C2505DF8044B704708B5806BFFF7A4FCE3
:100A680008BD704770470000F8B5044603681D6864
:100A78005E689C499C4A934218BF8B425BD19B4B52
:100A88009F6807F01F0715F0020F10D016F0020F2D
:100A98000DD0636D13F0100F03D1636D43F4006341
:100AA8006365204600F05CFF236802221A6015F097
:100AB800040F02D016F0040F05D115F0080F4FD01F
:100AC80016F0080F4CD0636D13F0100F03D1636D4F
:100AD80043F4007363652368DA6812F4406F39D110
:100AE800814A934229D01A46934207D0092F27D822
:100AF80040F22121F94011F0010F21D0DA6812F4F7
:100B0800005F27D11A6812F0080F23D09A6812F0F4
:100B1800040F17D15A6822F00C025A60636D23F44F
:100B280080736365636D13F4805F13D1636D43F065
:100B3800010363650EE06E4BA2E7A2F58072D3E76E
:100B4800D268DCE7636D43F010036365A36D43F07F
:100B58000103A3652046FFF70FFC23680C221A60E7
:100B680015F0200F02D016F0200F05D115F0400F18
:100B780063D016F0400F60D0636D13F0100F03D1EF
:100B8800636D43F4005363652368DA6C12F4C07F25
:100B980019D10121DA6812F4406F16D10120524AA6
:100BA800934214D01A46934214D0062F14BF4FF024
:100BB800000C4FF0010C6FB1BCF1000F0AD1072FE8
:100BC80008D0D26807E00021E4E70020E7E7A2F5B3
:100BD8008072E8E7DA6851B312F0007F03D030B3CF
:100BE80012F4005F23D1196811F0400F1FD012F4DE
:100BF800001F1CD19A6812F0080F10D15A6822F011
:100C080060025A60636D23F480536365636D13F467
:100C1800807F0CD1636D43F00103636507E0636D6A
:100C280043F010036365A36D43F00103A3652046F9
:100C380000F092FE236860221A6015F0800F02D03F
:100C480016F0800F36D115F4807F02D016F4807F1D
:100C58003BD115F4007F02D016F4007F4AD115F07D
:100C6800100F20D016F0100F1DD0236B6BB1002F82
:100C78004ED023681B491C4A934218BF8B4245D16A
:100C88001A4B9B6813F4404F0AD0636D43F480639A
:100C98006365A36D43F00203A3652046FFF7E2FEF8
:100CA800236810221A6015F4806F02D016F4806F42
:100CB80034D1F8BD636D43F4803363652046FFF794
:100CC800D0FE236880221A60BDE7636D43F40033C9
:100CD8006365204600F042FE23684FF480721A6074
:100CE800B7E700BF00200240002102400023024075
:100CF80000630258636D43F480236365204600F067
:100D08002EFE23684FF400721A60A8E70B4BB8E771
:100D18002368DB6813F0030FC2D0B6E7636D43F4B2
:100D280080436365A36D43F00803A36523684FF40C
:100D380080621A60204600F010FEBAE7006302588D
:100D480008B50346806B426D12F0500F30D1436DE9
:100D580043F40073436503681A6812F0080F14D04F
:100D6800DA6812F4406F20D1DB6813F4005F1CD1FD
:100D7800436D23F480734365436D13F4805F14D18E
:100D8800436D43F0010343650FE0DB6813F0030F85
:100D98000BD1436D23F480734365436D13F4805F77
:100DA80003D1436D43F001034365FFF7E5FA08BD3E
:100DB800426D12F0100F04D1C26CD26C18469047E5
:100DC800F5E7FFF74FFEF2E708B5806B436D43F098
:100DD80040034365836D43F004038365FFF742FED8
:100DE80008BD000070B582B00023019390F8503020
:100DF800012B00F0268204460D46012380F850306E
:100E08000268936813F0040F09D0436D43F0200380
:100E180043650120002384F8503002B070BD0B6890
:100E2800002B0ADBC3F3130100293CD1C3F384630D
:100E380001219940D3690B43D3612A686968206806
:100E4800FFF7DCFD2068836813F0040300D001235A
:100E5800826812F0080200D0012252EA03062ED05E
:100E68002268936813F0010F40F0E7812B68E86867
:100E7800D2F8C010C3F3130621EA060100F01806E1
:100E8800AE48F0400340C3F313030B43C2F8C0302D
:100E9800EA68AB4B9A4200F0A1802B68002BC0F2A5
:100EA80053810020B6E793FAA3F333B1B3FA83F37F
:100EB80003F01F0301219940BCE72023F8E7AA6843
:100EC8002968FFF7B3FD9F4B1B6803F07043B3F12C
:100ED800805F0BD02268D36813F0100F3BD16B6989
:100EE800D268C2F382025200934006E06B6922681E
:100EF800D268C2F38202520093402969042938D08B
:100F08002268286802F1600C5CF8212002F0004297
:100F180000F0F840034313434CF821302368286954
:100F28006A7E012A1FD03146603353F8202022F010
:100F380000420A4343F8202021682A692B7E012BAE
:100F480014D00B6923F4F04302F01F0206FA02F2F0
:100F580013430B6184E76B69D268920802F00402BC
:100F680052009340C9E74FF00041DDE74FF40066B7
:100F7800E7E72268136E03F0F8432968B3EB816F43
:100F88001DD02268536E03F0F8432968B3EB816FD4
:100F98001AD02268936E03F0F8432968B3EB816F87
:100FA80017D02268D36E03F0F8432968B3EB816F3A
:100FB8007FF456AFD36E23F00043D36650E7136E29
:100FC80023F000431366DCE7536E23F000435366B7
:100FD800DFE7936E23F000439366E2E720682B680F
:100FE800C3F313063EBB9A0E013202F01F02092A10
:100FF8008CBF00220122002A55D05EBB990E013118
:10100800890601F0F8418EBB4FEA936C0CF1010C94
:101018000CF01F0C012202FA0CF21143AEBB9B0E1E
:10102800013303F01F0303EB43031B051943AA68AD
:10103800FFF7FCFC31E793FAA3F24AB1B2FA82F265
:10104800013202F01F02092A8CBF00220122D2E7D6
:101058002022F5E793FAA3F131B1B1FA81F1013118
:10106800890601F0F841CEE72021F8E793FAA3F2C8
:101078004AB1B2FA82F2013202F01F024FF0010CBB
:101088000CFA02F2C9E72022F5E793FAA3F343B179
:10109800B3FA83F3013303F01F0303EB43031B0588
:1010A800C4E72023F6E7E6B9990E0131890601F075
:1010B800F84116BB4FEA936C0CF1010C0CF01F0CB5
:1010C800012202FA0CF2114336BB9B0E013303F0E6
:1010D8001F0303EB43031E3B1B0543F00073194337
:1010E800A5E793FAA3F131B1B1FA81F1013189068B
:1010F80001F0F841DDE72021F8E793FAA3F24AB1BD
:10110800B2FA82F2013202F01F024FF0010C0CFA1F
:1011180002F2D8E72022F5E793FAA3F35BB1B3FA1A
:1011280083F3013303F01F0303EB43031E3B1B054B
:1011380043F00073D3E72023F3E700BFFFFF0F005E
:101148000000FF470010005C22683F493F48824288
:1011580018BF8A420CBF0121002118D13C4EB56846
:1011680005F0E07CA9B13849886810F0010000D08A
:1011780001203649896811F0010100D0012101439D
:101188000CD0636D43F020036365012042E6314EC5
:10119800E5E73149896811F0010FF2D12F498B42F7
:1011A80007D02F498B4226D02E498B4234D00020BD
:1011B80030E615F4000FF4D1274B9A4201D00020F5
:1011C80028E64CF40003B26822F0E0721343B360DF
:1011D800254B1B689B09254AA2FB03239B09013366
:1011E8005B00019302E0019B013B0193019B002BF3
:1011F800F9D100200EE615F0807FD5D1164B9A4222
:1012080001D0002006E64CF08073B26822F0E0724C
:101218001343B3600020FDE515F4800F0FD10E4B8A
:101228009A4201D00020F5E54CF48003B26822F020
:10123800E0721343B3600020ECE50020EAE50020EB
:10124800E8E50220E9E500BF002002400021024055
:10125800002302400063025800600258000084CB5B
:10126800000052C70000B8CF04000020632D3E05DF
:1012780038B503689A6812F0010F56D10446996888
:101288002B4A114209D0436D43F010034365836D27
:1012980043F001038365012048E09968254A0A4024
:1012A80042F001029A60FFF789FB0546236822494C
:1012B800224A934218BF8B420DD102F50072926800
:1012C80002F01F021D498B4207D01946994207D0E8
:1012D80032B100202AE01A4AF1E7A1F58071F5E75A
:1012E80023681A6812F0010F1DD19A6812F0010FD5
:1012F80005D199680F4A0A4042F001029A60FFF747
:101308005DFB401B0228EBD923681B6813F0010F13
:10131800E6D1636D43F010036365A36D43F00103E9
:10132800A365012002E0002000E0002038BD00BFD6
:101338003F000080C0FFFF7F0020024000210240E4
:1013480000630258F8B504460E46174600683E4A40
:101358003E4B984218BF90421CD103F500739D681C
:1013680005F01F05806810F0040F69D194F850301B
:10137800012B67D0012384F85030092D05D840F29D
:101388002123EB4013F0010F06D1002384F85030DD
:10139800012056E02E4BE2E72046FFF769FF0028C0
:1013A8004AD1626DA0F60273134043F480736365FB
:1013B8002368264A934239D01A46934200D01DB971
:1013C800636D23F480136365636D13F4805F30D01D
:1013D800A36D23F00603A365E36C1E4ADA63E36C8E
:1013E8001D4A1A64E36C1D4ADA6423681C221A60D9
:1013F800002384F850302268536843F01003536088
:101408002168E36ACA6822F003021343CB602168AB
:101418003B4632464031E06C00F0A8FF22689168F4
:101428000F4B0B4043F0040393600AE0A2F580726F
:10143800C3E70023A365CFE7002384F8503000E01A
:101448000220F8BD0220FCE70020024000210240F3
:1014580000630258490D0008610A0008D10D000810
:10146800C0FFFF7F38B504460268936813F0020393
:1014780000D00123916811F0010F37D0002B37D12C
:10148800936803F00D03012B09D0636D43F010033B
:101498006365A36D43F00103A365012027E091680C
:1014A800144B0B4043F002039360236803221A6035
:1014B800FFF784FA054623689B6813F0010F13D0E1
:1014C800FFF77CFA401B0228F5D923689B6813F0C4
:1014D800010FF0D0636D43F010036365A36D43F013
:1014E8000103A365012002E0002000E0002038BDD0
:1014F8000020FCE7C0FFFF7F38B5044603684E496B
:101508004E4A934218BF8B4226D14D4B9B6813F429
:10151800403F14BF0123002343B303F06DF9054690
:101528006368B3F5003F05D0B3F5403F1CD0B3F571
:10153800803F02D11B0CB5FBF3F5FFF759FA41F2D6
:101548000303984253D83F4B9D424AD92268936877
:1015580043F48073936038BD3B4B9B6813F4403F62
:1015680014BF01230023D7E78508E6E74FF40020DE
:10157800002104F0E5FA05466368B3F5101F2CD086
:1015880021D8B3F5E01F26D004D9B3F5001FD4D174
:101598004509D2E7B3F5801F10D009D8B3F5002F5D
:1015A8000CD0B3F5402F09D0B3F5802F06D0C4E78F
:1015B800B3F5A01F02D0B3F5C01FBED19B0C5B00D2
:1015C800B5FBF3F5B9E7B3F5201F08D0B3F5301F25
:1015D800B3D1050AB1E70509AFE78509ADE7C50944
:1015E800ABE72268936823F480739360B3E7174BE3
:1015F8009D4205D82268936823F440739360AAE754
:10160800134B9D4207D82268936823F4407343F430
:10161800807393609FE70F4B9D4207D822689368B9
:1016280023F4407343F40073936094E7226893684B
:1016380043F4407393608EE700200240002102408B
:1016480000230240002D31010063025821BCBE0076
:1016580041787D0181F0FA0230B583B0002301930F
:10166800002800F00A810446436DEBB123689A68AC
:1016780012F0005F03D09968814A0A409A60236893
:101688009A6812F0805F1CD199687E4A0A4042F03D
:1016980080529A607C4B1B689B097C4AA2FB0323FF
:1016A8009B090133019309E0FFF700F80023A365C4
:1016B80084F85030DAE7019B013B0193019B002B32
:1016C800F9D12268936813F0805F40F09980636DC8
:1016D80043F010036365A36D43F00103A36501257F
:1016E800936813F0040300D00123616D11F0100F0B
:1016F80040F0BB80002B40F0B880636D23F4817309
:1017080043F002036365936813F0010F1ED160492B
:10171800604B9A4218BF8A420CBF0122002271D145
:10172800896811F0010100D001215A4B9B6813F020
:10173800010300D001230B4308D1002A68D0564981
:1017480063688A6822F47C1213438B60FFF750F9B0
:1017580041F20303984202D9A368102B5AD0627D44
:10176800236B43EA4233A2681343227F43EA0243CE
:10177800227F012A59D0626A22B102F47872A16AE2
:101788000A4313432168C868444A02401A43CA609E
:1017980021688A6812F0040200D001228B6813F0D5
:1017A800080300D0012313431BD1227DE36A43EAD7
:1017B8008232C8683A4B03401343CB6094F8383000
:1017C800012B37D02268136923F0010313612268C3
:1017D800136923F07043616B0B4313612046FFF7D5
:1017E8008BFEE368012B37D02268136B23F00F03BD
:1017F8001363636D23F0030343F00103636539E06A
:1018080000256DE7274B9B6813F0010F9ED194E7E5
:10181800254995E7617D226B42EA41321343227FD5
:1018280043EA024343F00C03A2E7226A013A43EA7F
:101838004243A0E7206802691C4B1340E26B511E2B
:10184800226C42EA0142616C0A43A16C0A431343C9
:1018580043F001030361BAE721680B6B23F00F0320
:10186800A269013A13430B63C3E7636D43F01003A6
:1018780063650125284603B030BD0125FAE700BF9E
:10188800C0FFFF5FC0FFFF6F04000020632D3E050F
:1018980000200240002102400023024003C0F0FF64
:1018A800FCBFFFFF00600258006302581EF800FCEE
:1018B80070B582B00023019390F85030012B43D0CB
:1018C80004460D461646012380F85030FFF7CAFD3E
:1018D800002830D1626D1D4B134043F0020363654D
:1018E80021688A681A4B134005F4803506F0804653
:1018F80045EA0602134343F000438B6023689B6864
:10190800002B06DB636D23F0030343F001036365DB
:1019180015E0019B01330193019A0E4B9A42EDD3D6
:10192800636D23F0120343F010036365002384F80A
:101938005030012006E0636D43F010036365002317
:1019480084F8503002B070BD0220FBE7FDEEFFFFC7
:10195800C0FFFE3F00F8C3257047704770477047C7
:101968007047000090F85020012A00F0968030B4AB
:101978009AB00346012280F850200022169217924E
:101988000068474A904236D000220192019A002A04
:1019980035D0926812F0040200D00122846814F055
:1019A800040F6BD1002A69D13D4C3E4A904218BFC2
:1019B800A0422DD102F500720868002839D090683D
:1019C80020F440404C68204390601868344D354CF2
:1019D800A04218BFA8421DD1AC6814F0010400D081
:1019E80001243048806810F0010000D00120204315
:1019F80015D0002047E002F580720192C6E75A6DC3
:101A080042F020025A65002283F8502001203DE070
:101A1800254AD1E72548806810F0010F39D194682C
:101A2800234820400C6889682143084390600020BF
:101A380029E0916821F4404191601968184C1948CF
:101A4800814218BFA1420ED1A06810F0010000D059
:101A580001201449896811F0010100D001210143D6
:101A680006D000200FE01149896811F0010F12D14A
:101A780090680F4901409160002004E05A6D42F0DF
:101A880020025A650120002283F850201AB030BC89
:101A980070470020F7E70020F5E70220704700BFF5
:101AA80000200240002102400063025800600258F2
:101AB800E0F0FFFF002807DB00F01F0240090123C8
:101AC8009340024A42F82030704700BF00E100E02E
:101AD800002804DB0901C9B2044B1954704700F00F
:101AE8000F000901C9B2024B1954704700E400E025
:101AF80014ED00E000B500F00700C0F1070CBCF1E0
:101B0800040F28BF4FF0040C031D062B0FD9C31E6A
:101B18004FF0FF3E0EFA0CF021EA000199400EFA50
:101B280003FE22EA0E0241EA02005DF804FB0023EC
:101B3800EEE700000649CB6823F4E0631B041B0CA6
:101B4800000200F4E0600343024A1A43CA60704787
:101B580000ED00E00000FA0510B50446054BD86812
:101B6800C0F30220FFF7C6FF01462046FFF7B0FF8B
:101B780010BD00BF00ED00E008B5FFF79BFF08BDF2
:101B88000138B0F1807F0BD24FF0E0235861054A4D
:101B9800F02182F823100020986107221A6170470B
:101BA8000120704700ED00E0F0B4876D0468664ED0
:101BB800664DAC4218BFB44242D01835AC423FD053
:101BC8001835AC423CD01835AC4239D01835AC4247
:101BD80036D01835AC4233D01835AC4230D005F584
:101BE8005675AC422CD01835AC4229D01835AC42C9
:101BF80026D01835AC4223D01835AC4220D0183541
:101C0800AC421DD01835AC421AD01835AC4217D0AA
:101C18004F4DAC4214D01435AC4211D01435AC42FF
:101C28000ED01435AC420BD01435AC4208D0143564
:101C3800AC4205D01435AC4202D01435AC4207D1C1
:101C4800446E856E6560C46E14B1046F456F65603F
:101C580004683D4E3D4DAC4218BFB44252D01835D1
:101C6800AC424FD01835AC424CD01835AC4249D0B4
:101C78001835AC4246D01835AC4243D01835AC4282
:101C880040D005F55675AC423CD01835AC4239D039
:101C98001835AC4236D01835AC4233D01835AC4282
:101CA80030D01835AC422DD01835AC422AD0183572
:101CB800AC4227D0264E274DAC4218BFB44211D0B3
:101CC800254DAC420ED01435AC420BD01435AC4285
:101CD80008D01435AC4205D01435AC4202D01435C6
:101CE800AC4224D1C46D04F01F050124AC407C60D3
:101CF800046863608368402B20D003689960036898
:101D0800DA6014E0C46D04F01F0C3F2404FA0CF4EC
:101D1800BC6005682C6824F480242C600468636027
:101D28008368402B05D0036899600368DA60F0BCCB
:101D3800704703689A600368D960F8E703689A6097
:101D48000368D960F3E700BF100002402800024092
:101D5800085402581C540258305402580368274942
:101D6800274A934218BF8B422FD0183293422CD067
:101D78001832934229D01832934226D0183293420F
:101D880023D01832934220D0183293421DD002F546
:101D98005672934219D01832934216D01832934291
:101DA80013D01832934210D0183293420DD0183203
:101DB80093420AD01832934207D01832934204D083
:101DC80023F0FF038365806D704710B4D9B21039D2
:101DD8000C4AA2FB0142C2F302120B4CA25CC26580
:101DE8005F2907D96FF3090304338365806D5DF8B4
:101DF800044B70476FF309038365F7E7100002404F
:101E080028000240ABAAAAAA8C88000883699BB95B
:101E1800836A012B0AD0022B02D00BB10020704735
:101E2800C36A13F0807F2AD100207047C36AB3F1D8
:101E3800C07F26D000207047B3F5005F0AD0836AC0
:101E4800022B26D9032B26D1C36A13F0807F24D115
:101E580000207047836A032B03D8DFE803F01404DB
:101E6800140A00207047C36A13F0807F0DD1002048
:101E78007047C36AB3F1C07F09D0002070470120C2
:101E880070470120704701207047012070470120EA
:101E980070470120704700207047012070470000FC
:101EA80003682149214A934218BF8B4227D0143234
:101EB800934224D01432934221D0143293421ED03C
:101EC800143293421BD01432934218D014329342E6
:101ED80015D0DAB2103A1649A1FB021212091549B7
:101EE8001944A8291ED9144B13449B000366134BAD
:101EF800436602F01F020123934083667047DBB2FA
:101F0800083B0F4AA2FB03230E4A02EB131292006E
:101F180002660D4A4266C3F30413012202FA03F370
:101F2800836670470832DEE7085402581C5402588A
:101F3800ABAAAAAAF0FBFDBF0082001080080240ED
:101F4800CDCCCCCC009600168058025801794A1E98
:101F5800072A2BD830B40368154D164CA34218BF76
:101F6800AB4218D01434A34215D01434A34212D073
:101F78001434A3420FD01434A3420CD01434A34217
:101F880009D01434A34206D00B4B0B449B00C36604
:101F98000A4B036705E00A4B0B449B00C366094BD9
:101FA800036701239340436730BC7047704700BF05
:101FB800085402581C5402583F820010400902403D
:101FC8003F9600164059025870B50446FEF7F6FCD5
:101FD800002C00F0B981054623685349534A9342BF
:101FE80018BF8B420CBF0121002150D018329342F8
:101FF8004DD0183293424AD01832934247D0183203
:10200800934244D01832934241D0183293423ED082
:1020180002F5567293423AD01832934237D01832AA
:10202800934234D01832934231D0183293422ED092
:10203800183293422BD01832934228D01832934248
:1020480025D03B493B4A934218BF8B4200F034816C
:10205800394A934200F030811432934200F02C81C7
:102068001432934200F028811432934200F0248104
:102078001432934200F020811432934200F01C8104
:1020880040236365032384F8353001204AE00222A7
:1020980084F83520002284F8342079BB274A9342FB
:1020A8002CD01832934229D01832934226D01832B5
:1020B800934223D01832934220D0183293421DD035
:1020C80002F55672934219D01832934216D018323C
:1020D800934213D01832934210D0183293420DD045
:1020E800183293420AD01832934207D018329342DA
:1020F80004D01A6822F001021A6003E01A6822F07C
:1021080001021A6023681A6812F0010F18D0FEF74E
:1021180055FC431B052BF5D920236365032384F85D
:102128003530012070BD00BF100002402800024079
:10213800085402581C5402583054025840000240B7
:102148001A6882491140A268E06802432069024384
:1021580060690243A0690243E0690243206A0243BE
:102168000A43616A042900F09880794909686FF385
:102178000F01B1F1005F10D361682E2940F29280FF
:1021880052290AD83F2908D33F39724820FA01F169
:1021980011F0010F01D042F480121A6026687569A7
:1021A80025F00705636A1D43042B08D1A36A1D4364
:1021B800E36A23B12046FFF729FE002876D175612E
:1021C8002046FFF7CBFDE36D03F01F023F2393404A
:1021D800836023686049614A934218BF8B4242D0AA
:1021E800183293423FD0183293423CD0183293426F
:1021F80039D01832934236D01832934233D018323D
:10220800934230D002F5567293422CD01832934242
:1022180029D01832934226D01832934223D018324C
:10222800934220D0183293421DD0183293421AD0CC
:102238001832934217D04A4A934214D01432934228
:1022480011D0143293420ED0143293420BD0143270
:10225800934208D01432934205D01432934202D0EC
:102268001432934213D12046FFF71AFEA368802B3D
:102278005DD0236E22791A60636EA26E5A6063681D
:10228800013B072B56D90023E366236763670020C9
:102298006065012384F8353044E7E16A206B014327
:1022A8000A4362E72929FFF478AF74E7402363659E
:1022B800012084F8350035E7022284F83520002211
:1022C80084F8342019686FF31011A268402A2CD0C2
:1022D800802A27D00022E06842EAD002206942EA38
:1022E800D002606942EAD002A06942EAD002E069FD
:1022F80042EAD002206A42EA10120A431A602268AF
:10230800184B1344184AA2FB03231B099B00E365DF
:102318002046FFF723FDE26D02F01F0101228A40EB
:10232800426056E74FF48042D5E71022D3E70023F6
:1023380063609EE72046FFF709FEE36E00221A60FD
:10234800236F626F5A60A2E70120EBE63F8010FE20
:102358000010005C0F030F0010000240280002402C
:1023680008540258F8ABFDA7CDCCCCCC002800F01F
:102378003E8170B5044690F83400012800F0398198
:10238800012084F8340094F83500C0B2012807D041
:102398004FF400636365002384F83430012070BD76
:1023A800022084F83500002060652068924E934D25
:1023B800A84218BFB0422FD01835A8422CD01835E3
:1023C800A84229D01835A84226D01835A84223D0CB
:1023D8001835A84220D01835A8421DD005F55675E5
:1023E800A84219D01835A84216D01835A84213D0DB
:1023F8001835A84210D01835A8420DD01835A84273
:102408000AD01835A84207D01835A84204D0056864
:1024180025F00105056003E0056825F00105056064
:102428002046FFF7C1FB23687349744A934218BFDB
:102438008B4238D01832934235D01832934232D07A
:10244800183293422FD0183293422CD0183293422C
:1024580029D01832934226D002F55672934222D0E0
:10246800183293421FD0183293421CD0183293422C
:1024780019D01832934216D01832934213D018321A
:10248800934210D0183293420DD01A6822F00E02EF
:1024980042F00A021A60236C93B12268136843F071
:1024A800040313600CE01A6822F01E0242F01602C0
:1024B8001A60236C23B12268136843F00803136081
:1024C80023684D494D4A934218BF8B4242D0183277
:1024D80093423FD0183293423CD01832934239D0BD
:1024E8001832934236D01832934233D0183293427E
:1024F80030D002F5567293422CD01832934229D02C
:102508001832934226D01832934223D0183293427D
:1025180020D0183293421DD0183293421AD0183264
:10252800934217D0364A934214D01432934211D0B2
:10253800143293420ED0143293420BD01432934289
:1025480008D01432934205D01432934202D0143288
:1025580093420ED1236E1A6812F4803F03D01A6892
:1025680042F480721A60E36E1BB11A6842F48072FA
:102578001A6023682049214A934218BF8B4230D001
:10258800183293422DD0183293422AD018329342EF
:1025980027D01832934224D01832934221D01832CF
:1025A80093421ED002F5567293421AD018329342C3
:1025B80017D01832934214D01832934211D01832DF
:1025C80093420ED0183293420BD01832934208D05F
:1025D8001832934205D01A6842F001021A600020AE
:1025E800DDE61A6842F001021A600020D7E60120F1
:1025F80070470220D3E600BF1000024028000240C6
:1026080008540258F0B583B00446002301937D4B6B
:102618001D687D4BA3FB0535AD0A876D3E68D7F86D
:1026280000C0036879497A48834218BF8B420CBFBF
:102638000120002061D0774A93425ED0183293423D
:102648005BD01832934258D01832934255D0183282
:10265800934252D0183293424FD002F556729342A9
:102668004BD01832934248D01832934245D0183292
:10267800934242D0183293423FD0183293423CD012
:102688001832934239D01832934236D06249634A9D
:10269800934218BF8B4212D0614A93420FD0143232
:1026A80093420CD01432934209D01432934206D08C
:1026B8001432934203D01432934240F061821A6874
:1026C800E16D01F01F010420884010EA0C0F00F0B2
:1026D800A78212F0040F00F0A382786012F4004F72
:1026E80000F05A8212F4803F40F05082A36C002B15
:1026F80000F046822046984742E2E26D02F01F0150
:1027080008228A40324241D070BB424A93422BD0C1
:102718001832934228D01832934225D01832934267
:1027280022D0183293421FD0183293421CD002F59F
:102738005672934218D01832934215D018329342E9
:1027480012D0183293420FD0183293420CD018325C
:10275800934209D01832934206D01832934203D0DC
:102768001A68C2F3C00202E01A68C2F380026AB1B2
:102778001A6822F004021A60E36D03F01F020823AE
:102788009340BB60636D43F001036365E26D02F043
:102798001F0226FA02F313F0010F47D023681B48E3
:1027A8001B498B4218BF83423CD018318B4239D029
:1027B80018318B4236D018318B4233D018318B42C6
:1027C80030D018318B422DD018318B422AD001F5E8
:1027D80056718B4226D018318B4223D018318B4248
:1027E80020D018318B421DD018318B421AD01831A5
:1027F8008B4217D018318B4214D018318B4211D02C
:102808001B6813E004000020B5814E1B1000024035
:102818002800024040000240085402581C54025844
:10282800305402585B6913F0800F3BD1E36D03F01D
:102838001F03042202FA03F333423FD0226896486A
:1028480096498A4218BF824234D018318A4231D020
:1028580018318A422ED018318A422BD018318A4238
:1028680028D018318A4225D018318A4222D001F561
:1028780056718A421ED018318A421BD018318A42BA
:1028880018D018318A4215D018318A4212D018311E
:102898008A420FD018318A420CD018318A4209D0A6
:1028A80013680BE001239340BB60636D43F00203A0
:1028B8006365BBE7126812F0020F3DD1E36D03F0C8
:1028C8001F03102202FA03F333425FD022687248D2
:1028D80072498A4218BF824234D018318A4231D0B4
:1028E80018318A422ED018318A422BD018318A42A8
:1028F80028D018318A4225D018318A4222D001F5D1
:1029080056718A421ED018318A421BD018318A4229
:1029180018D018318A4215D018318A4212D018318D
:102928008A420FD018318A420CD018318A4209D015
:102938001268C2F3800208E0BB60636D43F00403D1
:102948006365BBE71268C2F3C002FAB1BB602368D3
:102958001A6812F4802F0DD01B6813F4002F04D1CD
:10296800236C9BB12046984710E0A36C73B12046B6
:1029780098470BE01A6812F4807F03D11A6822F096
:1029880008021A60236C0BB120469847E36D03F0E8
:102998001F03202202FA03F3334200F093802268D7
:1029A8003D483E498A4218BF82422ED018318A4299
:1029B8002BD018318A4228D018318A4225D01831B4
:1029C8008A4222D018318A421FD018318A421CD03C
:1029D80001F556718A4218D018318A4215D018313B
:1029E8008A4212D018318A420FD018318A420CD04C
:1029F80018318A4209D018318A4206D018318A42E1
:102A080003D01268C2F3400202E01268C2F3001257
:102A1800002A57D0BB6094F83530DBB2042B0ED0B7
:102A280023681A6812F4802F3AD01B6813F4002F19
:102A38002DD1636C002B45D02046984742E0226890
:102A4800136823F0160313602268536923F0800388
:102A58005361236CBBB12268136823F00803136029
:102A6800E36D03F01F023F239340BB60012384F80A
:102A78003530002384F83430236D002B00F080803B
:102A8800204698477CE0A36C002BE4D1E8E7E36B91
:102A9800C3B12046984715E01000024028000240C4
:102AA8001A6812F4807F09D11A6822F010021A609D
:102AB800012384F83530002384F83430E36B0BB1FC
:102AC80020469847636D002B5AD0636D13F0010FB1
:102AD80052D0042384F8353023689649964A9342A5
:102AE80018BF8B422FD0183293422CD01832934201
:102AF80029D01832934226D01832934223D0183264
:102B0800934220D0183293421DD002F55672934258
:102B180019D01832934216D01832934213D0183273
:102B2800934210D0183293420DD0183293420AD0F3
:102B38001832934207D01832934204D01A6822F010
:102B480001021A6003E01A6822F001021A60019B70
:102B580001330193AB4204D823681B6813F0010FBB
:102B6800F5D123681B6813F0010F0BD0032384F8F9
:102B78003530002384F83430E36C0BB12046984795
:102B880003B0F0BD012384F83530F2E7236C002B45
:102B9800F6D020469847F3E712F0200F3AD1236881
:102BA8006449654A934218BF8B422FD0183293422A
:102BB8002CD01832934229D01832934226D018329A
:102BC800934223D01832934220D0183293421DD01A
:102BD80002F55672934219D01832934216D0183221
:102BE800934213D01832934210D0183293420DD02A
:102BF800183293420AD01832934207D018329342BF
:102C080004D01A6822F004021A6003E01A6822F05D
:102C180008021A60236C002BB2D020469847AFE711
:102C28000220884010EA0C0F60D012F0020F5DD02D
:102C3800786012F4004F0ED012F4803F05D1636C17
:102C4800002B9DD0204698479AE7E36B002B97D03E
:102C58002046984794E712F0200F40D12368354961
:102C6800354A934218BF8B422FD0183293422CD04A
:102C78001832934229D01832934226D01832934200
:102C880023D01832934220D0183293421DD002F537
:102C98005672934219D01832934216D01832934282
:102CA80013D01832934210D0183293420DD01832F4
:102CB80093420AD01832934207D01832934204D074
:102CC8001A6822F00A021A6003E01A6822F0140255
:102CD8001A60012384F83530002384F83430E36B1C
:102CE800002B3FF44DAF2046984749E7082000FAEB
:102CF80001F111EA0C0F3FF443AF12F0080F3FF453
:102D08003FAF1A6822F00E021A60E36D03F01F034A
:102D1800012202FA03F37B60626584F83520002300
:102D280084F83430E36C002B3FF42AAF20469847F0
:102D380026E700BF1000024028000240F0B583B02B
:102D480000236BE085685E000324B44025EA04058F
:102D5800CC68B4402C438460456825EA0C054C686F
:102D6800C4F300149C402C43446069E0DD08083536
:102D780050F8254003F0070C4FEA8C0C4FF00F0E6B
:102D88000EFA0CFE24EA0E0E0C6904FA0CF444EA5E
:102D98000E0440F825406BE0092400E0002404FA02
:102DA8000EF42C430CF1020C694D45F82C404FF001
:102DB800B0442568D44325EA02064F6817F4801FFB
:102DC80001D042EA05064FF0B0452E606D6804EA6E
:102DD80005064F6817F4001F01D042EA05064FF0B8
:102DE800B0456E60D5F8845004EA05064F6817F4BC
:102DF800003F01D042EA05064FF0B045C5F88460AF
:102E0800D5F880502C404E6816F4803F01D042EA35
:102E180005044FF0B042C2F8804001330A6832FA24
:102E280003F400F092804FF0010C0CFA03FC1CEA4A
:102E38000202F2D04C6804F00304013C012C81D951
:102E48004C6804F00304032C0CD0C4685D004FF0F8
:102E5800030C0CFA05FC24EA0C0C8C68AC4044EA20
:102E68000C04C4604C6804F00304022C3FF47EAFE9
:102E780004684FEA430E4FF0030C0CFA0EFC24EAE8
:102E88000C0C4C6804F0030404FA0EF444EA0C0435
:102E980004604C6814F4403FBFD02E4CD4F8F45072
:102EA80045F00205C4F8F450D4F8F44004F00204E4
:102EB8000194019C4FEA930C0CF10205244C54F840
:102EC800255003F0030E4FEA8E0E0F2404FA0EF479
:102ED80025EA0405204CA0423FF460AF04F5806465
:102EE800A04222D004F58064A04220D004F580647A
:102EF800A0421ED004F58064A0421CD004F5806472
:102F0800A0421AD004F58064A04218D004F5806469
:102F1800A04216D004F58064A04214D004F5806461
:102F2800A0423FF439AF0A2439E7012437E70224E5
:102F380035E7032433E7042431E705242FE7062483
:102F48002DE707242BE7082429E703B0F0BD00BFCD
:102F58000004005800440258000002580AB1816178
:102F68007047090481617047436901EA030221EA55
:102F7800030141EA0241816170472DE9F04383B0C2
:102F8800D0F8008001EBC10300EB83039A6A5B6A07
:102F98009A4254D807460C469B1A01EBC10200EB33
:102FA8008202D2699A4200D31A4602F103094FEA13
:102FB800990915E006F103094FEA9909BB7904EB71
:102FC800C40507EB8505296A0093B3B2E2B240460F
:102FD80003F087FE2B6A33442B62AB6A3344AB623F
:102FE80008EB441303F510639B699BB24B4512D35E
:102FF80004EBC40307EB83039A6A5B6A9A420AD21A
:103008004BB19B1A04EBC40207EB8202D6699E42BD
:10301800D0D31E46CEE704EBC40307EB83077A6AD6
:10302800BB6A9A420FD804F00F040122A240D8F8D4
:10303800343823EA0203C8F83438002000E00120BD
:1030480003B0BDE8F0830020FAE730B583B000286C
:103058007AD0044690F89534ABB1032384F89534BC
:10306800206803F0F5FB237C8DF80030231D0ECB80
:10307800206803F023FB58B1022384F89534012516
:10308800284603B030BD80F8943405F023FAE4E70D
:103098000021206804F035F8024608B9034617E015
:1030A800022384F895340125EAE703EBC30104EB16
:1030B8008101012048750B75CB8500200876C86111
:1030C800086203EBC30104EB810148620133DBB200
:1030D80020799842E9D816E002EBC20304EB830397
:1030E800002183F8551283F8542283F85812C3F844
:1030F8005C12C3F8601202EBC20304EB8303C3F84B
:1031080064120132D2B29042E6D8237C8DF80030A6
:10311800231D0ECB206803F0F1FB054658B90023A8
:103128006374012384F89534237B012B08D020682D
:1031380003F0A6FFA4E7022384F8953401259FE74E
:10314800204600F073FDF2E7012599E7036890F83F
:103158009424012A1AD010B50446012280F8942438
:10316800DA6812F0400F02D0427B012A09D02068A9
:1031780003F068FB206803F075FF002084F89404CE
:1031880010BD9A6B42F480329A63F0E702207047D0
:1031980070B504460D460068066C00EB411303F554
:1031A80030639A68A179012911D038498E4256D0E6
:1031B8003DB905EBC50304EB8303D3F86432002B58
:1031C8005ED0E9B2204605F0E7F9002070BD12F0A4
:1031D800080F09D02E498E42F7D912F4004FF4D0C7
:1031E8004FF400429A60F0E712F0200F02D020223C
:1031F8009A60EAE712F0280FE7D125498E4206D9EE
:1032080012F4004F03D04FF400429A60DDE705EB5B
:10321800C50204EB8202D2F874121B69C3F31203CD
:10322800CB1AC2F868327DB905EBC50204EB8202FD
:10323800D2F864226AB105EBC50204EB8202D2F827
:1032480060121944C2F86012E9B2204605F0A4F9E8
:10325800BBE704F29C42012103F092FFF4E712F469
:10326800004F03D04FF400429A60AEE712F0200FEF
:1032780001D020229A60E9B2204605F08DF9A4E732
:1032880004F29C42002103F07BFF9AE70A31544F75
:103298000A30544F38B5044603681D6C03EB4113DC
:1032A800D3F8081B0E4A954207D903F5306311F489
:1032B800004F02D04FF400429A60204605F064F9AE
:1032C800074B9D4202D9A379012B01D0002038BDBC
:1032D80004F29C420121206803F052FFF6E700BF88
:1032E8000A30544F90F89434012B0CD010B5044692
:1032F800012380F894344174006803F0A3FE002091
:1033080084F8940410BD0220704738B505468C46F1
:1033180011F0800F29D101F00F0E0EEBCE04A4009E
:1033280004F514740444211D0EEBCE0E00EB8E0E32
:1033380000208EF855020CF00F0C81F800C08A604E
:103348000B714A780AB1A1F81AC0022B1CD095F863
:103358009434012B1BD0012385F89434286803F09A
:10336800A5FB002085F8940438BD01F00F0000EBA0
:10337800C001890010312944043100EBC00005EB7D
:10338800800001244475D6E700234B71DFE7022053
:10339800EAE710B504460A4611F0800F20D101F083
:1033A8000F0000EBC0039B0003F514732344191DA1
:1033B80000EBC00004EB8000002380F8553202F0D7
:1033C8000F020A7094F89434012B18D0012384F862
:1033D8009434206803F0B6FB002084F8940410BDF0
:1033E80001F00F0000EBC0039B0010332344191DAC
:1033F80000EBC00004EB800001234375DFE70220E7
:10340800EDE710B5144601F00F0C0CEBCC01890068
:1034180001F51471014404310CEBCC0E00EB8E0E57
:10342800CEF86022CEF864320023CEF868328EF8E7
:1034380055328EF854C28279012A04D0006803F00C
:1034480067FC002010BDCEF87042F7E701F00F01CD
:1034580001EBC10100EB8100D0F86802704710B59C
:10346800144601F00F0C0CEBCC018900103101441B
:1034780004310CEBCC0E00EB8E0ECEF82020CEF8EB
:1034880024300023CEF8283001238EF815308EF82A
:1034980014C082799A4204D0006803F039FC0020F5
:1034A80010BDCEF83040F7E738B501F00F050279C6
:1034B800AA4238D304460B4611F0800F1FD101EB06
:1034C800C101890001F514710144043103EBC30300
:1034D80000EB8303002283F8552201238B700D70C3
:1034E80094F89434012B20D0012384F89434206874
:1034F80003F04DFD85B1002084F8940438BD05EB38
:10350800C501890010310144043105EBC50300EB06
:10351800830301225A75E0E704F29C42A1792068EE
:1035280003F02EFEE7E70120E8E70220E6E701F0D6
:103538000F0302799A4230D310B5044611F0800F78
:103548001ED103EBC301890001F514710144043154
:1035580003EBC30200EB8202002082F8550200222E
:103568008A700B7094F89434012B18D0012384F8D6
:103578009434206803F038FD002084F8940410BDCA
:1035880003EBC301890010310144043103EBC3028A
:1035980000EB820201205075E1E70120704702200C
:1035A800EDE708B511F0800F0CD101F00F0101EB28
:1035B800C101890001F5147101440431006803F068
:1035C80031FB08BD01F00F0101EBC1018900103189
:1035D80001440431F2E72DE9F04F83B00446056851
:1035E800284603F08AFD10B103B0BDE8F08F064607
:1035F800206803F053FD0028F6D005F50067BB6886
:10360800C3F30D23C4F8D434206803F047FD10F049
:10361800020F04D02268536903F002035361206843
:1036280003F03CFD10F0100F16D02268936923F0C8
:1036380010039361D5F8208008F00F0908F4F013FF
:10364800B3F5802F6AD0B3F5402F00F08D80226843
:10365800936943F010039361206803F01FFD10F491
:10366800002F40F09380206803F018FD10F4802F9D
:1036780040F0FC80206803F011FD0028C0F27D8135
:10368800206803F00BFD10F4006F09D0BB6813F03D
:10369800010F40F08A812268536903F40063536183
:1036A800206803F0FBFC10F0006F15D02268536906
:1036B80003F00063536194F8CC34002B40F0798117
:1036C800012184F8CC1423685B6DC3F38303C4F829
:1036D800D034204600F0BEFA206803F0DFFC10F476
:1036E800805F40F06A81206803F0D8FC10F4005F26
:1036F80040F0B681206803F0D1FC10F0080F40F0CC
:10370800C781206803F0CAFC10F0800F00F0DA814E
:10371800AB6923F08003AB610126C3E147F6F07380
:1037280018EA030F93D04FEA181A4FEAC903019316
:1037380009EBC90B04EB8B0BC8F30A12DBF8601218
:10374800284603F001FCDBF86032CAF30A0A534446
:10375800CBF86032DBF86832019A4A4404EB820203
:103768005344C2F8683272E7082204F29C412846A2
:1037780003F0EAFB09EBC90304EB8303D3F86822DF
:10378800C8F30A184244C3F8682260E7206803F0C7
:1037980089FC8046B14635E005EB49130122C3F8A0
:1037A800082B49462046FFF7F3FC3CE005EB49139C
:1037B8000822C3F8082B49462046FFF76BFD35E081
:1037C80009EBC90304EB830393F85732012B41D06B
:1037D80005EB49130222C3F8082B1AF0200F04D076
:1037E80005EB49132022C3F8082B1AF4005F05D013
:1037F80005EB49134FF40052C3F8082B09F10109EE
:103808004FEA5808B8F1000F3FF42DAF18F0010F38
:10381800F4D05FFA89FB5946206803F053FC8246CE
:1038280010F0010FB8D11AF0080FBFD11AF0100F1D
:1038380004D005EB49131022C3F8082B1AF0020F25
:10384800CBD06B6913F0800FBAD07B6843F48063E8
:103858007B60B5E709EBC90304EB8303002283F817
:1038680057225946204604F0E7FEB1E7206803F0E6
:1038780021FC8046B14625E05946204604F098FED2
:103888001AF0080F04D005EB49130822C3F80829D9
:103898001AF0100F04D005EB49131022C3F80829B9
:1038A8001AF0400F04D005EB49134022C3F8082949
:1038B8001AF0020F40D11AF0800F59D109F101090D
:1038C8004FEA5808B8F1000F3FF4D4AE18F0010FD2
:1038D800F4D05FFA89FB5946206803F0FCFB824666
:1038E80010F0010FCCD009F00F02012101FA02F209
:1038F8007B6B23EA02037B6305EB4913C3F80819C2
:10390800A3798B42B8D109EBC90304EB83031A6A84
:10391800D9690A441A62B9F1000FADD109EBC9039C
:1039280004EB83035B6A002BA6D104F29C420121BD
:10393800206803F025FC9FE74946284602F08EFFE1
:1039480009EBC90304EB8303DB7D012B05D005EBF1
:1039580049130222C3F80829ADE709EBC90304EBB0
:1039680083030022DA755946204604F06BFEEEE721
:1039780049462046FFF701FBA0E77B6823F00103D7
:103988007B6094F8CC34012B08D0204604F04EFE1E
:103998002268536903F00043536171E6002184F8FB
:1039A800CC14204600F056F9F2E7204604F026FE33
:1039B80071E6204604F022FE8EE67B6823F00103C0
:1039C8007B601021206802F049FF1AE005EB4613DE
:1039D8004FF67F31C3F80819D3F8002922F40012F2
:1039E800C3F80029C3F8081BD3F8002B22F40012EF
:1039F800C3F8002BD3F8002B42F00062C3F8002B69
:103A080001362379B342E1D8FB6943F00113FB6126
:103A1800E37BDBB1D7F8843043F00B03C7F884307D
:103A28007B6C43F00B037B64D5F8003823F4FE630A
:103A3800C5F8003804F29C42A179206803F0A0FB85
:103A48002268536903F4805353614CE67A6942F261
:103A58002B0313437B613B6943F00B033B61E3E7B3
:103A6800206803F07FFB206803F00EF8E0712668F9
:103A780000F0C2FE0146E279304602F071FE2046AF
:103A880004F0A7FD2268536903F40053536131E63B
:103A9800204604F098FD2268536903F00803536137
:103AA8002FE601362379B3420CD906EBC60304EBA3
:103AB800830393F85732012BF3D1F1B22046FFF775
:103AC80070FDEEE7206803F0E9FA10F4801F25D1B5
:103AD800206803F0E3FA10F4001F59D0012326E010
:103AE80001362379B3421BD905EB4613D3F80029D5
:103AF80006EBC60304EB83031B7E012BF0D1002ADF
:103B0800EEDA06EBC60304EB83030122DA7566F0EE
:103B18007F01C9B22046FFF744FDE1E70126E0E74F
:103B28002268536903F480135361D1E70133227982
:103B38009A4228D905EB4312D2F8001B03EBC302C3
:103B480004EB820292F85822012AEFD10029EDDA1B
:103B580001F48031D4F8D42402F001029142E5D175
:103B680003EBC30204EB8202012182F85712AA690F
:103B780042F08002AA616A6912F0800FD6D17B6890
:103B880043F400737B602268536903F400135361A4
:103B9800206803F083FA10F0804F10D1206803F0FA
:103BA8007DFA10F0040F3FF41FAD23685D6815F02F
:103BB800040F0DD1226853682B43536014E5204647
:103BC80004F046FD2268536903F080435361E5E73A
:103BD800204604F043FDEDE710B40468606A31B98B
:103BE80040EA0240A06200205DF8044B70478C4612
:103BF800A36A00EB1340002308E003F1400104EB43
:103C08008101496800EB11400133DBB20CF1FF314F
:103C18008B42F2D340EA02400CF13F0104EB8104ED
:103C28006060E0E703685962002070470346026855
:103C38000121C0F8D814002083F8CC04936943F01C
:103C480000639361516D024B0B435365704700BF8E
:103C58000300001070470000134BDB6813F0040FDB
:103C680007D1114BDB6803F0070383421AD0012008
:103C7800704710B50C4AD36823F007030343D36099
:103C8800FCF79CFE0446084B5B6813F4005F07D101
:103C9800FCF794FE001BB0F57A7FF4D9012000E010
:103CA800002010BD0020704700480258024AD3681F
:103CB80043F08073D360704700480258002800F032
:103CC800398338B50446036813F0010F25D0944AA8
:103CD800136903F03803926A102B15D0182B0FD0F4
:103CE8006368B3F5803F3FD0002B53D18C4B1A68E3
:103CF80022F480321A601A6822F480221A6038E0AE
:103D080002F00302022AEBD1854B1B6813F4003F33
:103D180003D06368002B00F00F83236813F0020FB1
:103D280000F0A1807E4A1369926A13F038035AD0D2
:103D3800182B55D0E368002B00F0DE8078490A681C
:103D480022F0190213430B60FCF738FE0546744B4A
:103D58001B6813F0040F40F0AD80FCF72FFE401BEA
:103D68000228F4D90320EEE26D4A136843F4803345
:103D7800136063682BB3FCF721FE0546684B1B688C
:103D880013F4003FC9D1FCF719FE401B6428F5D98C
:103D98000320D8E2B3F5A02F09D0614B1A6822F4AA
:103DA80080321A601A6822F480221A60E1E75C4BBC
:103DB8001A6842F480221A601A6842F480321A6043
:103DC800D7E7FCF7FBFD0546554B1B6813F4003F8E
:103DD800A3D0FCF7F3FD401B6428F5D90320B2E219
:103DE80012F0030FA6D14E4B1B6813F0040F03D03B
:103DF800E368002B00F0A282494A136823F01903F4
:103E0800E1680B431360FCF7D9FD0546444B1B687A
:103E180013F0040F06D1FCF7D1FD401B0228F5D999
:103E2800032090E2FCF7E4FD41F20303984212D824
:103E38002269402A07D03A494B6823F47C3343EA85
:103E480002334B600FE0364A536823F47C3343F463
:103E58000033536007E0324A536823F0FE43216978
:103E680043EA01635360236813F0100F00F0888061
:103E78002B4A136903F03803926A082B56D0182B83
:103E880050D0E369002B00F0B880254A136843F04E
:103E980080031360FCF792FD0546214B1B6813F461
:103EA800807F40F08880FCF789FD401B0228F4D908
:103EB800032048E2FCF79CFD41F20303984212D824
:103EC8002269402A07D016494B6823F47C3343EA19
:103ED80002334B60C7E7124A536823F47C3343F438
:103EE80000335360BFE70E4A536823F0FE4321694D
:103EF80043EA01635360B6E7094A136823F00103F4
:103F08001360FCF75BFD0546054B1B6813F0040FB7
:103F1800A9D0FCF753FD401B0228F5D9032012E273
:103F28000044025802F00302012AAAD1A14B1B68DF
:103F380013F4807F03D0E369802B40F00182FCF703
:103F480057FD41F20303984212D8226A202A07D06B
:103F580098494B6823F0F84343EA82634B600FE0CB
:103F6800944A536823F0F84343F08043536007E0D2
:103F7800904AD36823F07C53216A43EA0163D360F3
:103F8800236813F0080F60D06369002B49D0894A71
:103F9800536F43F001035367FCF710FD0546854B4B
:103FA8005B6F13F0020F50D1FCF708FD401B02288D
:103FB800F5D90320C7E1FCF71BFD41F20303984242
:103FC80012D8226A202A07D07A494B6823F0F8438E
:103FD80043EA82634B60D3E7764A536823F0F84399
:103FE80043F080435360CBE7724AD36823F07C5395
:103FF800216A43EA0163D360C2E76E4A136823F07B
:1040080080031360FCF7DAFC05466A4B1B6813F45F
:10401800807FB5D0FCF7D2FC401B0228F5D90320DD
:1040280091E1644A536F23F001035367FCF7C6FC20
:104038000546604B5B6F13F0020F06D0FCF7BEFC21
:10404800401B0228F5D903207DE1236813F0200FD7
:1040580029D0A3699BB1574A136843F4805313606E
:10406800FCF7ACFC0546534B1B6813F4005F1AD1F0
:10407800FCF7A4FC401B0228F5D9032063E14D4A54
:10408800136823F480531360FCF798FC0546494BEA
:104098001B6813F4005F06D0FCF790FC401B022855
:1040A800F5D903204FE1236813F0040F21D1636A87
:1040B800002B00F047813F4A126902F03802182AA3
:1040C80000F0EE80022B79D03A4A136823F080730F
:1040D8001360FCF773FC0446364B1B6813F0007F33
:1040E80000F0DC80FCF76AFC001B0228F4D90320EE
:1040F80029E1314A136843F480731360FCF75EFCCE
:1041080005462D4B1B6813F4807F06D1FCF756FC3F
:10411800401B6428F5D9032015E1A368012B0AD0B8
:104128000BBB244B1A6F22F001021A671A6F22F098
:1041380004021A6704E01F4A136F43F00103136770
:10414800A36833B3FCF73AFC05461A4B1B6F13F010
:10415800020FACD1FCF732FC401B41F28833984285
:10416800F3D90320EFE0052B09D0124B1A6F22F088
:1041780001021A671A6F22F004021A67E0E70D4B72
:104188001A6F42F004021A671A6F42F001021A67A6
:10419800D6E7FCF713FC0546064B1B6F13F0020F1E
:1041A80085D0FCF70BFC401B41F288339842F3D9C9
:1041B8000320C8E00044025800480258694A1368BE
:1041C80023F080731360FCF7F9FB0546654B1B6809
:1041D80013F0007F06D0FCF7F1FB401B0228F5D94D
:1041E8000320B0E05F4B996A5F4A0A40A16AE06A1F
:1041F80041EA00110A439A62226B013AC2F30802AB
:10420800616B0139490289B20A43A16B013909047A
:1042180001F4FE010A43E16B0139090601F0FE4190
:104228000A431A63DA6A22F00102DA625A6B6FF300
:10423800CF02A16C42EAC1025A63DA6A22F00C0288
:10424800216C0A43DA62DA6A22F00202616C0A43DC
:10425800DA62DA6A42F48032DA62DA6A42F4003206
:10426800DA62DA6A42F48022DA62DA6A42F0010239
:10427800DA621A6842F080721A60FCF79FFB044603
:10428800384B1B6813F0007F06D1FCF797FB001B27
:104298000228F5D9032056E0002054E0002052E01F
:1042A800304A916A106B012B4ED001F00303A26AC9
:1042B80093424BD1C1F30511E36A994248D1C0F347
:1042C8000802236B013B9A4244D1C0F34622636B38
:1042D800013B9A4240D1C0F30642A36B013B9A428C
:1042E8003CD1C0F30660E36B013B984238D11D4BCB
:1042F8005B6BC3F3CC03A26C9A4201D1002022E08D
:10430800184AD36A23F00103D362FCF757FB05462A
:10431800FCF754FBA842FBD0124A536B6FF3CF0350
:10432800A16C43EAC1035363D36A43F00103D36228
:10433800002008E001207047012004E0012002E08D
:10434800012000E0002038BD0120FCE70120FAE749
:104358000120F8E70120F6E70120F4E70120F2E761
:104368000120F0E7004402580CFCFFFF754B1B6965
:1043780003F03803102B00F0DE80182B0FD0002B31
:1043880040F0DB806F4B1B6813F0200F00F0D780E4
:104398006C4B1B68C3F3C1036B48D840704710B41B
:1043A800684B9A6A02F003029C6AC4F30510D96A42
:1043B80001F001015B6BC3F3CC0301FB03F307EED0
:1043C800903AF8EE677A14F47C7F77D0012A4AD0C5
:1043D800022A76D0002A40F091805A4B1B6813F0CD
:1043E800200F23D057490A68C2F3C102564BD34065
:1043F80007EE103AF8EE476A07EE100AB8EE476A79
:1044080086EE867A0B6BC3F3080306EE903AF8EE55
:10441800666A9FED4E6A67EE867A76EEA77AF7EEC1
:10442800006A77EEA67A27EE277A38E007EE100AB8
:10443800F8EE476A9FED466A86EE267A414B1B6B7B
:10444800C3F3080306EE903AF8EE666A9FED3F6AFA
:1044580067EE867A76EEA77AF7EE006A77EEA67AA6
:1044680027EE277A1BE007EE100AF8EE476A9FED61
:10447800396A86EE267A334B1B6BC3F3080306EEC4
:10448800903AF8EE666A9FED316A67EE867A76EEC4
:10449800A77AF7EE006A77EEA67A27EE277A294BF5
:1044A8001B6BC3F34623013307EE903AF8EE677AA5
:1044B800C7EE276AFCEEE67A17EE900A5DF8044B21
:1044C800704707EE100AF8EE476A9FED236A86EEFA
:1044D800267A1C4B1B6BC3F3080306EE903AF8EEE2
:1044E800666A9FED1A6A67EE867A76EEA77AF7EE25
:1044F800006A77EEA67A27EE277AD0E707EE100A49
:10450800F8EE476A9FED136A86EE267A0D4B1B6B11
:10451800C3F3080306EE903AF8EE666A9FED0B6A5D
:1045280067EE867A76EEA77AF7EE006A77EEA67AD5
:1045380027EE277AB3E709487047094870470248C9
:10454800704700BF004402580090D00300000039B3
:104558000024744C0024744A20BCBE4B40787D0172
:1045680000093D00002800F0328170B50D46044670
:104578009B4B1B6803F00F038B420BD2984A1368BE
:1045880023F00F030B431360136803F00F038B42F0
:1045980040F01F81236813F0040F0CD02269914B5F
:1045A8009B6903F070039A4205D98E498B6923F001
:1045B80070031A438A61236813F0080F0CD06269EC
:1045C800884BDB6903F070039A4205D98549CB69AA
:1045D80023F070031A43CA61236813F0100F0CD03C
:1045E800A269804BDB6903F4E0639A4205D97D49EF
:1045F800CB6923F4E0631A43CA61236813F0200FE0
:104608000CD0E269774B1B6A03F070039A4205D914
:1046180074490B6A23F070031A430A62236813F083
:10462800020F0CD0E2686F4B9B6903F00F039A42AC
:1046380005D96C498B6923F00F031A438A612368F3
:1046480013F0010F41D0674A936923F47063A1689E
:104658000B4393616368022B0AD0032B27D0012BED
:104668002CD0604A126812F0040F06D10120ADE088
:10467800126812F4003F00F0AE805A490A6922F02D
:10468800070213430B61FCF799F90646554B1B6962
:1046980003F038036268B3EBC20F16D0FCF78EF94B
:1046A800801B41F288339842F0D903208EE04D4AAE
:1046B800126812F0007FE0D1012087E0494A1268B1
:1046C80012F4807FD9D1012080E0236813F0020F13
:1046D8000CD0E268434B9B6903F00F039A4205D262
:1046E80040498B6923F00F031A438A613C4B1B68CE
:1046F80003F00F03AB420AD9394A136823F00F03BA
:104708002B431360136803F00F03AB4265D1236892
:1047180013F0040F0CD02269324B9B6903F070032D
:104728009A4205D22F498B6923F070031A438A6194
:10473800236813F0080F0CD062692A4BDB6903F079
:1047480070039A4205D22749CB6923F070031A43B4
:10475800CA61236813F0100F0CD0A269214BDB69E2
:1047680003F4E0639A4205D21E49CB6923F4E0635F
:104778001A43CA61236813F0200F0CD0E269194B61
:104788001B6A03F070039A4205D216490B6A23F09C
:1047980070031A430A62FFF7E9FD12498B69C3F3F4
:1047A8000323114AD35C03F01F03D8408B6903F03D
:1047B8000F03D35C03F01F0320FA03F30B4A1360C3
:1047C8000B4B18600B4B1868FCF796F870BD01206E
:1047D80070470120FAE70120F8E70120F6E700BF5B
:1047E80000200052004402587C8800080000002085
:1047F800040000200C00002008B5FFF7B7FD0B4AA5
:104808009369C3F303230A49CB5C03F01F0320FA1F
:1048180003F3926902F00F02885C00F01F0023FA8C
:1048280000F0044A1060044A136008BD00440258AE
:104838007C880008000000200400002008B5FFF76D
:10484800DBFF054BDB69C3F30213044AD35C03F0B7
:104858001F03D84008BD00BF004402587C880008E8
:10486800404B9B6A03F00303032B79D070B50546D0
:104878000E463C4A136823F080631360FCF79EF8E9
:104888000446384B1B6813F0006F06D0FCF796F807
:10489800031B022BF5D9032070BD324B9A6A22F410
:1048A8007C32296842EA01329A626A68013AC2F3A4
:1048B8000802A9680139490289B20A43E96801393D
:1048C800090401F4FE010A4329690139090601F0C6
:1048D800FE410A439A63DA6A22F0C00269690A4310
:1048E800DA62DA6A22F02002A9690A43DA62DA6A2D
:1048F80022F01002DA62DA6B6FF3CF02E96942EA5A
:10490800C102DA63DA6A42F01002DA62C6B91A46FC
:10491800DB6A43F40023D362124A136843F08063CE
:104928001360FCF74BF804460E4B1B6813F0006F3E
:1049380014D1FCF743F8001B0228F5D90320ABE794
:10494800012E05D0074AD36A43F40013D362E3E784
:10495800044AD36A43F48013D362DDE700209BE75F
:104968000120704700440258404B9B6A03F0030340
:10497800032B79D070B505460E463C4A136823F0E0
:1049880080531360FCF71AF80446384B1B6813F081
:10499800005F06D0FCF712F8031B022BF5D90320A1
:1049A80070BD324B9A6A22F07C72296842EA015241
:1049B8009A626A68013AC2F30802A9680139490291
:1049C80089B20A43E9680139090401F4FE010A437E
:1049D80029690139090601F0FE410A431A64DA6AB5
:1049E80022F4406269690A43DA62DA6A22F40072E0
:1049F800A9690A43DA62DA6A22F48072DA625A6CC6
:104A08006FF3CF02E96942EAC1025A64DA6A42F4F2
:104A18008072DA62C6B91A46DB6A43F48003D3624D
:104A2800124A136843F080531360FBF7C7FF04462C
:104A38000E4B1B6813F0005F14D1FBF7BFFF001B80
:104A48000228F5D90320ABE7012E05D0074AD36A1F
:104A580043F08073D362E3E7044AD36A43F4000364
:104A6800D362DDE700209BE701207047004402582D
:104A7800F8B50446036813F0006F30D0836EB3F5C1
:104A8800001F26D00ED8ABB1B3F5801F07D1022185
:104A98000830FFF7E5FE054695B12E4621E00126D0
:104AA80035461EE0B3F5401F01D1002508E0012678
:104AB800354616E0984AD36A43F40033D36200259A
:104AC800954A136D23F44013A16E0B43136500261A
:104AD80007E002212830FFF747FF0546DCE70026FC
:104AE8003546236813F4807F14D0A36D042B31D886
:104AF800DFE803F0032229080800874AD36A43F451
:104B08000033D3624DBB844A136D23F00703A16DB4
:104B18000B431365236813F4007F38D0E36D802BB3
:104B28004AD01FD833B3402B19D1002104F1080013
:104B3800FFF796FE054622E0002104F10800FFF782
:104B48008FFE0546DEE7002104F12800FFF70CFF81
:104B58000546D7E701263546DCE72E46DAE7012683
:104B6800354614E0C02B0AD0B3F5807F07D0012664
:104B780035460CE0684AD36A43F40033D36215BB68
:104B8800654A136D23F4E073E16D0B4313652368E5
:104B980013F4806F3CD0D4F8A830B3F5800F2FD031
:104BA80016D8F3B1B3F5001F0FD1002104F10800A6
:104BB800FFF756FE054619E0002104F12800FFF72B
:104BC800D3FE0546DBE72E46E1E7012635461FE022
:104BD800B3F5C00F0AD0B3F5000F07D0012635464C
:104BE80016E04D4AD36A43F40033D3627DB94A4A8A
:104BF800936D23F46003D4F8A8100B43936507E082
:104C0800002104F12800FFF7AFFE0546EEE72E4627
:104C1800236813F4006F2BD0D4F8AC30B3F1007FC5
:104C280053D00DD8ABB1B3F1807F06D1002104F188
:104C38000800FFF715FE054610E00126354617E087
:104C4800B3F1407F0AD0B3F1806F07D00126354613
:104C58000EE0314AD36A43F40033D362002D3BD1CE
:104C68002D4A936D23F0E063D4F8AC100B439365A1
:104C7800236813F0007F13D0E36C202B36D030D894
:104C880033B1102B2AD1244AD36A43F40033D362B8
:104C98009DBB214AD36C23F03003E16C0B43D364F2
:104CA800236813F4805F47D0236EB3F5005F00F0EC
:104CB8008D8027D893B3B3F5805F20D1002104F10C
:104CC8000800FFF7CDFD05462DE0002104F128007E
:104CD800FFF74AFE0546C1E72E46C9E701263546D5
:104CE800DEE7302BD4D001263546D9E7022104F17E
:104CF8000800FFF7B5FD0546CAE72E46D0E70126AE
:104D0800354619E0B3F5405F0DD0B3F5804F0AD0B2
:104D18000126354610E000BF00440258774AD36A9E
:104D280043F40033D362002D57D1744A136D23F432
:104D3800E043216E0B431365236813F4005F17D01B
:104D4800636EB3F5003F59D04CD843B1B3F5803FFB
:104D580045D1012104F10800FFF782FD0546002D29
:104D680053D1664A136D23F4E023616E0B43136538
:104D7800236813F4804F19D0D4F8B030B3F1005F32
:104D880054D047D843B1B3F1805F40D1012104F139
:104D98000800FFF765FD0546002D4ED1574A936D73
:104DA80023F0E043D4F8B0100B439365236813F461
:104DB800004F51D0236FB3F1805F40D0B3F1005F53
:104DC80055D0002B40D00126354645E0002104F19E
:104DD8002800FFF7C9FD0546A5E72E46ACE70126E2
:104DE8003546C5E7B3F5802FB9D0B3F5A02FB6D0B7
:104DF800B3F5403FB3D001263546B9E7012104F1A8
:104E08002800FFF7B1FD0546A9E72E46B0E70126C1
:104E18003546CBE7B3F1804FBED0B3F1A04FBBD03E
:104E2800B3F1405FB8D001263546BFE7012104F150
:104E38002800FFF799FD0546AEE72E46B6E72F4A4C
:104E4800D36A43F40033D362C5B92C4A136D23F0F7
:104E58004053216F0B431365236813F0807F1CD0E8
:104E6800A36C032B44D8DFE803F0100B3C1001219E
:104E780004F10800FFF7F4FC0546E5E72E46EBE7EA
:104E88001E4AD36A43F40033D362A5BB1B4AD36CD2
:104E980023F00303A16C0B43D364236813F4800F3E
:104EA8002ED1236813F0010F00F0A680E36F282BA2
:104EB80000F2A080DFE803F08E9E9E9E9E9E9E9E3E
:104EC800889E9E9E9E9E9E9E979E9E9E9E9E9E9E17
:104ED8008E9E9E9E9E9E9E9E8E9E9E9E9E9E9E9E0A
:104EE8008E00022104F10800FFF7BAFC0546CCE762
:104EF80001263546D1E72E46CFE700BF00440258C9
:104F0800584A136843F480731360FBF757FD07464C
:104F1800544B1B6813F4807F05D1FBF74FFDC01B72
:104F28006428F5D90325002D4AD14F4B1B6FD4F8BF
:104F3800B420534013F4407F0CD04B4B1A6F22F42B
:104F48004072196F41F480311967196F21F480316B
:104F580019671A67D4F8B430B3F5807F15D08DBBC4
:104F6800D4F8B43003F44072B2F5407F1ED03E4A04
:104F7800136923F47C5313613B490B6FD4F8B420B5
:104F8800C2F30B0213430B678BE7FBF717FD0746CA
:104F9800354B1B6F13F0020FE1D1FBF70FFDC01B60
:104FA80041F288339842F3D90325D8E72E4802699D
:104FB80022F47C522D4901EA131313430361DBE702
:104FC8002E466EE72E466CE7012104F10800FFF734
:104FD80047FC0546E5B9244A536D23F03803E16FD1
:104FE8000B43536508E0012104F12800FFF7BCFCDE
:104FF8000546EFE701263546236813F0020F17D060
:10500800A36F052B29D8DFE803F00B05210B0B0B49
:105018002E46F1E7012104F10800FFF721FC0546BF
:10502800F5B9114A536D23F00703A16F0B4353657C
:10503800236813F0040F2CD0D4F89430052B00F219
:10504800DC80DFE803F01B15D31B1B1B012104F1D7
:105058002800FFF789FC0546E2E701263546E7E721
:105068002E46E5E70048025800440258CFFFFF00EB
:10507800012104F10800FFF7F3FB0546002D40F07D
:10508800BF80B34A936D23F00703D4F894100B4301
:105098009365236813F0200F1DD0D4F89030B3F136
:1050A800005F00F0C18000F2B0804BB1B3F1805FC7
:1050B80040F0A880002104F10800FFF7D1FB054665
:1050C800002D40F0B880A24A536D23F0E043D4F895
:1050D80090100B435365236813F0400F1DD0D4F88C
:1050E8009C30B3F5006F00F0BA8000F2A9804BB194
:1050F800B3F5806F40F0A180002104F10800FFF7AC
:10510800AFFB0546002D40F0B180914A936D23F422
:10511800E053D4F89C100B439365236813F0800F79
:105128001DD0D4F8A030B3F5804F00F0B38000F262
:10513800A2804BB1B3F5005F40F09A80002104F1E2
:105148000800FFF78DFB0546002D40F0AA80804A35
:10515800936D23F46043D4F8A0100B439365236840
:1051680013F0080F0DD0D4F88430B3F5805F00F049
:105178009A80774A536D23F44053D4F884100B4334
:105188005365236813F0100F0DD0D4F89830B3F599
:10519800807F00F092806E4A936D23F44073D4F8B8
:1051A80098100B439365236813F4002F00F09A803E
:1051B800D4F8A430B3F5803F00F08980B3F5003F00
:1051C80008D0002B40F08A80002104F10800FFF786
:1051D80047FB0546002D40F084805D4A936D23F41B
:1051E8004033D4F8A4100B4393657BE0012104F10C
:1051F8002800FFF7B9FB054640E70126354648E792
:105208002E4646E70126354665E7B3F1804F3FF461
:1052180057AFB3F1A04F3FF453AFB3F1405F3FF442
:105228004FAF0126354656E7022104F12800FFF763
:105238009BFB054644E72E464DE7012635466CE7BD
:10524800B3F5805F3FF45EAFB3F5A05F3FF45AAFAC
:10525800B3F5406F3FF456AF012635465DE70221AE
:1052680004F12800FFF780FB05464BE72E4654E77C
:105278000126354673E7B3F5004F3FF465AFB3F544
:10528800204F3FF461AFB3F5C04F3FF45DAF012647
:10529800354664E7022104F12800FFF765FB05465F
:1052A80052E72E465BE7022104F12800FFF75CFB7A
:1052B80000283FF45EAF01265BE7022104F12800D5
:1052C800FFF752FB00283FF466AF012663E702218F
:1052D80004F12800FFF748FB05467BE70126354621
:1052E80000E02E46236813F4802F18D0D4F88830B5
:1052F800B3F5001F1FD0B3F5401F07D0B3F5801FCB
:1053080020D1134AD36A43F40033D362EDB9104A6B
:10531800536D23F44013D4F888100B435365236866
:1053280013F4803F2CD0236DA3B1B3F5803F1FD079
:105338000126354624E0012104F12800FFF714FB7B
:105348000546E3E701263546E9E72E46E7E700BFCD
:1053580000440258704AD36A43F40033D36275B9E3
:105368006D4AD36C23F48033216D0B43D36407E07B
:10537800022104F10800FFF773FA0546EFE72E460D
:10538800236813F0005F11D1236813F4003F28D07D
:10539800D4F88030B3F5807F14D010D9B3F5007FEE
:1053A80015D0B3F5407F12D001261AE0022104F18E
:1053B8002800FFF7D9FA0028E6D00126E4E733B140
:1053C80001260EE0544AD36A43F40033D362002D19
:1053D80069D1514A536D23F44073D4F880100B43BC
:1053E8005365236813F4801F06D04B4A136D23F0CE
:1053F8000043616F0B431365236813F0805F07D088
:10540800454A136923F48043D4F8B8100B43136159
:10541800236813F4001F06D03F4A136D23F08073EE
:10542800E16E0B431365236813F0804F09D03A4BA4
:105438001A6922F400421A611A69D4F8BC100A43A6
:105448001A612368002B06DA334AD36C23F04053E1
:10545800616D0B43D364236813F4000F07D02E4A01
:10546800536D23F44003D4F88C100B4353656368E1
:1054780013F0010F19D1636813F0020F1ED163688E
:1054880013F0040F23D1636813F0080F28D1636861
:1054980013F0100F2DD1636813F0200F32D106B12D
:1054A80001263046F8BD2E469BE7002104F108008E
:1054B800FFF7D6F90028DED00646DCE7012104F123
:1054C8000800FFF7CDF90028D9D00646D7E7022112
:1054D80004F10800FFF7C4F90028D4D00646D2E743
:1054E800002104F12800FFF73FFA0028CFD0064634
:1054F800CDE7012104F12800FFF736FA0028CAD0C9
:105508000646C8E7022104F12800FFF72DFA002813
:10551800C5D00126C5E700BF0044025808B5FFF70B
:105528006BF9054B1B6AC3F30213044AD35C03F0FF
:105538001F03D84008BD00BF004402587C880008FB
:1055480010B4794B9A6A9C6AC4F3053CD96AC1F3D2
:105558000011DB6BC3F3CC0301FB03F314F47C3FB2
:1055680000F0DD8002F0030207EE903AF8EE677A69
:10557800012A4BD0022A00F09880002A40F0B2801D
:10558800694B1B6813F0200F23D067490A68C2F3E0
:10559800C102664BD34007EE103AF8EE476A07EEB1
:1055A80010CAB8EE476A86EE867A8B6BC3F3080397
:1055B80006EE903AF8EE666A9FED5D6A67EE867AC7
:1055C80076EEA77AF7EE006A77EEA67A27EE277AC4
:1055D80038E007EE10CAF8EE476A9FED566A86EE85
:1055E800267A514B9B6BC3F3080306EE903AF8EE0C
:1055F800666A9FED4F6A67EE867A76EEA77AF7EECF
:10560800006A77EEA67A27EE277A1BE007EE10CA23
:10561800F8EE476A9FED486A86EE267A424B9B6B06
:10562800C3F3080306EE903AF8EE666A9FED406A07
:1056380067EE867A76EEA77AF7EE006A77EEA67AB4
:1056480027EE277A384A936BC3F3462307EE903A3E
:10565800F8EE677AF7EE006A77EEA67A87EE276AA1
:10566800BCEEC66A80ED006A936BC3F3064307EE8F
:10567800903AF8EE677A77EEA67A87EE276ABCEE5C
:10568800C66A80ED016A936BC3F3066307EE903A2E
:10569800F8EE677A77EEA67AC7EE276AFCEEE66A36
:1056A800C0ED026A5DF8044B704707EE10CAF8EEC9
:1056B800476A9FED226A86EE267A1B4B9B6BC3F3E3
:1056C800080306EE903AF8EE666A9FED196A67EEEF
:1056D800867A76EEA77AF7EE006A77EEA67A27EE54
:1056E800277AAFE707EE10CAF8EE476A9FED126A0D
:1056F80086EE267A0C4B9B6BC3F3080306EE903AB2
:10570800F8EE666A9FED0A6A67EE867A76EEA77A01
:10571800F7EE006A77EEA67A27EE277A92E700235B
:10572800036043608360BDE7004402580090D003E3
:10573800000000390024744C0024744A20BCBE4B7D
:1057480010B4794B9A6A9C6AC4F3055CD96AC1F3B0
:1057580000215B6CC3F3CC0301FB03F314F07C7FE3
:1057680000F0DD8002F0030207EE903AF8EE677A67
:10577800012A4BD0022A00F09880002A40F0B2801B
:10578800694B1B6813F0200F23D067490A68C2F3DE
:10579800C102664BD34007EE103AF8EE476A07EEAF
:1057A80010CAB8EE476A86EE867A0B6CC3F3080314
:1057B80006EE903AF8EE666A9FED5D6A67EE867AC5
:1057C80076EEA77AF7EE006A77EEA67A27EE277AC2
:1057D80038E007EE10CAF8EE476A9FED566A86EE83
:1057E800267A514B1B6CC3F3080306EE903AF8EE89
:1057F800666A9FED4F6A67EE867A76EEA77AF7EECD
:10580800006A77EEA67A27EE277A1BE007EE10CA21
:10581800F8EE476A9FED486A86EE267A424B1B6C83
:10582800C3F3080306EE903AF8EE666A9FED406A05
:1058380067EE867A76EEA77AF7EE006A77EEA67AB2
:1058480027EE277A384A136CC3F3462307EE903ABB
:10585800F8EE677AF7EE006A77EEA67A87EE276A9F
:10586800BCEEC66A80ED006A136CC3F3064307EE0C
:10587800903AF8EE677A77EEA67A87EE276ABCEE5A
:10588800C66A80ED016A136CC3F3066307EE903AAB
:10589800F8EE677A77EEA67AC7EE276AFCEEE66A34
:1058A800C0ED026A5DF8044B704707EE10CAF8EEC7
:1058B800476A9FED226A86EE267A1B4B1B6CC3F360
:1058C800080306EE903AF8EE666A9FED196A67EEED
:1058D800867A76EEA77AF7EE006A77EEA67A27EE52
:1058E800277AAFE707EE10CAF8EE476A9FED126A0B
:1058F80086EE267A0C4B1B6CC3F3080306EE903A2F
:10590800F8EE666A9FED0A6A67EE867A76EEA77AFF
:10591800F7EE006A77EEA67A27EE277A92E7002359
:10592800036043608360BDE7004402580090D003E1
:10593800000000390024744C0024744A20BCBE4B7B
:1059480010B4794B9A6A9C6AC4F3051CD96A01F0B1
:1059580001015B6BC3F3CC0301FB03F314F47C7FFD
:1059680000F0DD8002F0030207EE903AF8EE677A65
:10597800012A4BD0022A00F09880002A40F0B28019
:10598800694B1B6813F0200F23D067490A68C2F3DC
:10599800C102664BD34007EE103AF8EE476A07EEAD
:1059A80010CAB8EE476A86EE867A0B6BC3F3080313
:1059B80006EE903AF8EE666A9FED5D6A67EE867AC3
:1059C80076EEA77AF7EE006A77EEA67A27EE277AC0
:1059D80038E007EE10CAF8EE476A9FED566A86EE81
:1059E800267A514B1B6BC3F3080306EE903AF8EE88
:1059F800666A9FED4F6A67EE867A76EEA77AF7EECB
:105A0800006A77EEA67A27EE277A1BE007EE10CA1F
:105A1800F8EE476A9FED486A86EE267A424B1B6B82
:105A2800C3F3080306EE903AF8EE666A9FED406A03
:105A380067EE867A76EEA77AF7EE006A77EEA67AB0
:105A480027EE277A384A136BC3F3462307EE903ABA
:105A5800F8EE677AF7EE006A77EEA67A87EE276A9D
:105A6800BCEEC66A80ED006A136BC3F3064307EE0B
:105A7800903AF8EE677A77EEA67A87EE276ABCEE58
:105A8800C66A80ED016A136BC3F3066307EE903AAA
:105A9800F8EE677A77EEA67AC7EE276AFCEEE66A32
:105AA800C0ED026A5DF8044B704707EE10CAF8EEC5
:105AB800476A9FED226A86EE267A1B4B1B6BC3F35F
:105AC800080306EE903AF8EE666A9FED196A67EEEB
