:020000040800F2
:1000000000000220DD530008210900082309000830
:100010002509000827090008290900080000000038
:100020000000000000000000000000002B09000894
:100030002D090008000000002F0900083109000800
:100040002D5400082D5400082D5400082D5400088C
:100050002D5400082D5400082D5400082D5400087C
:100060002D5400082D5400082D5400082D5400086C
:100070002D5400082D5400082D5400082D5400085C
:100080002D5400082D5400082D5400082D5400084C
:100090002D5400082D5400082D5400082D5400083C
:1000A0002D5400082D5400082D5400082D5400082C
:1000B0002D5400082D5400082D5400082D5400081C
:1000C0002D5400082D5400082D5400082D5400080C
:1000D0002D5400082D5400082D5400082D540008FC
:1000E0002D5400082D5400082D5400082D540008EC
:1000F0002D5400082D5400082D5400082D540008DC
:100100002D5400082D5400082D5400082D540008CB
:100110002D5400082D5400082D5400082D540008BB
:10012000390900082D5400082D5400082D540008EA
:100130002D5400082D5400082D5400082D5400089B
:100140002D5400082D5400082D54000849090008BA
:100150002D5400082D5400082D5400082D5400087B
:100160002D5400082D5400082D5400082D5400086B
:100170002D5400082D5400082D54000800000000E4
:080180002D5400082D54000865
:1001880053B94AB9002908BF00281CBF4FF0FF31F6
:100198004FF0FF3000F00CB8ADF1080C6DE904CE5B
:1001A80005F06EF9DDF804E0DDE9022304B07047DC
:1001B800704700BF10B5054C237833B9044B13B111
:1001C8000448AFF300800123237010BDF80000201D
:1001D800000000004457000808B5034B1BB1034951
:1001E8000348AFF3008008BD00000000FC000020B9
:1001F800445700082DE9F04F8DB000240794089467
:1002080009940A940B940194614B1A6B42F0100202
:100218001A631A6B02F010020192019A02941A6B87
:1002280042F004021A631A6B02F004020292029A64
:1002380003941A6B42F080021A631A6B02F0800270
:100248000392039A04941A6B42F001021A631A6B20
:1002580002F001020492049A05941A6B42F0020219
:100268001A631A6B02F002020592059A06941A6B39
:1002780042F008021A631B6B03F008030693069BFF
:10028800DFF81C8122460821404601F0F1F9414F70
:1002980001221146384601F0EBF9DFF808912246B1
:1002A8004FF21001484601F0E3F9082507950126A9
:1002B800089609940A9407A9404601F0E3F80796BE
:1002C800089609940A9407A9384601F0DBF80795BF
:1002D8000225089509940A944FF0050BCDF82CB027
:1002E80007A9384601F0CEF807964FF49013089303
:1002F800099407A9284801F0C5F810230793089521
:1003080009940A944FF0060ACDF82CA007A92248B0
:1003180001F0B8F8042307930894099407A91F4823
:1003280001F0B0F84FF480630793089509940A9494
:10033800CDF82CB007A9194801F0A4F84FF2100322
:100348000793089609940A9407A9484601F09AF871
:100358004FF4A4530793089509940A94CDF82CA058
:1003680007A9384601F08EF82023079308940994CA
:1003780007A9484601F086F807954FF490130893AB
:10038800099407A9404601F07DF80DB0BDE8F08F4B
:100398000038024000080240000002400004024009
:1003A80000100240000C024000B583B0002101910A
:1003B800094B1A6B42F480021A631B6B03F4800327
:1003C8000193019B0A46382000F02EFE382000F0E9
:1003D8003BFE03B05DF804FB0038024008B507494E
:1003E800074B1960074B01221A704FF40062A1F500
:1003F8000061054800F0E2FB08BD00BF1C090020B1
:10040800140100201801002070120020034B044A38
:100418001A60044B01221A70704700BF14010020B3
:100428001C0100201801002072B6FEE700B585B057
:10043800002300930193029303931548154A026021
:100448004FF48032426083600361037680F8203085
:100458004FF04052C2624FF0C0628262C360012214
:10046800C26180F83030426100F07CFB60B9012342
:1004780000930193002302936946054800F0B6FCF7
:1004880020B905B05DF804FBFFF7CEFFFFF7CCFFFE
:10049800701200200020014008B50A480A4B03608A
:1004A8000A4B436000238360C3604FF480420261BB
:1004B80043618361C361036201F0E0F800B908BDDC
:1004C800FFF7B2FFBC11002000540040A0860100D5
:1004D80008B50D480D4B03604FF482734360002349
:1004E8008360C360036143614FF400728261C3613A
:1004F8000362436283620A23C36202F007FB00B906
:1005080008BDFFF791FF00BF6411002000300140D3
:1005180000B58FB000230A930B930C930D930893A7
:100528000993019302930393049305930693079306
:100538001E484FF0804202604360836040F21942D7
:10054800C2600361836102F0B5FC28BB4FF480539D
:100558000A930AA9154802F079FDF8B9134802F080
:10056800D5FCE8B9202308930023099308A90F486C
:1005780002F07CFEB0B9302301930022029203926C
:10058800059201A9094802F025FD68B9074800F05D
:1005980097F90FB05DF804FBFFF746FFFFF744FF3C
:1005A800FFF742FFFFF740FFFFF73EFF1C11002057
:1005B80000B595B03022002108A804F034FF0023CC
:1005C800039304930593069307930193204A116CB0
:1005D80041F080511164126C02F080520192019A2C
:1005E80002931C4B1A6842F480421A601B6803F499
:1005F80080430293029B012308934FF480330993AD
:1006080002230E934FF480020F9204221092A82224
:10061800119212930723139308A801F047FF98B982
:100628000F23039302230493002305934FF4A0534D
:1006380006934FF480530793052103A802F0A0F90D
:1006480020B915B05DF804FBFFF7EEFEFFF7ECFEEE
:10065800003802400070004008B500F0A9F9FFF723
:10066800A7FFFFF7C7FDFFF79FFEFFF7DFFEFFF7C6
:1006780013FFFFF72DFFFFF74BFF04F04DFC0E4C67
:10068800204602F06BFB0021204602F06DFD4FF47E
:1006980000620A490A4800F091FA0A4B1B78012BBC
:1006A800FBD14FF40061084B186804F087FC054B38
:1006B80000221A70F1E700BF1C1100201C01002065
:1006C80070120020180100201401002000B583B02A
:1006D800002100910C4B5A6C42F480425A645A6CC7
:1006E80002F480420092009A01911A6C42F0805202
:1006F8001A641B6C03F080530193019B072000F0E0
:1007080081FC03B05DF804FB0038024030B589B0C5
:10071800002303930493059306930793026803F158
:10072800804303F590339A4201D009B030BD0446A6
:100738000025019503F58C335A6C42F480725A6493
:100748005A6C02F480720192019A02951A6B42F077
:1007580001021A631B6B03F001030293029B02233D
:1007680003930323049303A9104800F08BFE104859
:10077800104B036045608560C5604FF4806303617A
:100788004FF4006343614FF4005383614FF4807367
:10079800C3610562456200F0EBFC18B9044BA36322
:1007A8009C63C2E7FFF740FEF8E700BF0000024085
:1007B800101200201064024030B589B00023039362
:1007C80004930593069307930268144B9A4201D049
:1007D80009B030BD00250195114C236B43F002038D
:1007E8002363236B03F002030193019B4FF41073FF
:1007F800039312230493012305930423079303A966
:10080800084800F03FFE0295236C43F4001323646C
:10081800236C03F400130293029BD9E700540040B1
:10082800003802400004024000B589B00023039359
:1008380004930593069307930268144B9A4202D0D7
:1008480009B05DF804FB0021019103F584335A6C6B
:1008580042F480525A645A6C02F480520192019A0E
:1008680002911A6B42F001021A631B6B03F0010339
:100878000293029BE0230393022304930523079327
:1008880003A9034800F0FEFDDAE700BF003001408D
:10089800000002400368B3F1804F00D0704782B077
:1008A80000230193054B1A6C42F001021A641B6C79
:1008B80003F001030193019B02B070470038024026
:1008C80000B587B000230193029303930493059323
:1008D8000368B3F1804F02D007B05DF804FB002332
:1008E80000930B4B1A6B42F001021A631B6B03F067
:1008F80001030093009B4FF40043019302230293EA
:100908000123059301A9034800F0BCFDE4E700BFFB
:100918000038024000000240FEE7FEE7FEE7FEE77F
:10092800FEE770477047704708B500F05BF808BDF0
:1009380008B5024800F0B8FC08BD00BF101200203E
:1009480008B5024801F0A7FA08BD00BFBC2900207D
:10095800034AD2F8883043F47003C2F888307047ED
:1009680000ED00E010B504460E4B1A784FF47A7388
:10097800B3FBF2F30C4A1068B0FBF3F000F068FB2D
:1009880068B90F2C01D901200AE0002221464FF056
:10099800FF3000F049FB054B1C60002000E00120FF
:1009A80010BD00BF04000020000000200800002047
:1009B80008B50B4B1A6842F400721A601A6842F4C0
:1009C80080621A601A6842F480721A60032000F08C
:1009D80019FB0020FFF7C6FFFFF778FE002008BDCF
:1009E800003C0240034A1168034B1B780B44136018
:1009F800704700BFB812002004000020014B18689F
:100A0800704700BFB812002038B50446FFF7F6FF5C
:100A18000546B4F1FF3F02D0044B1B781C44FFF796
:100A2800EDFF401BA042FAD338BD00BF04000020F0
:100A38004A4B5A6822F440325A605A6841680A435D
:100A48005A600268536823F48073536002685368DD
:100A5800016943EA012353600268536823F0407335
:100A680053600268536881680B4353600268936857
:100A780023F40063936002689368C1680B43936032
:100A8800826A374B9A4257D00268936823F07063A2
:100A9800936002689368816A0B4393600268936865
:100AA80023F04053936002689368C16A0B439360D4
:100AB8000268936823F00203936002689368017EDA
:100AC80043EA4103936090F82030002B3FD002683E
:100AD800536843F4006353600268536823F4604327
:100AE800536001684B68426A013A43EA42334B60FB
:100AF8000268D36A23F47003D3620168CB6AC269BF
:100B0800013A43EA0253CB620268936823F4007304
:100B180093600268936890F8301043EA4123936029
:100B28000268936823F4806393600268936841695C
:100B380043EA8123936070470268936823F07063E7
:100B480093600268936823F040539360B0E70268AB
:100B5800536823F400635360CAE700BF00230140D1
:100B68000100000F38B310B50446036C43B1236C81
:100B780013F0100F0BD00120002384F83C3010BD77
:100B8800FFF7C4FD0023636484F83C30EFE7236C6F
:100B980023F4885323F0020343F00203236420461E
:100BA800FFF746FF00206064236C23F0030343F043
:100BB80001032364E0E701207047000010B582B00C
:100BC80013460022019290F83C20012A00F0AE80E2
:100BD8000446012280F83C200268906810F0010F5A
:100BE80013D1906840F001009060534A1068534A4E
:100BF800A2FB0020800C00EB4000019002E001986D
:100C08000138019001980028F9D12268906810F401
:100C1800807F03D0906820F480709060226890688C
:100C280010F0010F77D0206C20F4E06020F0010074
:100C380040F480702064526812F4806F05D0226CF2
:100C480022F4405242F480522264226C12F4805FF3
:100C580036D0626C22F006026264002284F83C20DE
:100C6800A26B3748D063A26B36481064A26B364833
:100C7800D06422686FF0220010602068426842F059
:100C8800806242602068826842F4807282602068D4
:100C98000A4600F14C01A06B00F0D0FA2B4B5B68C0
:100CA80013F01F0F27D12368294A934211D002F568
:100CB8008072934207D0274A934214D0002033E031
:100CC80000226264C9E702F50072526812F01F0F31
:100CD800F1D19A6812F0405F2AD19A6842F08042B6
:100CE8009A60002020E002F58072526812F0100F1E
:100CF800EFD0002018E02368154A934201D0002065
:100D080012E09A6812F0405F14D19A6842F080426B
:100D18009A60002008E0236C43F010032364636C9E
:100D280043F001036364002002B010BD0220FBE71A
:100D38000020F9E70020F7E70000002083DE1B43CE
:100D4800830D0008610D00086D0D000800230140A7
:100D5800002001400022014008B5806BFFF756FBD8
:100D680008BD704708B5806B40230364436C43F0AB
:100D780004034364FFF7F5FF08BD08B50346806B1D
:100D8800026C12F0500F25D1036C43F40073036416
:100D980003689A6812F0405F19D1027EBAB9DA6A1C
:100DA80012F4700F03D09A6812F4806F0FD15A684A
:100DB80022F020025A60036C23F480730364036CEE
:100DC80013F4805F03D1036C43F001030364FFF75E
:100DD80005FB08BD026C12F0100F04D1826BD26CB7
:100DE80018469047F5E7FFF7BCFFF2E730B482B04A
:100DF8000022019290F83C20012A00F0B6800346B8
:100E0800012280F83C200A68092A40D90468E06871
:100E180092B202EB42021E3A4FF0070C0CFA02F2B1
:100E280020EA0202E2601C68E0680A8802EB4202DB
:100E38001E3A8D6805FA02F20243E2604A68062A01
:100E48003CD81C68606B02EB8202053A4FF01F0C1D
:100E58000CFA02F220EA020262631C68606B4A68BC
:100E680002EB8202053AB1F800C00CFA02F2024322
:100E7800626318683E4A904250D018683C4A9042D3
:100E880055D0002083F83C0002B030BC704704689D
:100E9800206992B202EB42024FF0070C0CFA02F200
:100EA80020EA020222611C6820690A8802EB4202D9
:100EB8008D6805FA02F202432261BFE70C2A16D8B0
:100EC8001D68286B02EB8202233A1F2404FA02F2FF
:100ED80020EA02022A631D68286B4A6802EB820234
:100EE800233A0C8804FA02F202432A63C1E71D6818
:100EF800E86A02EB8202413A1F2404FA02F220EA6D
:100F08000202EA621D68E86A4A6802EB8202413A14
:100F18000C8804FA02F20243EA62AAE70A68122A73
:100F2800ABD11448426842F480024260A5E70A68DF
:100F3800103A012AA5D80F48426842F400024260DC
:100F48000A68102A9DD10C4A12680C49A1FB0212AA
:100F5800920C02EB82025200019202E0019A013ADD
:100F68000192019A002AF9D18BE702208CE700BF91
:100F780000200140002301400000002083DE1B43C5
:100F8800002807DB00F01F02400901239340024AB2
:100F980042F82030704700BF00E100E0002808DB7D
:100FA8000901C9B200F1604000F5614080F8001302
:100FB800704700F00F000901C9B2014B195470477E
:100FC80014ED00E000B500F00700C0F1070CBCF11B
:100FD800040F28BF4FF0040C031D062B0FD9C31EA6
:100FE8004FF0FF3E0EFA0CF021EA000199400EFA8C
:100FF80003FE22EA0E0241EA02005DF804FB002328
:10100800EEE70000074AD36823F4E0631B041B0CD7
:10101800000200F4E060034343F0BF6343F400338D
:10102800D360704700ED00E010B50446054BD86862
:10103800C0F30220FFF7C6FF01462046FFF7AEFFC8
:1010480010BD00BF00ED00E008B5FFF799FF08BD2F
:101058000138B0F1807F0BD24FF0E0235861054A88
:10106800F02182F823100020986107221A61704746
:101078000120704700ED00E030B405682C6824F4C6
:1010880080242C60046863608368402B05D0036863
:1010980099600368DA6030BC704703689A60036837
:1010A800D960F8E710B40368D9B210390A4AA2FB2C
:1010B80001421209094CA25CC2655F2907D96FF386
:1010C800090304338365806D5DF8044B70476FF343
:1010D80009038365F7E700BFABAAAAAA74570008FB
:1010E800836A826992B9012B0AD0022B02D00BB114
:1010F80000207047C36A13F0807F28D10020704712
:10110800C36AB3F1C07F24D000207047B2F5005FF6
:1011180009D0022B25D9032B25D1C36A13F0807F70
:1011280023D100207047032B03D8DFE803F0140411
:10113800140A00207047C36A13F0807F0DD1002085
:101148007047C36AB3F1C07F09D0002070470120FF
:101158007047012070470120704701207047012027
:101168007047012070470020704701207047000039
:1011780070B50446FFF742FC002C5BD005460223FD
:1011880084F83530002384F834302268136823F05B
:101198000103136023681A6812F0010F0AD0FFF7E1
:1011A8002DFC431B052BF5D920236365032084F808
:1011B800350070BD1A68204911406268A068024372
:1011C800E06802432069024360690243A069024360
:1011D800E0690243206A02430A43616A04291ED077
:1011E8001A602668756925F00705636A1D43042B94
:1011F80007D1A36A1D43E36A1BB12046FFF770FFBE
:1012080090B975612046FFF74DFFE26D3F2393408B
:10121800836000206065012384F83530C9E7E16AFE
:10122800206B01430A43DBE740236365012084F810
:101238003500BEE70120BCE73F8010F038B5044612
:10124800856D90F8340001282BD0012084F83400F3
:1012580094F83500C0B2012804D0002384F8343053
:10126800022038BD022084F8350000206065204641
:10127800FFF702FFE26D3F239340AB6022681368DB
:1012880043F016031360236C23B12268136843F0FC
:10129800080313602268136843F0010313600020F9
:1012A800DFE70220DDE70000F0B583B00446002345
:1012B8000193724B1D68724BA3FB0535AD0A876D10
:1012C8003E68C26D08239340334210D003681A6801
:1012D80012F0040F0BD01A6822F004021A60C26DD3
:1012E80008239340BB60436D43F001034365E26DFF
:1012F80001239340334209D02268526912F0800FCB
:1013080004D0BB60636D43F002036365E26D0423A0
:101318009340334209D02268126812F0020F04D0B9
:10132800BB60636D43F004036365E26D1023934073
:10133800334224D02268126812F0080F1FD0BB6015
:1013480023681A6812F4802F0DD01B6813F4002F3D
:1013580004D1236C9BB12046984710E0A36C73B16D
:10136800204698470BE01A6812F4807F03D11A6868
:1013780022F008021A60236C0BB120469847E26DF0
:1013880020239340334255D02268126812F0100F80
:1013980050D0BB6094F83530DBB2052B0ED02368F3
:1013A8001A6812F4802F33D01B6813F4002F2AD147
:1013B800636C002B3ED0204698473BE022681368B8
:1013C80023F0160313602268536923F080035361E6
:1013D800236CA3B12268136823F008031360E26D3D
:1013E8003F239340BB60012384F83530002384F801
:1013F8003430236D002B3FD0204698473CE0A36C47
:10140800002BE7D1EBE7E36BA3B12046984711E047
:101418001A6812F4807F09D11A6822F010021A6043
:10142800012384F83530002384F83430E36B0BB1A2
:1014380020469847636DFBB1636D13F0010F17D019
:10144800052384F835302268136823F001031360FC
:10145800019B01330193AB4204D823681B6813F046
:10146800010FF5D1012384F83530002384F8343096
:10147800E36C0BB12046984703B0F0BD0000002094
:10148800B5814E1B00230F2B00F2E98070B582B0A6
:1014980065E085684FEA430E032404FA0EF425EA52
:1014A8000405CC6804FA0EF42C438460446824EAEA
:1014B80002044A68C2F300129A40224342605CE088
:1014C800DC08083450F8242003F00705AD004FF07D
:1014D8000F0E0EFA05FE22EA0E0E0A69AA4042EA2B
:1014E8000E0240F824205CE0072200E0002202FA05
:1014F8000EF22A4302345A4D45F82420594A94687A
:101508006FEA0C0224EA0C054E6816F4801F01D01D
:101518004CEA0405534CA560E46802EA04054E68E9
:1015280016F4001F01D04CEA04054E4CE5606468CF
:1015380002EA04054E6816F4003F01D04CEA04059F
:10154800484C6560246822404D6815F4803F01D0FE
:101558004CEA0402434C226001330F2B7DD8012250
:101568009A400C6804EA020C32EA0404F4D14C688C
:1015780004F00304013C012C8BD94A6802F00302F1
:10158800032A09D0C4685D000322AA4024EA0204A1
:101598008A68AA402243C2604A6802F00302022A0B
:1015A8008ED004684FEA430E032202FA0EF224EAB0
:1015B80002044A6802F0030202FA0EF222430260B1
:1015C8004A6812F4403FC7D000220192264A546C60
:1015D80044F480445464526C02F480420192019AAB
:1015E8009C08A51C1E4A52F8255003F0030E4FEA2A
:1015F8008E0E0F2202FA0EF225EA02051B4A9042CD
:101608003FF474AF02F5806290421AD002F580620E
:10161800904218D002F58062904216D002F580629E
:10162800904214D002F58062904212D002F5806296
:10163800904210D002F5806290423FF455AF0822E4
:1016480055E7012253E7022251E703224FE704221C
:101658004DE705224BE7062249E702B070BD704707
:1016680000380140003C01400038024000000240C0
:101678000AB181617047090481617047002800F050
:10168800CC8070B5044690F83D30002B77D02423E9
:1016980084F83D302268136823F001031360226840
:1016A800136843F4004313602268136823F400436B
:1016B800136001F01BFA62685A4B9A4264D85A4B7D
:1016C80098428CBF00230123002B40F0A880574983
:1016D800A1FB00318B0C25686A6822F03F0242EAC0
:1016E80091426A6021680A6A22F03F0266684D4D9D
:1016F800AE424FD8013313430B622168CA6922F402
:101708004F4222F0FF026568464B9D424CD8431E6B
:101718006D00B3FBF5F3013340F6FC70034278D05B
:10172800C3F30B031A43CA6121680B6823F0C00393
:10173800E269206A024313430B6021688B6823F433
:10174800034323F0FF032269E068024313438B60DD
:101758002168CB6823F0FF036269A0690243134341
:10176800CB602268136843F00103136000202064F3
:10177800202384F83D30206384F83E0070BD80F853
:101788003C30FFF719F882E7294B98428CBF0023B9
:10179800012399E74FF4967505FB03F3254DA5FB47
:1017A80003539B090133A6E7A668BEB9431E05EBA0
:1017B800450CB3FBFCF30133C3F30B03B3FA83F318
:1017C8005B0943BBC6B9431E05EB4505B3FBF5F3FF
:1017D8000133C3F30B0343F40043A3E7431E05EBB4
:1017E800850C0CEB8C0CB3FBFCF30133C3F30B033C
:1017F800B3FA83F35B09E4E7431E05EB850505EBC4
:101808008505B3FBF5F30133C3F30B0343F44043FE
:1018180088E7042386E7012384E701207047012035
:10182800ACE700BFA08601007F841E0083DE1B4357
:10183800FF083D00D34D62102DE9F04383B0D0F886
:10184800008001EBC10300EB83039A6A5B6A9A424A
:1018580054D807460C469B1A01EBC10200EB8202E2
:10186800D2699A4200D31A4602F103094FEA99094C
:1018780015E006F103094FEA9909BB7904EBC405A1
:1018880007EB8505296A0093B3B2E2B2404602F03D
:1018980066F82B6A33442B62AB6A3344AB6208EBBD
:1018A800441303F510639B699BB24B4512D304EBB9
:1018B800C40307EB83039A6A5B6A9A420AD24BB164
:1018C8009B1A04EBC40207EB8202D6699E42D0D36E
:1018D8001E46CEE704EBC40307EB83077A6ABB6AAC
:1018E8009A420FD804F00F040122A240D8F83438E5
:1018F80023EA0203C8F83438002000E0012003B0CE
:10190800BDE8F0830020FAE730B583B000287AD02C
:101918000446056890F89534C3B1032384F89534D8
:10192800B5F1A04F17D0206801F0CCFD237C8DF8CD
:101938000030231D0ECB206801F003FD70B1022397
:1019480084F895340125284603B030BD80F89434D6
:1019580003F0E4FBE1E70023A371E4E7002120683A
:1019680002F00DFA024608B9034617E0022384F88C
:1019780095340125E7E703EBC30104EB810101205E
:1019880048750B75CB8500200876C861086203EBA3
:10199800C30104EB810148620133DBB2207998422C
:1019A800E9D816E002EBC20304EB8303002183F8B5
:1019B800551283F8542283F85812C3F85C12C3F8FE
:1019C800601202EBC20304EB8303C3F86412013212
:1019D800D2B29042E6D8237C8DF80030231D0ECB7E
:1019E800206801F0C5FD054620B1022384F895342E
:1019F8000125A8E700236374012384F8953420683F
:101A080002F07CF99FE701259DE7036890F894248C
:101A1800012A1AD010B50446012280F89424DA6805
:101A280012F0400F02D0427B012A09D0206801F051
:101A380043FD206802F054F9002084F8940410BD96
:101A48009A6B42F480329A63F0E7022070470000F4
:101A580070B504460D460068066C00EB411303F5AB
:101A680030639A68A179012911D038498E4256D03D
:101A78003DB905EBC50304EB8303D3F86432002BAF
:101A88005ED0E9B2204603F09BFB002070BD12F047
:101A9800080F09D02E498E42F7D912F4004FF4D01E
:101AA8004FF400429A60F0E712F0200F02D0202293
:101AB8009A60EAE712F0280FE7D125498E4206D945
:101AC80012F4004F03D04FF400429A60DDE705EBB3
:101AD800C50204EB8202D2F874121B69C3F3120325
:101AE800CB1AC2F868327DB905EBC50204EB820255
:101AF800D2F864226AB105EBC50204EB8202D2F87F
:101B080060121944C2F86012E9B2204603F058FB8B
:101B1800BBE704F29C42012102F070F9F4E712F4E9
:101B2800004F03D04FF400429A60AEE712F0200F46
:101B380001D020229A60E9B2204603F041FBA4E7D5
:101B480004F29C42002102F059F99AE70A31544FF5
:101B58000A30544F38B5044603681D6C03EB411333
:101B6800D3F8081B0E4A954207D903F5306311F4E0
:101B7800004F02D04FF400429A60204603F018FB51
:101B8800074B9D4202D9A379012B01D0002038BD13
:101B980004F29C420121206802F030F9F6E700BF08
:101BA8000A30544F90F89434012B0CD010B50446E9
:101BB800012380F894344174006802F081F8002011
:101BC80084F8940410BD0220704738B505468C4649
:101BD80011F0800F29D101F00F0E0EEBCE04A400F6
:101BE80004F514740444211D0EEBCE0E00EB8E0E8A
:101BF80000208EF855020CF00F0C81F800C08A60A6
:101C08000B714A780AB1A1F81AC0022B1CD095F8BA
:101C18009434012B1BD0012385F89434286801F0F3
:101C280082FD002085F8940438BD01F00F0000EB18
:101C3800C001890010312944043100EBC00005EBD4
:101C4800800001244475D6E700234B71DFE70220AA
:101C5800EAE710B504460A4611F0800F20D101F0DA
:101C68000F0000EBC0039B0003F514732344191DF8
:101C780000EBC00004EB8000002380F8553202F02E
:101C88000F020A7094F89434012B18D0012384F8B9
:101C98009434206801F094FD002084F8940410BD69
:101CA80001F00F0000EBC0039B0010332344191D03
:101CB80000EBC00004EB800001234375DFE702203E
:101CC800EDE710B5144601F00F0C0CEBCC018900C0
:101CD80001F51471014404310CEBCC0E00EB8E0EAF
:101CE800CEF86022CEF864320023CEF868328EF83F
:101CF80055328EF854C28279012A04D0006801F066
:101D080045FE002010BDCEF87042F7E701F00F0144
:101D180001EBC10100EB8100D0F86802704710B5F3
:101D2800144601F00F0C0CEBCC0189001031014472
:101D380004310CEBCC0E00EB8E0ECEF82020CEF842
:101D480024300023CEF8283001238EF815308EF881
:101D580014C082799A4204D0006801F017FE00206E
:101D680010BDCEF83040F7E738B501F00F0502791D
:101D7800AA4238D304460B4611F0800F1FD101EB5D
:101D8800C101890001F514710144043103EBC30357
:101D980000EB8303002283F8552201238B700D701A
:101DA80094F89434012B20D0012384F894342068CB
:101DB80001F02BFF85B1002084F8940438BD05EBB1
:101DC800C501890010310144043105EBC50300EB5E
:101DD800830301225A75E0E704F29C42A179206846
:101DE80002F00CF8E7E70120E8E70220E6E701F057
:101DF8000F0302799A4230D310B5044611F0800FD0
:101E08001ED103EBC301890001F5147101440431AB
:101E180003EBC30200EB8202002082F85502002285
:101E28008A700B7094F89434012B18D0012384F82D
:101E38009434206801F016FF002084F8940410BD43
:101E480003EBC301890010310144043103EBC302E1
:101E580000EB820201205075E1E701207047022063
:101E6800EDE708B511F0800F0CD101F00F0101EB7F
:101E7800C101890001F5147101440431006801F0C1
:101E88000FFD08BD01F00F0101EBC1018900103100
:101E980001440431F2E72DE9F04F83B004460568A8
:101EA800284601F068FF10B103B0BDE8F08F064680
:101EB800206801F031FF0028F6D005F50067BB68FF
:101EC800C3F30D23C4F8D434206801F025FF10F0C3
:101ED800020F04D02268536903F00203536120689B
:101EE80001F01AFF10F0100F15D02268936923F043
:101EF80010039361D5F8208008F00F0908F4F01357
:101F0800B3F5802F4CD0B3F5402F6FD0226893697A
:101F180043F010039361206801F0FEFE10F4002FD7
:101F280076D1206801F0F8FE10F4802F40F0E080B0
:101F3800206801F0F1FE0028C0F26181206801F0FC
:101F4800EBFE10F4006F09D0BB6813F0010F40F0EE
:101F58006E812268536903F400635361206801F0BD
:101F6800DBFE10F4805F40F06681206801F0D4FE4B
:101F780010F4005F40F0B381206801F0CDFE10F04E
:101F8800080F40F0C481206801F0C6FE10F0800FF1
:101F980000F0D781AB6923F08003AB610126C0E173
:101FA80047F6F07318EA030FB0D04FEA181A4FEA51
:101FB800C903019309EBC90B04EB8B0BC8F30A1295
:101FC800DBF86012284601F0FDFDDBF86032CAF349
:101FD8000A0A5344CBF86032DBF86832019A4A4463
:101FE80004EB82025344C2F868328FE7082204F2F5
:101FF8009C41284601F0E6FD09EBC90304EB830385
:10200800D3F86822C8F30A184244C3F868227DE767
:10201800206801F085FE8046B14635E005EB49139E
:102028000122C3F8082B49462046FFF711FD3CE082
:1020380005EB49130822C3F8082B49462046FFF749
:1020480089FD35E009EBC90304EB830393F85732A4
:10205800012B41D005EB49130222C3F8082B1AF0D3
:10206800200F04D005EB49132022C3F8082B1AF4DB
:10207800005F05D005EB49134FF40052C3F8082B55
:1020880009F101094FEA5808B8F1000F3FF449AFC8
:1020980018F0010FF4D05FFA89FB5946206801F067
:1020A8004FFE824610F0010FB8D11AF0080FBFD1C9
:1020B8001AF0100F04D005EB49131022C3F8082BAF
:1020C8001AF0020FCBD06B6913F0800FBAD07B687F
:1020D80043F480637B60B5E709EBC90304EB830332
:1020E800002283F857225946204603F0B9F8B1E791
:1020F800206801F01DFE8046B14625E0594620467D
:1021080003F06AF81AF0080F04D005EB4913082207
:10211800C3F808291AF0100F04D005EB4913102250
:10212800C3F808291AF0400F04D005EB49134022E0
:10213800C3F808291AF0020F40D11AF0800F59D1BC
:1021480009F101094FEA5808B8F1000F3FF4F0AE61
:1021580018F0010FF4D05FFA89FB5946206801F0A6
:10216800F8FD824610F0010FCCD009F00F020121D2
:1021780001FA02F27B6B23EA02037B6305EB491346
:10218800C3F80819A3798B42B8D109EBC90304EB4A
:1021980083031A6AD9690A441A62B9F1000FADD1EA
:1021A80009EBC90304EB83035B6A002BA6D104F295
:1021B8009C420121206801F021FE9FE749462846FC
:1021C80001F086F909EBC90304EB8303DB7D012BDE
:1021D80005D005EB49130222C3F80829ADE709EB3E
:1021E800C90304EB83030022DA755946204603F03D
:1021F8003DF8EEE749462046FFF71EFBA0E77B685F
:1022080023F001037B6094F8CC34012B08D02046DE
:1022180003F020F82268536903F0004353618DE608
:10222800002184F8CC14204600F03FF9F2E720465C
:1022380002F0F8FF8DE67B6823F001037B60102134
:10224800206801F045F91AE005EB46134FF67F3197
:10225800C3F80819D3F8002922F40012C3F800299A
:10226800C3F8081BD3F8002B22F40012C3F8002B84
:10227800D3F8002B42F00062C3F8002B0136237913
:10228800B342E1D8FB6943F00113FB61E37BDBB1A7
:10229800D7F8843043F00B03C7F884307B6C43F0E5
:1022A8000B037B64D5F8003823F4FE63C5F80038C7
:1022B80004F29C42A179206801F0A0FD22685369CC
:1022C80003F48053536150E67B6943F4005343F0B1
:1022D8002B037B613B6943F00B033B61E2E720681A
:1022E80001F07EFD206801F00DFAE071266800F02B
:1022F800F7FB0146E279304601F06CF8204602F01F
:102308007CFF2268536903F40053536134E6204686
:1023180002F06DFF2268536903F00803536132E647
:1023280001362379B3420CD906EBC60304EB8303C9
:1023380093F85732012BF3D1F1B22046FFF791FD04
:10234800EEE7206801F0E8FC10F4801F25D1206832
:1023580001F0E2FC10F4001F59D0012326E00136F9
:102368002379B3421BD905EB4613D3F8002906EBB2
:10237800C60304EB83031B7E012BF0D1002AEEDA9F
:1023880006EBC60304EB83030122DA7566F07F01CE
:10239800C9B22046FFF765FDE1E70126E0E72268BC
:1023A800536903F480135361D1E7013322799A42C8
:1023B80028D905EB4312D2F8001B03EBC30204EB48
:1023C800820292F85822012AEFD10029EDDA01F4AD
:1023D8008031D4F8D42402F001029142E5D103EB14
:1023E800C30204EB8202012182F85712AA6942F063
:1023F8008002AA616A6912F0800FD6D17B6843F423
:1024080000737B602268536903F4001353612068EA
:1024180001F082FC10F0804F10D1206801F07CFCA4
:1024280010F0040F3FF440AD23685D6815F0040F09
:102438000DD1226853682B43536035E5204602F0DE
:102448001BFF2268536903F080435361E5E7204688
:1024580002F018FFEDE710B40468606A31B940EA89
:102468000240A06200205DF8044B70478C46A36AC6
:1024780000EB1340002308E003F1400104EB810165
:10248800496800EB11400133DBB20CF1FF318B429C
:10249800F2D340EA02400CF13F0104EB8104606092
:1024A800E0E703685962002070477047002800F091
:1024B800E08170B582B00446036813F0010F3BD089
:1024C8009F4B9B6803F00C03042B2CD09C4B9B6800
:1024D80003F00C03082B21D06368B3F5803F4FD07D
:1024E800B3F5A02F52D0964B1A6822F480321A60A6
:1024F8001A6822F480221A606368002B50D0FEF715
:102508007DFA05468E4B1B6813F4003F14D1FEF785
:1025180075FA401B6428F5D90320B1E1884B5B6844
:1025280013F4800FD8D0864B1B6813F4003F03D0F8
:102538006368002B00F09F81236813F0020F54D0CA
:102548007F4B9B6813F00C0F3ED07D4B9B6803F0CC
:102558000C03082B33D0E368002B68D0794B012299
:102568001A60FEF74BFA0546754B1B6813F0020F0D
:1025780054D1FEF743FA401B0228F5D903207FE126
:102588006F4A136843F480331360B5E76C4B1A68DD
:1025980042F480221A601A6842F480321A60ABE76B
:1025A800FEF72CFA0546664B1B6813F4003FC3D0B0
:1025B800FEF724FA401B6428F5D9032060E1604B3C
:1025C8005B6813F4800FC6D15D4B1B6813F0020FD4
:1025D80003D0E368012B40F05081594A136823F077
:1025E800F803216943EAC1031360236813F0080F55
:1025F80042D063696BB3534B0122C3F8802EFEF7B8
:10260800FDF905464E4B5B6F13F0020F34D1FEF710
:10261800F5F9401B0228F5D9032031E1484A13682F
:1026280023F0F803216943EAC1031360DDE7454B52
:1026380000221A60FEF7E2F90546414B1B6813F0C9
:10264800020FD2D0FEF7DAF9401B0228F5D9032091
:1026580016E13C4B0022C3F8802EFEF7CFF9054661
:10266800374B5B6F13F0020F06D0FEF7C7F9401B1C
:102678000228F5D9032003E1236813F0040F77D06B
:102688002F4B1B6C13F0805F33D1002301932C4B2D
:102698001A6C42F080521A641B6C03F08053019349
:1026A800019B0125284B1B6813F4807F23D0A36866
:1026B800012B34D0052B38D0214B1A6F22F00102A0
:1026C8001A671A6F22F004021A67A368002B3DD01C
:1026D800FEF794F906461A4B1B6F13F0020F46D10A
:1026E800FEF78CF9801B41F288339842F3D9032016
:1026F800C6E00025D6E7144A136843F480731360D4
:10270800FEF77CF90646104B1B6813F4807FCED188
:10271800FEF774F9801B0228F5D90320B0E0084AB7
:10272800136F43F001031367CFE7054B1A6F42F0AD
:1027380004021A671A6F42F001021A67C5E700BF60
:10274800003802400000474200700040FEF756F98A
:102758000646524B1B6F13F0020F08D0FEF74EF9D6
:10276800801B41F288339842F3D9032088E0EDB901
:10277800A369002B00F08380484A926802F00C029B
:10278800082A51D0022B17D0454B00221A66FEF7B3
:1027980035F90446414B1B6813F0007F42D0FEF721
:1027A8002DF9001B0228F5D9032069E03B4A136C78
:1027B80023F080531364DBE7394B00221A66FEF7D7
:1027C8001DF90546354B1B6813F0007F06D0FEF750
:1027D80015F9401B0228F5D9032051E0E369226A64
:1027E8001343626A43EA8213A26A5208013A43EA2F
:1027F8000243E26A43EA0263284A5360284B0122F3
:102808001A66FEF7FBF80446244B1B6813F0007F9A
:1028180006D1FEF7F3F8001B0228F5D903202FE0B4
:1028280000202DE000202BE0012B2BD01B4B5B68F8
:1028380003F48001E269914226D103F03F02216A44
:102848008A4223D1616A47F6C0721A40B2EB811FEF
:102858001ED103F44031A26A5208013AB1EB024F8B
:1028680018D103F07063E26AB3EB026F14D1002051
:1028780006E001207047012002E0012000E000206E
:1028880002B070BD0120FBE70120F9E70120F7E75E
:102898000120F5E70120F3E70120F1E700380240C5
:1028A8000000474208B5334B9B6803F00C03042B28
:1028B8005BD0082B5BD12F4B5A6802F03F025B6854
:1028C80013F4800F2CD02B4B5868C0F388104FEAB4
:1028D800401CBCEB000C6EEB0E0E4FEA8E1343EA65
:1028E8009C634FEA8C11B1EB0C0163EB0E03DB0028
:1028F80043EA5173C90011EB000C43F1000359027C
:1029080000234FEA4C2041EADC51FDF739FC194B12
:102918005B68C3F3014301335B00B0FBF3F008BD10
:10292800144B5868C0F388104FEA401CBCEB000CED
:102938006EEB0E0E4FEA8E1343EA9C634FEA8C113E
:10294800B1EB0C0163EB0E03DB0043EA5173C900E2
:1029580011EB000C43F10003990200234FEA8C208D
:1029680041EA9C51FDF70CFCD1E70348D7E703483F
:10297800D5E700BF0038024000127A000024F400B6
:10298800002800F09B8070B50D4604464F4B1B682D
:1029980003F007038B4208D2CBB24C4A137013687A
:1029A80003F007038B4240F08B80236813F0020F7B
:1029B80017D013F0040F04D0454A936843F4E0534A
:1029C8009360236813F0080F04D0414A936843F4D6
:1029D800604393603E4A936823F0F003A1680B4379
:1029E8009360236813F0010F32D06368012B21D064
:1029F8009A1E012A25D9364A126812F0020F61D0B0
:102A080033498A6822F0030213438B60FDF7F6FF0F
:102A180006462F4B9B6803F00C036268B3EB820FEA
:102A280016D0FDF7EBFF801B41F288339842F0D9AE
:102A3800032042E0264A126812F4003FE0D1012048
:102A48003BE0234A126812F0007FD9D1012034E01C
:102A58001E4B1B6803F00703AB4207D9EAB21B4BB6
:102A68001A701B6803F00703AB422DD1236813F0DB
:102A7800040F06D0164A936823F4E053E1680B4329
:102A88009360236813F0080F07D0114A936823F462
:102A98006043216943EAC1039360FFF703FF0C4BCE
:102AA8009B68C3F303130B4AD35CD8400A4B1860E6
:102AB8000A4B1868FDF756FF002070BD01207047CB
:102AC8000120FAE70120F8E70120F6E7003C024080
:102AD8000038024064570008000000200800002069
:102AE800014B1868704700BF0000002008B5FFF7C9
:102AF800F7FF044B9B68C3F38223034AD35CD84097
:102B080008BD00BF003802405C57000800285AD0B2
:102B180010B50446436A33B94368B3F5827F05D0DC
:102B28000023C36102E00023036143610023A36221
:102B380094F85130002B40D0022384F85130226899
:102B4800136823F040031360636803F48273A26878
:102B580002F404421343E26802F400621343226958
:102B680002F002021343626902F001021343A269F0
:102B780002F400721343E26902F038021343226A36
:102B880002F080021343A26A02F400522168134340
:102B98000B60638B03F00403626A02F01002216881
:102BA80013434B602268D36923F40063D361002088
:102BB8006065012384F8513010BD84F850302046F8
:102BC800FDF732FEB8E701207047000030B4036A11
:102BD800026A22F0010202624268846924F0730CDE
:102BE8000C6844EA0C0423F0020C8B6843EA0C03DB
:102BF800114DA84203D005F58065A84205D123F000
:102C08000803CD682B4323F004030B4DA84203D0DF
:102C180005F58065A84207D122F440724D6945EA5E
:102C2800020C8A6942EA0C02426084614A68426383
:102C3800036230BC704700BF0000014030B4036A33
:102C4800026A22F4807202624268C46924F0730C3A
:102C58000C6844EA0C0523F400738C6843EA0423E7
:102C6800114CA04203D004F58064A04206D123F49D
:102C78000063CC6843EA042323F480630A4CA0422F
:102C880003D004F58064A04207D122F440524C6975
:102C980042EA04128C6942EA04124260C5614A6839
:102CA800C263036230BC70470000014030B4036A5D
:102CB800026A22F4805202624468C26922F4E6423F
:102CC8000D6842EA052223F400538D6843EA053370
:102CD800094DA84203D005F58065A84204D124F423
:102CE80080444D6944EA85144460C2614A680264BC
:102CF800036230BC704700BF0000014010B4036A93
:102D0800046A24F001040462846924F0F00C4CEA9B
:102D1800021223F00A030B43826103625DF8044B3D
:102D2800704710B4036A046A24F0100404628469CA
:102D380024F4704C4CEA023223F0A00343EA011356
:102D4800826103625DF8044B7047836823F0700367
:102D58000B4343F0070383607047000090F83D3051
:102D6800DBB2012B32D1022380F83D300368194AC7
:102D7800934220D0B3F1804F1DD0A2F57C429342FC
:102D880019D002F58062934215D002F58062934211
:102D980011D002F5784293420DD002F57052934259
:102DA80009D0A2F59432934205D01A6842F0010284
:102DB8001A60002070479A6802F00702062A07D0B6
:102DC8001A6842F001021A6000207047012070471B
:102DD8000020704700000140704700000368344A33
:102DE800904212D0B0F1804F0FD0A2F57C429042B1
:102DF8000BD002F58062904207D002F580629042C3
:102E080003D002F57842904203D123F070034A6858
:102E18001343274A90422AD0B0F1804F27D0A2F519
:102E28007C42904223D002F5806290421FD002F586
:102E3800806290421BD002F57842904217D002F58A
:102E48007052904213D002F5806290420FD002F582
:102E5800806290420BD0A2F59832904207D002F5DA
:102E68008062904203D002F58062904203D123F43D
:102E78004073CA68134323F080034A69134303600D
:102E88008B68C3620B688362094B984203D003F5D1
:102E98008063984201D10B6903630123436103698D
:102EA80013F0010F03D0036923F001030361704796
:102EB8000000014040B310B5044690F83D30F3B12E
:102EC800022384F83D30214651F8040BFFF786FFB2
:102ED800012384F8463084F83E3084F83F3084F883
:102EE800403084F8413084F8423084F8433084F824
:102EF800443084F8453084F83D30002010BD80F817
:102F08003C30FDF7C7FCDBE70120704740B310B544
:102F1800044690F83D30F3B1022384F83D30214651
:102F280051F8040BFFF75AFF012384F8463084F860
:102F38003E3084F83F3084F8403084F8413084F8DB
:102F4800423084F8433084F8443084F8453084F8BB
:102F58003D30002010BD80F83C30FFF73DFFDBE737
:102F68000120704730B4036A026A22F0100202623C
:102F78004468826922F4E6420D6842EA052223F099
:102F880020038D6843EA0513114DA84203D005F5C7
:102F98008065A84206D123F08003CD6843EA051373
:102FA80023F040030A4DA84203D005F58065A842E6
:102FB80007D124F440644D6944EA85048D6944EAE4
:102FC8008504446082614A688263036230BC70474A
:102FD8000000014090F83C30012B28D010B5044681
:102FE800012380F83C300C2A1CD8DFE802F0071BCC
:102FF8001B1B0C1B1B1B111B1B1B16000068FFF760
:10300800E5FD00200FE00068FFF7ACFF00200AE0B4
:103018000068FFF713FE002005E00068FFF746FE92
:10302800002000E00120002384F83C3010BD02207D
:10303800704710B4846824F47F4C42EA03220A43A0
:1030480042EA0C0282605DF8044B704790F83C300D
:10305800012B78D010B50446012380F83C300223B8
:1030680080F83D300268936823F47F4323F07703A8
:1030780093600B68602B4CD023D8402B54D011D8C8
:10308800202B03D00AD80BB1102B05D11946206884
:10309800FFF75BFE002028E0012026E0302BF5D06A
:1030A800012022E0502B0AD1CA6849680068FFF75E
:1030B80025FE50212068FFF748FE002015E001207A
:1030C80013E0B3F5805F3AD0B3F5005F14D0702BEE
:1030D80037D1CB684A6889680068FFF7AAFF226879
:1030E800936843F0770393600020012384F83D3010
:1030F800002384F83C3010BDCB684A6889680068B2
:10310800FFF797FF2268936843F480439360002099
:10311800EBE7CA6849680068FFF703FE602120688A
:10312800FFF713FE0020E0E7CA6849680068FFF768
:10313800E5FD40212068FFF708FE0020D5E70020C4
:10314800D3E70120D1E70220704701F01F014FF0BB
:10315800010C0CFA01FC036A23EA0C030362036AFC
:103168008A4013430362704710B504460846002995
:1031780042D194F83E30DBB2013B18BF0123002B4B
:103188006ED1002851D1022384F83E300122014635
:103198002068FFF7DAFF2368334A934203D002F529
:1031A8008062934203D15A6C42F400425A64236805
:1031B8002D4A934249D0B3F1804F46D0A2F57C42C4
:1031C800934242D002F5806293423ED002F580627B
:1031D80093423AD002F57842934236D002F57052C3
:1031E800934232D0A2F5943293422ED01A6842F01C
:1031F80001021A60002032E0042908D008290DD005
:1032080094F84130DBB2013B18BF0123B7E794F8CB
:103218003F30DBB2013B18BF0123B0E794F84030E0
:10322800DBB2013B18BF0123A9E7042805D0082811
:1032380007D0022384F84130A8E7022384F83F30FE
:10324800A4E7022384F84030A0E79A6802F0070256
:10325800062A07D01A6842F001021A60002010BD41
:103268000120FCE70020FAE70000014090F83C202C
:10327800012A3DD010B40346012280F83C200222E6
:1032880080F83D2002685068946820F0700C086847
:1032980040EA0C0050601A68164882421AD0B2F10F
:1032A800804F17D0A0F57C40824213D000F5806093
:1032B80082420FD000F5806082420BD000F5784042
:1032C800824207D000F57050824203D0A0F59430B6
:1032D800824204D124F0800449682143916001228C
:1032E80083F83D20002083F83C005DF8044B7047CC
:1032F800022070470000014082B000230193019B27
:1033080001330193019BB3F1706F15D80369002B4A
:10331800F5DA00230193036943F001030361019B7C
:1033280001330193019BB3F1706F08D8036913F05F
:10333800010FF4D1002000E0032002B07047032001
:10334800FBE784B010B5044603A880E80E009DF89A
:103358001130012B21D1A36B23F48033A363E368DD
:1033680023F4840323F04003E360E36823F4401369
:10337800E3609DF81830012B0AD02046FFF7BCFF08
:103388009DF80E30012B1CD0BDE8104004B07047EA
:10339800E36843F48013E360EFE7E36843F0400336
:1033A800E3602046FFF7A8FF9DF8153023B9A36B0B
:1033B80043F48033A363E3E7A36B23F48033A3636D
:1033C800DEE7A36843F00603A360A36843F0200385
:1033D800A360D9E7022A0AD00922C36823F47053EC
:1033E800C360C36843EA8223C36000207047234B4D
:1033F8000B44234A93422FD9224B0B44224A93422F
:103408002CD9A1F57403A3F51053204A934227D968
:10341800A1F18373A3F5E7431D4A934222D31D4BC1
:103428000B441D4A93421FD91C4B0B441C4A934220
:103438001CD31C4B0B441C4A934219D3A1F1B773FC
:10344800A3F55853194A934214D3194B0B44194AFC
:10345800934211D20722C0E70F22BEE70E22BCE733
:103468000D22BAE70C22B8E70B22B6E70A22B4E726
:103478000922B2E70822B0E70622AEE7405327FF49
:10348800FF340C00401E1BFF3F420F007F4F12000D
:1034980020D6130060B6E5FE5FE3160000D3CEFE2B
:1034A80040771B00C05BB3FEC09121002075380037
:1034B800E05459FEE09C4100836843F001038360B7
:1034C80000207047836823F0010383600020704761
:1034D80082B000230193019B01330193019BB3F157
:1034E800706F15D80369002BF5DA00230193890161
:1034F80041F020010161019B01330193019BB3F16C
:10350800706F08D8036913F0200FF4D1002000E091
:10351800032002B070470320FBE782B00023019329
:10352800019B01330193019BB3F1706F13D80369B9
:10353800002BF5DA0023019310230361019B01336B
:103548000193019BB3F1706F08D8036913F0100F52
:10355800F4D1002000E0032002B070470320FBE70D
:10356800D0F800381943C0F8001800207047000050
:1035780084B0F8B5044607A880E80E00002306E0EA
:1035880003F1400204EB82020021516001330E2B4B
:10359800F6D99DF8266006BBD4F8043843F0020338
:1035A800C4F80438A36B43F40013A363A36B23F498
:1035B8000023A363A36B23F48023A3630023C4F82D
:1035C800003E9DF82130012B15D19DF81F306BB9B5
:1035D80000212046FFF7C4FF11E0A36B23F400137A
:1035E800A363A36B43F40023A363E7E70121204609
:1035F800FFF7B6FF03E003212046FFF7B1FF1021D4
:103608002046FFF765FF054600B101252046FFF774
:1036180084FF00B1012504F5006C0023CCF81030BC
:10362800CCF81430CCF81C300AE0CBB94FF000606D
:10363800C2F8000900220A614FF67F328A6001331E
:103648009DF81C10994210D904EB431202F5106141
:10365800D2F800090028E8DB0020C2F80009E9E7F1
:103668004FF09040C2F80009E4E700230AE0BBB13C
:103678004FF09047C2F8007B002202614FF67F327C
:1036880082600133994210D904EB431202F530608D
:10369800D2F8007B002FEADB0027C2F8007BEBE7BB
:1036A8004FF00067C2F8007BE6E7DCF8103023F43F
:1036B8008073CCF810300023A3616FF080436361FE
:1036C8009DF81E301BB9A36943F01003A361A269DA
:1036D8000B4B1343A3619DF822301BB1A36943F040
:1036E8000803A361012E04D02846BDE8F84004B0C1
:1036F8007047A36943F0804343F00403A361F3E7F1
:1037080000383C80D0F8083803F00603022B04D0B8
:10371800062B04D02BB900207047022070470220E6
:1037280070470F20704710B591F800C04B78012BF7
:1037380023D000F5006ED0F81C380CF00F040122DD
:10374800A24043EA0243C0F81C3800EB4C10D0F802
:10375800003B13F4004F0ED1D0F8003B8A68C2F347
:103768000A02097942EA8142134343F0805343F441
:103778000043C0F8003B002010BDD0F81C280CF016
:103788000F0E03FA0EF39BB21343C0F81C3800EB7C
:103798004C10D0F8003913F4004FECD1D0F80039B0
:1037A8008A68C2F30A02097942EA814242EA8C52E3
:1037B800134343F0805343F40043C0F80039DAE779
:1037C80030B40B784A78012A26D000EB4313D3F89B
:1037D800002B002A52DBD0F83C480A7802F00F028E
:1037E8004FF0010C0CFA02F224EA0242C0F83C281D
:1037F800D0F81C28097801F00F010CFA01FC22EA24
:103808000C42C0F81C28D3F8001B234A0A40C3F80E
:10381800002B002030BC704700EB4313D3F800297D
:10382800002A1EDBD0F83C580A7802F00F02012467
:1038380004FA02F292B225EA0202C0F83C28D0F853
:103848001C28097801F00F018C40A4B222EA040276
:10385800C0F81C28D3F80019104A0A40C3F80029F8
:10386800D7E7D3F8002942F00062C3F80029D3F85B
:10387800002942F08042C3F80029D3E7D3F8002B8F
:1038880042F00062C3F8002BD3F8002B42F08042CC
:10389800C3F8002B9FE700BF0078F3EF007833EC04
:1038A80010B483B0024600230193487801280BD056
:1038B8000B7802EB4313D3F8000B00282DDB002014
:1038C80003B05DF8044B70470B7802EB4313D3F851
:1038D8000049002C01DB0020F2E7D3F8004944F04E
:1038E8000064C3F800490B7802EB4313D3F800498E
:1038F80044F08044C3F80049019B01330193019CC3
:1039080042F210739C42DBD80B7802EB4313D3F8D6
:103918000039002BF0DB0020D2E7D3F8000B40F091
:103928000060C3F8000B0B7802EB4313D3F8000BCD
:1039380040F08040C3F8000B019B013301930198CC
:1039480042F21073984208D80B7802EB4313D3F86D
:10395800003B002BF0DB0020B2E70120B0E710B5F8
:103968009DF8084084B903334FEA930E4FF0000CDA
:1039780008E000EB023303F5805351F8044B1C6058
:103988000CF1010CF445F4D3002010BDF0B583B060
:103998000C784B78012B2DD000EB441C0CF53063D0
:1039A8001D696FF312051D611D696FF3DC451D610B
:1039B800002C40F0C8800C690CB18C680C618C68D4
:1039C8000C621D69C4F312042C431C611C6944F485
:1039D80000241C61012A00F0D9800B79012B00F02A
:1039E800DB80DCF8003B43F00443CCF8003B0020CC
:1039F80003B0F0BD0B6973BB00EB4413D3F8105947
:103A08006FF3DC45C3F81059D3F8105945F4002575
:103A1800C3F81059D3F810596FF31205C3F81059A9
:103A2800012A4ED000EB4414D4F8003943F0044383
:103A3800C4F800390B79012B6CD00B69002BD6D058
:103A4800D0F83438097801F00F0101228A40134375
:103A5800C0F83438CBE700EB441303F510631D6955
:103A68006FF312051D611D696FF3DC451D61DCB93B
:103A78000E698D68AE4200D90D611D6945F40025B7
:103A88001D611D690E69C6F3120C45EA0C051D611E
:103A98000D79012DC4D11D6925F0C0451D611D6931
:103AA80045F000551D61BBE71E690D698F683D44EF
:103AB800013DB5FBF7F5424F07EAC54535431D61A2
:103AC800DFE7CB691BB100EB4412C2F814390B795C
:103AD800012B08D000EB4414D4F8003943F0044318
:103AE800C4F8003983E7D0F8083813F4807F08D188
:103AF80000EB4412D2F8003943F00053C2F8003901
:103B0800E8E700EB4412D2F8003943F08053C2F8DA
:103B18000039DFE7D0F8083813F4807F0CD1D4F8E7
:103B2800003943F00053C4F8003900920B8A0A7830
:103B3800C968FFF714FF5AE7D4F8003943F08053F7
:103B4800C4F80039F1E70C6954B91C698D68C5F3EC
:103B580012052C431C611C6944F400241C6139E7DC
:103B68008D682C44013CB4FBF5F4A4B204FB05F5C4
:103B78000D621D69124E06EAC4442C431C611C697F
:103B88000D6AC5F312052C431C6123E7CA68002A95
:103B98003FF423AF5A6120E7D0F8083813F4807F48
:103BA80006D1DCF8003B43F00053CCF8003B18E7A3
:103BB800DCF8003B43F08053CCF8003B11E700BF32
:103BC8000000F81F10B5844608464FEA920E02F02E
:103BD8000302002305E00CF58051096840F8041B36
:103BE80001337345F7D37AB10CF5805CDCF80040FB
:103BF8000021CBB2DB0024FA03F300F8013B0131CA
:103C0800013A92B2002AF4D110BD0B784A78012A01
:103C180014D000EB4310D0F8002B002A06DB2BB1A0
:103C2800D0F8003B23F08043C0F8003BD0F8003BBD
:103C380043F40013C0F8003B0020704700EB43102A
:103C4800D0F80029002A06DB2BB1D0F8003923F080
:103C58008043C0F80039D0F8003943F40013C0F8A5
:103C68000039E9E70B784A78012A0ED000EB4310B7
:103C7800D0F8003B23F40013C0F8003B0B79023B5B
:103C8800DBB2012B15D90020704700EB4310D0F8A8
:103C9800003923F40013C0F800390B79023BDBB27A
:103CA800012BF0D8D0F8003943F08053C0F8003920
:103CB800E9E7D0F8003B43F08053C0F8003BE2E767
:103CC800D0F8003823F4FE63C0F80038D0F8003884
:103CD800090101F4FE610B43C0F800380020704769
:103CE800D0F8003E23F00303C0F8003ED0F80438B3
:103CF80023F00203C0F8043800207047D0F8003ED3
:103D080023F00303C0F8003ED0F8043843F0020360
:103D1800C0F8043800207047426980691040704735
:103D2800D0F8183800F50060C0691840000C7047DA
:103D3800D0F8183800F50060C069184080B27047A4
:103D480000EB4111D1F8082B00F5006040691040E4
:103D58007047D0F81028D0F8343801F00F0C23FA47
:103D68000CF3DB01DBB2134300EB411000F51060EC
:103D7800806818407047406900F00100704738B506
:103D88000546C36823F0C043C360012913D019BB9B
:103D9800C36843F08043C36000240A20FCF734FE64
:103DA8000A342846FFF7E7FF08B1C72CF5D9C82C15
:103DB80014D0002038BDC36843F00053C36000240A
:103DC8000A20FCF721FE0A342846FFF7D4FF012811
:103DD800EDD0C72CF4D9EAE70120EBE70120E9E7A9
:103DE800D0F800396FF30A03C0F80039D0F8043866
:103DF80043F48073C0F804380020704710B4046C92
:103E0800154B9C4203D9D0F8003B002B16DB00244D
:103E1800C0F8104BD0F8104B44F40024C0F8104BF5
:103E2800D0F8104B44F01804C0F8104BD0F8104BE1
:103E380044F0C044C0F8104B012903D000205DF8BD
:103E4800044B7047C0F8142BD0F8003B43F0802394
:103E5800C0F8003BF2E700BF0A30544F10B5D0F865
:103E6800D43203F1B00250F822408CB100EB82004A
:103E780043687BB194F80002FF280DD09B6894F842
:103E8800012221469847FF2384F80032002010BD04
:103E98000320FCE70020FAE70020F8E70A23038064
:103EA8000048704788000020F8B506460F4F822169
:103EB800384600F03EFC05460121384600F039FC42
:103EC80004468121384600F034FC0DB11022AA7155
:103ED8001CB1402222710022627118B14022027185
:103EE80000224271432333800048F8BD0C000020B3
:103EF800F8B506460F4F8221384600F01AFC0546F1
:103F08000121384600F015FC04468121384600F0AE
:103F180010FC0DB11022AA711CB14022227100229E
:103F2800627118B14022027100224271432333802A
:103F38000048F8BD0C000020F8B506460F4F822156
:103F4800384600F0F6FB05460121384600F0F1FB43
:103F580004468121384600F0ECFB0DB11022AA710D
:103F68001CB1002222710222627118B10022027172
:103F780002224271432333800048F8BD0C00002020
:103F880038B5D0F8D432B03350F8235095B1044640
:103F980001F0C8F9C5F80C02D4F8D432B03304EBF8
:103FA80083046368DB6805F50371D5F80402984754
:103FB800002038BD0320FCE738B5D0F8C852D0F847
:103FC800D432B03350F8234084B301F00F0303EB2D
:103FD800830200EB820292694AB103EBC30C05EB42
:103FE8008C05ED69B2FBF5FC05FB1C2292B10023A0
:103FF800C4F81432D0F8D432B03300EB83004368ED
:104008001B69ABB10A4604F50471D4F80802984755
:10401800002038BD03EB830300EB830300249C617D
:104028002346224601F0C6F92046F2E70320F0E7CE
:104038000020EEE7F0B583B0D0F8D43203F1B00237
:1040480050F8227000228DF80720ADF80420002FC8
:104058007BD004460D46097811F0600634D0202E36
:104068006CD1EA882AB311F0800F07D16B7887F8F2
:104078000032EA883F2A13D8D2B212E0B03300EBFC
:1040880083035B689B68394668789847EA88072AFB
:1040980028BF07223946204600F0FCFE002651E0E2
:1040A800402287F801223946204600F008FF002602
:1040B80048E0B03300EB83035B689B680022294625
:1040C8006878984700263DE06F780B2F31D8DFE8F5
:1040D80007F006393030303030303030162690F85E
:1040E8009C32DBB2032B04D0294600F05FFB032689
:1040F80028E0022201A900F0CDFE3E4622E090F819
:104108009C32DBB2032B04D0294600F04FFB032678
:1041180018E001220DF1070100F0BCFE12E090F852
:104128009C32DBB2032B0DD0294600F03FFB03265F
:1041380008E0294600F03AFB032603E0294600F090
:1041480035FB0326304603B0F0BD0326FAE738B541
:104158000446812101F00EF900252587012120461A
:1041680001F008F9A4F878518221204601F002F9FB
:10417800A4F84C50A4F84E50D4F8D43203F1B0024D
:1041880054F822209AB1B03304EB83035B685B6870
:104198009847D4F8D432B03354F8230001F0CCF85F
:1041A800D4F8D432B03344F82350C4F8BC520020B9
:1041B80038BD70B504464FF4077001F0B9F800280F
:1041C80049D005464FF40772002101F02CF9D4F8C4
:1041D800D432B03344F82350C4F8BC52237C002BAB
:1041E80041D14FF4007302228121204601F0B7F833
:1041F800012626874FF4007302223146204601F03B
:10420800AEF8A4F878611023A4F84E3008230322EE
:104218008221204601F0A3F80123A4F84C3000269F
:10422800C5F80462D4F8D432B03304EB83035B6876
:104238001B689847C5F81462C5F81862D5F80422B7
:1042480062B3257C1DBB4FF400730121204601F0A9
:10425800B9F8284670BDD4F8D432B033002244F8F7
:1042680023200225F5E7402302228121204601F080
:1042780076F801262687402302223146204601F09F
:104288006EF8A4F878611023A4F84E30BEE74023F6
:104298000121204601F096F80025DAE70225D8E743
:1042A80039B1D0F8D432B03300EB8300416000203C
:1042B800704703207047D0F8D432B03350F8233019
:1042C8002BB1C3F80812C3F810220020704703204E
:1042D8007047D0F8D432B03350F823301BB1C3F84C
:1042E8000412002070470320704708B5D0F8D43274
:1042F800B03350F823208AB1D2F814320BB1012020
:1043080008BD0123C2F81432D2F81032C362D2F8C1
:104318000822812101F04EF80020F1E70320EFE7A1
:1043280010B5D0F8D432B03350F8232092B1047CC1
:1043380044B94FF40073D2F80422012101F042F885
:10434800204610BD4023D2F80422012101F03AF89A
:104358000024F5E70324F3E798B108B503460020E5
:10436800C3F8B802C3F8C402C3F8D00209B1C3F84D
:10437800B412012183F89C121A70184600F088FFC5
:1043880008BD0320704710B582B00023ADF8063091
:1043980089B10446C0F8B812CB6A23B10DF1060002
:1043A8009847C4F8D002D4F8D8320133C4F8D832C8
:1043B800002002B010BD0320FBE708B500F0C7FFDE
:1043C80008BD08B5D0F8B83213B11B68984708BDC6
:1043D8000020FCE708B5D0F8B8325B68984700B908
:1043E80008BD0320FCE738B5044600F2AA25284694
:1043F80000F0C8F90123C4F89432B4F8B032C4F814
:10440800983294F8AA1201F01F03012B07D0022B4F
:104418000AD073B92946204600F08AFB38BD2946E0
:10442800204600F0C0FBF9E72946204600F0FDFBD6
:10443800F4E701F08001204600F0A4FFEEE7F8B5AC
:104448000446012380F89C320023C0F8943243606C
:10445800C0F8A43280F8A032D0F8B832DBB15B687B
:10446800DBB1002198470746C8B94023002211460E
:10447800204600F074FF0126A4F864614025C4F8C2
:1044880060512B4600228021204600F068FFA68458
:1044980025623846F8BD0027E7E70027E5E7032748
:1044A800E3E701740020704790F89C32DBB2042BDC
:1044B80004D090F89C32DBB280F89D32042380F857
:1044C8009C320020704790F89C32DBB2042B01D05C
:1044D8000020704790F89D32DBB280F89C32F7E7F5
:1044E80008B590F89C32DBB2032B01D0002008BD40
:1044F800D0F8B832002BF9D0DB69002BF6D09847FA
:10450800F4E708B5D0F8D432AE3350F823205AB1C6
:1045180090F89C32DBB2032B01D0002008BD136A4F
:1045280023B198470020F9E70320F7E70020F5E7D3
:1045380008B5D0F8D432AE3350F823205AB190F8E9
:104548009C32DBB2032B01D0002008BD536A23B193
:1045580098470020F9E70320F7E70020F5E7002057
:10456800704708B5012380F89C32D0F8B83223B1DF
:104578005B680179984710B908BD0020FCE7032063
:10458800FAE7002070470020704738B504460D460A
:10459800002942D11346D0F89422032A01D00846B4
:1045A80038BDD0F85C11D0F86021914209D890F854
:1045B800AA3203F01F03012B0ED0022B1BD0284672
:1045C8000FE0891AC0F85C118A4228BF0A461946CA
:1045D80000F084FC2846E3E790F8AE12FFF7D1FF1D
:1045E80020B994F89C32DBB2032B09D0204600F0A6
:1045F8007DFC2846D4E790F8AE12FFF7C4FFEFE73A
:1046080000F1AE0354F823301A69002AEED0C4F83A
:10461800D4021B6920469847E8E701F07F01FFF7BD
:10462800B2FF90B994F89C32DBB2032BB8D100F1F9
:10463800AE0354F823309A69002AB1D0C4F8D402E2
:104648009B69294620469847AAE70020A8E738B57D
:1046580004460D4600294BD11346D0F89422022A6D
:1046680007D094F8A00218B1002384F8A032284695
:1046780038BDC269016A8A420ED88A4218D094F8B5
:104688009C32DBB2032B27D08021204600F07AFE33
:10469800204600F036FCE4E7521AC261194600F0E1
:1046A80006FC00231A461946204600F08BFED8E780
:1046B80083699942E3D8D0F898229342DFD2002246
:1046C800114600F0F4FB0021C4F898120B460A4684
:1046D800204600F077FEC4E7D4F8B832DA68002A3A
:1046E800D2D00022C4F8D422DB6820469847CBE712
:1046F80041F08001FFF747FF90B994F89C32DBB294
:10470800032BB5D100F1AE0354F823305A69002ABF
:10471800AED0C4F8D4025B69294620469847A7E77B
:104728000020A5E70B88027813440B80037818440F
:104738007047428803789A4218D930B583B0044646
:104748000D46ADF806306388BDF806209A420AD2B5
:104758000DF10601FFF7E6FF4378052BF3D18378C7
:10476800AB42F0D100E0002003B030BD002070471C
:104778000346002002E00130C0B201331A78002A53
:10478800F9D170470B7803704B7843708B78CA78EF
:1047980043EA022343800B794A7943EA0223838060
:1047A8008B79CA7943EA0223C380704710B504465F
:1047B800802100F0E7FD0021204600F0E3FD10BD58
:1047C80030B583B004460D460023ADF806304A885C
:1047D800130A013B062B00F2AB80DFE803F0041F4D
:1047E80033A9A98D9A00D0F8B4321B680DF10601DF
:1047F800007C9847EA88002A00F0A380BDF80630BC
:10480800002B00F099809A4228BF1A46ADF806207E
:104818000146204600F03EFB03B030BD037C43B99F
:10482800D0F8B8329B6A0DF106009847022343700E
:10483800E0E7D0F8B832DB6A0DF1060098470223AA
:104848004370D7E7D2B2052A52D8DFE802F0031046
:104858001D2A3744D0F8B4325B6823B10DF1060144
:10486800007C9847C6E72946FFF7A0FFD4E7D0F8B1
:10487800B4329B6823B10DF10601007C9847B9E773
:104888002946FFF793FFC7E7D0F8B432DB6823B1B6
:104898000DF10601007C9847ACE72946FFF786FF33
:1048A800BAE7D0F8B4321B6923B10DF10601007CD8
:1048B80098479FE72946FFF779FFADE7D0F8B4326C
:1048C8005B6923B10DF10601007C984792E7294600
:1048D800FFF76CFFA0E7D0F8B4329B6923B10DF164
:1048E8000601007C984785E72946FFF75FFF93E7B5
:1048F8002946FFF75BFF8FE7037C33B9D0F8B8325E
:104908005B6B0DF10600984774E72946FFF74EFFE9
:1049180082E7037C43B9D0F8B8321B6B0DF106006F
:1049280098470723437065E72946FFF73FFF73E77A
:104938002946FFF73BFF6FE729462046FFF736FF7A
:104948006AE7204600F0D2FA66E738B504468B8855
:10495800FBB9CB88EBB94B887F2B1AD803F07F05BE
:1049680090F89C32DBB2032B0CD080F89E5229467B
:1049780000F018FD204600F0B9FA35B1022384F89A
:104988009C3209E0FFF712FF06E0012384F89C320D
:1049980002E02046FFF70AFF38BD000070B5044664
:1049A8000E468D782F4B1D70012D10D890F89C3233
:1049B800DBB2022B0FD0032B26D0FFF7F7FE294BD3
:1049C80019782046FFF706FD0325284670BDFFF736
:1049D800EDFE0325F9E7A5B145602946FFF7F1FC8F
:1049E800054638B131462046FFF7E0FE022384F839
:1049F8009C32EAE7204600F079FA032384F89C32D7
:104A0800E3E700F073FAE0E7CDB141688D4225D0C5
:104A1800C9B2FFF7DFFC134B197861602046FFF736
:104A2800D0FC0546B0B131462046FFF7BFFE2179DC
:104A38002046FFF7CFFC022384F89C32C5E7022307
:104A480080F89C3245602946FFF7C4FC204600F0F8
:104A58004DFABAE7204600F049FAB6E700F046FA00
:104A68000025B2E7BC12002008B5CB88012B0BD17A
:104A780090F89C32DBB2022B09D9032B11D1012209
:104A8800011D00F007FA01E0FFF790FE08BD5BB2D8
:104A98003BB10146002341F8083F012200F0FAF932
:104AA800F4E7FFF783FEF1E708B590F89C32013B85
:104AB800022B12D8CB88022B0CD10123C360D0F86B
:104AC800A4320BB10323C360022200F10C0100F0F1
:104AD800E1F908BDFFF76AFEFBE7FFF767FEF8E7B5
:104AE80008B54B88012B04D0022B07D0FFF75EFED8
:104AF80008BDC0F8A43200F0F9F9F9E78B881B0A61
:104B080080F8A03200F0F2F9F2E708B590F89C328C
:104B1800013B022B09D84B88012B00D008BD00238C
:104B2800C0F8A43200F0E2F9F8E7FFF73FFEF5E736
:104B380038B50C7804F06004202C06D0402C04D042
:104B48006CB1FFF733FE002407E0D0F8D432AE335F
:104B580050F823309B6898470446204638BD4D7866
:104B6800092D1DD8DFE805F012191C161C08051CB4
:104B78000F0BFFF725FEF0E7FFF7E7FEEDE7FFF77E
:104B88000DFF0446E9E7FFF76FFFE6E7FFF78CFF45
:104B98002C46E2E7FFF7A4FFDFE7FFF7B6FFDCE705
:104BA800FFF704FED9E770B505460C460B7803F00D
:104BB8006003202B07D0402B05D023B1FFF7F6FD6B
:104BC8000026304670BD95F89C32013B022B26D852
:104BD8002179012905D921462846FFF7E7FD002656
:104BE800EFE72846FFF7CDFC68B900F1AE0255F8AB
:104BF8002220916889B1C5F8D402936821462846D5
:104C08009847064600E00326E388002BD9D1002EFA
:104C1800D7D1284600F06AF9D3E70326F4E72146FE
:104C28002846FFF7C3FD0026CBE72DE9F0410646ED
:104C38000D468B88DFB20C7804F06004202C08D075
:104C4800402C06D0DCB1FFF7B1FD00242046BDE8BA
:104C5800F08139463046FFF796FC0446002840F0BC
:104C6800F880C6F8D40200F1AE0356F823309B68EA
:104C7800002BEBD02946304698470446E6E791F8E2
:104C88000180B8F1010F31D0B8F1030F05D0B8F1A8
:104C9800000F67D0FFF78AFDD8E790F89C32DBB2A7
:104CA800022B04D0032B12D0FFF780FDCEE70FB103
:104CB800802F04D129463046FFF778FDC6E73946EC
:104CC80000F060FB8021304600F05CFBBEE74B88BB
:104CD80023B91FB1802F01D0CB881BB1304600F01B
:104CE80005F9B3E7394600F04DFBF7E790F89C3239
:104CF800DBB2022B04D0032B12D0FFF757FDA5E738
:104D08000FB1802F04D129463046FFF74FFD9DE7AC
:104D1800394600F037FB8021304600F033FB95E739
:104D28004B88002B92D117F07F0F17D1304600F037
:104D3800DDF839463046FFF726FC002886D1C6F84C
:104D4800D40200F1AE0256F822209268002A00F040
:104D58008280294630469047044677E7394600F076
:104D680019FBE3E790F89C22D2B2022A05D0032A65
:104D780027D0FFF71BFD444668E70FB1802F13D1FA
:104D880013F0800F14D107F07F0707EB8707B900EE
:104D980001F5A8713144043100230B60022230462A
:104DA80000F078F8444651E7FFF700FD44464DE728
:104DB80007F07F0707EB8707B9001031314404314A
:104DC800EAE75BB2002B1FDB07F00F0202EB82025F
:104DD80000EB8202B2F864211AB3002B25DB07F03E
:104DE8007F0303EB83039C0004F5A8743444043464
:104DF8000FB1802F22D100232360022221463046A2
:104E080000F048F8444621E707F00F0202EB82025F
:104E180000EB8202928C002ADFD1FFF7C7FC4446E0
:104E280014E7FFF7C3FC444610E707F07F0303EBE2
:104E380083039C00103434440434D9E7394630469F
:104E480000F05AFA10B101232360D6E7002323604B
:104E5800D3E70024FAE60446F8E6D0B170B50D466B
:104E680016460446FFF784FC431C5B009BB2338064
:104E78002B7003236B70022307E0EA5401345A1C99
:104E8800D2B20021A9540233DBB22278002AF4D12D
:104E980070BD704708B513460222C0F8942283619A
:104EA800C3610A46002100F085FA002008BD08B554
:104EB80013460A46002100F07DFA002008BD08B517
:104EC80013460322C0F89422C0F85831C0F85C3168
:104ED8000A46002100F076FA002008BD08B51346FE
:104EE8000A46002100F06EFA002008BD08B5042229
:104EF800C0F8942200231A46194600F05BFA0020F5
:104F080008BD08B50522C0F8942200231A461946A0
:104F180000F058FA002008BD08B500220F491048D3
:104F2800FFF71AFA70B90F490D48FFF72CFA60B964
:104F38000D490B48FFF7B4F950B90948FFF73DFA96
:104F480048B908BDFBF770FAEDE7FBF76DFAEFE734
:104F5800FBF76AFAF1E7FBF767FAF2E7DC000020F3
:104F6800C01200205000002094000020002070474C
:104F7800002070470020704710B50146044C2046B9
:104F8800FFF7A7F92046FFF7CBF9002010BD00BFB7
:104F9800C012002010B5064C002206492046FFF733
:104FA8008AF905492046FFF794F9002010BD00BF93
:104FB800C01200209C1500209C1D0020094BD3F82E
:104FC800BC32D3F814320BB10120704710B5054C30
:104FD8000A4601462046FFF76EF92046FFF785F995
:104FE80010BD00BFC012002012230B80004870477C
:104FF800C800002004230B8000487047C40000202C
:10500800002393421ED200B510E00CF1370C01F8D2
:1050180013C000014FEA430C0CF1010C4FF0000ED5
:1050280001F80CE00133DBB2934209D24FEA107C5D
:10503800B0F1204FE9D20CF1300C01F813C0E8E7C9
:105048005DF804FB7047000038B50B4BD3F8100A25
:10505800D3F8144AD3F8183AC01800D138BD074D10
:1050680008222946FFF7CCFF042205F1100120464B
:10507800FFF7C6FFF2E700BF0070FF1FAA0000207D
:1050880008B51A230B80FFF7DFFF014808BD00BFF2
:10509800A800002008B50A4628B905490548FFF7C1
:1050A800DCFE034808BD02490248FFF7D6FEF8E7D0
:1050B8009C2500207C57000810B50A46034C214661
:1050C8000348FFF7CAFE204610BD00BF9C250020FC
:1050D8009457000808B50A4628B905490548FFF756
:1050E800BCFE034808BD02490248FFF7B6FEF8E7D0
:1050F8009C250020A857000808B50A4628B9054984
:105108000548FFF7AAFE034808BD02490248FFF711
:10511800A4FEF8E79C250020B457000870B588B0B5
:105128000023039304930593069307930368B3F14D
:10513800A04F01D008B070BD002501951A4C236B13
:1051480043F001032363236B03F001030193019BE5
:105158004FF400730393154E03A93046FCF792F9F8
:105168004FF4E053039302230493059506950A230D
:10517800079303A93046FCF785F9636B43F0800376
:1051880063630295636C43F480436364636C03F464
:1051980080430293029B2A4629464320FBF744FF9B
:1051A8004320FBF751FFC5E70038024000000240EA
:1051B80008B500F29C41D0F8E004FFF714F908BDE7
:1051C80008B501EBC10300EB8303D3F86022D0F8E4
:1051D800E004FFF7DAF908BD08B501EBC10300EBFD
:1051E80083031A6AD0F8E004FFF731FA08BD08B55E
:1051F800D0F8E004FFF774F908BD10B50446C1798A
:1052080011B1022909D10121D4F8E004FFF749F9C5
:10521800D4F8E004FFF713F910BDFBF705F90121F5
:10522800F2E7000010B50446D0F8E004FFF73CF9B7
:105238002268D2F8003E43F00103C2F8003EE37A48
:1052480023B1034A136943F00603136110BD00BF7D
:1052580000ED00E008B5D0F8E004FFF734F908BD28
:1052680008B5D0F8E004FFF763F908BD08B5D0F831
:10527800E004FFF746F908BD08B5D0F8E004FFF7E9
:105288006EF908BD08B5D0F8E004FFF76AF908BD63
:1052980002780AB10020704710B503461548C0F8D7
:1052A800E034C3F8C8024FF0A0430360042303713D
:1052B8000222C2710023837142728372C372037324
:1052C80001228273C373FCF71FFB80B9094C80214C
:1052D8002046FDF7E6F8402200212046FDF7BBF8FE
:1052E800802201212046FDF7B6F8002010BDFBF70B
:1052F8009BF8EBE7BC290020D0F8C83211F0800FEA
:1053080008D101F07F0101EBC10103EB810393F8A0
:105318005602704701F07F0101EBC10103EB8103E5
:10532800987D704708B5D0F8C802FCF7EFFC08BDB7
:10533800004870479C2700207047032805D8DFE8FD
:1053480000F005040205012070470320704708B5E6
:10535800D0F8C802FCF759FBFFF7EFFF08BD08B506
:1053680094461A466346D0F8C802FCF72EFCFFF7AD
:10537800E4FF08BD08B5D0F8C802FCF76AFCFFF7DF
:10538800DCFF08BD08B5D0F8C802FCF7EDFCFFF754
:10539800D4FF08BD08B5D0F8C802FCF728FDFFF710
:1053A800CCFF08BD08B5D0F8C802FCF7FBFBFFF737
:1053B800C4FF08BD08B5D0F8C802FCF7B0FCFFF779
:1053C800BCFF08BD08B5D0F8C802FCF77AFCFFF7A7
:1053D800B4FF08BDDFF834D0FBF7BAFA0C480D4922
:1053E8000D4A002302E0D458C4500433C4188C4238
:1053F800F9D30A4A0A4C002301E013600432A2429E
:10540800FBD300F019F8FBF727F9704700000220DA
:1054180000000020F8000020D4570008F800002001
:10542800A02E0020FEE702440346934200D17047B5
:1054380003F8011BF9E7000070B50D4D0D4C641B16
:10544800A4100026A64209D10B4D0C4C00F076F9A9
:10545800641BA4100026A64205D170BD55F8043B74
:1054680098470136EEE755F8043B98470136F2E7CE
:10547800CC570008CC570008CC570008D057000874
:105488002DE9F047089D0E4604460F46002B4AD1E9
:1054980094468C45B2FA82F260D942B1C2F1200337
:1054A800974020FA03F30CFA02FC1F4394404FEA9A
:1054B8001C4E1FFA8CF6B7FBFEF1230C0EFB11777E
:1054C80043EA074301FB06F098420AD91CEB0303A1
:1054D80001F1FF3780F01581984240F212810239BC
:1054E80063441B1AA4B2B3FBFEF00EFB103344EA6C
:1054F800034400FB06F6A6420AD91CEB040400F19B
:10550800FF3380F00081A64240F2FD8064440238F7
:1055180040EA0140A41B00211DB1D4400023C5E985
:105528000043BDE8F0878B4205D90DB1C5E90001FC
:1055380000210846F5E7B3FA83F1002946D1B342C2
:1055480002D3824200F2F580841A66EB030201203E
:105558001746002DE5D0C5E90047E2E7002A40F0EC
:105568009380A1EB0C034FEA1C471FFA8CFE012124
:10557800B3FBF7F607FB1630230C43EA00430EFB98
:1055880006F0984208D91CEB030306F1FF3802D253
:10559800984200F2D08046461B1AA4B2B3FBF7F03B
:1055A80007FB103344EA03440EFB00FEA64508D966
:1055B8001CEB040400F1FF3302D2A64500F2B680CA
:1055C8001846A4EB0E0440EA0640A5E7C1F12007FF
:1055D8008B4022FA07FC4CEA030C06FA01FE20FA7B
:1055E80007F426FA07F344EA0E0400FA01F84FEA32
:1055F8001C404FEA1449B3FBF0FE1FFA8CF600FB7F
:105608001E3349EA03430EFB06F9994502FA01F2F3
:105618000BD91CEB03030EF1FF3A80F08580994506
:1056280040F28280AEF1020E6344A3EB0909A4B2F2
:10563800B9FBF0F300FB139944EA094403FB06F6AF
:10564800A64208D91CEB040403F1FF3068D2A64235
:1056580066D9023B644443EA0E40A41BA0FB02E661
:10566800B4427346B14652D34FD05DB1B8EB030292
:1056780064EB090404FA07F722FA01F31F43CC404C
:10568800C5E9007400214CE7C2F1200120FA01F3BA
:105698000CFA02FC26FA01F1964033434FEA1C4704
:1056A8001FFA8CFEB1FBF7F007FB1016190C41EA44
:1056B800064100FB0EF68E4204FA02F408D91CEBF0
:1056C800010100F1FF382DD28E422BD902386144F6
:1056D800891B9BB2B1FBF7F607FB161143EA01439E
:1056E80006FB0EF1994208D91CEB030306F1FF38BB
:1056F80014D2994212D9023E63445B1A46EA004129
:1057080036E73946EDE6184602E7F045ADD2BEEB7E
:10571800020366EB0C060138B146A6E74646ECE7FD
:10572800034698E74046D3E7D6467EE76444023806
:1057380047E708460DE7023E63442DE7F8B500BF8A
:10574800F8BC08BC9E467047F8B500BFF8BC08BC5A
:045758009E467047B2
:10575C000000000001020304000000000000000033
:10576C0001020304060708090006101600061016AD
:10577C0053544D3332205669727475616C20436FEB
:10578C006D506F727400000053544D6963726F65F5
:10579C006C656374726F6E696373000043444320DD
:1057AC00436F6E666967000043444320496E74651D
:0857BC007266616365000000E4
:0857C400C4FCFF7F010000009E
:0457CC00E1010008EF
:0457D000BD0100080F
:1057D4000024F4000100000010000000090243004E
:1057E400020100C032090400000102020100052484
:1057F400001001052401000104240202052406000E
:10580400010705820308001009040100020A0000D0
:105814000007050102400000070581024000000066
:10582400BB410008574100083D400008000000004B
:10583400653E0008C13F0008893F000800000000E1
:105844000000000000000000413F0008F93E00088D
:10585400B13E0008A53E00080A0600020000004010
:10586400010000009D4F0008754F0008794F0008A3
:10587400814F00087D4F00081A030000000000005B
:105884000000000000000000000000000000000014
:105894000000000004030904120100020202004097
:1058A400830440570002010203010000F14F000885
:1058B400FD4F0008C15000089D50000889500008A1
:0858C400DD500008015100084D
:04000005080053DDBF
:00000001FF
