:020000040800F2
:1000000000000120C5580008FD040008FF04000896
:1000100001050008030500080505000800000000B0
:1000200000000000000000000000000007050008BC
:1000300009050008000000000B0500080D05000878
:1000400015590008155900081559000815590008D8
:1000500015590008155900081559000815590008C8
:10006000155900081559000815590008150500080C
:1000700015590008155900081559000815590008A8
:1000800015590008155900082505000815590008DC
:100090001559000815590008155900081559000888
:1000A0001559000815590008155900081559000878
:1000B0001559000800000000000000001559000854
:1000C0001559000800000000000000001559000844
:1000D0000000000015590008155900080000000034
:1000E0001559000815590008000000000000000024
:1000F0000000000000000000000000000000000000
:100100000000000000000000000000001559000879
:1001100000000000000000001559000815590008F3
:1001200015590008155900081559000815590008F7
:100130001559000800000000000000000000000049
:10014000155900081559000815590008350500080B
:1001500015590008155900081559000815590008C7
:10016000155900081559000815590008000000002D
:100170001559000815590008000000000000000093
:10018000155900081559000815590008000000000D
:1001900010B5054C237833B9044B13B10448AFF3C1
:1001A00000800123237010BD080100200000000022
:1001B0007059000808B5034B1BB103490348AFF35E
:1001C000008008BD000000000C01002070590008EC
:1001D00010B586B00024019402940394049405940D
:1001E0000E4BDA6C42F00102DA64DB6C03F00103BF
:1001F0000093009B224618214FF0904001F0F4F943
:1002000018230193012302930394049401A94FF04E
:10021000904001F011F906B010BD00BF001002407F
:1002200000B583B00A4B9A6C42F001029A649B6C51
:1002300003F001030193019B002211460B2000F003
:1002400099FF0B2000F0A6FF03B05DF804FB00BF90
:100250000010024008B50649064B1960064B012202
:100260001A700A220A39054800F0CAFE08BD00BF0C
:1002700036010020240100202801002088010020F0
:10028000034B044A1A60044B01221A70704700BFE6
:10029000240100202C0100202801002072B6FEE776
:1002A00000B587B000230093019302930393049356
:1002B00005931848184A026043608360C360036175
:1002C00004224261037643760122C26180F8203025
:1002D0008362C36280F83030436380F8383000F0C6
:1002E000B3F990B90D4B00930623019300230293B9
:1002F0007F2203920422049205936946054800F088
:10030000F9FB20B907B05DF804FBFFF7C7FFFFF763
:10031000C5FF00BF88010020000004502000F01439
:1003200000B597B04422002105A805F0F4FA002397
:10033000009301930293039304934FF4007002F02F
:1003400079F928BB1023059301220B9200230C930B
:1003500060230D9302230F93109211922822129280
:10036000072213921493159305A802F055FA88B941
:100370000F23009303230193002302930393049319
:100380000421684602F07EFD30B917B05DF804FB29
:10039000FFF784FFFFF782FFFFF780FF00B597B0FC
:1003A0005422002101A805F0B6FA4FF4C04301938E
:1003B0004FF0805313934FF0806311930123029306
:1003C00003931823049307230593022306930793AB
:1003D0004FF08873089301A802F0D0FE10B917B04F
:1003E0005DF804FBFFF75AFF08B500F0DDF8FFF7F2
:1003F00097FFFFF7D3FFFFF7EBFEFFF711FFFFF7C4
:100400004FFF04F0E7FF0A220249034800F0F8FD1D
:10041000FEE700BF2C0100208801002082B00A4BBB
:100420001A6E42F001021A661A6E02F00102009280
:10043000009A9A6D42F080529A659B6D03F080534A
:100440000193019B02B070470010024010B588B0C4
:100450000023039304930593069307930268244BA8
:100460009A4201D008B010BD044603F17043A3F5D1
:10047000F833DA6C42F40052DA64DA6C02F40052B7
:100480000192019ADA6C42F00102DA64DB6C03F04B
:1004900001030293029B012303930B23049303A9FB
:1004A0004FF0904000F0C8FF1248134B0360002348
:1004B00043608360C360802202614FF480724261B6
:1004C0004FF4806282612022C261036200F094FED8
:1004D00058B9084BE3649C6200220121122000F00D
:1004E00049FE122000F056FEBCE7FFF7D7FEF0E70A
:1004F000000004504001002008000240FEE7FEE733
:10050000FEE7FEE7FEE770477047704708B500F06A
:100510005BF808BD08B5024800F02BFF08BD00BF1E
:100520004001002008B5024800F079F908BD00BF7D
:100530008801002008B5024801F039FE08BD00BF5F
:10054000F0100020034AD2F8883043F47003C2F858
:100550008830704700ED00E0104B1B780BB901208C
:10056000704710B504464FF47A70B0FBF3F30C4AB1
:100570001068B0FBF3F000F011FE68B90F2C01D940
:1005800001200AE0002221464FF0FF3000F0F2FD8A
:10059000044B1C60002000E0012010BD040000207E
:1005A000000000200800002010B5032000F0D0FD5E
:1005B0000F20FFF7D1FF10B10124204610BD0446E3
:1005C000FFF72CFFF9E70000034B1B78034A116883
:1005D0000B441360704700BF04000020EC010020B2
:1005E000014B1868704700BFEC01002010B4303098
:1005F0000B0A9B0003F00C03C45801F01F014FF0DD
:100600001F0C0CFA01FC24EA0C0CC2F384628A4031
:100610004CEA0202C2505DF8044B704710B414302B
:100620004B0E9B0003F00403C458C1F304514FF078
:10063000070C0CFA01FC24EA0C0C8A404CEA02027A
:10064000C2505DF8044B704730B583B0002301936E
:10065000002800F0D0800446436D13B323689A68E5
:1006600012F0005F05D09A6822F0204222F03F028B
:100670009A602268936813F0805F1FD1936823F01B
:10068000104323F03F0343F0805393605B4B1B68A0
:100690009B095B4AA2FB03239B0901335B00019387
:1006A00009E0FFF7D3FE0023A36584F85030D5E7B7
:1006B000019B013B0193019B002BF9D122689368B8
:1006C00013F0805F70D1636D43F010036365A36D19
:1006D00043F00103A3650120936813F0040300D0E5
:1006E0000123616D11F0100F7ED1002B7CD1636D61
:1006F00023F4817343F002036365936813F0010FE1
:100700000BD1404B9B6813F0010F06D163683E4943
:100710008A6822F47C1213438B60627E636B43EA27
:100720004233E2681343A268134394F8202043EA5B
:100730000243012A3AD0A26A22B102F47072E16A3D
:100740000A4313432168CD68304A2A401A43CA60DD
:100750002268936813F0080300D00123ABB9237E0D
:1007600094F83010490041EA8331D36823F4804380
:1007700023F002030B43D36094F83830012B1AD0D6
:100780002268136923F0010313612369012B22D02E
:100790002268136B23F00F031363636D23F00303CD
:1007A00043F00103636524E0002095E7626A013AA3
:1007B00043EA4243BFE721680B696FF38A03E26BA8
:1007C000256C2A43656C2A43A56C2A43134343F0E6
:1007D00001030B61D9E721680B6B23F00F03E2697A
:1007E000013A13430B63D8E7636D43F0100363656D
:1007F000012003B030BD0120FBE700BF0000002056
:10080000632D3E05000004500003045007C0F0FFB4
:1008100008B5806AFFF734FD08BD7047704770B5B2
:10082000044603681E685D6816F0020F10D015F0CC
:10083000020F0DD0436D13F0100F03D1436D43F43D
:1008400000634365204600F03FFC236802221A60E3
:1008500016F0040F02D015F0040F05D116F0080FA2
:100860003AD015F0080F37D0636D13F0100F03D195
:10087000636D43F4007363652368DA6812F4406FB4
:1008800024D1DA6812F4005F20D11A6812F0080F40
:100890001CD09A6812F0040F10D15A6822F00C0292
:1008A0005A60636D23F480736365636D13F4805F36
:1008B0000CD1636D43F00103636507E0636D43F0A2
:1008C00010036365A36D43F00103A3652046FFF7A2
:1008D000C1FC23680C221A6016F0200F02D015F01C
:1008E000200F05D116F0400F4CD015F0400F49D025
:1008F000636D13F0100F03D1636D43F40053636510
:100900002368DA6C12F0C00F2AD10121DA6812F4E0
:10091000406F27D10120DA6871B312F0007F03D055
:1009200050B312F4005F27D1196811F0400F23D0A3
:1009300012F4001F20D19A6812F0080F14D15A68DF
:1009400022F060025A60636D23F480536365636D27
:1009500013F4807F10D1636D43F0010363650BE0F6
:100960000021D3E70020D6E7636D43F010036365F1
:10097000A36D43F00103A365204600F0A1FB2368AB
:1009800060221A6016F0800F02D015F0800F2DD172
:1009900016F4807F02D015F4807F32D116F4007FE8
:1009A00002D015F4007F38D116F0100F17D015F0D3
:1009B000100F14D0636B23B12368DB6813F0010FB1
:1009C0000AD0636D43F480636365A36D43F0020353
:1009D000A3652046FFF722FF236810221A6016F451
:1009E000806F02D015F4806F23D170BD636D43F426
:1009F000803363652046FFF710FF236880221A606A
:100A0000C6E7636D43F400336365204600F05AFB8C
:100A100023684FF480721A60C0E7636D43F480234B
:100A20006365204600F04FFB23684FF400721A60A4
:100A3000BAE7636D43F480436365A36D43F0080335
:100A4000A36523684FF480621A60204600F039FBEA
:100A5000CBE708B50346806A426D12F0500F30D1E3
:100A6000436D43F40073436503681A6812F0080F7E
:100A700014D0DA6812F4406F20D1DB6813F4005F01
:100A80001CD1436D23F480734365436D13F4805F81
:100A900014D1436D43F0010343650FE0DB6813F0AD
:100AA000020F0BD1436D23F480734365436D13F440
:100AB000805F03D1436D43F001034365FFF7CAFB39
:100AC00008BD426D12F0100F04D1C26C526B184673
:100AD0009047F5E7FFF7A2FEF2E708B5806A436D9D
:100AE00043F040034365836D43F004038365FFF7E0
:100AF00095FE08BDF0B583B00023019390F8503007
:100B0000012B00F0048204460D46012380F850308A
:100B10000068836813F0040F09D0636D43F020036D
:100B200063650120002384F8503003B0F0BD4968AC
:100B3000052907D8023903294ED8DFE801F0024F12
:100B4000484A0C212A68FFF751FD2068836813F09A
:100B5000040300D00123826812F0080200D00122B1
:100B60000BB9002A3CD02268936813F0010F17D10B
:100B70002B68E868D2F8B010C3F3120621EA060128
:100B800000F0180CA84820FA0CF00340C3F312033D
:100B90000B43C2F8B030EA68A44B9A4200F0A5803B
:100BA0002B68A34A134200F0AE81A24A926802F079
:100BB000E070A1498B4200F05881A0498B4200F0BF
:100BC0007B819F498B4200F08B810020AAE718218E
:100BD000B8E74FF48071B5E70621B3E71221B1E71A
:100BE000AA682968FFF71AFD69692268D368C3F308
:100BF000C1035B009940286904280ED02E6860323A
:100C000052F820708F4B3B4006F0F84631430B43BF
:100C100043F0004342F82030A5E7136E116EC1F394
:100C200084612B68C3F3120080BBC3F384639942D1
:100C300034D021684B6E4A6EC2F384622B68C3F3D2
:100C4000120080BBC3F384639A4234D021688B6E58
:100C50008A6EC2F384622B68C3F3120080BBC3F3B5
:100C600084639A4234D02168CB6ECA6EC2F3846228
:100C70002B68C3F3120080BBC3F384639A427FF4F2
:100C800072AFCB6E23F00043CB666CE793FAA3F30D
:100C900013B1B3FA83F3CAE72023C8E7136E23F036
:100CA00000431366C5E793FAA3F313B1B3FA83F3D2
:100CB000CAE72023C8E74B6E23F000434B66C5E725
:100CC00093FAA3F313B1B3FA83F3CAE72023C8E777
:100CD0008B6E23F000438B66C5E793FAA3F313B141
:100CE000B3FA83F3CAE72023C8E720682B68C3F36D
:100CF00012063EBB9A0E013202F01F02092A8CBF77
:100D000000220122002A55D05EBB990E01318906CE
:100D100001F0F8418EBB4FEA936C0CF1010C0CF022
:100D20001F0C012202FA0CF21143AEBB9B0E0133E1
:100D300003F01F0303EB43031B051943AA68FFF7E6
:100D40006DFC2DE793FAA3F24AB1B2FA82F20132B6
:100D500002F01F02092A8CBF00220122D2E72022C2
:100D6000F5E793FAA3F131B1B1FA81F101318906C6
:100D700001F0F841CEE72021F8E793FAA3F24AB157
:100D8000B2FA82F2013202F01F024FF0010C0CFAAB
:100D900002F2C9E72022F5E793FAA3F343B1B3FACD
:100DA00083F3013303F01F0303EB43031B05C4E785
:100DB0002023F6E7E6B9990E0131890601F0F841E2
:100DC00016BB4FEA936C0CF1010C0CF01F0C0122C6
:100DD00002FA0CF21143BEBB9B0E013303F01F035A
:100DE00003EB43031E3B1B0543F000731943A5E7C8
:100DF00093FAA3F131B1B1FA81F10131890601F021
:100E0000F841DDE72021F8E793FAA3F24AB1B2FAFC
:100E100082F2013202F01F024FF0010C0CFA02F2D2
:100E2000D8E72022F5E700BFFFFF070000007F4062
:100E30000000088000030450000052C7000084CB6B
:100E40000100008000F0FF0393FAA3F35BB1B3FA53
:100E500083F3013303F01F0303EB43031E3B1B0526
:100E600043F00073C2E72023F3E712F4000F7FF48E
:100E7000A4AE2268274B9A4201D0002052E640F4EB
:100E8000000325498A6822F0E07213438B60234BEC
:100E90001B689B09224AA2FB03239B09013303EB36
:100EA00043039B00019302E0019B013B0193019BE3
:100EB000002BF9D1002035E612F0807F7FF481AE5F
:100EC0002268144B9A4201D000202BE640F0807338
:100ED00011498A6822F0E07213438B60002021E6FA
:100EE00012F4800F11D122680A4B9A4201D00020DF
:100EF00018E640F4800308498A6822F0E072134340
:100F00008B6000200EE600200CE600200AE602209E
:100F10000BE600BF00000450000304500000002056
:100F2000632D3E0530B583B00023019303689A68B2
:100F300012F0010F58D1044699682D4A114219D177
:100F40009A6822F0004222F03F0242F001029A60C9
:100F5000284B9B6813F4000F1CD0274B1B689B0980
:100F6000264AA2FB03239B09013303EB43039B00A7
:100F700001930CE0436D43F010034365836D43F030
:100F800001038365012030E0019B013B0193019B3C
:100F9000002BF9D1FFF724FB054623681A6812F0ED
:100FA000010F1FD19A6812F0010F07D19A6822F041
:100FB000004222F03F0242F001029A60FFF710FB6C
:100FC000431B022BE9D923681B6813F0010FE4D1FE
:100FD000636D43F010036365A36D43F00103A365E4
:100FE000012002E0002000E0002003B030BD00BF7F
:100FF0003F0000800003045000000020632D3E05E8
:1010000070B504460068806810F0040F4ED10E469B
:10101000154694F85030012B4AD0012384F8503003
:101020002046FFF77FFF00283CD1636D23F47063F7
:1010300023F0010343F480736365636D13F4805FF1
:101040002DD0A36D23F00603A365E36C194ADA6281
:10105000E36C194A1A63E36C184A5A6323681C222A
:101060001A60002384F850302268536843F010035C
:1010700053602268D36843F00103D36021682B4694
:1010800032464031E06C00F039F92268936823F071
:10109000004323F03F0343F00403936007E0002381
:1010A000A365D2E7002384F8503000E0022070BD31
:1010B0000220FCE7530A000811080008DB0A0008B8
:1010C000704770477047704770470000002807DB83
:1010D00000F01F02400901239340024A42F82030E9
:1010E000704700BF00E100E0002808DB0901C9B239
:1010F00000F1604000F5614080F80013704700F097
:101100000F000901C9B2014B1954704714ED00E0FA
:1011100000B500F00700C0F1070CBCF1040F28BFB8
:101120004FF0040C031D062B0FD9C31E4FF0FF3EDA
:101130000EFA0CF021EA000199400EFA03FE22EAB1
:101140000E0241EA02005DF804FB0023EEE7000016
:10115000074AD36823F4E0631B041B0C000200F46D
:10116000E060034343F0BF6343F40033D360704750
:1011700000ED00E010B50446054BD868C0F302202E
:10118000FFF7C6FF01462046FFF7AEFF10BD00BFC8
:1011900000ED00E008B5FFF799FF08BD0138B0F198
:1011A000807F0BD24FF0E0235861054AF02182F88E
:1011B00023100020986107221A61704701207047B0
:1011C00000ED00E030B4446C04F01C0C012404FA7F
:1011D0000CF4056C6C60046863608368102B05D0A8
:1011E000036899600368DA6030BC704703689A60EE
:1011F0000368D960F8E70000002871D010B40346F6
:101200000168384A914248D8374A0A443748A0FB17
:101210000202120992005A64354A1A64022283F8C3
:10122000252008686FF30E109A68DC6822431C6959
:1012300022435C6922439C692243DC6922431C6A85
:10124000224302430A609A68B2F5804F1BD0196CA2
:10125000274A91422CD0264AD2F8A814586C00F0A4
:101260001C0C0F2000FA0CF021EA0001C2F8A814AF
:10127000D2F8A81458685C6C04F01C0C00FA0CF04E
:101280000143C2F8A8140020D863012283F8252066
:1012900083F824005DF8044B7047164A0A4413484B
:1012A000A0FB0202120992005A64134A1A64B5E7BD
:1012B000D2F8A810586C00F01C0C0F2000FA0CF0AB
:1012C00021EA0001C2F8A810D2F8A81058685C6C96
:1012D00004F01C0C00FA0CF00143C2F8A810D2E78D
:1012E0000120704707040240F8FFFDBFCDCCCCCCF5
:1012F00000000240F8FBFDBF0004024038B5044680
:1013000090F82400012832D0012084F8240094F8B9
:101310002500C0B2012804D0002384F82430022024
:1013200038BD022084F825000020E0632568286885
:1013300020F0010028602046FFF744FF236B5BB1DB
:101340002268136843F00E0313602268136843F0A9
:10135000010313600020E3E72268136823F004030D
:1013600013602268136843F00A031360EDE702205C
:10137000D6E738B5036C196804682568436C03F038
:101380001C0304229A400A4215D015F0040F12D013
:10139000236813F0200F03D1236823F00403236094
:1013A000436C03F01C02016C042393404B60036BFD
:1013B00003B1984738BD02229A400A421CD015F06A
:1013C000020F19D0236813F0200F06D1236823F0F1
:1013D0000A032360012380F82530436C03F01C02CC
:1013E000016C022393404B60002380F82430C36AD1
:1013F000002BDFD09847DDE7082202FA03F30B4207
:10140000D8D015F0080FD5D0236823F00E03236041
:10141000436C03F01C03016C012202FA03F34B60DE
:10142000C26380F82520002380F82430436B002B12
:10143000C0D09847BEE70000F0B583B0002362E05B
:1014400085685E000324B44025EA0405CC68B440F6
:101450002C438460456825EA0C054C68C4F30014ED
:101460009C402C4344605FE0DD08083550F825407F
:1014700003F0070C4FEA8C0C4FF00F0E0EFA0CFE27
:1014800024EA0E0E0C6904FA0CF444EA0E0440F847
:10149000254060E0022400E0002404FA0EF42C430E
:1014A0000CF1020C4C4D45F82C404C4CA568D44333
:1014B00025EA02064F6817F4801F01D042EA0506AC
:1014C000464DAE60ED6804EA05064F6817F4001F4C
:1014D00001D042EA0506414DEE606D6804EA05065A
:1014E0004F6817F4003F01D042EA05063B4D6E609D
:1014F0002D682C404E6816F4803F01D042EA050466
:10150000364A146001330A6832FA03F462D04FF0AD
:10151000010C0CFA03FC1CEA0202F3D04C6804F044
:101520000304013C012C8BD94C6804F00304032C08
:101530000CD0C4685D004FF0030C0CFA05FC24EAE3
:101540000C0C8C68AC4044EA0C04C4604C6804F099
:101550000304022C88D004684FEA430E4FF0030CBA
:101560000CFA0EFC24EA0C0C4C6804F0030404FA98
:101570000EF444EA0C0404604C6814F4403FC1D0FB
:10158000174C256E45F001052566246E04F0010414
:101590000194019C4FEA930C0CF102050E4C54F897
:1015A000255003F0030E4FEA8E0E0F2404FA0EF4BA
:1015B00025EA0405B0F1904F3FF46EAF094CA0420C
:1015C00006D004F58064A0423FF464AF072464E7CA
:1015D000012462E703B0F0BD0000014000040140B7
:1015E00000100240000400480AB181617047816226
:1015F000704738B512F4804F43D00468B4F85030C7
:1016000091F800C04FEACC0E1EFA83F32344B3F8DE
:101610000244C4F309048B69A34228D31B1B8B61CA
:101620008B697BB9056835F82C309BB223F4804375
:1016300023F0700383F4005343F4004343F080032A
:1016400025F82C3012F0400F0ED002680D7832F8D9
:1016500025309BB223F4E04323F0700343F40043AE
:1016600043F0C00322F8253024B9204638BD0023BA
:101670008B61D5E723460A894969006802F07DFE3F
:10168000F3E70468B4F8503091F800C04FEACC0E8C
:101690001EFA83F32344B3F80644C4F309048B69A8
:1016A000A3422FD31B1B8B618B697BB9056835F86F
:1016B0002C309BB223F4804323F0700383F4005357
:1016C00043F4004343F0800325F82C3012F0400F20
:1016D0000FD1026891F800C032F82C309BB223F48D
:1016E000E04323F0700343F4004343F0C00322F8C7
:1016F0002C30002CB9D023464A894969006802F091
:101700003CFEB2E700238B61CEE770B586B00028BF
:1017100000F08880044690F8A932EBB1032384F8E6
:10172000A932206801F0AEFE254655F8106BEC4654
:101730000FCDACE80F002B68CCF80030231D0ECB8A
:10174000304601F08FFE054658B1022384F8A932D5
:101750000125284606B070BD80F8A83203F030FF9E
:10176000DCE70021206801F097FE2B4616E05A1CAA
:1017700002EB820104EBC1010120487002EB8201FF
:1017800004F8313004EBC1000021C17003EB830089
:1017900004EBC0008163C1630164D3B261688B4212
:1017A000E5D316E005EB850304EBC303002283F8C1
:1017B000692183F8685183F86B21C3F87821C3F855
:1017C0007C2105EB850304EBC303C3F880210135BD
:1017D000EDB2A942E6D8254655F8106BEC460FCD80
:1017E000ACE80F002B68CCF80030231D0ECB304640
:1017F00001F054FE054660B9002384F8243001232B
:1018000084F8A932E369012B08D0206802F0AEF910
:101810009FE7022384F8A93201259AE7204600F0C9
:10182000EAFEF2E7012594E790F8A832012B0ED0EA
:1018300010B50446012380F8A832006801F019FEB3
:10184000206802F088F9002084F8A80210BD022068
:10185000704770B505460C46164612F0400F00F072
:101860000A810268B2F850300978C80010FA83F390
:101870001344B3F80224C2F30902A36993424DD979
:101880009B1AA361A369002B64D16378002B48D114
:101890002A68B2F8503012FA83F30344B3F80224F2
:1018A000C2F30902A3F80224B3F802246FEA424209
:1018B0006FEA524292B2A3F802242A686378002B9E
:1018C0003BD1B2F8503012FA83F3227803EBC20313
:1018D000B3F80624C2F30902A3F80624B3F80624D9
:1018E0006FEA42426FEA524292B2A3F8062421788C
:1018F000284603F099FE16F4804F40D02A682178DC
:1019000032F821309BB223F4E04323F0700343F418
:10191000404343F0800322F8213030E00023A361EC
:10192000B0E7012BC9D12A68B2F8503012FA83F31C
:1019300003440022A3F80224BFE7012BD7D1B2F859
:10194000503012FA83F3227803EBC2030022A3F88B
:101950000624CCE716F4804F0DD0286830F82130EB
:101960009BB223F4E04323F0700343F4404343F07D
:10197000800320F8213094F82430012B12D02A68FB
:10198000217832F821309BB223F4E04323F0400366
:1019900083F0300343F4004343F0800322F8213006
:1019A000002070BD636913446361E3691344E3611C
:1019B000216A2369994224D3C91A21626278002AD4
:1019C00044D12968B1F8502011FA82F2217802EB53
:1019D000C102B2F80214C1F30901A2F802143E2BAD
:1019E0001BD9580913F01F0F00D10138B2F80214A7
:1019F00089B2800280B2014341F40041A2F802148E
:101A000026E021B9002384F824301346D6E70023CA
:101A100084F8243023620B46D0E74BB9B2F80214A5
:101A20006FEA41416FEA514189B2A2F802140FE016
:101A3000590813F0010F00D00131B2F8020480B24E
:101A4000890289B20143A2F8021401E0012A06D0FA
:101A50009BB222896169286802F096F88FE72968AD
:101A6000B1F8502011FA82F2217802EBC10299B24A
:101A7000A2F80214ECE70268B2F850300978C80006
:101A800010FA83F31344B3F80624C2F30902A369DE
:101A900093424ED39B1AA361A369002B65D163784F
:101AA000002B49D12A68B2F8503012FA83F303446C
:101AB000B3F80224C2F30902A3F80224B3F8022403
:101AC0006FEA42426FEA524292B2A3F802242A68B5
:101AD0006378002B3CD1B2F8503012FA83F32278AD
:101AE00003EBC203B3F80624C2F30902A3F80624E9
:101AF000B3F806246FEA42426FEA524292B2A3F868
:101B000006242178284603F08FFD16F4804F7FF4D9
:101B100036AF2A68217832F821309BB223F4E043B3
:101B200023F0700343F4404343F0800322F8213054
:101B300025E70023A361AFE7012BC8D12A68B2F8DB
:101B4000503012FA83F303440022A3F80224BEE7C4
:101B5000012BD6D1B2F8503012FA83F3227803EB7E
:101B6000C2030022A3F80624CBE716F4804F0DD160
:101B7000286830F821309BB223F4E04323F070034F
:101B800043F4404343F0800320F8213094F824309C
:101B9000012B7FF4F4AE636913446361E36913447A
:101BA000E361216A2369994224D3C91A2162296811
:101BB0006278002A43D1B1F8502011FA82F22178DC
:101BC00002EBC102B2F80614C1F30901A2F806142F
:101BD0003E2B1BD9580913F01F0F00D10138B2F862
:101BE000061489B2800280B2014341F40041A2F898
:101BF000061426E021B9002384F824301346D6E7E2
:101C00000023236284F824300B46D0E74BB9B2F8A6
:101C100006146FEA41416FEA514189B2A2F80614F5
:101C20000FE0590813F0010F00D00131B2F806049B
:101C300080B2890289B20143A2F8061401E0012AA8
:101C400006D09BB262896169286801F09DFF96E623
:101C5000B1F8502011FA82F2217802EBC10299B258
:101C6000A2F80614EDE72DE9F04105462868B0F822
:101C7000443013F4004F00F08382B0F84440A3B224
:101C800014F00F0440F0DC8013F0100F69D00388CB
:101C90009AB213F4006F40F0998012F4004FE5D02F
:101CA000038823F070031B051B0D43F080030380A2
:101CB0002868B0F8503095F86821D20012FA83F302
:101CC0000344B3F80634C3F30903C5F884318BB178
:101CD000D5F87C1171B1B5F86E2102F04EFBD5F844
:101CE0007C31D5F884211344C5F87C310021284685
:101CF00003F08EFC2A68138899B213F4006FB5D1F3
:101D000001F44051B1F5405FB0D0B2F8503012FA52
:101D100083F3B3F80624C2F30902A3F80624D5F826
:101D200078213E2A73D9510912F01F0F00D10139D1
:101D3000B3F8062492B2890289B20A4342F40042FF
:101D4000A3F806242A6813889BB223F4804323F067
:101D5000700383F4405343F4004343F08003138043
:101D600084E703889BB223F4E14323F070036FEA16
:101D700043436FEA53439BB203802968B1F8503064
:101D800095F82820D20012FA83F30B44B3F80234FA
:101D9000C3F309036B64EA6B1A44EA630021284623
:101DA00003F042FC95F82430002B3FF45FAF2B6C1E
:101DB000002B7FF45BAF95F824302A6843F0800352
:101DC000A2F84C30002385F824304FE7B0F85030AB
:101DD00095F86821D20012FA83F30344B3F806346D
:101DE000C3F30903C5F88431B5F86E2105F52C71EC
:101DF00002F0C3FA2A68138823F070031B051B0D39
:101E000043F080031380284603F0FAFB2EE74AB91B
:101E1000B3F806246FEA42426FEA524292B2A3F844
:101E200006248FE7510812F0010F00D00131B3F8FA
:101E3000062490B28A0292B20243A3F8062481E7F4
:101E400030F824309EB213F4004F4AD116F0800FC0
:101E50003FF40CAF621C02EB820105EBC101286864
:101E600030F824309BB223F4E14323F070036FEA8F
:101E700043436FEA53439BB220F82430CB78012BC5
:101E800000F0E98016F4807F40F075812868B0F892
:101E90005030621C02EB820215F83260F20012FA36
:101EA00083F30344B3F80234C3F3090304EB84025D
:101EB00005EBC202126C9A4240F2458104EB8407A2
:101EC00005EBC707D21A3A6404EB840205EBC202A1
:101ED000126C002A40F03E813146284603F0A4FBF4
:101EE000C4E630F8243023F070031B051B0D43F0CB
:101EF000800320F8243004EB8401C90001F5B4719B
:101F000005EB010804EB840305EBC30393F874317C
:101F1000002B40D12868B0F8503004EB840205EB68
:101F2000C20292F86821D20012FA83F30344B3F894
:101F30000674C7F3090717BB04EB840305EBC3035F
:101F4000D3F884213A44C3F88421D3F87C213A445D
:101F5000C3F87C21D3F880313BB104EB840305EB5B
:101F6000C303D3F878319F4270D204EB840305EBAE
:101F7000C30393F86811284603F04AFB66E704EBB5
:101F8000840105EBC1013B46B1F86E21D1F87C110B
:101F900002F0F3F9D0E704EB840305EBC30393F8F5
:101FA0006B31022B33D0296804EB840205EBC202AB
:101FB00092F8680131F820309BB223F4E04323F01B
:101FC000700343F4004343F0C00321F82030286835
:101FD00092F8683130F8232012F4804F1ED0B0F808
:101FE0005020DB0013FA82F30344B3F80274C7F302
:101FF0000907002FA0D004EB840105EBC1013B468B
:10200000B1F87021D1F87C1102F0B7F994E73246AB
:1020100041462846FFF7EDFA07468DE7B0F8502015
:10202000DB0013FA82F30344B3F80674C7F309071D
:10203000002F81D004EB840105EBC1013B46B1F8D0
:102040007221D1F87C1102F098F975E741462868B1
:1020500001F0ACFDFAE604EB840305EBC3030022B8
:102060001A6493F83430FBB116F0400F37D04B7838
:102070001BBB2A68B2F8503012FA83F3621C02EBE1
:10208000820215F8322003EBC203B3F80224C2F334
:102090000902A3F80224B3F802246FEA42426FEA6D
:1020A000524292B2A3F80224013404EB840415F8DE
:1020B0003410284603F0B8FAD8E5012BF4D12A6889
:1020C000B2F8503012FA83F3621C02EB820215F868
:1020D000322003EBC2030022A3F80224E4E72A68BB
:1020E000631C03EB830305EBC3035B78D3B9B2F83E
:1020F000503012FA83F3621C02EB820215F8322090
:1021000003EBC203B3F80624C2F30902A3F80624C2
:10211000B3F806246FEA42426FEA524292B2A3F841
:102120000624C1E7012BBFD1B2F8503012FA83F375
:10213000621C02EB820215F8322003EBC20300227C
:10214000A3F80624B0E704EB840205EBC2020027E3
:102150001764B9E604EB840205EBC202D66B1E4499
:10216000D663526C04EB840405EBC404134463642B
:1021700001F01CFD7AE532462846FFF76AFB75E55B
:102180000020BDE8F08190F8A832012B0DD010B5E9
:102190000446012380F8A83280F82410006801F07A
:1021A000D4FC002084F8A80210BD0220704710B5AE
:1021B0000446006801F0E2FC10F4004F23D110F453
:1021C000806F24D110F4804F32D110F4005F39D1E8
:1021D00010F4805F40D110F4006F67D110F0800FD1
:1021E00040F0818010F4007F40F0AD8010F4807FDB
:1021F00027D02268B2F844309BB223F480739BB29C
:10220000A2F844301DE02046FFF72DFD19E02268BA
:10221000B2F844309BB223F480639BB2A2F84430FE
:10222000204603F012FA00212046FFF7ACFF08E039
:102230002268B2F844309BB223F480439BB2A2F8E8
:10224000443010BD2268B2F844309BB223F40053EE
:102250009BB2A2F84430F4E72268B2F840309BB257
:1022600023F004039BB2A2F840302268B2F8403059
:102270009BB223F008039BB2A2F8403094F8E032FE
:10228000012B0CD0204603F003FA2268B2F8443048
:102290009BB223F480539BB2A2F84430D1E70021D3
:1022A00084F8E012204603F0E5FAEBE72268B2F882
:1022B00040309BB243F00803A2F840302268B2F8E5
:1022C00044309BB223F400639BB2A2F844302268EE
:1022D000B2F840309BB243F00403A2F840302046ED
:1022E00003F0C6F9ADE72268B2F844309BB223F0A0
:1022F00080039BB2A2F8443094F8E032FBB9226824
:10230000B2F840309BB243F00403A2F84030226898
:10231000B2F840309BB243F00803A2F840300121EC
:1023200084F8E0122368B3F85430C3F38D0303F04C
:102330003C03C4F8E432204603F09CFA81E72046CF
:1023400003F096F97DE72268B2F844309BB223F49B
:1023500000739BB2A2F84430204603F070F970E796
:1023600010B50446084611F0800F25D101F0070C86
:102370000CEB8C01C90001F5B47E04EB0E010CEBF3
:102380008C0C04EBCC0C4FF0000E8CF869E100F0E3
:10239000070008700A61CB70022B1AD094F8A8329B
:1023A000012B19D0012384F8A832206801F087F8A6
:1023B000002084F8A80210BD01F0070C0CF1010CFC
:1023C0000CEB8C0104EBC1014FF0010E81F801E030
:1023D000DDE700230B71E1E70220ECE710B50446CE
:1023E0000B4611F0800F1FD101F0070202EB8201B2
:1023F000C90001F5B471014402EB820200EBC20294
:10240000002082F8690103F007030B7094F8A832EA
:10241000012B13D0012384F8A832206801F034FA8C
:10242000002084F8A80210BD01F00702013202EB7F
:10243000820100EBC10101204870E4E70220F2E7CD
:1024400010B501F0070C0CEB8C01C90001F5B4715B
:102450000CEB8C0E00EBCE0ECEF87C21CEF880314A
:102460000024CEF884418EF869418EF868C1014499
:10247000006801F09BFB204610BD01F0070101EB55
:10248000810100EBC100D0F88401704738B501F03C
:10249000070404F1010C0CEB8C0104EB840E00EB3F
:1024A000CE0ECEF83C20CEF8403001228EF84C20E3
:1024B000CEF848300025CEF8445000EBC1035A70E6
:1024C00000F831401946006801F070FB284638BD1D
:1024D00038B501F007054268954231D804460B46ED
:1024E00011F0800F1ED101EB8101C90001F5B4711B
:1024F000014403EB830300EBC303002283F869214B
:1025000001238B700D7094F8A832012B1AD001238F
:1025100084F8A832206801F0A2FA5DB1002084F8A6
:10252000A80238BD6B1C03EB830100EBC101012243
:102530004A70E5E704F52C71206801F023FBEDE714
:102540000120EEE70220ECE70B4601F00F014268A4
:10255000914230D810B5044613F0800F21D103F01A
:10256000070202EB8201C90001F5B471014402EBDC
:10257000820200EBC202002082F8690100228A7008
:1025800003F007030B7094F8A832012B15D0012338
:1025900084F8A832206801F087FA002084F8A802A5
:1025A00010BD03F00702013202EB820100EBC10112
:1025B00001204870E2E7012070470220F0E711F0A7
:1025C000800F0BD001F00701013101EB810100EB1D
:1025D000C10052B90273C3800020704701EB810132
:1025E000C90001F5B4710844F3E7012202730381C5
:1025F0001B0C4381F0E7034602680121C0F8EC128E
:10260000002083F8E002B2F854309BB20B43A2F8EA
:102610005430B2F854309BB243F00203A2F8543065
:1026200070470000024B186800F4C060704700BF9C
:1026300000700040B0F5007F0FD01F4B1B6803F403
:10264000C063B3F5806F34D01B4A136823F4C063B2
:1026500043F48063136000207047174B1B6803F43A
:10266000C063B3F5007F20D0134A136823F4C0631E
:1026700043F400731360114B1B68322202FB03F317
:102680000F4AA2FB03239B0C013300E0013B0A4AE3
:10269000526912F4806F01D0002BF7D1064B5B69B1
:1026A00013F4806F03D1002070470020704703208F
:1026B00070470020704700BF0070004000000020FD
:1026C00083DE1B43024A536843F4806353607047C0
:1026D0000070004030B583B00446204B9B6D13F072
:1026E000805F0BD0FFF79EFFB0F5007F17D0802CE6
:1026F0001FD82DD0702C2DD000211BE0174DAB6DB5
:1027000043F08053AB65AB6D03F080530193019BA5
:10271000FFF788FFAB6D23F08053AB65E4E7802CB7
:1027200003D9A02C03D9022104E0002102E00121F9
:1027300000E003210A4A136823F007030B431360E8
:10274000136803F007038B4206D1002003B030BDAD
:102750000221EFE70121EDE70120F7E70010024039
:1027600000200240284A9368D26802F0030213F066
:102770000C030AD00C2B06D0042B1FD0082B20D022
:102780000020024610E0012AF6D11F4A126812F01A
:10279000080F0CD11C4AD2F89420C2F303221B4923
:1027A00051F8222043B100200C2B0DD07047164A5F
:1027B0001268C2F30312F2E71046F5E7144800224C
:1027C000F2E714480022EFE70F4BDB6803F0030346
:1027D000022B03D0032B02D10E4A00E00C4A0A4917
:1027E000CB68C3F302130133C868C0F3062002FBB1
:1027F00000F0B0FBF3F0CB68C3F3416301335B003F
:10280000B0FBF3F0D2E700BF001002408859000887
:102810000024F40000127A00002800F01C83F0B5B8
:1028200083B00446964B9D6805F00C05DE6806F003
:102830000306036813F0100F5AD0E5B10C2D18D021
:10284000A369002B00F0BB808D4A136843F001039D
:102850001360FDF7C5FE0746894B1B6813F0020F96
:1028600040F09A80FDF7BCFEC01B0228F4D903207B
:10287000FCE2012EE4D1824B1B6813F0020F03D05F
:10288000A369002B00F0E982206A7D4B1B6813F0DE
:10289000080F5BD07A4B1B6803F0F00398425CD8BA
:1028A000774B1A6842F008021A601A6822F0F002A8
:1028B000216A0A431A605A6822F47F42E16942EAB7
:1028C00001225A60002D60D0FFF74CFF6C4B9B68D3
:1028D000C3F303136B4AD35C03F01F03D8406A4B66
:1028E00018606A4B1868FDF737FE002840F0BE827A
:1028F000236813F0010F00F08180082D75D00C2D96
:1029000071D06368B3F5803F00F09780B3F5A02FD6
:1029100000F099805A4B1A6822F480321A601A68C3
:1029200022F480221A606368002B00F09980FDF782
:1029300057FE0746524B1B6813F4003F5ED1FDF76C
:102940004FFEC01B6428F5D903208FE24C4BD3F80F
:1029500094301B0903F0F003A0E7FFF7BBFE00284B
:1029600040F07D82464B1A6842F008021A601A68ED
:1029700022F0F002216A0A431A605A6822F47F4268
:10298000E16942EA01225A609EE7206AFFF7A2FE4F
:10299000002899D0012069E2394B1A6842F00802F8
:1029A0001A601A6822F0F002216A0A431A605A6813
:1029B00022F47F42E16942EA01225A6098E7304AF4
:1029C000136823F001031360FDF70AFE07462C4B42
:1029D0001B6813F0020F8BD0FDF702FEC01B02280C
:1029E000F5D9032042E2032E8BD1254B1B6813F44B
:1029F000003F03D06368002B00F03382236813F09C
:102A0000020F58D0042D45D00C2D41D0E368002B87
:102A100077D01B4A136843F480731360FDF7E0FD21
:102A20000646174B1B6813F4806F61D1FDF7D8FD84
:102A3000801B0228F5D9032018E2114A136843F4D9
:102A4000803313606FE703F18043A3F53C331A68CA
:102A500042F480221A601A6842F480321A6062E7F7
:102A6000FDF7BEFD0746064B1B6813F4003FC5D0BB
:102A7000FDF7B6FDC01B6428F5D90320F6E100BFC1
:102A800000100240B8590008000000200800002093
:102A9000022EBBD1A44B1B6813F4806F03D0E368F4
:102AA000002B00F0E081A04A536823F0F85321691D
:102AB00043EA01635360236813F0080F4CD0636945
:102AC0009BB3994AD2F8943043F00103C2F8943092
:102AD000FDF786FD0646944BD3F8943013F0020FB1
:102AE0003AD1FDF77DFD801B0228F4D90320BDE11A
:102AF0008D4A536823F0F853216943EA0163536018
:102B0000D9E7894A136823F480731360FDF768FDE1
:102B10000646854B1B6813F4806FCCD0FDF760FD33
:102B2000801B0228F5D90320A0E17F4AD2F8943017
:102B300023F00103C2F89430FDF752FD06467A4BAC
:102B4000D3F8943013F0020F06D0FDF749FD801B37
:102B50000228F4D9032089E1236813F0040F7AD006
:102B6000714B9B6D13F0805F36D16F4B9A6D42F0C5
:102B700080529A659B6D03F080530193019B01265F
:102B80006A4B1B6813F4807F28D0A368012B39D0CF
:102B9000052B3FD0644BD3F8902022F00102C3F8FC
:102BA0009020D3F8902022F00402C3F89020A3686C
:102BB000002B3DD0FDF714FD07465B4BD3F890305A
:102BC00013F0020F46D1FDF70BFDC01B41F2883315
:102BD0009842F2D9032049E10026D1E7534A13680D
:102BE00043F480731360FDF7FBFC07464F4B1B68F3
:102BF00013F4807FC9D1FDF7F3FCC01B0228F5D97F
:102C0000032033E1484AD2F8903043F00103C2F880
:102C10009030CCE7444BD3F8902042F00402C3F844
:102C20009020D3F8902042F00102C3F89020BEE734
:102C3000FDF7D6FC07463C4BD3F8903013F0020F5B
:102C400008D0FDF7CDFCC01B41F288339842F2D981
:102C500003200BE1E6B9236813F0200F35D0636A37
:102C6000E3B1314AD2F8983043F00103C2F898300A
:102C7000FDF7B6FC06462C4BD3F8983013F0020F44
:102C800023D1FDF7ADFC801B0228F4D90320EDE031
:102C9000254A936D23F080539365DCE7224AD2F8EE
:102CA000983023F00103C2F89830FDF799FC0646EE
:102CB0001D4BD3F8983013F0020F06D0FDF790FCAF
:102CC000801B0228F4D90320D0E0A36A002B00F077
:102CD000CC80022B17D00C2D00F0CC80124A136848
:102CE00023F080731360FDF77BFC04460E4B1B68DA
:102CF00013F0007F00F0A880FDF772FC001B022893
:102D0000F4D90320B2E0084BDB6803F00301E26A68
:102D100091420DD00C2D00F0AB80034B1B6813F0DB
:102D2000806F2FD00120A1E0001002400070004011
:102D300003F07002216B0139B2EB011FEAD103F4F9
:102D4000FE42616BB2EB012FE4D103F07842A16B3C
:102D5000B2EBC16FDED103F4C001E26B5208013A5D
:102D6000B1EB425FD6D103F0C063226C5208013A46
:102D7000B3EB426FCED1404B1B6813F0007F49D0BC
:102D8000002073E03C4A136823F080731360FDF762
:102D900027FC0546384B1B6813F0007F06D0FDF773
:102DA0001FFC401B0228F5D903205FE0324AD3689C
:102DB00032491940E36A206B013843EA0013606B23
:102DC00043EA0023E06B4008013843EA4053206C9B
:102DD0004008013843EA4063A06B43EAC0631943EB
:102DE000D160136843F080731360D36843F080733D
:102DF000D360FDF7F5FB04461F4B1B6813F0007F03
:102E000006D1FDF7EDFB001B0228F5D903202DE0CC
:102E100000202BE0184B1A6842F080721A60DA68C2
:102E200042F08072DA60FDF7DBFB0446124B1B6850
:102E300013F0007F06D1FDF7D3FB031B022BF5D95E
:102E4000032013E0002011E00B4AD1680C4B0B402B
:102E5000D36000200AE001207047012006E0012035
:102E600004E0012002E0012000E0002003B0F0BDFA
:102E70000120FBE70120F9E7001002408C809D0152
:102E8000FCFFEEFE002800F0AF8070B50D46044652
:102E9000594B1B6803F007038B420BD2564A136849
:102EA00023F007030B431360136803F007038B42FF
:102EB00040F09C80236813F0020F0CD0A2684F4BA7
:102EC0009B6803F0F0039A4205D94C498B6823F0C4
:102ED000F0031A438A60236813F0010F39D0636846
:102EE000032B09D0022B26D063BB444A126812F090
:102EF000020F06D1012076E0404A126812F0007FEE
:102F000076D03E498A6822F0030213438B60FDF7B6
:102F100067FB0646394B9B6803F00C036268B3EB12
:102F2000820F16D0FDF75CFB801B41F2883398427C
:102F3000F0D9032057E0314A126812F4003FE0D183
:102F4000012050E02D4A126812F4806FD9D101207F
:102F500049E0236813F0020F0CD0A268274B9B684E
:102F600003F0F0039A4205D224498B6823F0F00362
:102F70001A438A60204B1B6803F00703AB420AD94F
:102F80001D4A136823F007032B431360136803F0F3
:102F90000703AB422ED1236813F0040F06D0174A63
:102FA000936823F4E063E1680B439360236813F0B4
:102FB000080F07D0114A936823F46053216943EA4C
:102FC000C1039360FFF7CEFB0C4B9B68C3F3031365
:102FD0000B4AD35C03F01F03D8400A4B18600A4B1E
:102FE0001868FDF7B9FA70BD012070470120FAE7B3
:102FF0000120F8E70120F6E700200240001002401F
:10300000B85900080000002008000020F8B5044668
:103010000D46594BDB6813F0030F18D0564BDB6895
:1030200003F003030268934202D001263046F8BD44
:10303000002A00F09C80504BDB68C3F3021301337D
:103040004268934201D00126F0E7002619E00368A8
:10305000022B55D0032B5AD0012B40F08A80464AD0
:10306000126812F0020F5ED04348C26822F0730269
:103070006168013943EA01131343C3600026002E3F
:10308000D4D13D4A136823F080631360FDF7A8FA9A
:103090000746394B1B6813F0006F05D0FDF7A0FA07
:1030A000C31B022BF5D90326002EBFD1002D3CD126
:1030B00031490B6923F0784323F4FE43A068E268AA
:1030C000D20642EA002213430B612B4A136843F0F5
:1030D00080631360FDF784FA0546274B1B6813F0E5
:1030E000006F05D1FDF77CFA401B0228F5D90326B5
:1030F000002E9BD1204A1369A1690B43136195E708
:103100001D4A126812F4806FAED101268EE71A4A6A
:10311000126812F4003FA7D1174A126812F4802FE8
:10312000A2D1012682E70126A9E7012D0FD012487E
:10313000026922F0C06222F4FE42A16863695B0862
:10314000013B5B0643EA01231A430261BDE70A48DB
:10315000026922F4C00222F4FE42A16823695B08DE
:10316000013B5B0543EA01231A430261ADE70126F7
:103170005CE701265AE700BF001002402DE9F0414C
:1031800082B00446036813F4006F26D0C36BB3F516
:10319000000F06D0B3F5400F1DD09BB10126374676
:1031A0001DE0AE4AD36843F48033D3600027AB4AB6
:1031B000D2F8883023F44003E16B0B43C2F8883027
:1031C00000260CE000210430FFF720FF074600280E
:1031D000EDD0064603E00027E9E7002637462368DE
:1031E00013F4003F6BD09D4B9B6D13F0805F4CD16F
:1031F0009A4B9A6D42F080529A659B6D03F0805312
:103200000193019B4FF00108954A136843F48073C2
:103210001360FDF7E5F90546914B1B6813F4807FB9
:1032200005D1FDF7DDF9401B0228F5D90327002F52
:1032300040D18A4BD3F8903013F4407315D0226DEF
:103240009A4212D0854AD2F8903023F44073D2F8D3
:10325000901041F48031C2F89010D2F8901021F40F
:103260008031C2F89010C2F8903013F0010F0FD1E6
:10327000002F40F0C980794AD2F8903023F440738F
:10328000216D0B43C2F8903015E04FF00008BBE70A
:10329000FDF7A6F90546714BD3F8903013F0020FF5
:1032A000E6D1FDF79DF9401B41F288339842F2D9EF
:1032B0000327DDE73E46B8F1000F40F0A780236802
:1032C00013F0010F08D0654AD2F8883023F00303C9
:1032D000216A0B43C2F88830236813F0020F08D02C
:1032E0005E4AD2F8883023F00C03616A0B43C2F8BF
:1032F0008830236813F0200F08D0584AD2F888305D
:1033000023F44063A16A0B43C2F88830236813F4A6
:10331000007F08D0514AD2F8883023F44023616BF3
:103320000B43C2F88830236813F4806F08D04B4AEF
:10333000D2F8883023F44013A16B0B43C2F88830D5
:10334000236813F0400F08D0444AD2F8883023F4A1
:103350004053E16A0B43C2F88830236813F4807F3E
:1033600008D03E4AD2F8883023F44033216B0B4317
:10337000C2F88830236813F4005F0FD0374AD2F8C0
:10338000883023F04063216C0B43C2F88830236CF3
:10339000B3F1006F40D0B3F1806F42D0236813F4D3
:1033A000802F0FD02D4AD2F8883023F04063616C13
:1033B0000B43C2F88830636CB3F1006F39D0B3F1BE
:1033C000806F3BD0236813F4804F0CD0234AD2F88F
:1033D000883023F04053A16C0B43C2F88830A36CB3
:1033E000B3F1805F32D0236813F4004F08D01B4A3A
:1033F000D2F8883023F08043E16C0B43C2F8883068
:10340000304602B0BDE8F0813E4654E7134A936D62
:1034100023F08053936552E7D36843F48013D3605D
:10342000BCE70121201DFFF7F1FD0028B6D00646BC
:10343000B4E7D36843F48013D360C3E70121201DB0
:10344000FFF7E4FD0028BDD00646BBE70221201DA2
:10345000FFF7DCFD0028C6D00646C4E70010024096
:103460000070004084B001A880E80E00002004B085
:10347000704703460020A3F844004BF68072A3F87F
:1034800040207047B0F8403023F47E535B045B0C5F
:10349000A0F84030002070470020704784B0844678
:1034A00001A880E80E000123ACF840300020ACF801
:1034B0004000ACF84400ACF8500004B0704710B5C0
:1034C000034691F800C030F82C2092B222F4EC426E
:1034D00022F0700292B2C878032861D8DFE800F0C9
:1034E000555C0258002048F2800E42EA0E0223F892
:1034F0002C2091F800C033F82C2092B222F4E04244
:1035000022F070024CEA020242EA0E0223F82C205A
:103510000A7B002A40F0DC804A78002A51D0B3F8B8
:10352000502013FA82F20C7802EBC402B1F806C004
:103530004FEA5C0C4FEA4C0CA2F800C40C7833F84C
:10354000242012F0400F0CD033F8242092B222F441
:10355000E04222F0700242F4004242F0C00223F83E
:103560002420CA78012A1DD0097833F8212092B28C
:1035700022F4E04222F0400282F0200242F40042B3
:1035800042F0800223F8212017E142F40072AAE7FA
:1035900042F4C0620020A6E742F480620020A2E765
:1035A0000120A0E7097833F8212092B222F4E0420A
:1035B00022F0400242F4004242F0800223F821202F
:1035C000FBE0B3F8502013FA82F20C7802EBC4024D
:1035D000B1F806C04FEA5C0C4FEA4C0CA2F804C4E8
:1035E000B3F8502013FA82F20C7802EBC402B2F85E
:1035F00006C4CCF3090CA2F806C40C693E2C39D9D8
:103600004FEA541E14F01F0F01D10EF1FF3EB2F825
:1036100006C41FFA8CFC4FEA8E2E1FFA8EFE4CEA6F
:103620000E0C4CF4004CA2F806C40C7833F824209D
:1036300012F4804F0CD033F8242092B222F4E042EE
:1036400022F0700242F4404242F0800223F824202B
:10365000097869BB33F8212092B222F4804222F02B
:10366000700282F4405242F4004242F0800223F899
:103670002120A2E04CB9B2F806446FEA44446FEA54
:103680005444A4B2A2F80644CFE74FEA540C14F015
:10369000010F01D00CF1010CB2F80644A4B24FEABC
:1036A0008C2C1FFA8CFC44EA0C04A2F80644BCE7FC
:1036B00033F8212092B222F4804222F0700282F488
:1036C000005242F4004242F0800223F8212074E0CC
:1036D000CA78022A72D00C7833F8242092B222F4ED
:1036E000E24222F0700242F4004242F0800223F8EB
:1036F0002420B3F8502013FA82F291F800C002EBB4
:10370000CC02B1F808C04FEA5C0C4FEA4C0CA2F8AE
:1037100000C4B3F8502013FA82F291F800C002EB13
:10372000CC02B1F80AC04FEA5C0C4FEA4C0CA2F88C
:1037300004C44A78002A50D10C7833F8242012F4BB
:10374000804F0CD033F8242092B222F4E04222F0D1
:10375000700242F4404242F0800223F824200C78A8
:1037600033F8242012F0400F0CD033F8242092B20A
:1037700022F4E04222F0700242F4004242F0C00221
:1037800023F8242091F800C033F82C2092B222F4C0
:10379000804222F0700282F4405248F280042243B8
:1037A00023F82C20097833F8212092B222F4E04249
:1037B00022F04002224323F8212010BD0C7833F878
:1037C000242092B222F4E04222F0700242F401423C
:1037D00042F0800223F824208BE70C7833F8242071
:1037E00012F4804F0CD033F8242092B222F4E0423D
:1037F00022F0700242F4404242F0800223F824207A
:103800000C7833F8242012F0400F0CD033F8242029
:1038100092B222F4E04222F0700242F4004242F0FE
:10382000C00223F82420CA78012A1ED00C7833F86D
:10383000242092B222F4E04222F0400282F02002E0
:1038400042F4004242F0800223F82420097833F841
:10385000212092B222F4804222F0700242F400420F
:1038600042F0800223F82120A7E70C7833F82420C7
:1038700092B222F4E04222F0400242F4004242F0CE
:10388000800223F82420E1E70B7B002B46D14B7804
:1038900013B30A7830F8223013F0400F0CD030F810
:1038A00022309BB223F4E04323F0700343F400433F
:1038B00043F0C00320F822300A7830F822309BB25F
:1038C00023F4E04323F0400343F4004343F0800338
:1038D00020F82230002070470A7830F8223013F4A4
:1038E000804F0CD030F822309BB223F4E04323F019
:1038F000700343F4404343F0800320F822300A78F9
:1039000030F822309BB223F4804323F0700343F459
:10391000004343F0800320F82230DBE74B78002B94
:103920004ED10A7830F8223013F4804F0CD030F8A2
:1039300022309BB223F4E04323F0700343F440436E
:1039400043F0800320F822300A7830F8223013F058
:10395000400F0CD030F822309BB223F4E04323F028
:10396000700343F4004343F0C00320F822300A7888
:1039700030F822309BB223F4E04323F0700343F489
:10398000004343F0C00320F822300A7830F8223098
:103990009BB223F4804323F0700348F2800C43EA87
:1039A0000C0320F822300A7830F822309BB223F43E
:1039B000E04323F0400343EA0C0320F8223089E778
:1039C0000A7830F8223013F4804F0CD030F82230CF
:1039D0009BB223F4E04323F0700343F4404343F0ED
:1039E000800320F822300A7830F8223013F0400F9C
:1039F0000CD030F822309BB223F4E04323F0700364
:103A000043F4004343F0C00320F822300A7830F832
:103A100022309BB223F4E04323F0700343F440438D
:103A200043F0800320F822300A7830F822309BB22D
:103A300023F4E04323F0400348F2800C43EA0C03F4
:103A400020F822300A7830F822309BB223F48043E9
:103A500023F0700343EA0C0320F822303AE74B7856
:103A60008BB10A7830F822309BB223F4E04323F084
:103A7000400383F0100343F4004343F0800320F835
:103A80002230002070470A7830F822309BB223F4AD
:103A9000804323F0700383F4805343F4004343F0E6
:103AA000800320F82230ECE70B7B002B4BD14B78C6
:103AB00033B30A7830F8223013F0400F0CD030F8CE
:103AC00022309BB223F4E04323F0700343F400431D
:103AD00043F0C00320F82230CB78012B33D00A7892
:103AE00030F822309BB223F4E04323F0400383F00C
:103AF000200343F4004343F0800320F8223022E007
:103B00000A7830F8223013F4804F0CD030F822308D
:103B10009BB223F4E04323F0700343F4404343F0AB
:103B2000800320F822300A7830F822309BB223F448
:103B3000804323F0700383F4405343F4004343F085
:103B4000800320F822300020704711B98023A0F8AC
:103B50004C3000207047B0F858306FEA43436FEAAA
:103B600053439BB2A0F8583000207047B0F858304B
:103B7000C3F30E03A0F8583000207047B0F844009B
:103B800080B270470020704701335B08024402F5A1
:103B9000806208E0087891F801C040EA0C2022F821
:103BA000020B0231013B002BF4D1704770B5054682
:103BB0000C464A78012A3BD00B7B002B40F0A682B2
:103BC0008B690A69934240F284829B1A8B61B5F833
:103BD000503015FA83F3217803EBC103B3F80614D0
:103BE000C1F30901A3F806143E2A40F27682510976
:103BF00012F01F0F00D10139B3F8062492B28902E6
:103C000089B20A4342F40042A3F80624227835F828
:103C100022309BB223F4804323F0700383F440539B
:103C200043F4004343F0800325F82230002070BDA8
:103C30008E6909698E4200D90E46237B73B3E378FF
:103C4000022B4DD0236A9B1B2362237835F8231067
:103C500011F0400F00F0F581002A40F0E281B5F844
:103C6000502015FA82F202EBC303B3F80624C2F324
:103C70000902A3F806243E2E40F2BA81710916F01B
:103C80001F0F00D10139B3F8062492B2890289B21C
:103C90000A4342F40042A3F80624CBE1B6B233460D
:103CA000E28861692846FFF76FFFB5F8503015FAD2
:103CB00083F3227803EBC203A3F80264227835F879
:103CC00022309BB223F4E04323F0400383F030031F
:103CD00043F4004343F0800325F822300020A6E798
:103CE000236A994280F06681227835F822309BB2AF
:103CF00023F4E04323F0700343F4014343F08003D3
:103D000025F82230236A9B1B2362237835F8232071
:103D100012F0400F00F0A7806278B2BBB5F85020D7
:103D200015FA82F202EBC303B3F80624C2F30902C8
:103D3000A3F806243E2E0FD9710916F01F0F00D1EB
:103D40000139B3F8062492B2890289B20A4342F4D7
:103D50000042A3F806241AE04EB9B3F806246FEA2D
:103D600042426FEA524292B2A3F806240FE0720870
:103D700016F0010F00D00132B3F8061489B2920296
:103D800092B20A43A3F8062401E0012A30D0B3B26C
:103D9000628961692846FFF7F7FE6369334463610E
:103DA000236A226993422DD99B1B23626378002BDF
:103DB00045D1B5F8503015FA83F3227803EBC203EE
:103DC000B3F80224C2F30902A3F802243E2E1DD93F
:103DD000710916F01F0F00D10139B3F8022492B215
:103DE000890289B20A4342F40042A3F8022428E07F
:103DF000B5F8502015FA82F202EBC303B2B2A3F871
:103E00000624C4E7002222621E46CFE74EB9B3F86B
:103E100002246FEA42426FEA524292B2A3F80224AD
:103E20000FE0720816F0010F00D00132B3F802144F
:103E300089B2920292B20A43A3F8022401E0012B54
:103E400006D0B3B2228961692846FFF79DFE35E7A7
:103E5000B5F8503015FA83F3227803EBC203B2B2FF
:103E6000A3F80224EDE76278B2BBB5F8502015FA4A
:103E700082F202EBC303B3F80224C2F30902A3F8EF
:103E800002243E2E0FD9710916F01F0F00D10139FF
:103E9000B3F8022492B2890289B20A4342F4004282
:103EA000A3F802241AE04EB9B3F802246FEA4242A2
:103EB0006FEA524292B2A3F802240FE0720816F0A1
:103EC000010F00D00132B3F8021489B2920292B20B
:103ED0000A43A3F8022401E0012A30D0B3B22289B8
:103EE00061692846FFF750FE636933446361236AC2
:103EF000226993422DD99B1B23626378002B45D105
:103F0000B5F8503015FA83F3227803EBC203B3F807
:103F10000624C2F30902A3F806243E2E1DD9710916
:103F200016F01F0F00D10139B3F8062492B28902AE
:103F300089B20A4342F40042A3F8062428E0B5F807
:103F4000502015FA82F202EBC303B2B2A3F80224A6
:103F5000C4E7002222621E46CFE74EB9B3F806241A
:103F60006FEA42426FEA524292B2A3F806240FE08F
:103F7000720816F0010F00D00132B3F8061489B2AE
:103F8000920292B20A43A3F8062401E0012B06D064
:103F9000B3B2628961692846FFF7F6FD8EE6B5F88F
:103FA000503015FA83F3227803EBC203B2B2A3F8C0
:103FB0000624EDE7217835F8212092B222F4E2427E
:103FC00022F0700242F4004242F0800225F82120E3
:103FD000B5F8502015FA82F2217802EBC1029BB2AB
:103FE000A2F80234228961692846FFF7CDFD65E613
:103FF0004EB9B3F806246FEA42426FEA524292B2D7
:10400000A3F8062416E0720816F0010F00D0013262
:10401000B3F8061489B2920292B20A43A3F80624B6
:1040200008E0B5F8502015FA82F202EBC303B2B2F1
:10403000A3F80624B3B2628961692846FFF7A4FD9C
:104040003CE6B2BBB5F8502015FA82F202EBC3038E
:10405000B3F80224C2F30902A3F802243E2E0FD9BA
:10406000710916F01F0F00D10139B3F8022492B282
:10407000890289B20A4342F40042A3F8022421E0F3
:104080004EB9B3F802246FEA42426FEA524292B24A
:10409000A3F8022416E0720816F0010F00D00132D6
:1040A000B3F8021489B2920292B20A43A3F802242E
:1040B00008E0B5F8502015FA82F202EBC303B2B261
:1040C000A3F80224B3B2228961692846FFF75CFD98
:1040D000F4E500228A611A4679E54AB9B3F8062464
:1040E0006FEA42426FEA524292B2A3F806248DE58B
:1040F000510812F0010F00D00131B3F8062492B23A
:10410000890289B20A43A3F806247FE5CB78022B03
:104110004DD0012B40F02F8189692369994240F2EB
:10412000E680C91AA161F2B9B5F8502015FA82F2F9
:10413000217802EBC102B2F80214C1F30901A2F81E
:1041400002143E2B40F2D780580913F01F0F00D104
:104150000138B2F8021489B2800280B2014341F4FE
:104160000041A2F802146278002A40F0F680B5F807
:10417000502015FA82F2217802EBC102B2F806143F
:10418000C1F30901A2F806143E2B40F2CD80590973
:1041900013F01F0F00D10139B2F806349BB2890227
:1041A00089B20B4343F40043A2F806342EE5F2B97A
:1041B000B0F8503010FA83F30A7803EBC203B3F877
:1041C0000224C2F30902A3F802240A693E2A31D963
:1041D000510912F01F0F00D10139B3F8022492B235
:1041E000890289B20A4342F40042A3F802246378A8
:1041F000002B51D1B5F8503015FA83F3227803EB38
:10420000C203B3F80624C2F30902A3F80624226904
:104210003E2A28D9510912F01F0F00D10139B3F8F5
:10422000062492B2890289B20A4342F40042A3F8FA
:10423000062433E04AB9B3F802246FEA42426FEA37
:10424000524292B2A3F80224D1E7510812F0010FB2
:1042500000D00131B3F8022490B28A0292B2024334
:10426000A3F80224C3E74AB9B3F806246FEA42422E
:104270006FEA524292B2A3F806240FE0510812F0FE
:10428000010F00D00131B3F8062490B28A0292B235
:104290000243A3F8062401E0012B1DD0E369002BA3
:1042A0003FF4B4AC227835F8221044F2400303EA1C
:1042B00001008B4302D000287FF4A8AC35F82230EF
:1042C0009BB223F4E04323F0700343F4004343F034
:1042D000C00325F8223099E4B5F8503015FA83F37D
:1042E000227803EBC203228AA3F80624D6E7002330
:1042F000A3610B4617E74BB9B2F802146FEA4141CC
:104300006FEA514189B2A2F802142CE7590813F060
:10431000010F00D00131B2F8020480B2890289B2E3
:104320000143A2F802141EE74BB9B2F806346FEA53
:1043300043436FEA53439BB2A2F8063466E459083C
:1043400013F0010F00D00131B2F8063498B28B029D
:104350009BB20343A2F8063458E4012A7FF456AC1A
:10436000B5F8502015FA82F2217802EBC1029BB217
:10437000A2F806344AE4012059E410B45C0802446F
:1043800002F5806207E032F8020B0870C0F30720E4
:1043900048700231013C002CF5D113F0010F01D01F
:1043A00013880B705DF8044B704710B5D0F8D43209
:1043B00003F1B00250F822408CB100EB8200436858
:1043C0007BB194F80002FF280DD09B6894F801227D
:1043D00021469847FF2384F80032002010BD0320B7
:1043E000FCE70020FAE70020F8E700000A2303803A
:1043F0000048704788000020F8B506460F4F82211C
:10440000384600F0E3FB05460121384600F0DEFBAC
:1044100004468121384600F0D9FB0DB11022AA7163
:104420001CB1402222710022627118B14022027137
:1044300000224271432333800048F8BD0C00002065
:10444000F8B506460F4F8221384600F0BFFB0546FF
:104450000121384600F0BAFB04468121384600F0BD
:10446000B5FB0DB11022AA711CB1402222710022AD
:10447000627118B1402202710022427143233380DD
:104480000048F8BD0C000020F8B506460F4F822109
:10449000384600F09BFB05460121384600F096FBAC
:1044A00004468121384600F091FB0DB11022AA711B
:1044B0001CB1002222710222627118B10022027125
:1044C00002224271432333800048F8BD0C000020D3
:1044D00038B5D0F8D432B03350F8235095B10446F3
:1044E00001F0C2F9C5F80C02D4F8D432B03304EBB1
:1044F00083046368DB6805F50371D5F80402984707
:10450000002038BD0320FCE738B5D0F8C852D0F8F9
:10451000D432B03350F8234084B301F00F0303EBDF
:10452000830200EB820292694AB103EB830C05EB34
:10453000CC05AD6BB2FBF5FC05FB1C2292B1002350
:10454000C4F81432D0F8D432B03300EB830043689F
:104550001B69ABB10A4604F50471D4F80802984708
:10456000002038BD03EB830300EB830300249C6130
:104570002346224601F05AF92046F2E70320F0E7ED
:104580000020EEE7F0B583B0D0F8D43203F1B002EA
:1045900050F8227000228DF80720ADF80420002F7B
:1045A0007BD004460D46097811F0600634D0202EE9
:1045B0006CD1EA882AB311F0800F07D16B7887F8A5
:1045C0000032EA883F2A13D8D2B212E0B03300EBAF
:1045D00083035B689B68394668789847EA88072AAE
:1045E00028BF07223946204600F0B2FE002651E0DF
:1045F000402287F801223946204600F0BEFE002600
:1046000048E0B03300EB83035B689B6800222946D7
:104610006878984700263DE06F780B2F31D8DFE8A7
:1046200007F006393030303030303030162690F810
:104630009C32DBB2032B04D0294600F004FB032696
:1046400028E0022201A900F083FE3E4622E090F815
:104650009C32DBB2032B04D0294600F0F4FA032687
:1046600018E001220DF1070100F072FE12E090F84F
:104670009C32DBB2032B0DD0294600F0E4FA03266E
:1046800008E0294600F0DFFA032603E0294600F09F
:10469000DAFA0326304603B0F0BD0326FAE738B550
:1046A0000446812101F06FF800252587012120466D
:1046B00001F069F8A4F878518221204601F063F8EE
:1046C000A4F84C50A4F84E50D4F8D43203F1B00200
:1046D00054F822209AB1B03304EB83035B685B6823
:1046E0009847D4F8D432B03354F8230001F0E8F8F6
:1046F000D4F8D432B03344F82350C4F8BC5200206C
:1047000038BD70B504464FF4077001F0D5F80028A5
:1047100049D005464FF40772002101F0FCF8D4F8A7
:10472000D432B03344F82350C4F8BC52237C002B5D
:1047300041D14FF4007302228121204601F011F88B
:10474000012626874FF4007302223146204601F0ED
:1047500008F8A4F878611023A4F84E300823032247
:104760008221204600F0FDFF0123A4F84C300026F2
:10477000C5F80462D4F8D432B03304EB83035B6829
:104780001B689847C5F81462C5F81862D5F804226A
:1047900062B3257C1DBB4FF400730121204601F05C
:1047A00054F8284670BDD4F8D432B033002244F80F
:1047B00023200225F5E7402302228121204600F034
:1047C000D0FF01262687402302223146204600F0F2
:1047D000C8FFA4F878611023A4F84E30BEE7402348
:1047E0000121204601F031F80025DAE70225D8E75B
:1047F00039B1D0F8D432B03300EB830041600020EF
:10480000704703207047D0F8D432B03350F82330CB
:104810002BB1C3F80812C3F8102200207047032000
:104820007047D0F8D432B03350F823301BB1C3F8FE
:104830000412002070470320704710B5D0F8D4321E
:10484000B03350F8232092B1047C44B94FF4007384
:10485000D2F80422012100F0F8FF204610BD4023C9
:10486000D2F80422012100F0F0FF0024F5E7032430
:10487000F3E798B108B503460020C3F8B802C3F8BF
:10488000C402C3F8D00209B1C3F8B412012183F8FD
:104890009C121A70184600F00FFF08BD03207047E5
:1048A00010B582B00023ADF8063089B10446C0F8D7
:1048B000B812CB6A23B10DF106009847C4F8D002B4
:1048C000D4F8D8320133C4F8D832002002B010BD79
:1048D0000320FBE708B500F035FF08BD08B5D0F8A8
:1048E000B83213B11B68984708BD0020FCE708B533
:1048F000D0F8B8325B68984700B908BD0320FCE7E0
:1049000038B5044600F2AA25284600F088F90123AC
:10491000C4F89432B4F8B032C4F8983294F8AA12B9
:1049200001F01F03012B07D0022B0AD073B92946CF
:10493000204600F05BFB38BD2946204600F091FB85
:10494000F9E72946204600F0CEFBF4E701F08001AC
:10495000204600F027FFEEE7F8B50446012380F873
:104960009C320023C0F894324360C0F8A43280F82F
:10497000A032D0F8B832DBB15B68DBB100219847D8
:104980000746C8B9402300221146204600F0E9FE40
:104990000126A4F864614025C4F860512B4600222A
:1049A0008021204600F0DDFEA68425623846F8BD51
:1049B0000027E7E70027E5E70327E3E70174002086
:1049C000704790F89C32DBB2042B04D090F89C32F4
:1049D000DBB280F89D32042380F89C3200207047BF
:1049E00090F89C32DBB2042B01D00020704790F885
:1049F0009D32DBB280F89C32F7E708B590F89C3224
:104A0000DBB2032B01D0002008BDD0F8B832002B58
:104A1000F9D0DB69002BF6D09847F4E70020704707
:104A20000020704738B504460D46002942D1134690
:104A3000D0F89422032A01D0084638BDD0F85C1182
:104A4000D0F86021914209D890F8AA3203F01F03F0
:104A5000012B0ED0022B1BD028460FE0891AC0F87C
:104A60005C118A4228BF0A46194600F095FC284688
:104A7000E3E790F8AE12FFF7D1FF20B994F89C322B
:104A8000DBB2032B09D0204600F08EFC2846D4E789
:104A900090F8AE12FFF7C4FFEFE700F1AE0354F851
:104AA00023301A69002AEED0C4F8D4021B692046CC
:104AB0009847E8E701F07F01FFF7B2FF90B994F85B
:104AC0009C32DBB2032BB8D100F1AE0354F8233093
:104AD0009A69002AB1D0C4F8D4029B6929462046BD
:104AE0009847AAE70020A8E738B504460D460029F4
:104AF0004BD11346D0F89422022A07D094F8A00292
:104B000018B1002384F8A032284638BDC269016A72
:104B10008A420ED88A4218D094F89C32DBB2032B1A
:104B200027D08021204600F03DFE204600F047FCC3
:104B3000E4E7521AC261194600F017FC00231A4636
:104B40001946204600F081FED8E783699942E3D8F0
:104B5000D0F898229342DFD20022114600F005FCE3
:104B60000021C4F898120B460A46204600F06DFE5C
:104B7000C4E7D4F8B832DA68002AD2D00022C4F8E8
:104B8000D422DB6820469847CBE741F08001FFF74D
:104B900047FF90B994F89C32DBB2032BB5D100F1FA
:104BA000AE0354F823305A69002AAED0C4F8D402B8
:104BB0005B69294620469847A7E70020A5E70B88B0
:104BC000027813440B8003781844704742880378B6
:104BD0009A4218D930B583B004460D46ADF8063078
:104BE0006388BDF806209A420AD20DF10601FFF74C
:104BF000E6FF4378052BF3D18378AB42F0D100E098
:104C0000002003B030BD002070470346002002E0C2
:104C10000130C0B201331A78002AF9D170470B78FD
:104C200003704B7843708B78CA7843EA0223438041
:104C30000B794A7943EA022383808B79CA7943EA64
:104C40000223C380704710B50446802100F0AAFDFE
:104C50000021204600F0A6FD10BD30B583B004460B
:104C60000D460023ADF806304A88130A013B0E2B8F
:104C700000F2BC80DFE803F0153044BABA9EABBA4C
:104C8000BABABABABABA0800D0F8B432DB6923B1FA
:104C90000DF10601007C98470AE02946FFF7D3FF93
:104CA00018E0D0F8B4321B680DF10601007C98477B
:104CB000EA88002A00F0A380BDF80630002B00F03F
:104CC00099809A4228BF1A46ADF806200146204630
:104CD00000F03EFB03B030BD037C43B9D0F8B832DE
:104CE0009B6A0DF10600984702234370E0E7D0F875
:104CF000B832DB6A0DF10600984702234370D7E70C
:104D0000D2B2052A52D8DFE802F003101D2A374438
:104D1000D0F8B4325B6823B10DF10601007C9847EE
:104D2000C6E72946FFF78FFFD4E7D0F8B4329B6877
:104D300023B10DF10601007C9847B9E72946FFF73A
:104D400082FFC7E7D0F8B432DB6823B10DF106016A
:104D5000007C9847ACE72946FFF775FFBAE7D0F823
:104D6000B4321B6923B10DF10601007C98479FE71F
:104D70002946FFF768FFADE7D0F8B4325B6923B18D
:104D80000DF10601007C984792E72946FFF75BFF8B
:104D9000A0E7D0F8B4329B6923B10DF10601007C85
:104DA000984785E72946FFF74EFF93E72946FFF727
:104DB0004AFF8FE7037C33B9D0F8B8325B6B0DF153
:104DC0000600984774E72946FFF73DFF82E7037C1A
:104DD00043B9D0F8B8321B6B0DF106009847072392
:104DE000437065E72946FFF72EFF73E72946FFF773
:104DF0002AFF6FE729462046FFF725FF6AE720468E
:104E000000F0D2FA66E738B504468B88FBB9CB8848
:104E1000EBB94B887F2B1AD803F07F0590F89C32B2
:104E2000DBB2032B0CD080F89E52294600F0EFFC39
:104E3000204600F0B9FA35B1022384F89C3209E02B
:104E4000FFF701FF06E0012384F89C3202E02046D0
:104E5000FFF7F9FE38BD000070B504460E468D78A8
:104E60002F4B1D70012D10D890F89C32DBB2022B15
:104E70000FD0032B26D0FFF7E6FE294B19782046EA
:104E8000FFF735FD0325284670BDFFF7DCFE03253F
:104E9000F9E7A5B145602946FFF720FD054638B181
:104EA00031462046FFF7CFFE022384F89C32EAE722
:104EB000204600F079FA032384F89C32E3E700F0FF
:104EC00073FAE0E7CDB141688D4225D0C9B2FFF752
:104ED0000EFD134B197861602046FFF7FFFC054675
:104EE000B0B131462046FFF7AEFE21792046FFF7EC
:104EF000FEFC022384F89C32C5E7022380F89C3232
:104F000045602946FFF7F3FC204600F04DFABAE76A
:104F1000204600F049FAB6E700F046FA0025B2E76D
:104F2000F001002008B5CB88012B0BD190F89C3202
:104F3000DBB2022B09D9032B11D10122011D00F094
:104F400007FA01E0FFF77FFE08BD5BB23BB1014607
:104F5000002341F8083F012200F0FAF9F4E7FFF7D7
:104F600072FEF1E708B590F89C32013B022B12D893
:104F7000CB88022B0CD10123C360D0F8A4320BB133
:104F80000323C360022200F10C0100F0E1F908BD27
:104F9000FFF759FEFBE7FFF756FEF8E708B54B8829
:104FA000012B04D0022B07D0FFF74DFE08BDC0F83F
:104FB000A43200F0F9F9F9E78B881B0A80F8A032D7
:104FC00000F0F2F9F2E708B590F89C32013B022BB1
:104FD00009D84B88012B00D008BD0023C0F8A432AB
:104FE00000F0E2F9F8E7FFF72EFEF5E738B50C78A8
:104FF00004F06004202C06D0402C04D06CB1FFF7E4
:1050000022FE002407E0D0F8D432AE3350F823302B
:105010009B6898470446204638BD4D78092D1DD819
:10502000DFE805F012191C161C08051C0F0BFFF712
:1050300014FEF0E7FFF7E7FEEDE7FFF70DFF04468C
:10504000E9E7FFF76FFFE6E7FFF78CFF2C46E2E7A3
:10505000FFF7A4FFDFE7FFF7B6FFDCE7FFF7F3FD9D
:10506000D9E770B505460C460B7803F06003202B9A
:1050700007D0402B05D023B1FFF7E5FD00263046D1
:1050800070BD95F89C32013B022B26D8217901296D
:1050900005D921462846FFF7D6FD0026EFE728462A
:1050A000FFF7BCFC68B900F1AE0255F82220916808
:1050B00089B1C5F8D4029368214628469847064628
:1050C00000E00326E388002BD9D1002ED7D1284653
:1050D00000F06AF9D3E70326F4E721462846FFF7F4
:1050E000B2FD0026CBE72DE9F04106460D468B8840
:1050F000DFB20C7804F06004202C08D0402C06D0DD
:10510000DCB1FFF7A0FD00242046BDE8F081394660
:105110003046FFF785FC0446002840F0F880C6F8CA
:10512000D40200F1AE0356F823309B68002BEBD07D
:105130002946304698470446E6E791F80180B8F1E1
:10514000010F31D0B8F1030F05D0B8F1000F67D0CF
:10515000FFF779FDD8E790F89C32DBB2022B04D040
:10516000032B12D0FFF76FFDCEE70FB1802F04D1D4
:1051700029463046FFF767FDC6E7394600F012FBC7
:105180008021304600F00EFBBEE74B8823B91FB1EB
:10519000802F01D0CB881BB1304600F005F9B3E772
:1051A000394600F0FFFAF7E790F89C32DBB2022BA9
:1051B00004D0032B12D0FFF746FDA5E70FB1802FD7
:1051C00004D129463046FFF73EFD9DE7394600F001
:1051D000E9FA8021304600F0E5FA95E74B88002B8C
:1051E00092D117F07F0F17D1304600F0DDF8394625
:1051F0003046FFF715FC002886D1C6F8D40200F12E
:10520000AE0256F822209268002A00F082802946D9
:1052100030469047044677E7394600F0D2FAE3E794
:1052200090F89C22D2B2022A05D0032A27D0FFF799
:105230000AFD444668E70FB1802F13D113F0800FA9
:1052400014D107F07F0707EB8707B90001F5A871B4
:105250003144043100230B600222304600F078F81C
:10526000444651E7FFF7EFFC44464DE707F07F0760
:1052700007EB8707B900103131440431EAE75BB22C
:10528000002B1FDB07F00F0202EB820200EB820211
:10529000B2F864211AB3002B25DB07F07F0303EB80
:1052A00083039C0004F5A874344404340FB1802FA8
:1052B00022D10023236002222146304600F048F824
:1052C000444621E707F00F0202EB820200EB820264
:1052D000928C002ADFD1FFF7B6FC444614E7FFF7B3
:1052E000B2FC444610E707F07F0303EB83039C0006
:1052F000103434440434D9E73946304600F070FAAB
:1053000010B101232360D6E700232360D3E70024F4
:10531000FAE60446F8E6D0B170B50D4616460446E6
:10532000FFF773FC431C5B009BB233802B7003239D
:105330006B70022307E0EA5401345A1CD2B20021F8
:10534000A9540233DBB22278002AF4D170BD704731
:1053500008B513460222C0F894228361C3610A464D
:10536000002100F063FA002008BD08B513460A4684
:10537000002100F05BFA002008BD08B513460322A7
:10538000C0F89422C0F85831C0F85C310A460021B8
:1053900000F05BFA002008BD08B513460A4600215C
:1053A00000F053FA002008BD08B50422C0F894228A
:1053B00000231A46194600F039FA002008BD08B546
:1053C0000522C0F8942200231A46194600F03DFA3F
:1053D000002008BD08B500220F491048FFF749FA20
:1053E00070B90F490D48FFF75BFA60B90D490B48DA
:1053F000FFF7FEF950B90948FFF76CFA48B908BD44
:10540000FAF74CFFEDE7FAF749FFEFE7FAF746FF47
:10541000F1E7FAF743FFF2E7E8000020F40100208B
:1054200050000020940000200020704700207047AA
:105430000020704710B50146044C2046FFF7F1F9F3
:105440002046FFF7FAF9002010BD00BFF40100204C
:1054500010B5064C002206492046FFF7D4F905494D
:105460002046FFF7DEF9002010BD00BFF401002048
:10547000D0040020D008002012230B800048704781
:10548000D400002004230B8000487047C400002093
:105490000C230B8000487047C80000200023934273
:1054A0001ED200B510E00CF1370C01F813C000015A
:1054B0004FEA430C0CF1010C4FF0000E01F80CE028
:1054C0000133DBB2934209D24FEA107CB0F1204F96
:1054D000E9D20CF1300C01F813C0E8E75DF804FBE9
:1054E0007047000038B50B4BD3F89005D3F89445BE
:1054F000D3F89835C01800D138BD074D0822294689
:10550000FFF7CCFF042205F110012046FFF7C6FF8C
:10551000F2E700BF0070FF1FAA00002008B51A23A1
:105520000B80FFF7DFFF014808BD00BFA800002087
:1055300008B50A4628B905490548FFF7ECFE0348B7
:1055400008BD02490248FFF7E6FEF8E7D00C00204C
:10555000C859000810B50A46034C21460348FFF716
:10556000DAFE204610BD00BFD00C0020E059000834
:1055700008B50A4628B905490548FFF7CCFE034897
:1055800008BD02490248FFF7C6FEF8E7D00C00202C
:10559000F459000808B50A4628B905490548FFF737
:1055A000BAFE034808BD02490248FFF7B4FEF8E717
:1055B000D00C0020005A000808B5FAF7B1FE08BD6B
:1055C00002680E4B9A4200D0704700B583B003F5D5
:1055D000D4339A6D42F080629A659B6D03F08063CC
:1055E0000193019B002211464320FBF7C3FD43209A
:1055F000FBF7D0FD03B05DF804FB00BF006800407E
:1056000008B500F52C71D0F8F402FFF779F908BD60
:1056100008B501EB810300EBC303D3F87C21D0F87C
:10562000F402FFF7FFF908BD08B501EB810300EBB9
:10563000C303DA6BD0F8F402FFF756FA08BD08B5D9
:10564000D0F8F402FFF7D9F908BD10B50446836815
:10565000022B09D10121D4F8F402FFF7AFF9D4F8F5
:10566000F402FFF779F910BDFAF718FEF2E700002F
:1056700010B50446D0F8F402FFF7A3F9A36923B1EB
:10568000024A136943F00603136110BD00ED00E008
:1056900010B50446836923B9D4F8F402FFF7A0F9E2
:1056A00010BD044A136923F006031361FFF784FF5A
:1056B000F2E700BF00ED00E010B50446FDF702F888
:1056C0001E48C0F8F442C4F8C8021D4B036008230A
:1056D0004360022383600361002343618361C361EC
:1056E0000362FCF712F830BB182300221146D4F8ED
:1056F000C802FCF764FF582300228021D4F8C802B6
:10570000FCF75DFFC02300228121D4F8C802FCF71A
:1057100056FF4FF4887300220121D4F8C802FCF729
:105720004EFF4FF4807300228221D4F8C802FCF7A8
:1057300046FF002010BDFAF7B1FDD5E7F0100020BC
:105740000068004008B5D0F8C802FCF76DF80328DF
:1057500005D8DFE800F003040203012008BD0320A0
:10576000FCE708B594461A466346D0F8C802FCF731
:10577000F7FD032805D8DFE800F003040203012049
:1057800008BD0320FCE708B5D0F8C802FCF726FEE8
:10579000032805D8DFE800F003040203012008BD58
:1057A0000320FCE708B5D0F8C802FCF791FE0328F7
:1057B00005D8DFE800F003040203012008BD032040
:1057C000FCE708B5D0F8C802FCF7BEFE032805D8F0
:1057D000DFE800F003040203012008BD0320FCE71A
:1057E000D0F8C83211F0800F08D101F07F0101EB31
:1057F000810103EBC10393F86A01704701F07F0157
:10580000013101EB810103EBC1039878704708B5C2
:10581000D0F8C802FCF7B7FC032805D8DFE800F091
:1058200003040203012008BD0320FCE708B5D0F8FB
:10583000C802FCF72BFE032805D8DFE800F00304BC
:105840000203012008BD0320FCE708B5D0F8C80218
:10585000FCF7F6FD032805D8DFE800F00304020397
:10586000012008BD0320FCE708B5D0F8C802FCF70A
:1058700004FE08BD10B5044669B1012911D1D0F864
:10588000F402FFF79EF8A3695BB10A4A136943F07B
:105890000603136105E0836923B9D4F8F402FFF726
:1058A0009FF810BDFFF788FE024A136923F0060334
:1058B0001361F2E700ED00E000487047D00E0020D1
:1058C00070470000DFF834D0FAF73CFE0C480D4971
:1058D0000D4A002302E0D458C4500433C4188C424B
:1058E000F9D30A4A0A4C002301E013600432A242B1
:1058F000FBD300F019F8FAF777FDFEE7000001206E
:105900000000002008010020205A000808010020A3
:10591000E8130020FEE702440346934200D170479B
:1059200003F8011BF9E7000070B50D4D0D4C641B29
:10593000A4100026A64209D10B4D0C4C00F018F81B
:10594000641BA4100026A64205D170BD55F8043B87
:1059500098470136EEE755F8043B98470136F2E7E1
:10596000105A0008105A0008105A0008145A00086B
:10597000F8B500BFF8BC08BC9E467047F8B500BF3C
:08598000F8BC08BC9E4670470C
:10598800A0860100400D0300801A060000350C00B7
:1059980040420F0080841E0000093D0000127A007A
:1059A8000024F40000366E010048E801006CDC02B7
:1059B80000000000000000000102030406070809B7
:1059C80053544D3332205669727475616C20436F9D
:1059D8006D506F727400000053544D6963726F65A7
:1059E8006C656374726F6E6963730000434443208F
:1059F800436F6E666967000043444320496E7465CF
:085A0800726661636500000095
:085A1000B501000800000000D0
:085A18009101000800000000EC
:105A200000093D00010000001000000009024300D1
:105A3000020100C032090400000102020100052435
:105A400000100105240100010424020205240600BF
:105A5000010705820308001009040100020A000082
:105A60000007050102400000070581024000000018
:105A7000034700089F460008854500080000000015
:105A8000AB43000809450008D144000800000000AD
:105A900000000000000000008944000841440008A4
:105AA000F9430008ED4300080A0600020000004028
:105AB0000100000051540008295400082D5400082A
:105AC00035540008315400081A030000000000009B
