:020000040800F2
:1000000000200020311B0008790500087B0500084E
:1000100000000000000000000000000000000000E0
:100020000000000000000000000000007D05000846
:1000300000000000000000007F05000881050008A6
:10004000811B0008811B0008811B0008811B000820
:10005000811B0008811B0008811B0008811B000810
:10006000811B0008811B0008811B0008811B000800
:10007000811B0008811B0008811B0008811B0008F0
:10008000811B0008811B000800000000811B000884
:10009000811B0008811B0008811B0008811B0008D0
:1000A000811B0008811B0008811B0008811B0008C0
:1000B000811B000800000000811B000800000000F8
:1000C0000023C25C0133002AFBD1581E7047000098
:1000D00003B47146490840004900095E49008E4456
:1000E00003BC7047002243088B4274D303098B4240
:1000F0005FD3030A8B4244D3030B8B4228D3030CF8
:100100008B420DD3FF22090212BA030C8B4202D399
:100110001212090265D0030B8B4219D300E0090AC1
:10012000C30B8B4201D3CB03C01A5241830B8B42CA
:1001300001D38B03C01A5241430B8B4201D34B03B3
:10014000C01A5241030B8B4201D30B03C01A524118
:10015000C30A8B4201D3CB02C01A5241830A8B429D
:1001600001D38B02C01A5241430A8B4201D34B0286
:10017000C01A5241030A8B4201D30B02C01A5241EA
:10018000CDD2C3098B4201D3CB01C01A524183099E
:100190008B4201D38B01C01A524143098B4201D3D8
:1001A0004B01C01A524103098B4201D30B01C01A03
:1001B0005241C3088B4201D3CB00C01A524183087D
:1001C0008B4201D38B00C01A524143088B4201D3AA
:1001D0004B00C01A5241411A00D20146524110460A
:1001E0007047FFE701B5002000F006F802BDC046E9
:1001F0000029F7D076E770477047C04610B5064C27
:100200002378002B07D1054B002B02D0044800E0D7
:1002100000BF0123237010BD5C000020000000001F
:10022000C8240008044B10B5002B03D00349044830
:1002300000E000BF10BDC0460000000060000020CC
:10024000C8240008F0B589B01422002103A801F0E9
:10025000B9FC184B5A69802189020A435A615A69CC
:100260000A400192019A5A69802109030A435A619E
:100270005B690B400293029BC427BF000E4D002216
:100280003900280000F0F6FA0126039690235B035C
:10029000049300240594902003A9C00500F026FAD9
:1002A000039704960594069403A9280000F01EFA0B
:1002B00009B0F0BD001002400008004872B6FEE729
:1002C00010B51048104B036082235B00436000238D
:1002D0008360E022D200C260036143618022920009
:1002E0008261F93AFF3AC261036243628362072185
:1002F000C1620363426300F0AFFF002800D110BD6C
:10030000FFF7DCFF000100200030014010B50B4872
:100310000B4B036096231B02436000238360C36082
:1003200003610C2242618361C3610362436201F095
:10033000C9FB002800D110BDFFF7C0FF78000020E6
:100340000038014000B597B0302200210AA801F022
:1003500039FC1022002106A801F034FC14220021EF
:1003600001A801F02FFC02230A9301220D920F3203
:100370000E921293A0239B0314930AA800F080FA14
:10038000002817D107230693053B07930023089302
:100390000993012106A800F0EBFC00280CD10123F1
:1003A00001930023039301A800F092FD002805D1DA
:1003B00017B000BDFFF782FFFFF780FFFFF77EFF5A
:1003C000F0B5C64600B58CB000F008F9FFF7BAFFEB
:1003D000FFF738FFFFF774FFFFF798FF01221021A6
:1003E000224800F047FA7F230293214E0023019315
:1003F00000937F22310004A801F0C4FB04A8FFF79A
:100400005FFE01277F4282B21A4D3B0004A92800FB
:1004100001F077FA154B984600221021180000F0E1
:1004200029FA03AC144800970423220002A900F023
:1004300095FF01221021404600F01CFA22786378D3
:10044000A178E07801900091310008A801F09AFBB2
:1004500008A8FFF735FE82B23B0008A9280001F08A
:1004600050FAFA20800000F0DBF8BCE700080048F2
:10047000E0240008780000200001002082B00A4B30
:10048000996901221143996199690A400092009A81
:10049000DA69802149050A43DA61DB690B4001937F
:1004A000019B02B07047C0460010024010B588B0F2
:1004B00004001422002103A801F084FB2268124BDF
:1004C0009A4201D008B010BD104B9A6980214901B1
:1004D0000A439A619A690A400192019A5A698021F5
:1004E00089020A435A615B690B400293029BE02335
:1004F0000393DE3B049301330693902003A9C005C8
:1005000000F0F4F8DEE7C046003001400010024081
:1005100010B588B004001422002103A801F052FB9A
:100520002268134B9A4201D008B010BD114B9A6952
:100530008021C9010A439A619A690A400192019A8D
:100540005A69802189020A435A615B690B40029310
:10055000029BC023DB000393022304930133069321
:10056000023B0793902003A9C00500F0BFF8DBE72A
:100570000038014000100240FEE7FEE77047704778
:1005800010B500F03BF810BD7047000010B5040036
:100590000F4B1978FA208000FFF7A4FD01000D4BE6
:1005A0001868FFF79FFD00F09DF800280DD1032C7F
:1005B00001D901200AE0013000222100404200F070
:1005C0008DF8054B1C60002000E0012010BDC046E6
:1005D00004000020000000200800002010B5064A9A
:1005E000136810210B4313600020FFF7CFFFFFF7C4
:1005F00045FF002010BDC04600200240034A11689C
:10060000034B1B785B1813607047C04664010020E1
:1006100004000020014B18687047C04664010020A8
:1006200070B50400FFF7F6FF0500631C02D0044B11
:100630001B78E418FFF7EEFF401BA042FAD370BD11
:100640000400002070B5002811DB8308134DC0336F
:100650009B005C5903221040C000FC32160086400B
:10066000B44389010A40824022435A5170BD0F238E
:100670000340083B9B0806339B00094A94466344A9
:100680005C6803221040C000FC3215008540AC437A
:1006900089010A40824022435A60E7E700E100E016
:1006A00000ED00E0013880235B0498420FD2094A34
:1006B00050600948036A1B021B0AC02109060B434C
:1006C000036200239360073313600020704701200A
:1006D000FCE7C04610E000E000ED00E010B5FFF7D9
:1006E000B1FF10BD10B5FFF7DDFF10BDF0B583B051
:1006F000002356E086685F000324BC40A643CC6814
:10070000BC4034438460446894434E6836090122F7
:1007100032409A402243426053E0DE080836B60079
:10072000375805321A4092000F249440A7430C69B1
:10073000944022003A43325056E0032600E000265F
:10074000A64034003C4302329200444E9451444A45
:100750009768EA433E00AE434C68E40201D53E0090
:100760002E433F4CA660E7683E0016404C68A4024A
:1007700001D53E002E433A4CE66067683E001640C5
:100780004C68A40301D53E002E43354C66602668B4
:1007900032404C68E40301D52A003243304C2260D9
:1007A00001330C682200DA4056D001229A4025001D
:1007B00015401442F4D04E6803243440013C012C0F
:1007C00098D94C6803222240032A08D0C4685E00EE
:1007D0000322B24094438A68B2402243C2604C680C
:1007E00003222240022A98D004685E0003221700E8
:1007F000B740BC434F683A40B240224302604C6865
:10080000C02292021442CBD0164CA6690122164394
:10081000A661A46922400192019A9A08941CA4003E
:100820000E4EA75903241C40A4000F26A640B74330
:100830009026F605B04282D00B4EB04208D00B4E47
:10084000B04207D00A4EB04200D176E7052677E7DE
:10085000012675E7022673E703B0F0BD00000140F2
:100860000004014000100240000400480008004855
:10087000000C0048002A01D0816170478162FCE7CA
:1008800070B582B0041E00D12EE20368DB0726D5C6
:10089000AE4B5A680C231340042B18D0AB4B5A684C
:1008A0000C231340082B0ED06368012B3CD0002B87
:1008B00051D1A64B1A68A6490A401A601A68A54980
:1008C0000A401A6036E0A14B5B68DB03ECD59F4B16
:1008D0001B689B0303D56368002B00D107E22368E4
:1008E0009B0772D5994B5B680C221A425DD0974BDF
:1008F0005A680C231340082B53D0E368002B00D117
:1009000085E0924A136801210B431360FFF782FED2
:1009100005008E4B1B689B0770D4FFF77BFE401BC6
:100920000228F6D90320E0E1884A116880235B029F
:100930000B4313606368002B25D0FFF76BFE0500A7
:10094000824B1B689B03CAD4FFF764FE401B6428DC
:10095000F6D90320C9E1052B09D07C4B1A687C49E4
:100960000A401A601A687B490A401A60E2E7774B2E
:1009700019688022D2020A431A6019688022520242
:100980000A431A60D6E7FFF745FE05006F4B1B6868
:100990009B03A4D5FFF73EFE401B6428F6D9032035
:1009A000A3E16A4B5B68DB03A7D4684B1B689B071A
:1009B00003D5E368012B00D09BE164490B68F82262
:1009C00093432269D20013430B6023681B0744D56D
:1009D000E369002B2ED05D4A536A01210B43536219
:1009E000FFF718FE0500594B5B6A9B0735D4FFF7EC
:1009F00011FE401B0228F6D9032076E153490B680B
:100A0000F82293432269D20013430B60DDE74F4A7B
:100A1000136801218B431360FFF7FCFD05004B4B6E
:100A20001B689B07D1D5FFF7F5FD401B0228F6D9BF
:100A300003205AE1454A536A01218B435362FFF771
:100A4000E9FD0500414B5B6A9B0706D5FFF7E2FD18
:100A5000401B0228F6D9032047E123685B0700D436
:100A600080E03A4BDB69DB001DD4384BDA6980212A
:100A700049050A43DA61DB690B400193019B0125BB
:100A8000354B1B68DB0510D5A368012B21D0002B4B
:100A900036D12E4B1A6A01218A431A621A6A03312F
:100AA0008A431A621AE00025EAE72B4A116880237C
:100AB0005B000B431360FFF7ADFD0600264B1B6880
:100AC000DB05E1D4FFF7A6FD801B6428F6D90320DF
:100AD0000BE11E4A136A01210B431362A368002B2A
:100AE00024D0FFF797FD0600184B1B6A9B0737D4ED
:100AF000FFF790FD801B194B9842F5D90320F4E0D5
:100B0000052B09D0114B1A6A01218A431A621A6A0D
:100B100003318A431A62E1E70C4B1A6A04210A4343
:100B20001A621A6A03390A431A62D7E7FFF772FD9D
:100B30000600064B1B6A9B0712D5FFF76BFD801B57
:100B4000064B9842F5D90320CFE0C0460010024082
:100B5000FFFFFEFFFFFFFBFF007000408813000057
:100B6000012D33D02368DB0610D56369012B33D008
:100B7000053351D1654A536B04218B435363536B47
:100B8000F4318B43A169C9000B435363236A002BE3
:100B900000D1B0E05D4A51680C220A40082A00D119
:100BA0008AE0022B4FD0594A136859490B40136011
:100BB000FFF730FD0400554B1B689B017AD5FFF70A
:100BC00029FD001B0228F6D903208EE04F4AD36985
:100BD00050490B40D361C5E74C4B5A6B04210A4383
:100BE0005A635A6B03390A435A63FFF713FD050032
:100BF000464B5B6B9B0706D4FFF70CFD401B02289E
:100C0000F6D9032071E041494B6BF8229343A26966
:100C1000D20013434B63B9E73C4B5A6B04210A43A0
:100C20005A635A6B03398A435A63FFF7F3FC050092
:100C3000364B5B6B9B07A9D5FFF7ECFC401B0228EA
:100C4000F6D9032051E0314A136831490B40136053
:100C5000FFF7E0FC05002D4B1B689B0106D5FFF755
:100C6000D9FC401B0228F6D903203EE0274BDA6A64
:100C70000F218A43E16A0A43DA625A6826490A4028
:100C8000A16A606A01430A435A60196880225204CB
:100C90000A431A60FFF7BEFC04001C4B1B689B0153
:100CA00006D4FFF7B7FC001B0228F6D903201CE08E
:100CB00000201AE0002018E0012B1ED0134B5A68C8
:100CC000D86A80235B021340616A8B4217D10F23DD
:100CD0000340E16A8B4214D1F0239B031A40A36ABC
:100CE0009A4210D1002000E0012002B070BD012026
:100CF000FBE70120F9E70020F7E70120F5E70120F5
:100D0000F3E70120F1E70120EFE7C04600100240C1
:100D1000FFFFFFFEFFFFFFEFFFFFC2FF10B5104B0D
:100D20005A680C231340082B01D00E4810BD910CBB
:100D3000073319400C48445C0949C96A0B400B4908
:100D4000C95CD20304D50748FFF7CCF96043EDE74F
:100D50006201121B93019B1ADB001B191802E5E7C5
:100D60000010024000127A001C2500080C25000823
:100D700070B504000D00002800D17EE0434B1A68D6
:100D8000012313408B420AD240490B68012293434E
:100D90002B430B600B681A40AA4200D06FE0236817
:100DA0009A070ED55B0705D5394A5168E023DB0069
:100DB0000B435360364A5368F0218B43A1680B43C1
:100DC00053602368DB072DD56368012B1ED0022BEF
:100DD00022D02F4A1268920753D52D494A68032022
:100DE000824313434B60FFF715FC0600284B5B68FA
:100DF0000C221A4063689B009A4213D0FFF70AFC4A
:100E0000801B244B9842F1D9032035E0204A126818
:100E10009203E2D401202FE01D4A12689201DCD433
:100E2000012029E0194B1A6801231340AB4209D96C
:100E300016490B68012293432B430B600B681A4041
:100E4000AA4220D123685B0706D5114A536812498C
:100E50000B40E1680B435360FFF760FF0C4B5A688F
:100E600012090F2313400D4AD35CD8400C4B186075
:100E70000020FFF78BFB002070BD0120FCE7012064
:100E8000FAE70120F8E70120F6E7C046002002401B
:100E90000010024088130000FFF8FFFFFC24000848
:100EA00000000020014B18687047C0460000002079
:100EB00010B5FFF7F7FF044B5A68120A07231340D7
:100EC000024AD35CD84010BD00100240F424000850
:100ED00070B582B004000368DB0339D5434BDB698E
:100EE000DB0055D4414BDA69802149050A43DA61B8
:100EF000DB690B400193019B01253D4B1B68DB0522
:100F000048D53A4B1A6AC0239B00110019401A4277
:100F100015D06368C022920013408B420FD0334B30
:100F20001A6A344911401E6A802040023043186218
:100F3000186A314E304018621962D2073ED42B4AEB
:100F4000136A2C490B4061680B431362012D44D096
:100F50002368DB0706D5254A136B03218B43A16861
:100F60000B43136323689B0606D5204A136B10219D
:100F70008B43E1680B43136323685B0532D51B4A3F
:100F8000136B40218B4321690B43136300202AE03C
:100F90000025B2E7164A116880235B000B431360FB
:100FA000FFF738FB0600124B1B68DB05A9D4FFF7DF
:100FB00031FB801B6428F6D9032014E0FFF72AFBDD
:100FC00006000A4B1B6A9B07B9D4FFF723FB801B63
:100FD0000A4B9842F5D9032005E0D36908490B4034
:100FE000D361B5E7002002B070BDC04600100240DA
:100FF00000700040FFFCFFFFFFFFFEFF88130000B2
:10100000FFFFFFEFF0B5D6464F464646C0B582B06B
:1010100006000D0090461F00FFF7FCFA0A9B181A05
:101020008146B944FFF7F6FA82462C4B1B685B01F8
:101030001B0D4A465343019333689C682C40641B44
:1010400063425C41444542D07B1CF5D0FFF7E2FA95
:101050005346C01A484508D2019A002A00D04A4691
:10106000019B013B01939146E6E732685368E0211A
:101070008B435360726882235B009A420CD0B26A41
:1010800080239B019A4216D05D230122F254013B3A
:101090000022F25403201BE0B36880221202934224
:1010A00003D08022D2009342E9D1326813684021F4
:1010B0008B431360E3E73268136809490B40136000
:1010C0003268116880239B010B431360DCE700202A
:1010D00002B0E0BCBA46B146A846F0BD0000002010
:1010E000FFDFFFFFF0B5DE4657464E464546E0B50A
:1010F00083B007000D00160098466B460022DA7098
:10110000FFF788FA0C9B181A40448146FFF782FAD1
:1011100082463B689B46344B1B689A00D218D3002A
:101120009B1A1B0D4A465343019302E04346013389
:1011300011D13B689C682C40B4424DD0C023DB00E9
:101140009D42F3D1002EF1D15B461B7BDBB26A4698
:10115000D370D378EAE7FFF75DFA5346C01A4845E3
:1011600008D2019A002A00D04A46019B013B019314
:101170009146DEE73A685368E0218B4353607A6812
:1011800082235B009A420CD0BA6A80239B019A4268
:1011900016D05D230122FA54013B0022FA540320A9
:1011A0001BE0BB6880221202934203D08022D2004F
:1011B0009342E9D13A68136840218B431360E3E717
:1011C0003A68136809490B4013603A681168802334
:1011D0009B010B431360DCE7002003B0F0BCBB466F
:1011E000B246A946A046F0BD00000020FFDFFFFF89
:1011F00070B582B004000D001600C02100922B00D3
:1012000000224901FFF76EFF002818D100962B003D
:10121000002280212000FFF7F5FE002816D1C02112
:1012200000962B000022C9002000FFF75BFF00287A
:101230000AD0236E202213432366032004E0236E8A
:10124000202213432366032002B070BD236E2022A8
:10125000134323660320F7E770B5041E00D178E03E
:10126000436A002B07D142680533FF339A4205D009
:101270000023C36102E00023036143610023A362F2
:101280005D33E35C002B5AD05D230222E2542268D6
:10129000136840218B431360E368E022D20093423D
:1012A00054D90022F02109018B4205D0E021C90068
:1012B0008B4201D00023A3626368822149000B4066
:1012C000A1688420000201400B43206902210140F3
:1012D0000B436069012108400343A0698025AD00EC
:1012E00028400343E569382028400343256A8020CD
:1012F00028400343A06A8025AD01284025680343A8
:101300002B60608B04230340656A10202840034350
:10131000656B082028400343E068F0252D01284034
:1013200003432068134343602268D3690A4803409B
:10133000D361002323665D33E154002070BD5C332C
:101340000022E2542000FFF7B1F89DE7802252010D
:10135000A8E70120F2E7C046FFF7FFFFF0B583B032
:101360000400009101921E00089D5C23C35C012BC8
:1013700000D11EE15C230122C254FFF74BF90700A4
:101380005D23E35CD9B26268012B0BD082235B0042
:101390009A4200D0FBE0A368002B00D0FDE00429B6
:1013A00000D0FCE0009B002B00D1FAE0019B002B59
:1013B00000D1F8E0002E00D1F7E05D23E35C042BC0
:1013C00002D05D230522E25400232366019A2264A1
:1013D0004622A652023AA652009AA263E687A68740
:1013E000E3642365E268E023DB009A4223D92268A4
:1013F000536871490B40536023681A68520603D43E
:101400001A6840210A431A60E268E023DB009A422E
:1014100058D96368002B01D0012E0AD1A26B236832
:101420001288DA60A36B0233A363E38F013B9BB2A4
:10143000E38701262DE02268516880235B010B437E
:101440005360D9E7A36B1B88D360A36B0233A363FC
:10145000E38F013B9BB2E387002622689368DB079A
:1014600010D54623E35A9BB2002B0BD0D268236CD5
:101470001A80236C023323644622A35A013B9BB299
:10148000A3520126FFF7C6F8C01BA84201D36B1C6C
:1014900013D1E38F9BB2002B04D14633E35A9BB2A6
:1014A000002B63D0226893689B07D6D5E38F9BB24D
:1014B000002BD2D0012ED0D1C4E75D230122E2540B
:1014C000032065E06368002B01D0012E0AD1A26BD6
:1014D000236812781A73A36B0133A363E38F013B74
:1014E0009BB2E38701261DE022689368DB0710D5D5
:1014F0004623E35A9BB2002B0BD0236C127B1A704D
:10150000236C013323644622A35A013B9BB2A352AE
:101510000126FFF77FF8C01BA84201D36B1C20D126
:10152000002D1ED0E38F9BB2002B04D14633E35A2B
:101530009BB2002B1AD0226893689B07D4D5E38F07
:101540009BB2002BD0D0012ECED1A36B1B7813738E
:10155000A36B0133A363E38F013B9BB2E3870026B8
:10156000C2E75D230122E254032011E03A00290082
:101570002000FFF73DFE002802D020232366012033
:10158000236E002B13D15D330122E25400E00220D0
:101590005C230022E25403B0F0BD0220F8E70220F1
:1015A000F6E70120F4E70120F2E70120F0E701204F
:1015B000EEE70220EFE7C046FFEFFFFF10B5EFF3C5
:1015C000108C012282F3108801680B68124C2340B2
:1015D0000B608CF31088EFF3108C82F31088016895
:1015E0008B6893438B608CF31088036E012B06D0BD
:1015F00080232022C25000230366836610BDEFF3D0
:10160000108183F31088026813683234FF34A343D7
:10161000136081F31088EBE7DFFEFFFF10B50400D5
:1016200083680269134342691343C2691343016823
:101630000A684E48024013430B60226853684C49C5
:101640000B40E1680B435360A369226A1A43216887
:101650008B684848034013438B602368464A934293
:1016600011D0464A93421FD01023E0698022120213
:10167000904223D0042B6AD04ED8002B53D0022B9B
:1016800048D13F4853E03F4B1A6B03231340022BD2
:101690000CD005D8002B0BD0012B0BD10333E4E782
:1016A000032B09D1013BE0E70023DEE70823DCE759
:1016B0000023DAE71023D8E71023D6E7042B26D03F
:1016C00007D8002B09D0022B01D12D4809E00120B9
:1016D00047E0082B05D0012043E0FFF7E9FB002895
:1016E00038D0400061684B08C018FEF7FBFC0200D0
:1016F000103A254B9A422FD882B20F239A434008C2
:10170000083B034013432268D360002029E0FFF721
:1017100005FBE4E7012024E0082B02D18020000231
:1017200005E001201DE0FFF7C3FB002816D061682B
:101730004B081818FEF7D6FC0200103A124B9A42DA
:101740000ED823680004000CD860002009E0FFF7E1
:10175000E5FAEAE7002004E0012002E0002000E0D2
:1017600001200023A366E36610BDC046F369FFFFB6
:10177000FFCFFFFFFFF4FFFF0038014000440040AF
:1017800000127A0000100240EFFF0000436ADB07FE
:1017900006D5026853682C490B40816A0B4353609D
:1017A000436A9B0706D50268536828490B40C16A03
:1017B0000B435360436A5B0706D5026853682449AC
:1017C0000B40016B0B435360436A1B0706D502684D
:1017D000536820490B40416B0B435360436ADB065F
:1017E00006D5026893681C490B40816B0B439360DC
:1017F000436A9B0606D50268936818490B40C16B83
:101800000B439360436A5B060BD502685368144927
:101810000B40016C0B435360026C80235B039A42C4
:101820000AD0436A1B0606D5026853680D490B406F
:10183000816C0B4353607047026853680A490B4040
:10184000416C0B435360ECE7FFFFFDFFFFFFFEFF22
:10185000FFFFFBFFFF7FFFFFFFEFFFFFFFDFFFFF4C
:10186000FFFFEFFFFFFFF7FFFFFF9FFFF8B5CE463B
:10187000474680B506000D0017009946089B98461C
:101880003368DC692C40641B63425C41BC422FD14D
:1018900043460133F4D0FEF7BDFE4B46C01A404527
:1018A0002BD84346002B2AD033681A685207E7D555
:1018B000DA69120710D4DA691205E1D58022120123
:1018C0001A623000FFF77AFE84232022F2500C3B8C
:1018D0000022F25403200CE008241C623000FFF7C1
:1018E0006DFE8423F4500C3B0022F254012000E0F2
:1018F0000020C0BCB946B046F8BD0320F9E703207C
:10190000F7E7F0B5C64600B582B004000D0090467A
:101910001E00C36F202B62D1002965D0002A65D03C
:10192000826880235B019A4204D10369002B01D1B4
:10193000CB075DD484230022E250633BE367FEF7CC
:1019400069FE070050234246E2520233E252A26887
:1019500080235B019A4202D0002398461AE0236953
:10196000002B02D00023984614E0A846002511E081
:101970002023E367032033E043461B882268DB050E
:10198000DB0D138502239C46E0445223E25A013AC0
:1019900092B2E2525223E35A9BB2002B0FD0009630
:1019A0003B00002280212000FFF760FF0028DFD1EC
:1019B000002DE1D02A7823681A850135E5E70096E5
:1019C0003B00002240212000FFF750FF002802D1F9
:1019D0002023E36704E02023E367032000E00220E4
:1019E00002B080BCB846F0BD0120F9E70120F7E75E
:1019F0000120F5E730B583B0040084230022C250F3
:101A0000FEF708FE050023681B681B070FD4236838
:101A10001B685B0729D42023E3678022A35000239F
:101A200023666366083AA354002003B030BD8021CA
:101A3000224B00930300002289032000FFF716FFCA
:101A40000028E4D0EFF31081012383F3108822688B
:101A5000136880208343136081F310882023E36799
:101A600058330022E2547D38DFE78021134B009386
:101A70002B000022C9032000FFF7F8FE0028CAD07F
:101A8000EFF31080012282F3108821680B680C4D5F
:101A90002B400B6080F31088EFF3108082F31088E6
:101AA00021688B6893438B6080F3108880231F32FA
:101AB000E250083B0022E2540320B6E7FFFFFF019B
:101AC000DFFEFFFF10B5041E2ED0C36F002B21D008
:101AD0002423E3672268136801218B4313602000ED
:101AE000FFF79CFD012814D0636A002B18D12268EF
:101AF00053680E490B405360226893682A218B4338
:101B000093602268136829390B4313602000FFF7A4
:101B100071FF10BD78330022C254FEF7F9FCD7E7FD
:101B20002000FFF733FEE2E70120F2E7FFB7FFFFF7
:101B30000D488546FEF728FD0C480D490D4A002347
:101B400002E0D458C4500433C4188C42F9D30A4A72
:101B50000A4C002301E013600432A242FBD300F0E0
:101B600039F8FEF72DFCFEE70020002000000020E1
:101B70005C000020682500085C000020B402002002
:101B8000FEE700000EB400B50B499CB01DAB0290FF
:101B90000690079104910948094904CB0591006812
:101BA00002A9019300F098F90022029B1A701CB060
:101BB00008BC03B01847C046FFFFFF7F0C000020A1
:101BC0000802FFFF03008218934200D1704719708A
:101BD0000133F9E770B500260C4C0D4D641BA410C1
:101BE000A64209D1002600F06FFC0A4C0A4D641B86
:101BF000A410A64205D170BDB300EB58984701363A
:101C0000EEE7B300EB5898470136F2E7602500088D
:101C100060250008642500086025000870477047AB
:101C200070B505000C1E10D0043C2368002B00DAB0
:101C3000E418280000F0E0F81D4A1368002B05D1D5
:101C400063601460280000F0DFF870BDA34208D97B
:101C5000206821188B42F3D119685B68091821604C
:101C6000EEE71A005B68002B01D0A342F9D9116896
:101C70005018A0420BD120680918501811608342F7
:101C8000E0D118685B68411811605360DAE7A04240
:101C900002D90C232B60D5E7206821188B4203D191
:101CA00019685B680918216063605460CAE7C04620
:101CB000AC02002070B50F4E0D0031680400002901
:101CC00002D100F095FB30602900200000F090FB6D
:101CD000431C03D101256D42280070BD0323C51CA0
:101CE0009D43A842F8D0291A200000F081FB013062
:101CF000F2D1EFE7A8020020F7B50322CB1C9343F3
:101D0000083305001F000C2B34D20C27B94233D8FE
:101D1000280000F071F8374E33681C00002C2FD1DA
:101D200039002800FFF7C6FF0400431C5FD1346868
:101D30000094009B002B4AD1002C52D0236828002D
:101D4000E3180099019300F053FB019B834248D1B3
:101D500023682800FF1A3900FFF7ACFF013040D09C
:101D60002368DB19236033685A68002A33D1009B4B
:101D7000336019E0002BC9DA0C232B600020FEBD74
:101D80002168C91B20D40B290AD9E2192760A34274
:101D900004D1326063681160536005E05A60F9E76E
:101DA0006268A3420ED13260280000F02DF82000B6
:101DB00007220B30231D9043C21A9842DFD01B1A12
:101DC000A350DCE75A60EFE723006468A6E7009CB5
:101DD00063680093ADE71A005B68A342FBD1002360
:101DE000DAE70C2328002B6000F00EF8C6E7076046
:101DF000DAE7C046AC02002010B50248FFF70EFF3C
:101E000010BDC046A402002010B50248FFF707FF2E
:101E100010BDC046A4020020F0B58E6885B01F003A
:101E20000C000B6802900392BE4230D80C21625E17
:101E30009021C9000A4228D0032021695B1A01932E
:101E4000636943430198DD0FED187B1C1B186D106F
:101E5000AB4200D91D00520528D529000298FFF792
:101E60004BFF061E2CD0019A216900F0DEFAA289F0
:101E7000184B1A4080231343A381019B2661F61857
:101E800026603E006561ED1AA560BE4200D93E00A5
:101E900032000399206800F099FA0020A3689B1B88
:101EA000A36023689B19236005B0F0BD2A00029847
:101EB00000F0C4FA061EE0D121690298FFF7B0FED7
:101EC0000C230120029A40421360A2893433134349
:101ED000A381E9E77FFBFFFFF0B5A1B003901D00F0
:101EE0008B890F0016001B0611D50B69002B0ED134
:101EF0004021FFF701FF38603861002805D10C232D
:101F0000039A136001204042CFE040237B6100230D
:101F100008AC6361203363761033A37607953500F0
:101F20002B78002B01D0252B48D1AB1B0593B54254
:101F30000BD0320039000398FFF76EFF013000D15B
:101F4000AEE06369059A9B1863612B78002B00D182
:101F5000A6E0012200235242626004A954325218C2
:101F60006E1C2360E360A3601370A365544B0522CD
:101F700018003178059300F04DFA751C00281FD128
:101F80002268D30604D5532304A95B1820211970B5
:101F9000130704D5532304A95B182B211970337838
:101FA0002A2B16D0350000210A20E3682A786E1CFF
:101FB000303A092A50D9002911D117E00135AFE78D
:101FC000059B2268C01A0123834013432E0023601F
:101FD000CCE7079B191D1B680791002B01DB0B93B6
:101FE00004E05B42E3600223134323602B782E2B33
:101FF0000CD16B782A2B34D1079B02351A1D1B6834
:102000000792002B01DA01235B4209932D4E032234
:102010003000297800F0FEF9002806D04023801B0C
:10202000834022680135134323602978062226481D
:102030006E1C217600F0EEF9002838D0234B002BDF
:1020400022D10722079B0733934308330793636921
:10205000049A9B18636162E74343350001219B1892
:10206000A4E700230A201900013563602A786E1C5A
:10207000303A092A03D9002BC8D00991C6E7414359
:10208000350001238918F1E707AA009221003A00E0
:102090000F4B039800E000BF0490049B0133D6D19E
:1020A000BB890D985B0600D52CE721B0F0BD07AACF
:1020B000009221003A00064B039800F07BF8EBE712
:1020C0002C250008322500083625000800000000F5
:1020D000191E0008F7B5160001938A680B690C00F9
:1020E0000090934200DA13002200336043321278EA
:1020F000002A01D00133336023689B0602D5336880
:10210000023333602268062315001D401A4227D08F
:10211000230043331B785A1E93412268920630D421
:10212000220001990098089D4332A847013025D02C
:102130000622236800251340042B05D13368E56887
:10214000ED1AEB43DB171D40A3682269934201DDC2
:102150009B1AED180026B54220D1002010E0013571
:10216000E36832689B1AAB42D2DD22000123019959
:102170000098089F1932B8470130F0D10120404241
:10218000FEBD3020E1184331087021005A1C453152
:102190000978A218433202331170C1E722000123EB
:1021A00001990098089F1A32B8470130E6D00136ED
:1021B000D1E70000F0B58BB006920A0043320793D6
:1021C000059003920A7E0C00109B782A09D8622A97
:1021D0000BD8002A00D1BAE07A490491582A00D1DC
:1021E0008EE0250042352A7022E010006338152861
:1021F000F7D8FDF76DFF16001F00F6FFF6FFF6FF9C
:10220000F6FF1F00F6FFF6FFF6FFF6FF9F00360011
:102210007E00F6FFF6FFB000F6FF3600F6FFF6FF91
:10222000820025001A684235111D196013682B7051
:1022300001239EE018680968021D0D060BD506688B
:102240001A60002E03DA2D23039A764213705D4B39
:102250000A27049318E006681A604906F1D536B2D9
:10226000EFE70868196840C9050602D4400600D5A2
:10227000B6B21960534B0A2704936F2A00D1023F6C
:102280002300002243331A706368A360002B06DB2F
:1022900004212268039D8A43226033430CD0039DAE
:1022A00030003900FDF7A4FF049B013D5B5C2B70FF
:1022B000330006009F42F3D9082F09D12368DB07BA
:1022C00006D5626823699A4202DC3023013D2B70F7
:1022D000039B5B1B2361079B210000930598069BD2
:1022E00009AAFFF7F7FE013048D1012040420BB0A8
:1022F000F0BD202209680A43226078223249049105
:10230000210045310A701968226840C9100602D4BC
:10231000500600D5B6B21960D30702D52023134367
:102320002360002E01D01027AAE7202223689343C0
:102330002360F8E71A680D68101D49691860136872
:102340002E0601D5196002E06D06FBD51980002329
:10235000039D2361BFE71A68111D196015680021EC
:102360002800626800F056F8002801D0401B606029
:10237000636823610023039A1370ACE72A00236982
:1023800006990598079DA8470130AED023689B07A2
:1023900015D4099BE0689842A9DA1800A7E7220043
:1023A000012306990598079E1932B04701309CD049
:1023B0000135E368099A9B1AAB42F0DCE9E7002596
:1023C000F7E7C0463D2500084E25000810B58842B5
:1023D00002D98B18984208D300239A4207D0CC5CCC
:1023E000C4540133F9E78B5C8354013AFBD210BD2E
:1023F000002370B5064D040008002B6000F056F86D
:10240000431C03D12B68002B00D0236070BDC04655
:10241000A0020020C9B28218904201D1002070476A
:1024200003788B42FBD00130F6E7002310B59A42C7
:1024300000D110BDCC5CC4540133F8E7F7B50600F9
:102440000C001500002905D11100FFF755FC040010
:102450002000FEBD002A03D1FFF7E2FB2C00F7E7C6
:1024600000F01CF80700854202D84308AB42EFD3C6
:1024700029003000FFF740FC0190002801D1019CA9
:10248000E6E72A00BD4200D93A0021000198FFF793
:10249000CCFF21003000FFF7C3FBF0E70B1F1B68E8
:1024A000181F002B01DA0B58C0187047044A0300AC
:1024B0001068002802D0C318136070470148FAE77B
:1024C000B0020020B8020020F8B5C046F8BC08BC35
:1024D0009E467047F8B5C046F8BC08BC9E4670479B
:1024E0002530325825303258253032582530325870
:1024F0000D0A0000000000000102030400000000BB
:102500000000000001020304060708090102030499
:1025100005060708090A0B0C0D0E0F10020304052F
:10252000060708090A0B0C0D0E0F1010232D302B77
:102530002000686C4C0065666745464700303132C4
:10254000333435363738394142434445460030311B
:10255000323334353637383961626364656600007A
:042560002502000848
:04256400FD0100086D
:1025680000127A00010000000400000010000020A2
:102578000000000068010020D0010020380200207F
:102588000000000000000000000000000000000043
:102598000000000000000000000000000000000033
:1025A8000000000000000000000000000000000023
:0C25B80000000000000000000000000017
:0400000508001B31A3
:00000001FF
