:020000040800F2
:10000000000001203D100008DD020008DF020008AA
:10001000E1020008E3020008E50200080000000019
:10002000000000000000000000000000E7020008DF
:10003000E902000800000000EB020008ED020008E1
:100040008D1000088D1000088D1000088D1000081C
:100050008D1000088D1000088D1000088D1000080C
:100060008D1000088D1000088D1000088D100008FC
:100070008D1000088D1000088D1000088D100008EC
:100080008D1000088D1000088D1000088D100008DC
:100090008D1000088D1000088D1000088D100008CC
:1000A0008D1000088D1000088D1000088D100008BC
:1000B0008D10000800000000000000008D100008F6
:1000C0008D10000800000000000000008D100008E6
:1000D000000000008D1000088D10000800000000D6
:1000E0008D1000088D1000080000000000000000C6
:1000F0000000000000000000000000000000000000
:100100000000000000000000000000008D1000084A
:1001100000000000000000008D1000088D10000895
:100120008D1000088D1000088D1000088D1000083B
:100130008D1000080000000000000000000000001A
:100140008D1000088D1000088D1000088D1000081B
:100150008D1000088D1000088D1000088D1000080B
:100160008D1000088D1000088D10000800000000A0
:100170008D1000088D100008000000000000000035
:100180008D1000088D1000088D1000080000000080
:1001900010B5054C237833B9044B13B10448AFF3C1
:1001A00000800123237010BD10000020000000001B
:1001B000E810000808B5034B1BB103490348AFF32F
:1001C000008008BD0000000014000020E8100008B6
:1001D00010B586B00024019402940394049405940D
:1001E0000E4BDA6C42F00102DA64DB6C03F00103BF
:1001F0000093009B224618214FF0904000F024FA13
:1002000018230193012302930394049401A94FF04E
:10021000904000F041F906B010BD00BF0010024050
:1002200072B6FEE700B597B04422002105A800F0A1
:100230002EFF0023009301930293039304934FF442
:10024000007000F017FAD0B91023059301230B9327
:1002500000230C9360220D920F9305A800F0F4FA8E
:1002600078B90F2300930021019102910391049129
:10027000684600F01FFE30B917B05DF804FBFFF7C9
:10028000CFFFFFF7CDFFFFF7CBFF08B500F064F815
:10029000FFF7C8FFFFF79CFF08214FF0904000F0E8
:1002A000D8F94FF47A7000F079F8F5E782B00A4B8C
:1002B0001A6E42F001021A661A6E02F001020092F2
:1002C000009A9A6D42F080529A659B6D03F08053BC
:1002D0000193019B02B0704700100240FEE7FEE769
:1002E000FEE7FEE7FEE770477047704708B500F08D
:1002F00043F808BD034AD2F8883043F47003C2F8CB
:100300008830704700ED00E0104B1B780BB90120DE
:10031000704710B504464FF47A70B0FBF3F30C4A03
:100320001068B0FBF3F000F0A3F868B90F2C01D906
:1003300001200AE0002221464FF0FF3000F088F84B
:10034000044B1C60002000E0012010BD04000020D0
:10035000000000200800002010B5032000F066F81F
:100360000F20FFF7D1FF10B10124204610BD044635
:10037000FFF79CFFF9E70000034B1B78034A116865
:100380000B441360704700BF040000202C000020C5
:10039000014B1868704700BF2C00002038B5044698
:1003A000FFF7F6FF0546B4F1FF3F02D0044B1B7880
:1003B0001C44FFF7EDFF401BA042FAD338BD00BF3D
:1003C00004000020002808DB0901C9B200F16040E8
:1003D00000F5614080F80013704700F00F0009013C
:1003E000C9B2014B1954704714ED00E000B500F09C
:1003F0000700C0F1070CBCF1040F28BF4FF0040C3C
:10040000031D062B0FD9C31E4FF0FF3E0EFA0CF052
:1004100021EA000199400EFA03FE22EA0E0241EAA7
:1004200002005DF804FB0023EEE70000074AD368F2
:1004300023F4E0631B041B0C000200F4E0600343A0
:1004400043F0BF6343F40033D360704700ED00E036
:1004500010B50446054BD868C0F30220FFF7C6FF6D
:1004600001462046FFF7AEFF10BD00BF00ED00E0E3
:100470000138B0F1807F0BD24FF0E0235861054A7C
:10048000F02182F823100020986107221A6170473A
:100490000120704700ED00E0F0B583B0002362E07A
:1004A00085685E000324B44025EA0405CC68B440A6
:1004B0002C438460456825EA0C054C68C4F300149D
:1004C0009C402C4344605FE0DD08083550F825402F
:1004D00003F0070C4FEA8C0C4FF00F0E0EFA0CFED7
:1004E00024EA0E0E0C6904FA0CF444EA0E0440F8F7
:1004F000254060E0022400E0002404FA0EF42C43BE
:100500000CF1020C4C4D45F82C404C4CA568D443E2
:1005100025EA02064F6817F4801F01D042EA05065B
:10052000464DAE60ED6804EA05064F6817F4001FFB
:1005300001D042EA0506414DEE606D6804EA050609
:100540004F6817F4003F01D042EA05063B4D6E604C
:100550002D682C404E6816F4803F01D042EA050415
:10056000364A146001330A6832FA03F462D04FF05D
:10057000010C0CFA03FC1CEA0202F3D04C6804F0F4
:100580000304013C012C8BD94C6804F00304032CB8
:100590000CD0C4685D004FF0030C0CFA05FC24EA93
:1005A0000C0C8C68AC4044EA0C04C4604C6804F049
:1005B0000304022C88D004684FEA430E4FF0030C6A
:1005C0000CFA0EFC24EA0C0C4C6804F0030404FA48
:1005D0000EF444EA0C0404604C6814F4403FC1D0AB
:1005E000174C256E45F001052566246E04F00104C4
:1005F0000194019C4FEA930C0CF102050E4C54F847
:10060000255003F0030E4FEA8E0E0F2404FA0EF469
:1006100025EA0405B0F1904F3FF46EAF094CA042BB
:1006200006D004F58064A0423FF464AF072464E779
:10063000012462E703B0F0BD000001400004014066
:1006400000100240000400480AB1816170478162D5
:100650007047436901EA030221EA030141EA0241CA
:1006600081617047024B186800F4C060704700BF9A
:1006700000700040B0F5007F0FD01F4B1B6803F4E3
:10068000C063B3F5806F34D01B4A136823F4C06392
:1006900043F48063136000207047174B1B6803F41A
:1006A000C063B3F5007F20D0134A136823F4C063FE
:1006B00043F400731360114B1B68322202FB03F3F7
:1006C0000F4AA2FB03239B0C013300E0013B0A4AC3
:1006D000526912F4806F01D0002BF7D1064B5B6991
:1006E00013F4806F03D1002070470020704703206F
:1006F00070470020704700BF0070004000000020DD
:1007000083DE1B4330B583B00446204B9B6D13F052
:10071000805F0BD0FFF7A6FFB0F5007F17D0802CCD
:100720001FD82DD0702C2DD000211BE0174DAB6DA4
:1007300043F08053AB65AB6D03F080530193019B95
:10074000FFF790FFAB6D23F08053AB65E4E7802C9F
:1007500003D9A02C03D9022104E0002102E00121E9
:1007600000E003210A4A136823F007030B431360D8
:10077000136803F007038B4206D1002003B030BD9D
:100780000221EFE70121EDE70120F7E70010024029
:1007900000200240284A9368D26802F0030213F056
:1007A0000C030AD00C2B06D0042B1FD0082B20D012
:1007B0000020024610E0012AF6D11F4A126812F00A
:1007C000080F0CD11C4AD2F89420C2F303221B4913
:1007D00051F8222043B100200C2B0DD07047164A4F
:1007E0001268C2F30312F2E71046F5E7144800223C
:1007F000F2E714480022EFE70F4BDB6803F0030336
:10080000022B03D0032B02D10E4A00E00C4A0A4906
:10081000CB68C3F302130133C868C0F3062002FBA0
:1008200000F0B0FBF3F0CB68C3F3416301335B002E
:10083000B0FBF3F0D2E700BF001002400011000847
:100840000024F40000127A00002800F01C83F0B5A8
:1008500083B00446964B9D6805F00C05DE6806F0F3
:100860000306036813F0100F5AD0E5B10C2D18D011
:10087000A369002B00F0BB808D4A136843F001038D
:100880001360FFF785FD0746894B1B6813F0020FC5
:1008900040F09A80FFF77CFDC01B0228F4D90320AA
:1008A000FCE2012EE4D1824B1B6813F0020F03D04F
:1008B000A369002B00F0E982206A7D4B1B6813F0CE
:1008C000080F5BD07A4B1B6803F0F00398425CD8AA
:1008D000774B1A6842F008021A601A6822F0F00298
:1008E000216A0A431A605A6822F47F42E16942EAA7
:1008F00001225A60002D60D0FFF74CFF6C4B9B68C3
:10090000C3F303136B4AD35C03F01F03D8406A4B55
:1009100018606A4B1868FFF7F7FC002840F0BE82A9
:10092000236813F0010F00F08180082D75D00C2D85
:1009300071D06368B3F5803F00F09780B3F5A02FC6
:1009400000F099805A4B1A6822F480321A601A68B3
:1009500022F480221A606368002B00F09980FFF770
:1009600017FD0746524B1B6813F4003F5ED1FFF79B
:100970000FFDC01B6428F5D903208FE24C4BD3F840
:1009800094301B0903F0F003A0E7FFF7BBFE00283B
:1009900040F07D82464B1A6842F008021A601A68DD
:1009A00022F0F002216A0A431A605A6822F47F4258
:1009B000E16942EA01225A609EE7206AFFF7A2FE3F
:1009C000002899D0012069E2394B1A6842F00802E8
:1009D0001A601A6822F0F002216A0A431A605A6803
:1009E00022F47F42E16942EA01225A6098E7304AE4
:1009F000136823F001031360FFF7CAFC07462C4B72
:100A00001B6813F0020F8BD0FFF7C2FCC01B02283B
:100A1000F5D9032042E2032E8BD1254B1B6813F43A
:100A2000003F03D06368002B00F03382236813F08B
:100A3000020F58D0042D45D00C2D41D0E368002B77
:100A400077D01B4A136843F480731360FFF7A0FC50
:100A50000646174B1B6813F4806F61D1FFF798FCB3
:100A6000801B0228F5D9032018E2114A136843F4C9
:100A7000803313606FE703F18043A3F53C331A68BA
:100A800042F480221A601A6842F480321A6062E7E7
:100A9000FFF77EFC0746064B1B6813F4003FC5D0EA
:100AA000FFF776FCC01B6428F5D90320F6E100BFF0
:100AB0000010024030110008000000200800002053
:100AC000022EBBD1A44B1B6813F4806F03D0E368E4
:100AD000002B00F0E081A04A536823F0F85321690D
:100AE00043EA01635360236813F0080F4CD0636935
:100AF0009BB3994AD2F8943043F00103C2F8943082
:100B0000FFF746FC0646944BD3F8943013F0020FDF
:100B10003AD1FFF73DFC801B0228F4D90320BDE148
:100B20008D4A536823F0F853216943EA0163536007
:100B3000D9E7894A136823F480731360FFF728FC10
:100B40000646854B1B6813F4806FCCD0FFF720FC62
:100B5000801B0228F5D90320A0E17F4AD2F8943007
:100B600023F00103C2F89430FFF712FC06467A4BDB
:100B7000D3F8943013F0020F06D0FFF709FC801B66
:100B80000228F4D9032089E1236813F0040F7AD0F6
:100B9000714B9B6D13F0805F36D16F4B9A6D42F0B5
:100BA00080529A659B6D03F080530193019B01264F
:100BB0006A4B1B6813F4807F28D0A368012B39D0BF
:100BC000052B3FD0644BD3F8902022F00102C3F8EC
:100BD0009020D3F8902022F00402C3F89020A3685C
:100BE000002B3DD0FFF7D4FB07465B4BD3F890308A
:100BF00013F0020F46D1FFF7CBFBC01B41F2883345
:100C00009842F2D9032049E10026D1E7534A1368FC
:100C100043F480731360FFF7BBFB07464F4B1B6821
:100C200013F4807FC9D1FFF7B3FBC01B0228F5D9AD
:100C3000032033E1484AD2F8903043F00103C2F870
:100C40009030CCE7444BD3F8902042F00402C3F834
:100C50009020D3F8902042F00102C3F89020BEE724
:100C6000FFF796FB07463C4BD3F8903013F0020F8A
:100C700008D0FFF78DFBC01B41F288339842F2D9B0
:100C800003200BE1E6B9236813F0200F35D0636A27
:100C9000E3B1314AD2F8983043F00103C2F89830FA
:100CA000FFF776FB06462C4BD3F8983013F0020F73
:100CB00023D1FFF76DFB801B0228F4D90320EDE060
:100CC000254A936D23F080539365DCE7224AD2F8DE
:100CD000983023F00103C2F89830FFF759FB06461D
:100CE0001D4BD3F8983013F0020F06D0FFF750FBDE
:100CF000801B0228F4D90320D0E0A36A002B00F067
:100D0000CC80022B17D00C2D00F0CC80124A136837
:100D100023F080731360FFF73BFB04460E4B1B6808
:100D200013F0007F00F0A880FFF732FB001B0228C1
:100D3000F4D90320B2E0084BDB6803F00301E26A58
:100D400091420DD00C2D00F0AB80034B1B6813F0CB
:100D5000806F2FD00120A1E0001002400070004001
:100D600003F07002216B0139B2EB011FEAD103F4E9
:100D7000FE42616BB2EB012FE4D103F07842A16B2C
:100D8000B2EBC16FDED103F4C001E26B5208013A4D
:100D9000B1EB425FD6D103F0C063226C5208013A36
:100DA000B3EB426FCED1404B1B6813F0007F49D0AC
:100DB000002073E03C4A136823F080731360FFF750
:100DC000E7FA0546384B1B6813F0007F06D0FFF7A3
:100DD000DFFA401B0228F5D903205FE0324AD368CE
:100DE00032491940E36A206B013843EA0013606B13
:100DF00043EA0023E06B4008013843EA4053206C8B
:100E00004008013843EA4063A06B43EAC0631943DA
:100E1000D160136843F080731360D36843F080732C
:100E2000D360FFF7B5FA04461F4B1B6813F0007F31
:100E300006D1FFF7ADFA001B0228F5D903202DE0FB
:100E400000202BE0184B1A6842F080721A60DA68B2
:100E500042F08072DA60FFF79BFA0446124B1B687F
:100E600013F0007F06D1FFF793FA031B022BF5D98D
:100E7000032013E0002011E00B4AD1680C4B0B401B
:100E8000D36000200AE001207047012006E0012025
:100E900004E0012002E0012000E0002003B0F0BDEA
:100EA0000120FBE70120F9E7001002408C809D0142
:100EB000FCFFEEFE002800F0AF8070B50D46044642
:100EC000594B1B6803F007038B420BD2564A136839
:100ED00023F007030B431360136803F007038B42EF
:100EE00040F09C80236813F0020F0CD0A2684F4B97
:100EF0009B6803F0F0039A4205D94C498B6823F0B4
:100F0000F0031A438A60236813F0010F39D0636835
:100F1000032B09D0022B26D063BB444A126812F07F
:100F2000020F06D1012076E0404A126812F0007FDD
:100F300076D03E498A6822F0030213438B60FFF7A4
:100F400027FA0646394B9B6803F00C036268B3EB43
:100F5000820F16D0FFF71CFA801B41F288339842AB
:100F6000F0D9032057E0314A126812F4003FE0D173
:100F7000012050E02D4A126812F4806FD9D101206F
:100F800049E0236813F0020F0CD0A268274B9B683E
:100F900003F0F0039A4205D224498B6823F0F00352
:100FA0001A438A60204B1B6803F00703AB420AD93F
:100FB0001D4A136823F007032B431360136803F0E3
:100FC0000703AB422ED1236813F0040F06D0174A53
:100FD000936823F4E063E1680B439360236813F0A4
:100FE000080F07D0114A936823F46053216943EA3C
:100FF000C1039360FFF7CEFB0C4B9B68C3F3031355
:101000000B4AD35C03F01F03D8400A4B18600A4B0D
:101010001868FFF779F970BD012070470120FAE7E1
:101020000120F8E70120F6E700200240001002400E
:10103000301100080000002008000020DFF834D044
:10104000FFF758F90C480D490D4A002302E0D45827
:10105000C4500433C4188C42F9D30A4A0A4C002302
:1010600001E013600432A242FBD300F019F8FFF74D
:101070000CF9FEE700000120000000201000002015
:10108000501100081000002030000020FEE702444C
:101090000346934200D1704703F8011BF9E70000B3
:1010A00070B50D4D0D4C641BA4100026A64209D14D
:1010B0000B4D0C4C00F018F8641BA4100026A6423F
:1010C00005D170BD55F8043B98470136EEE755F859
:1010D000043B98470136F2E7401100084011000830
:1010E0004011000844110008F8B500BFF8BC08BC66
:1010F0009E467047F8B500BFF8BC08BC9E467047D6
:10110000A0860100400D0300801A060000350C0087
:1011100040420F0080841E0000093D0000127A004A
:101120000024F40000366E010048E801006CDC0287
:101130000000000000000000010203040607080987
:08114000B501000800000000E9
:08114800910100080000000005
:1011500000093D0001000000100000000000000038
:040000050800103DA2
:00000001FF
