:020000040800F2
:10000000002000206D190008D5050008D70500085C
:1000100000000000000000000000000000000000E0
:10002000000000000000000000000000D9050008EA
:100030000000000000000000DB050008DD050008EE
:10004000BD190008BD190008BD190008BD19000838
:10005000BD190008BD190008BD190008BD19000828
:10006000BD190008BD190008E5050008F5050008E0
:10007000BD190008BD190008BD190008BD19000808
:10008000BD190008BD19000800000000BD190008D6
:10009000BD190008BD190008BD190008BD190008E8
:1000A000BD190008BD190008BD190008BD190008D8
:1000B000BD19000800000000BD1900080000000084
:1000C0000023C25C0133002AFBD1581E7047000098
:1000D000002243088B4274D303098B425FD3030A87
:1000E0008B4244D3030B8B4228D3030C8B420DD39A
:1000F000FF22090212BA030C8B4202D31212090228
:1001000065D0030B8B4219D300E0090AC30B8B4265
:1001100001D3CB03C01A5241830B8B4201D38B0313
:10012000C01A5241430B8B4201D34B03C01A5241B8
:10013000030B8B4201D30B03C01A5241C30A8B42FB
:1001400001D3CB02C01A5241830A8B4201D38B02E6
:10015000C01A5241430A8B4201D34B02C01A52418A
:10016000030A8B4201D30B02C01A5241CDD2C309FC
:100170008B4201D3CB01C01A524183098B4201D378
:100180008B01C01A524143098B4201D34B01C01A63
:10019000524103098B4201D30B01C01A5241C308DB
:1001A0008B4201D3CB00C01A524183088B4201D34A
:1001B0008B00C01A524143088B4201D34B00C01A36
:1001C0005241411A00D20146524110467047FFE7A2
:1001D00001B5002000F006F802BDC0460029F7D0A6
:1001E00076E770477047C04610B5064C2378002B61
:1001F00007D1054B002B02D0044800E000BF0123CB
:10020000237010BD2400002000000000181A000810
:10021000044B10B5002B03D00349044800E000BF95
:1002200010BDC0460000000028000020181A000879
:10023000F0B589B01422002103A801F0C0FB184BCF
:100240005A69802189020A435A615A690A40019217
:10025000019A5A69802109030A435A615B690B407C
:100260000293029BC427BF000E4D002239002800D4
:1002700000F02AFC0126039690235B0304930024DC
:100280000594902003A9C00500F05AFB039704963B
:100290000594069403A9280000F052FB09B0F0BDB4
:1002A000001002400008004800B583B00D4A5169B3
:1002B000012319435161526913400193019B0022AC
:1002C00000210A2000F048FA0A2000F049FA002232
:1002D00000210B2000F040FA0B2000F041FA03B09F
:1002E00000BDC04600100240014B01221A60704759
:1002F0000000002072B6FEE710B50B480B4B036000
:10030000E1235B02436000238360C36003610C222E
:1003100042618361C3610362436201F0F1FA002824
:1003200000D110BDFFF7E6FF840000200038014037
:1003300010B51048104B036082235B00436000231C
:100340008360E022D200C260036143618022920098
:100350008261F93AFF3AC261036243628362072114
:10036000C1620363426300F07FFF002800D110BD2B
:10037000FFF7C0FF500100200030014000B597B0EA
:10038000302200210AA801F01AFB1022002106A841
:1003900001F015FB1422002101A801F010FB02233B
:1003A0000A9301220D920F320E921293A0239B0307
:1003B00014930AA800F096FB002817D10723069390
:1003C000053B0793002308930993012106A800F039
:1003D00001FE00280CD1012301930023039301A8FF
:1003E00000F0A8FE002805D117B000BDFFF782FF7E
:1003F000FFF780FFFFF77EFF10B500F02DF9FFF744
:10040000BDFFFFF715FFFFF74FFFFFF775FFFFF782
:100410008FFF14E00C4C2000FFF752FE82B20B4815
:10042000210000F0E3FF0A4B00221A6080214900FE
:10043000084800F04FFBFA20400000F02FF9044B71
:100440001B68012BE6D0F1E70400002084000020A7
:10045000000000200008004882B00A4B9969012280
:100460001143996199690A400092009ADA698021E2
:1004700049050A43DA61DB690B400193019B02B035
:100480007047C0460010024010B588B00400142226
:10049000002103A801F093FA22681D4B9A4201D073
:1004A00008B010BD1B4B9A69802149010A439A612B
:1004B0009A690A400192019A5A69802189020A4385
:1004C0005A615B690B400293029BE0230393DE3B7E
:1004D000049301330693902003A9C00500F030FA7D
:1004E0000D480E4B03600023436083608022C2608E
:1004F000036143618361C36100F06AF9002803D19D
:10050000054BA3655C62CBE7FFF7F4FEF8E7C04656
:1005100000300140001002400C0100201C0002408D
:1005200010B588B004001422002103A801F047FA96
:100530002268234B9A4201D008B010BD214B9A6922
:100540008021C9010A439A619A690A400192019A7D
:100550005A69802189020A435A615B690B40029300
:10056000029BC023DB000393022304930133069311
:10057000023B0793902003A9C00500F0E1F912485F
:10058000124B036010234360002383608022C2600B
:1005900003614361836180239B01C36100F018F90B
:1005A000002809D10A4A116880239B000B4313607D
:1005B000054B23675C62BFE7FFF79CFEF2E7C0468E
:1005C000003801400010024040000020440002407A
:1005D00000000140FEE7FEE77047704710B500F0ED
:1005E0004BF810BD10B5024800F055F910BDC046DB
:1005F0000C01002010B5024800F04DF910BDC046B6
:10060000400000207047000010B504000F4B19781F
:10061000FA208000FFF75CFD01000D4B1868FFF722
:1006200057FD00F0A9F800280DD1032C01D90120B5
:100630000AE0013000222100404200F08DF8054B15
:100640001C60002000E0012010BDC0461C000020FE
:10065000180000202000002010B5064A1368102161
:100660000B4313600020FFF7CFFFFFF7F5FE0020DC
:1006700010BDC04600200240034A1168034B1B789E
:100680005B1813607047C046B40100201C000020B6
:10069000014B18687047C046B401002070B50400D3
:1006A000FFF7F6FF0500631C02D0044B1B78E4182B
:1006B000FFF7EEFF401BA042FAD370BD1C000020E4
:1006C00070B5002811DB8308134DC0339B005C59C3
:1006D00003221040C000FC3216008640B44389015A
:1006E0000A40824022435A5170BD0F230340083B09
:1006F0009B0806339B00094A944663445C680322C6
:100700001040C000FC3215008540AC4389010A400E
:10071000824022435A60E7E700E100E000ED00E09C
:10072000013880235B0498420FD2094A506009487F
:10073000036A1B021B0AC02109060B430362002344
:10074000936007331360002070470120FCE7C04628
:1007500010E000E000ED00E010B5FFF7B1FF10BDC4
:10076000002805DB1F22024001239340014A136049
:100770007047C04600E100E010B5FFF7D1FF10BDA3
:1007800070B5066CC56B0124B4406C60046863608E
:100790004368102B04D0036899600368DA6070BD69
:1007A00003689A600368D960F9E7000010B5040097
:1007B0000068054B9C4660441421FFF789FC8000CB
:1007C0002064024BE36310BDF8FFFDBF0000024050
:1007D00070B5041E20D021250223435501680A6804
:1007E0000E4B1A40436880680343E0680343206966
:1007F000034360690343A0690343E0690343134370
:100800000B602000FFF7D2FF0023A3630122625593
:100810001F32A354002070BD0120FCE70FC0FFFF72
:1008200070B504002020205C012832D02020012552
:1008300025540130205C012804D020230022E254FA
:10084000022070BD2030013525540020A0632568AA
:1008500028680126B04328602000FFF791FFE36A73
:10086000002B0BD0226813680E210B431360226803
:10087000136801210B4313600020E2E7226813682C
:100880000A210B4313602268136806398B431360F7
:10089000EDE70220D5E770B5C36B1A6804682568D8
:1008A000016C04238B401A4212D06B0710D52368C9
:1008B0009B0603D42368042293432360016CC26B1C
:1008C00004238B405360C36A002B00D0984770BD4F
:1008D00002238B401A4218D0AB0716D523689B061B
:1008E00006D423680A22934323602123093AC25481
:1008F000016CC26B02238B40536020230022C25440
:10090000836A002BE3D09847E1E708238B401A4223
:10091000DDD02D07DBD523680E2293432360016CC5
:10092000C26B01231C008C405460836321228354DA
:100930001F330022C254036B002BC8D09847C6E770
:10094000F0B583B0002356E086685F000324BC4006
:10095000A643CC68BC4034438460446894434E68EA
:100960003609012232409A402243426053E0DE08B9
:100970000836B600375805321A4092000F249440CA
:10098000A7430C69944022003A43325056E00326B4
:1009900000E00026A64034003C4302329200444E60
:1009A0009451444A9768EA433E00AE434C68E402DF
:1009B00001D53E002E433F4CA660E7683E0016403E
:1009C0004C68A40201D53E002E433A4CE6606768AD
:1009D0003E0016404C68A40301D53E002E43354C22
:1009E0006660266832404C68E40301D52A00324331
:1009F000304C226001330C682200DA4056D00122CC
:100A00009A40250015401442F4D04E680324344027
:100A1000013C012C98D94C6803222240032A08D0BB
:100A2000C4685E000322B24094438A68B240224305
:100A3000C2604C6803222240022A98D004685E00FB
:100A400003221700B740BC434F683A40B2402243EC
:100A500002604C68C02292021442CBD0164CA669A8
:100A600001221643A661A46922400192019A9A08C4
:100A7000941CA4000E4EA75903241C40A4000F266A
:100A8000A640B7439026F605B04282D00B4EB04246
:100A900008D00B4EB04207D00A4EB04200D176E7E4
:100AA000052677E7012675E7022673E703B0F0BD58
:100AB0000000014000040140001002400004004812
:100AC00000080048000C0048002A01D081617047EE
:100AD0008162FCE7426913000B401B0491430B4306
:100AE0008361704770B582B0041E00D12EE20368A6
:100AF000DB0726D5AE4B5A680C231340042B18D0C5
:100B0000AB4B5A680C231340082B0ED06368012BA3
:100B10003CD0002B51D1A64B1A68A6490A401A6056
:100B20001A68A5490A401A6036E0A14B5B68DB03EE
:100B3000ECD59F4B1B689B0303D56368002B00D14A
:100B400007E223689B0772D5994B5B680C221A4217
:100B50005DD0974B5A680C231340082B53D0E368A1
:100B6000002B00D185E0924A136801210B431360EA
:100B7000FFF78EFD05008E4B1B689B0770D4FFF7B7
:100B800087FD401B0228F6D90320E0E1884A11685E
:100B900080235B020B4313606368002B25D0FFF7B3
:100BA00077FD0500824B1B689B03CAD4FFF770FDDD
:100BB000401B6428F6D90320C9E1052B09D07C4BE2
:100BC0001A687C490A401A601A687B490A401A6010
:100BD000E2E7774B19688022D2020A431A6019684B
:100BE000802252020A431A60D6E7FFF751FD050042
:100BF0006F4B1B689B03A4D5FFF74AFD401B64287D
:100C0000F6D90320A3E16A4B5B68DB03A7D4684BEA
:100C10001B689B0703D5E368012B00D09BE1644967
:100C20000B68F82293432269D20013430B602368B8
:100C30001B0744D5E369002B2ED05D4A536A01217E
:100C40000B435362FFF724FD0500594B5B6A9B077A
:100C500035D4FFF71DFD401B0228F6D9032076E1AD
:100C600053490B68F82293432269D20013430B6067
:100C7000DDE74F4A136801218B431360FFF708FD3E
:100C800005004B4B1B689B07D1D5FFF701FD401BAF
:100C90000228F6D903205AE1454A536A01218B43C1
:100CA0005362FFF7F5FC0500414B5B6A9B0706D5D5
:100CB000FFF7EEFC401B0228F6D9032047E123682A
:100CC0005B0700D480E03A4BDB69DB001DD4384B76
:100CD000DA69802149050A43DA61DB690B40019337
:100CE000019B0125354B1B68DB0510D5A368012B43
:100CF00021D0002B36D12E4B1A6A01218A431A6269
:100D00001A6A03318A431A621AE00025EAE72B4A7D
:100D1000116880235B000B431360FFF7B9FC0600EA
:100D2000264B1B68DB05E1D4FFF7B2FC801B64286F
:100D3000F6D903200BE11E4A136A01210B4313620B
:100D4000A368002B24D0FFF7A3FC0600184B1B6AF6
:100D50009B0737D4FFF79CFC801B194B9842F5D9B1
:100D60000320F4E0052B09D0114B1A6A01218A43B4
:100D70001A621A6A03318A431A62E1E70C4B1A6A53
:100D800004210A431A621A6A03390A431A62D7E72E
:100D9000FFF77EFC0600064B1B6A9B0712D5FFF788
:100DA00077FC801B064B9842F5D90320CFE0C04664
:100DB00000100240FFFFFEFFFFFFFBFF007000403E
:100DC00088130000012D33D02368DB0610D563693A
:100DD000012B33D0053351D1654A536B04218B432A
:100DE0005363536BF4318B43A169C9000B435363C5
:100DF000236A002B00D1B0E05D4A51680C220A4002
:100E0000082A00D18AE0022B4FD0594A1368594969
:100E10000B401360FFF73CFC0400554B1B689B0123
:100E20007AD5FFF735FC001B0228F6D903208EE0A7
:100E30004F4AD36950490B40D361C5E74C4B5A6BBD
:100E400004210A435A635A6B03390A435A63FFF772
:100E50001FFC0500464B5B6B9B0706D4FFF718FC95
:100E6000401B0228F6D9032071E041494B6BF82260
:100E70009343A269D20013434B63B9E73C4B5A6BCF
:100E800004210A435A635A6B03398A435A63FFF7B2
:100E9000FFFB0500364B5B6B9B07A9D5FFF7F8FB03
:100EA000401B0228F6D9032051E0314A136831492A
:100EB0000B401360FFF7ECFB05002D4B1B689B01FB
:100EC00006D5FFF7E5FB401B0228F6D903203EE0DC
:100ED000274BDA6A0F218A43E16A0A43DA625A68C9
:100EE00026490A40A16A606A01430A435A601968A8
:100EF000802252040A431A60FFF7CAFB04001C4B0D
:100F00001B689B0106D4FFF7C3FB001B0228F6D920
:100F100003201CE000201AE0002018E0012B1ED066
:100F2000134B5A68D86A80235B021340616A8B4274
:100F300017D10F230340E16A8B4214D1F0239B03A6
:100F40001A40A36A9A4210D1002000E0012002B0AA
:100F500070BD0120FBE70120F9E70020F7E7012041
:100F6000F5E70120F3E70120F1E70120EFE7C046B4
:100F700000100240FFFFFFFEFFFFFFEFFFFFC2FF79
:100F800010B5104B5A680C231340082B01D00E48A3
:100F900010BD910C073319400C48445C0949C96ADB
:100FA0000B400B49C95CD20304D50748FFF790F802
:100FB0006043EDE76201121B93019B1ADB001B19D2
:100FC0001802E5E70010024000127A00581A0008E3
:100FD000481A000870B504000D00002800D17EE01A
:100FE000434B1A68012313408B420AD240490B68D5
:100FF000012293432B430B600B681A40AA4200D096
:101000006FE023689A070ED55B0705D5394A51680A
:10101000E023DB000B435360364A5368F0218B43D7
:10102000A1680B4353602368DB072DD56368012B50
:101030001ED0022B22D02F4A1268920753D52D4979
:101040004A680320824313434B60FFF721FB0600ED
:10105000284B5B680C221A4063689B009A4213D0AD
:10106000FFF716FB801B244B9842F1D9032035E093
:10107000204A12689203E2D401202FE01D4A126830
:101080009201DCD4012029E0194B1A680123134096
:10109000AB4209D916490B68012293432B430B60DD
:1010A0000B681A40AA4220D123685B0706D5114A73
:1010B000536812490B40E1680B435360FFF760FF30
:1010C0000C4B5A6812090F2313400D4AD35CD840C9
:1010D0000C4B18600020FFF797FA002070BD01202C
:1010E000FCE70120FAE70120F8E70120F6E7C04617
:1010F000002002400010024088130000FFF8FFFFAC
:10110000381A000818000020014B18687047C046C4
:101110001800002010B5FFF7F7FF044B5A68120AB9
:1011200007231340024AD35CD84010BD0010024090
:10113000301A000870B582B004000368DB0339D5AB
:10114000434BDB69DB0055D4414BDA69802149050B
:101150000A43DA61DB690B400193019B01253D4B9A
:101160001B68DB0548D53A4B1A6AC0239B00110067
:1011700019401A4215D06368C022920013408B4276
:101180000FD0334B1A6A344911401E6A8020400246
:1011900030431862186A314E304018621962D20723
:1011A0003ED42B4A136A2C490B4061680B431362EF
:1011B000012D44D02368DB0706D5254A136B032194
:1011C0008B43A1680B43136323689B0606D5204A13
:1011D000136B10218B43E1680B43136323685B059A
:1011E00032D51B4A136B40218B4321690B43136398
:1011F00000202AE00025B2E7164A116880235B0030
:101200000B431360FFF744FA0600124B1B68DB0523
:10121000A9D4FFF73DFA801B6428F6D9032014E017
:10122000FFF736FA06000A4B1B6A9B07B9D4FFF793
:101230002FFA801B0A4B9842F5D9032005E0D369A9
:1012400008490B40D361B5E7002002B070BDC0462D
:101250000010024000700040FFFCFFFFFFFFFEFF98
:1012600088130000FFFFFFEF70B5041E00D178E087
:10127000436A002B07D142680533FF339A4205D0F9
:101280000023C36102E00023036143610023A362E2
:101290005D33E35C002B5AD05D230222E2542268C6
:1012A000136840218B431360E368E022D20093422D
:1012B00054D90022F02109018B4205D0E021C90058
:1012C0008B4201D00023A3626368822149000B4056
:1012D000A1688420000201400B43206902210140E3
:1012E0000B436069012108400343A0698025AD00DC
:1012F00028400343E569382028400343256A8020BD
:1013000028400343A06A8025AD0128402568034397
:101310002B60608B04230340656A10202840034340
:10132000656B082028400343E068F0252D01284024
:1013300003432068134343602268D3690A4803408B
:10134000D361002323665D33E154002070BD5C331C
:101350000022E2542000FFF797F89DE78022520117
:10136000A8E70120F2E7C046FFF7FFFF10B5EFF353
:101370001081012383F3108802681368C024A343FB
:10138000136081F310882023C36710BD10B5EFF3FD
:10139000108C012282F3108801680B68124C2340E4
:1013A0000B608CF31088EFF3108C82F310880168C7
:1013B0008B6893438B608CF31088036E012B06D0EF
:1013C00080232022C25000230366836610BDEFF302
:1013D000108183F31088026813683234FF34A3430A
:1013E000136081F31088EBE7DFFEFFFF10B5040008
:1013F0001300C26F202A47D1002947D0002B47D0C5
:10140000806880225201904226D0E1645022A3528B
:101410000232A35232320021A150633AE267226FB6
:10142000002A20D01B499162226F1B49D162226F92
:101430001A491163226F00215163E16C226828323E
:10144000206FFFF7EDF900280DD084231022E25021
:10145000643BE367012018E02269002AD5D1CA075E
:10146000D3D5012011E0236840221A62EFF31081E6
:10147000012383F3108822689368802003439360DC
:1014800081F31088002000E0022010BD0120FCE75D
:101490000120FAE7A1140008EB140008F714000873
:1014A00010B5436A8269202A1AD05222002199522B
:1014B000EFF3108C013181F3108818688268802462
:1014C000A24382608CF31088EFF3108081F31088C0
:1014D0001A6813683F310B43136080F3108810BD06
:1014E0001800FEF701FFFAE7704710B5406AFFF7F2
:1014F000FBFF10BD704770B5446AE16F8023E5586B
:1015000022689268134201D021290ED023689B687B
:101510005B0601D5222D0FD08422A35810210B4346
:10152000A3502000FFF7E6FF70BD2E3B0022E252E1
:101530002000FFF71BFFE9E75A230022E2522000B8
:10154000FFF724FFE8E7000010B504008368026994
:10155000134342691343C269134301680A684E4842
:10156000024013430B60226853684C490B40E1680A
:101570000B435360A369226A1A4321688B68484869
:10158000034013438B602368464A934211D0464A76
:1015900093421FD01023E06980221202904223D090
:1015A000042B6AD04ED8002B53D0022B48D13F4891
:1015B00053E03F4B1A6B03231340022B0CD005D88A
:1015C000002B0BD0012B0BD10333E4E7032B09D104
:1015D000013BE0E70023DEE70823DCE70023DAE74E
:1015E0001023D8E71023D6E7042B26D007D8002BEA
:1015F00009D0022B01D12D4809E0012047E0082B3A
:1016000005D0012043E0FFF785FD002838D04000D9
:1016100061684B08C018FEF75BFD0200103A254BCD
:101620009A422FD882B20F239A434008083B0340C6
:1016300013432268D360002029E0FFF7A1FCE4E710
:10164000012024E0082B02D18020000205E00120C7
:101650001DE0FFF75FFD002816D061684B081818E1
:10166000FEF736FD0200103A124B9A420ED823685C
:101670000004000CD860002009E0FFF781FCEAE7D5
:10168000002004E0012002E0002000E0012000230F
:10169000A366E36610BDC046F369FFFFFFCFFFFFFF
:1016A000FFF4FFFF003801400044004000127A00C0
:1016B00000100240EFFF0000436ADB0706D5026816
:1016C00053682C490B40816A0B435360436A9B0764
:1016D00006D50268536828490B40C16A0B43536022
:1016E000436A5B0706D50268536824490B40016BC7
:1016F0000B435360436A1B0706D5026853682049B1
:101700000B40416B0B435360436ADB0606D502680E
:1017100093681C490B40816B0B439360436A9B06A3
:1017200006D50268936818490B40C16B0B43936060
:10173000436A5B060BD50268536814490B40016C81
:101740000B435360026C80235B039A420AD0436AC6
:101750001B0606D5026853680D490B40816C0B438C
:1017600053607047026853680A490B40416C0B4351
:101770005360ECE7FFFFFDFFFFFFFEFFFFFFFBFFF6
:10178000FF7FFFFFFFEFFFFFFFDFFFFFFFFFEFFF29
:10179000FFFFF7FFFFFF9FFFF8B5CE46474680B536
:1017A00006000D0017009946089B98463368DC69CF
:1017B0002C40641B63425C41BC422FD14346013341
:1017C000F4D0FEF765FF4B46C01A40452BD8434680
:1017D000002B2AD033681A685207E7D5DA69120756
:1017E00010D4DA691205E1D5802212011A623000A4
:1017F000FFF7CCFD84232022F2500C3B0022F25450
:1018000003200CE008241C623000FFF7BFFD842396
:10181000F4500C3B0022F254012000E00020C0BC38
:10182000B946B046F8BD0320F9E70320F7E700000A
:1018300030B583B0040084230022C250FEF728FF95
:10184000050023681B681B070FD423681B685B0710
:1018500029D42023E3678022A350002323666366F4
:10186000083AA354002003B030BD8021224B0093DE
:101870000300002289032000FFF78EFF0028E4D038
:10188000EFF31081012383F310882268136880200E
:101890008343136081F310882023E36758330022C9
:1018A000E2547D38DFE78021134B00932B000022A8
:1018B000C9032000FFF770FF0028CAD0EFF31080A3
:1018C000012282F3108821680B680C4D2B400B60BD
:1018D00080F31088EFF3108082F3108821688B6802
:1018E00093438B6080F3108880231F32E250083BC3
:1018F0000022E2540320B6E7FFFFFF01DFFEFFFFF7
:1019000010B5041E2ED0C36F002B21D02423E36713
:101910002268136801218B4313602000FFF714FE37
:10192000012814D0636A002B18D1226853680E492D
:101930000B405360226893682A218B43936022688E
:10194000136829390B4313602000FFF771FF10BDA6
:1019500078330022C254FEF7E3FDD7E72000FFF7FB
:10196000ABFEE2E70120F2E7FFB7FFFF0D48854637
:10197000FEF748FE0C480D490D4A002302E0D458FA
:10198000C4500433C4188C42F9D30A4A0A4C0023C9
:1019900001E013600432A242FBD300F019F8FEF715
:1019A0002BFDFEE700200020000000202400002086
:1019B000701A000824000020B8010020FEE7030090
:1019C0008218934200D1704719700133F9E7000083
:1019D00070B500260C4C0D4D641BA410A64209D115
:1019E000002600F019F80A4C0A4D641BA410A64208
:1019F00005D170BDB300EB5898470136EEE7B30050
:101A0000EB5898470136F2E7681A0008681A000890
:101A10006C1A0008681A0008F8B5C046F8BC08BC83
:101A20009E467047F8B5C046F8BC08BC9E46704755
:101A3000000000000102030400000000000000009C
:101A4000010203040607080901020304050607084A
:101A5000090A0B0C0D0E0F100203040506070809F6
:081A60000A0B0C0D0E0F101013
:041A6800110200085F
:041A6C00E901000884
:101A70000100000048656C6C6F20686F7720617210
:101A80006520796F753F000000127A0001000000A8
:041A9000040000004E
:040000050800196D69
:00000001FF
